{
  "abi": [
    {
      "type": "function",
      "name": "B_IN_BYTES",
      "inputs": [],
      "outputs": [
        {
          "name": "",
          "type": "uint256",
          "internalType": "uint256"
        }
      ],
      "stateMutability": "view"
    },
    {
      "type": "function",
      "name": "EIP2537_FIELD_ELEMENT_SIZE",
      "inputs": [],
      "outputs": [
        {
          "name": "",
          "type": "uint256",
          "internalType": "uint256"
        }
      ],
      "stateMutability": "view"
    },
    {
      "type": "function",
      "name": "EIP2537_G1_POINT_SIZE",
      "inputs": [],
      "outputs": [
        {
          "name": "",
          "type": "uint256",
          "internalType": "uint256"
        }
      ],
      "stateMutability": "view"
    },
    {
      "type": "function",
      "name": "EIP2537_G2_POINT_SIZE",
      "inputs": [],
      "outputs": [
        {
          "name": "",
          "type": "uint256",
          "internalType": "uint256"
        }
      ],
      "stateMutability": "view"
    },
    {
      "type": "function",
      "name": "FIELD_ELEMENT_SIZE",
      "inputs": [],
      "outputs": [
        {
          "name": "",
          "type": "uint256",
          "internalType": "uint256"
        }
      ],
      "stateMutability": "view"
    },
    {
      "type": "function",
      "name": "G1_ADD",
      "inputs": [],
      "outputs": [
        {
          "name": "",
          "type": "address",
          "internalType": "address"
        }
      ],
      "stateMutability": "view"
    },
    {
      "type": "function",
      "name": "G1_IDENTITY",
      "inputs": [],
      "outputs": [
        {
          "name": "",
          "type": "bytes",
          "internalType": "bytes"
        }
      ],
      "stateMutability": "view"
    },
    {
      "type": "function",
      "name": "G1_IDENTITY_RAW",
      "inputs": [],
      "outputs": [
        {
          "name": "",
          "type": "bytes",
          "internalType": "bytes"
        }
      ],
      "stateMutability": "view"
    },
    {
      "type": "function",
      "name": "G2_ADD",
      "inputs": [],
      "outputs": [
        {
          "name": "",
          "type": "address",
          "internalType": "address"
        }
      ],
      "stateMutability": "view"
    },
    {
      "type": "function",
      "name": "G2_GENERATOR_NEG",
      "inputs": [],
      "outputs": [
        {
          "name": "",
          "type": "bytes",
          "internalType": "bytes"
        }
      ],
      "stateMutability": "view"
    },
    {
      "type": "function",
      "name": "G2_IDENTITY",
      "inputs": [],
      "outputs": [
        {
          "name": "",
          "type": "bytes",
          "internalType": "bytes"
        }
      ],
      "stateMutability": "view"
    },
    {
      "type": "function",
      "name": "G2_IDENTITY_RAW",
      "inputs": [],
      "outputs": [
        {
          "name": "",
          "type": "bytes",
          "internalType": "bytes"
        }
      ],
      "stateMutability": "view"
    },
    {
      "type": "function",
      "name": "HASH_TO_G1_DST",
      "inputs": [],
      "outputs": [
        {
          "name": "",
          "type": "bytes",
          "internalType": "bytes"
        }
      ],
      "stateMutability": "view"
    },
    {
      "type": "function",
      "name": "I2OSP",
      "inputs": [
        {
          "name": "x",
          "type": "uint256",
          "internalType": "uint256"
        },
        {
          "name": "xLen",
          "type": "uint256",
          "internalType": "uint256"
        }
      ],
      "outputs": [
        {
          "name": "",
          "type": "bytes",
          "internalType": "bytes"
        }
      ],
      "stateMutability": "pure"
    },
    {
      "type": "function",
      "name": "L",
      "inputs": [],
      "outputs": [
        {
          "name": "",
          "type": "uint256",
          "internalType": "uint256"
        }
      ],
      "stateMutability": "view"
    },
    {
      "type": "function",
      "name": "MAP_FP_TO_G1",
      "inputs": [],
      "outputs": [
        {
          "name": "",
          "type": "address",
          "internalType": "address"
        }
      ],
      "stateMutability": "view"
    },
    {
      "type": "function",
      "name": "P",
      "inputs": [],
      "outputs": [
        {
          "name": "",
          "type": "bytes",
          "internalType": "bytes"
        }
      ],
      "stateMutability": "view"
    },
    {
      "type": "function",
      "name": "PAIRING_CHECK",
      "inputs": [],
      "outputs": [
        {
          "name": "",
          "type": "address",
          "internalType": "address"
        }
      ],
      "stateMutability": "view"
    },
    {
      "type": "function",
      "name": "S_IN_BYTES",
      "inputs": [],
      "outputs": [
        {
          "name": "",
          "type": "uint256",
          "internalType": "uint256"
        }
      ],
      "stateMutability": "view"
    },
    {
      "type": "function",
      "name": "addG1",
      "inputs": [
        {
          "name": "point0",
          "type": "bytes",
          "internalType": "bytes"
        },
        {
          "name": "point1",
          "type": "bytes",
          "internalType": "bytes"
        }
      ],
      "outputs": [
        {
          "name": "",
          "type": "bytes",
          "internalType": "bytes"
        }
      ],
      "stateMutability": "view"
    },
    {
      "type": "function",
      "name": "addG2",
      "inputs": [
        {
          "name": "point0",
          "type": "bytes",
          "internalType": "bytes"
        },
        {
          "name": "point1",
          "type": "bytes",
          "internalType": "bytes"
        }
      ],
      "outputs": [
        {
          "name": "",
          "type": "bytes",
          "internalType": "bytes"
        }
      ],
      "stateMutability": "view"
    },
    {
      "type": "function",
      "name": "eip2537BytesToFieldElement",
      "inputs": [
        {
          "name": "paddedElement",
          "type": "bytes",
          "internalType": "bytes"
        }
      ],
      "outputs": [
        {
          "name": "fieldElement",
          "type": "bytes",
          "internalType": "bytes"
        }
      ],
      "stateMutability": "pure"
    },
    {
      "type": "function",
      "name": "encodeG1PointForEIP2537",
      "inputs": [
        {
          "name": "uncompressedSignature",
          "type": "bytes",
          "internalType": "bytes"
        }
      ],
      "outputs": [
        {
          "name": "",
          "type": "bytes",
          "internalType": "bytes"
        }
      ],
      "stateMutability": "pure"
    },
    {
      "type": "function",
      "name": "encodeG2PointForEIP2537",
      "inputs": [
        {
          "name": "uncompressedPubkey",
          "type": "bytes",
          "internalType": "bytes"
        }
      ],
      "outputs": [
        {
          "name": "",
          "type": "bytes",
          "internalType": "bytes"
        }
      ],
      "stateMutability": "pure"
    },
    {
      "type": "function",
      "name": "expandMessageXmd",
      "inputs": [
        {
          "name": "message",
          "type": "bytes",
          "internalType": "bytes"
        },
        {
          "name": "dst",
          "type": "bytes",
          "internalType": "bytes"
        },
        {
          "name": "outputLen",
          "type": "uint16",
          "internalType": "uint16"
        }
      ],
      "outputs": [
        {
          "name": "result",
          "type": "bytes",
          "internalType": "bytes"
        }
      ],
      "stateMutability": "pure"
    },
    {
      "type": "function",
      "name": "extractBytes",
      "inputs": [
        {
          "name": "source",
          "type": "bytes",
          "internalType": "bytes"
        },
        {
          "name": "offset",
          "type": "uint256",
          "internalType": "uint256"
        },
        {
          "name": "length",
          "type": "uint256",
          "internalType": "uint256"
        }
      ],
      "outputs": [
        {
          "name": "",
          "type": "bytes",
          "internalType": "bytes"
        }
      ],
      "stateMutability": "pure"
    },
    {
      "type": "function",
      "name": "fieldElementToEIP2537Bytes",
      "inputs": [
        {
          "name": "source",
          "type": "bytes",
          "internalType": "bytes"
        },
        {
          "name": "sourceOffset",
          "type": "uint256",
          "internalType": "uint256"
        },
        {
          "name": "dest",
          "type": "bytes",
          "internalType": "bytes"
        },
        {
          "name": "destOffset",
          "type": "uint256",
          "internalType": "uint256"
        }
      ],
      "outputs": [],
      "stateMutability": "pure"
    },
    {
      "type": "function",
      "name": "hashToField",
      "inputs": [
        {
          "name": "input",
          "type": "bytes",
          "internalType": "bytes"
        },
        {
          "name": "dst",
          "type": "bytes",
          "internalType": "bytes"
        },
        {
          "name": "count",
          "type": "uint256",
          "internalType": "uint256"
        }
      ],
      "outputs": [
        {
          "name": "",
          "type": "tuple[]",
          "internalType": "struct BlsG1.Fp[]",
          "components": [
            {
              "name": "data",
              "type": "bytes",
              "internalType": "bytes"
            }
          ]
        }
      ],
      "stateMutability": "view"
    },
    {
      "type": "function",
      "name": "hashToG1",
      "inputs": [
        {
          "name": "input",
          "type": "bytes",
          "internalType": "bytes"
        }
      ],
      "outputs": [
        {
          "name": "",
          "type": "bytes",
          "internalType": "bytes"
        }
      ],
      "stateMutability": "view"
    },
    {
      "type": "function",
      "name": "isInfinityPointG1",
      "inputs": [
        {
          "name": "uncompressedPointG1",
          "type": "bytes",
          "internalType": "bytes"
        }
      ],
      "outputs": [
        {
          "name": "",
          "type": "bool",
          "internalType": "bool"
        }
      ],
      "stateMutability": "pure"
    },
    {
      "type": "function",
      "name": "isInfinityPointG2",
      "inputs": [
        {
          "name": "uncompressedPointG2",
          "type": "bytes",
          "internalType": "bytes"
        }
      ],
      "outputs": [
        {
          "name": "",
          "type": "bool",
          "internalType": "bool"
        }
      ],
      "stateMutability": "pure"
    },
    {
      "type": "function",
      "name": "isRawInfinityPointG1",
      "inputs": [
        {
          "name": "rawPointG1",
          "type": "bytes",
          "internalType": "bytes"
        }
      ],
      "outputs": [
        {
          "name": "",
          "type": "bool",
          "internalType": "bool"
        }
      ],
      "stateMutability": "pure"
    },
    {
      "type": "function",
      "name": "isRawInfinityPointG2",
      "inputs": [
        {
          "name": "rawPointG2",
          "type": "bytes",
          "internalType": "bytes"
        }
      ],
      "outputs": [
        {
          "name": "",
          "type": "bool",
          "internalType": "bool"
        }
      ],
      "stateMutability": "pure"
    },
    {
      "type": "function",
      "name": "mapFieldElementToG1",
      "inputs": [
        {
          "name": "element",
          "type": "tuple",
          "internalType": "struct BlsG1.Fp",
          "components": [
            {
              "name": "data",
              "type": "bytes",
              "internalType": "bytes"
            }
          ]
        }
      ],
      "outputs": [
        {
          "name": "",
          "type": "bytes",
          "internalType": "bytes"
        }
      ],
      "stateMutability": "view"
    },
    {
      "type": "function",
      "name": "processFieldElement",
      "inputs": [
        {
          "name": "uniformBytes",
          "type": "bytes",
          "internalType": "bytes"
        },
        {
          "name": "index",
          "type": "uint256",
          "internalType": "uint256"
        }
      ],
      "outputs": [
        {
          "name": "",
          "type": "tuple",
          "internalType": "struct BlsG1.Fp",
          "components": [
            {
              "name": "data",
              "type": "bytes",
              "internalType": "bytes"
            }
          ]
        }
      ],
      "stateMutability": "view"
    },
    {
      "type": "function",
      "name": "validatePointG1",
      "inputs": [
        {
          "name": "point",
          "type": "bytes",
          "internalType": "bytes"
        }
      ],
      "outputs": [
        {
          "name": "",
          "type": "bool",
          "internalType": "bool"
        }
      ],
      "stateMutability": "view"
    },
    {
      "type": "function",
      "name": "validatePointG2",
      "inputs": [
        {
          "name": "point",
          "type": "bytes",
          "internalType": "bytes"
        }
      ],
      "outputs": [
        {
          "name": "",
          "type": "bool",
          "internalType": "bool"
        }
      ],
      "stateMutability": "view"
    },
    {
      "type": "function",
      "name": "verifyProofOfPossessionG1",
      "inputs": [
        {
          "name": "blsPubkey",
          "type": "bytes",
          "internalType": "bytes"
        },
        {
          "name": "signature",
          "type": "bytes",
          "internalType": "bytes"
        },
        {
          "name": "message",
          "type": "bytes",
          "internalType": "bytes"
        }
      ],
      "outputs": [
        {
          "name": "",
          "type": "bool",
          "internalType": "bool"
        }
      ],
      "stateMutability": "view"
    },
    {
      "type": "error",
      "name": "CountTooLarge",
      "inputs": [
        {
          "name": "count",
          "type": "uint256",
          "internalType": "uint256"
        }
      ]
    },
    {
      "type": "error",
      "name": "DSTTooLong",
      "inputs": [
        {
          "name": "dstLen",
          "type": "uint256",
          "internalType": "uint256"
        }
      ]
    },
    {
      "type": "error",
      "name": "EllTooLarge",
      "inputs": [
        {
          "name": "ell",
          "type": "uint256",
          "internalType": "uint256"
        }
      ]
    },
    {
      "type": "error",
      "name": "I2OSPIntegerTooLarge",
      "inputs": [
        {
          "name": "i2ospInteger",
          "type": "uint256",
          "internalType": "uint256"
        }
      ]
    },
    {
      "type": "error",
      "name": "InvalidBLSProof",
      "inputs": []
    },
    {
      "type": "error",
      "name": "InvalidBLSPubkey",
      "inputs": []
    },
    {
      "type": "error",
      "name": "InvalidFpOffset",
      "inputs": []
    },
    {
      "type": "error",
      "name": "InvalidPoint",
      "inputs": [
        {
          "name": "actualLen",
          "type": "uint256",
          "internalType": "uint256"
        },
        {
          "name": "expectedLen",
          "type": "uint256",
          "internalType": "uint256"
        }
      ]
    },
    {
      "type": "error",
      "name": "InvalidUncompressedBLSPubkey",
      "inputs": []
    },
    {
      "type": "error",
      "name": "LengthTooLarge",
      "inputs": [
        {
          "name": "len",
          "type": "uint256",
          "internalType": "uint256"
        }
      ]
    },
    {
      "type": "error",
      "name": "LowLevelCallFailure",
      "inputs": [
        {
          "name": "err",
          "type": "bytes",
          "internalType": "bytes"
        }
      ]
    }
  ],
  "bytecode": {
    "object": "0x611ccb610034600b8282823980515f1a607314602857634e487b7160e01b5f525f60045260245ffd5b305f52607381538281f3fe7300000000000000000000000000000000000000003014608060405260043610610234575f3560e01c806396b5eb7711610135578063b2f0b9b4116100bf578063e5a837fd11610084578063e5a837fd146103da578063f171866214610467578063f3aa54791461047a578063f490b3b914610482578063f999712f14610495575f80fd5b8063b2f0b9b41461041b578063ba48620114610423578063ba60124114610436578063bdfc37011461043f578063bf9d899714610447575f80fd5b80639f13f76d116101055780639f13f76d146103da578063a41c1561146103e2578063a691a08b146103f5578063a6f5f32414610408578063aedd751f146103da575f80fd5b806396b5eb7714610399578063993c3b2c146103ac5780639a035a3e146103bf5780639d9ca562146103d2575f80fd5b80634f98273b116101c157806389184adc1161018657806389184adc1461034e5780638976fc3b146103565780638b8fbd92146103695780638eadfb911461037157806392b8b66814610391575f80fd5b80634f98273b14610303578063586c582d14610316578063768c59f31461031e5780637bcd6fd7146103335780637fed4c9514610346575f80fd5b8063090a109f11610207578063090a109f146102ba57806324cddfa8146102cd5780633632358c146102e05780633d2a9e11146102e85780634c1dd66e146102fb575f80fd5b8063069eb4f21461023857806306ac9f9714610261578063086ecef71461028457806308cd4da0146102a4575b5f80fd5b61024b610246366004611445565b61049d565b60405161025891906114d6565b60405180910390f35b61027461026f3660046114e8565b61054e565b6040519015158152602001610258565b61028c600d81565b6040516001600160a01b039091168152602001610258565b6102ac608081565b604051908152602001610258565b6102746102c83660046114e8565b6105ce565b61024b6102db366004611521565b610614565b61028c600f81565b61024b6102f63660046114e8565b61069d565b61028c600b81565b6102746103113660046115a8565b610710565b61024b610844565b61033161032c366004611633565b610875565b005b6102746103413660046114e8565b61094e565b61024b610957565b61024b610973565b61024b610364366004611445565b61097a565b61024b61099c565b61038461037f3660046116a6565b6109b8565b60405161025891906116fb565b61024b610a67565b61024b6103a736600461170d565b610a86565b61024b6103ba366004611789565b610d86565b61024b6103cd3660046117d2565b610e66565b6102ac603081565b6102ac604081565b6102746103f03660046114e8565b610f52565b61024b6104033660046114e8565b610f5a565b6102746104163660046114e8565b610feb565b61024b611060565b6102746104313660046114e8565b611068565b6102ac61010081565b61024b611070565b61045a6104553660046117f2565b611077565b604051610258919061185e565b61024b6104753660046114e8565b611166565b61028c601081565b61024b6104903660046114e8565b6111e0565b6102ac602081565b60605f80600d6001600160a01b031685856040516020016104bf9291906118d8565b60408051601f19818403018152908290526104d9916118ec565b5f60405180830381855afa9150503d805f8114610511576040519150601f19603f3d011682016040523d82523d5f602084013e610516565b606091505b50915091508161054457806040516306fe67db60e31b815260040161053b91906114d6565b60405180910390fd5b9150505b92915050565b5f60808251141580610564575061056482611068565b1561058f57815160405163414cf37560e01b815260048101919091526080602482015260440161053b565b8151602083012060408051608080825260a082019092526105bf918591906020820181803683370190505061097a565b80519060200120149050919050565b5f60605b6040519080825280601f01601f1916602001820160405280156105fc576020820181803683370190505b50805190602001208280519060200120149050919050565b60605f8060106001600160a01b0316845f015160405161063491906118ec565b5f60405180830381855afa9150503d805f811461066c576040519150601f19603f3d011682016040523d82523d5f602084013e610671565b606091505b50915091508161069657806040516306fe67db60e31b815260040161053b91906114d6565b9392505050565b606081516060146106c157604051630d09b15360e01b815260040160405180910390fd5b60408051608080825260a082019092525f916020820181803683370190505090506106eb836105ce565b156106f65792915050565b610702835f835f610875565b610548836030836040610875565b5f61071a8461094e565b15610738576040516333a234f960e11b815260040160405180910390fd5b61074183611068565b1561075f57604051630d09b15360e01b815260040160405180910390fd5b5f61076983611166565b90505f8186866040518061012001604052806101008152602001611b8f610100913960405160200161079e94939291906118f7565b60405160208183030381529060405290505f80600f6001600160a01b0316836040516107ca91906118ec565b5f60405180830381855afa9150503d805f8114610802576040519150601f19603f3d011682016040523d82523d5f602084013e610807565b606091505b50915091508161082c57806040516306fe67db60e31b815260040161053b91906114d6565b61083581611921565b60011498975050505050505050565b60605b6040519080825280601f01601f191660200182016040528015610871576020820181803683370190505b5081565b835161088260308561195b565b11156108a15760405163228c451560e11b815260040160405180910390fd5b81516108ae60408361195b565b11156108cd5760405163228c451560e11b815260040160405180910390fd5b5f5b603081101561094757846108e3828661195b565b815181106108f3576108f361196e565b01602001516001600160f81b031916838261090f85601061195b565b610919919061195b565b815181106109295761092961196e565b60200101906001600160f81b03191690815f1a9053506001016108cf565b5050505050565b5f6101006105d2565b6040518060600160405280602b8152602001611b64602b913981565b60c0610847565b60605f80600b6001600160a01b031685856040516020016104bf9291906118d8565b604051806060016040528060308152602001611c8f6030913981565b6040805160208101909152606081525f6109d3836040611982565b90505f6109e285836040610d86565b90505f610a2182604051806040016040528060018152602001600160f81b815250604051806060016040528060308152602001611c8f603091396112b3565b604080518181526060810182529192505f9190602082018180368337019050509050610a4f825f835f610875565b60408051602081019091529081529695505050505050565b6040518061012001604052806101008152602001611b8f610100913981565b60605f60206001610a9b8261ffff871661195b565b610aa59190611999565b610aaf91906119ac565b905060ff811115610ad657604051637349dd2760e11b81526004810182905260240161053b565b61ffff8381161115610b0157604051633531161b60e01b815261ffff8416600482015260240161053b565b835160ff1015610b295783516040516330648ea960e01b815260040161053b91815260200190565b60605f8086905080610b3d82516001610e66565b604051602001610b4e9291906118d8565b60405160208183030381529060405292505f610b6b5f6040610e66565b90505f610b7d8861ffff166002610e66565b90505f828b83610b8e5f6001610e66565b89604051602001610ba39594939291906119cb565b6040516020818303038152906040529050600281604051610bc491906118ec565b602060405180830381855afa158015610bdf573d5f803e3d5ffd5b5050506040513d601f19601f82011682018060405250810190610c0291906119f3565b9450505050505f600282610c17600180610e66565b85604051602001610c2a93929190611a0a565b60408051601f1981840301815290829052610c44916118ec565b602060405180830381855afa158015610c5f573d5f803e3d5ffd5b5050506040513d601f19601f82011682018060405250810190610c8291906119f3565b90505f81604051602001610c9891815260200190565b60408051601f1981840301815291905290508160025b868111610d75578482185f610cc4836001610e66565b90505f600283838b604051602001610cde93929190611a0a565b60408051601f1981840301815290829052610cf8916118ec565b602060405180830381855afa158015610d13573d5f803e3d5ffd5b5050506040513d601f19601f82011682018060405250810190610d3691906119f3565b90508581604051602001610d4b929190611a1e565b60405160208183030381529060405295508094505050508080610d6d90611a36565b915050610cae565b505095865250939695505050505050565b8251606090610d95838561195b565b1115610db757604051633531161b60e01b81526004810183905260240161053b565b5f826001600160401b03811115610dd057610dd06113a8565b6040519080825280601f01601f191660200182016040528015610dfa576020820181803683370190505b5090505f5b83811015610e5d5785610e12828761195b565b81518110610e2257610e2261196e565b602001015160f81c60f81b828281518110610e3f57610e3f61196e565b60200101906001600160f81b03191690815f1a905350600101610dff565b50949350505050565b6060602082108015610e835750610e7f82610100611b29565b8310155b15610ea457604051634f783b2f60e01b81526004810184905260240161053b565b5f826001600160401b03811115610ebd57610ebd6113a8565b6040519080825280601f01601f191660200182016040528015610ee7576020820181803683370190505b5090505f5b83811015610f4a57610eff816008611982565b85901c60f81b8282610f12600188611999565b610f1c9190611999565b81518110610f2c57610f2c61196e565b60200101906001600160f81b03191690815f1a905350600101610eec565b509392505050565b5f60c06105d2565b6060815160c014610f7e57604051631e99df4360e21b815260040160405180910390fd5b6040805161010080825261012082019092525f91602082018180368337019050509050610faa83610f52565b15610fb55792915050565b610fc2836030835f610875565b610fcf835f836040610875565b610fdd836090836080610875565b6105488360608360c0610875565b5f610100825114158061100257506110028261094e565b1561102e57815160405163414cf37560e01b81526004810191909152610100602482015260440161053b565b815160208301206040805161010080825261012082019092526105bf918591906020820181803683370190505061049d565b610100610847565b5f60806105d2565b6080610847565b60605f826001600160401b03811115611092576110926113a8565b6040519080825280602002602001820160405280156110d257816020015b6040805160208101909152606081528152602001906001900390816110b05790505b5090506110e2604061ffff6119ac565b831115611105576040516336b5c98d60e21b81526004810184905260240161053b565b5f611111604085611982565b90505f61111f878784610a86565b90505f5b8581101561115a5761113582826109b8565b8482815181106111475761114761196e565b6020908102919091010152600101611123565b50919695505050505050565b60605f61118d836040518060600160405280602b8152602001611b64602b91396002611077565b90505f6111b2825f815181106111a5576111a561196e565b6020026020010151610614565b90505f6111cb836001815181106111a5576111a561196e565b90506111d7828261097a565b95945050505050565b606060408251146112105781516040805163414cf37560e01b81526004810192909252602482015260440161053b565b5f5b60108110156112a55782818151811061122d5761122d61196e565b01602001516001600160f81b0319161561129d5760405162461bcd60e51b815260206004820152602b60248201527f496e76616c69642070616464696e673a206e6f6e2d7a65726f20696e2066697260448201526a737420313620627974657360a81b606482015260840161053b565b600101611212565b506105488260106030610d86565b60605f806112c28686866112d5565b91509150816111d7576111d7601261134c565b5f60606112e18361135d565b156112fc575050604080515f80825260208201909252611344565b82518551855160405161131b92919084908a908a908a90602001611b34565b604051602081830303815290604052915060208201818184518360055afa828452910160405291505b935093915050565b634e487b715f52806020526024601cfd5b5f805b825181101561139f5782818151811061137b5761137b61196e565b01602001516001600160f81b0319161561139757505f92915050565b600101611360565b50600192915050565b634e487b7160e01b5f52604160045260245ffd5b5f82601f8301126113cb575f80fd5b81356001600160401b038111156113e4576113e46113a8565b604051601f8201601f19908116603f011681016001600160401b0381118282101715611412576114126113a8565b604052818152838201602001851015611429575f80fd5b816020850160208301375f918101602001919091529392505050565b5f8060408385031215611456575f80fd5b82356001600160401b0381111561146b575f80fd5b611477858286016113bc565b92505060208301356001600160401b03811115611492575f80fd5b61149e858286016113bc565b9150509250929050565b5f81518084528060208401602086015e5f602082860101526020601f19601f83011685010191505092915050565b602081525f61069660208301846114a8565b5f602082840312156114f8575f80fd5b81356001600160401b0381111561150d575f80fd5b611519848285016113bc565b949350505050565b5f60208284031215611531575f80fd5b81356001600160401b03811115611546575f80fd5b820160208185031215611557575f80fd5b604051602081016001600160401b0381118282101715611579576115796113a8565b60405281356001600160401b03811115611591575f80fd5b61159d868285016113bc565b825250949350505050565b5f805f606084860312156115ba575f80fd5b83356001600160401b038111156115cf575f80fd5b6115db868287016113bc565b93505060208401356001600160401b038111156115f6575f80fd5b611602868287016113bc565b92505060408401356001600160401b0381111561161d575f80fd5b611629868287016113bc565b9150509250925092565b5f805f8060808587031215611646575f80fd5b84356001600160401b0381111561165b575f80fd5b611667878288016113bc565b9450506020850135925060408501356001600160401b03811115611689575f80fd5b611695878288016113bc565b949793965093946060013593505050565b5f80604083850312156116b7575f80fd5b82356001600160401b038111156116cc575f80fd5b6116d8858286016113bc565b95602094909401359450505050565b5f81516020845261151960208501826114a8565b602081525f61069660208301846116e7565b5f805f6060848603121561171f575f80fd5b83356001600160401b03811115611734575f80fd5b611740868287016113bc565b93505060208401356001600160401b0381111561175b575f80fd5b611767868287016113bc565b925050604084013561ffff8116811461177e575f80fd5b809150509250925092565b5f805f6060848603121561179b575f80fd5b83356001600160401b038111156117b0575f80fd5b6117bc868287016113bc565b9660208601359650604090950135949350505050565b5f80604083850312156117e3575f80fd5b50508035926020909101359150565b5f805f60608486031215611804575f80fd5b83356001600160401b03811115611819575f80fd5b611825868287016113bc565b93505060208401356001600160401b03811115611840575f80fd5b61184c868287016113bc565b93969395505050506040919091013590565b5f602082016020835280845180835260408501915060408160051b8601019250602086015f5b828110156118b557603f198786030184526118a08583516116e7565b94506020938401939190910190600101611884565b50929695505050505050565b5f81518060208401855e5f93019283525090919050565b5f6115196118e683866118c1565b846118c1565b5f61069682846118c1565b5f6119176118e661191161190b858a6118c1565b886118c1565b866118c1565b9695505050505050565b80516020808301519190811015611941575f198160200360031b1b821691505b50919050565b634e487b7160e01b5f52601160045260245ffd5b8082018082111561054857610548611947565b634e487b7160e01b5f52603260045260245ffd5b808202811582820484141761054857610548611947565b8181038181111561054857610548611947565b5f826119c657634e487b7160e01b5f52601260045260245ffd5b500490565b5f6119e86118e661191161190b6119e2868c6118c1565b8a6118c1565b979650505050505050565b5f60208284031215611a03575f80fd5b5051919050565b8381525f6111d76118e660208401866118c1565b5f611a2982856118c1565b9283525050602001919050565b5f60018201611a4757611a47611947565b5060010190565b6001815b600184111561134457808504811115611a6d57611a6d611947565b6001841615611a7b57908102905b60019390931c928002611a52565b5f82611a9757506001610548565b81611aa357505f610548565b8160018114611ab95760028114611ac357611adf565b6001915050610548565b60ff841115611ad457611ad4611947565b50506001821b610548565b5060208310610133831016604e8410600b8410161715611b02575081810a610548565b611b0e5f198484611a4e565b805f1904821115611b2157611b21611947565b029392505050565b5f6106968383611a89565b8681528560208201528460408201525f611b576118e661191160608501886118c1565b9897505050505050505056fe424c535f5349475f424c53313233383147315f584d443a5348412d3235365f535357555f524f5f4e554c5f00000000000000000000000000000000024aa2b2f08f0a91260805272dc51051c6e47ad4fa403b02b4510b647ae3d1770bac0326a805bbefd48056c8c121bdb80000000000000000000000000000000013e02b6052719f607dacd3a088274f65596bd0d09920b61ab5da61bbdc7f5049334cf11213945d57e5ac7d055d042b7e000000000000000000000000000000000d1b3cc2c7027888be51d9ef691d77bcb679afda66c73f17f9ee3837a55024f78c71363275a75d75d86bab79f74782aa0000000000000000000000000000000013fa4d4a0ad8b1ce186ed5061789213d993923066dddaf1040bc3ff59f825c78df74f2d75467e25e0f55f8a00fa030ed1a0111ea397fe69a4b1ba7b6434bacd764774b84f38512bf6730d2a0f6b0f6241eabfffeb153ffffb9feffffffffaaaba164736f6c634300081a000a",
    "linkReferences": {}
  },
  "methodIdentifiers": {
    "B_IN_BYTES()": "f999712f",
    "EIP2537_FIELD_ELEMENT_SIZE()": "aedd751f",
    "EIP2537_G1_POINT_SIZE()": "08cd4da0",
    "EIP2537_G2_POINT_SIZE()": "ba601241",
    "FIELD_ELEMENT_SIZE()": "9d9ca562",
    "G1_ADD()": "4c1dd66e",
    "G1_IDENTITY()": "bdfc3701",
    "G1_IDENTITY_RAW()": "586c582d",
    "G2_ADD()": "086ecef7",
    "G2_GENERATOR_NEG()": "92b8b668",
    "G2_IDENTITY()": "b2f0b9b4",
    "G2_IDENTITY_RAW()": "89184adc",
    "HASH_TO_G1_DST()": "7fed4c95",
    "I2OSP(uint256,uint256)": "9a035a3e",
    "L()": "9f13f76d",
    "MAP_FP_TO_G1()": "f3aa5479",
    "P()": "8b8fbd92",
    "PAIRING_CHECK()": "3632358c",
    "S_IN_BYTES()": "e5a837fd",
    "addG1(bytes,bytes)": "8976fc3b",
    "addG2(bytes,bytes)": "069eb4f2",
    "eip2537BytesToFieldElement(bytes)": "f490b3b9",
    "encodeG1PointForEIP2537(bytes)": "3d2a9e11",
    "encodeG2PointForEIP2537(bytes)": "a691a08b",
    "expandMessageXmd(bytes,bytes,uint16)": "96b5eb77",
    "extractBytes(bytes,uint256,uint256)": "993c3b2c",
    "fieldElementToEIP2537Bytes(bytes,uint256,bytes,uint256)": "768c59f3",
    "hashToField(bytes,bytes,uint256)": "bf9d8997",
    "hashToG1(bytes)": "f1718662",
    "isInfinityPointG1(bytes)": "ba486201",
    "isInfinityPointG2(bytes)": "7bcd6fd7",
    "isRawInfinityPointG1(bytes)": "090a109f",
    "isRawInfinityPointG2(bytes)": "a41c1561",
    "mapFieldElementToG1(BlsG1.Fp)": "24cddfa8",
    "processFieldElement(bytes,uint256)": "8eadfb91",
    "validatePointG1(bytes)": "06ac9f97",
    "validatePointG2(bytes)": "a6f5f324",
    "verifyProofOfPossessionG1(bytes,bytes,bytes)": "4f98273b"
  },
  "id": 104
}