{
  "abi": [
    {
      "type": "constructor",
      "inputs": [
        {
          "name": "rls_",
          "type": "address",
          "internalType": "address"
        },
        {
          "name": "genesisConfig_",
          "type": "tuple",
          "internalType": "struct IStakeManager.StakeConfig",
          "components": [
            {
              "name": "stakeAmount",
              "type": "uint256",
              "internalType": "uint256"
            },
            {
              "name": "minWithdrawAmount",
              "type": "uint256",
              "internalType": "uint256"
            },
            {
              "name": "epochDuration",
              "type": "uint32",
              "internalType": "uint32"
            }
          ]
        },
        {
          "name": "initialValidators_",
          "type": "tuple[]",
          "internalType": "struct IConsensusRegistry.ValidatorInfo[]",
          "components": [
            {
              "name": "blsPubkey",
              "type": "bytes",
              "internalType": "bytes"
            },
            {
              "name": "validatorAddress",
              "type": "address",
              "internalType": "address"
            },
            {
              "name": "activationEpoch",
              "type": "uint32",
              "internalType": "uint32"
            },
            {
              "name": "exitEpoch",
              "type": "uint32",
              "internalType": "uint32"
            },
            {
              "name": "currentStatus",
              "type": "uint8",
              "internalType": "enum IConsensusRegistry.ValidatorStatus"
            },
            {
              "name": "isRetired",
              "type": "bool",
              "internalType": "bool"
            },
            {
              "name": "isDelegated",
              "type": "bool",
              "internalType": "bool"
            },
            {
              "name": "stakeVersion",
              "type": "uint8",
              "internalType": "uint8"
            }
          ]
        },
        {
          "name": "proofsOfPossession",
          "type": "tuple[]",
          "internalType": "struct BlsG1.ProofOfPossession[]",
          "components": [
            {
              "name": "uncompressedPubkey",
              "type": "bytes",
              "internalType": "bytes"
            },
            {
              "name": "uncompressedSignature",
              "type": "bytes",
              "internalType": "bytes"
            }
          ]
        },
        {
          "name": "owner_",
          "type": "address",
          "internalType": "address"
        }
      ],
      "stateMutability": "nonpayable"
    },
    {
      "type": "function",
      "name": "SYSTEM_ADDRESS",
      "inputs": [],
      "outputs": [
        {
          "name": "",
          "type": "address",
          "internalType": "address"
        }
      ],
      "stateMutability": "view"
    },
    {
      "type": "function",
      "name": "_rls",
      "inputs": [],
      "outputs": [
        {
          "name": "",
          "type": "address",
          "internalType": "contract IERC20"
        }
      ],
      "stateMutability": "view"
    },
    {
      "type": "function",
      "name": "activate",
      "inputs": [],
      "outputs": [],
      "stateMutability": "nonpayable"
    },
    {
      "type": "function",
      "name": "allowlistValidator",
      "inputs": [
        {
          "name": "validatorAddress",
          "type": "address",
          "internalType": "address"
        }
      ],
      "outputs": [],
      "stateMutability": "nonpayable"
    },
    {
      "type": "function",
      "name": "applyIncentives",
      "inputs": [
        {
          "name": "rewardInfos",
          "type": "tuple[]",
          "internalType": "struct RewardInfo[]",
          "components": [
            {
              "name": "validatorAddress",
              "type": "address",
              "internalType": "address"
            },
            {
              "name": "consensusHeaderCount",
              "type": "uint256",
              "internalType": "uint256"
            }
          ]
        }
      ],
      "outputs": [],
      "stateMutability": "nonpayable"
    },
    {
      "type": "function",
      "name": "applySlashes",
      "inputs": [
        {
          "name": "slashes",
          "type": "tuple[]",
          "internalType": "struct Slash[]",
          "components": [
            {
              "name": "validatorAddress",
              "type": "address",
              "internalType": "address"
            },
            {
              "name": "amount",
              "type": "uint256",
              "internalType": "uint256"
            }
          ]
        }
      ],
      "outputs": [],
      "stateMutability": "nonpayable"
    },
    {
      "type": "function",
      "name": "beginExit",
      "inputs": [],
      "outputs": [],
      "stateMutability": "nonpayable"
    },
    {
      "type": "function",
      "name": "claimStakeRewards",
      "inputs": [
        {
          "name": "validatorAddress",
          "type": "address",
          "internalType": "address"
        }
      ],
      "outputs": [],
      "stateMutability": "nonpayable"
    },
    {
      "type": "function",
      "name": "concludeEpoch",
      "inputs": [
        {
          "name": "futureCommittee",
          "type": "address[]",
          "internalType": "address[]"
        }
      ],
      "outputs": [],
      "stateMutability": "nonpayable"
    },
    {
      "type": "function",
      "name": "delegateStake",
      "inputs": [
        {
          "name": "blsPubkey",
          "type": "bytes",
          "internalType": "bytes"
        },
        {
          "name": "proofOfPossession",
          "type": "tuple",
          "internalType": "struct BlsG1.ProofOfPossession",
          "components": [
            {
              "name": "uncompressedPubkey",
              "type": "bytes",
              "internalType": "bytes"
            },
            {
              "name": "uncompressedSignature",
              "type": "bytes",
              "internalType": "bytes"
            }
          ]
        },
        {
          "name": "validatorAddress",
          "type": "address",
          "internalType": "address"
        },
        {
          "name": "validatorEIP712Signature",
          "type": "bytes",
          "internalType": "bytes"
        }
      ],
      "outputs": [],
      "stateMutability": "nonpayable"
    },
    {
      "type": "function",
      "name": "delegationDigest",
      "inputs": [
        {
          "name": "blsPubkey",
          "type": "bytes",
          "internalType": "bytes"
        },
        {
          "name": "validatorAddress",
          "type": "address",
          "internalType": "address"
        },
        {
          "name": "delegator",
          "type": "address",
          "internalType": "address"
        }
      ],
      "outputs": [
        {
          "name": "",
          "type": "bytes32",
          "internalType": "bytes32"
        }
      ],
      "stateMutability": "view"
    },
    {
      "type": "function",
      "name": "delegationPool",
      "inputs": [],
      "outputs": [
        {
          "name": "",
          "type": "address",
          "internalType": "address"
        }
      ],
      "stateMutability": "view"
    },
    {
      "type": "function",
      "name": "delistValidator",
      "inputs": [
        {
          "name": "validatorAddress",
          "type": "address",
          "internalType": "address"
        }
      ],
      "outputs": [],
      "stateMutability": "nonpayable"
    },
    {
      "type": "function",
      "name": "eip712Domain",
      "inputs": [],
      "outputs": [
        {
          "name": "fields",
          "type": "bytes1",
          "internalType": "bytes1"
        },
        {
          "name": "name",
          "type": "string",
          "internalType": "string"
        },
        {
          "name": "version",
          "type": "string",
          "internalType": "string"
        },
        {
          "name": "chainId",
          "type": "uint256",
          "internalType": "uint256"
        },
        {
          "name": "verifyingContract",
          "type": "address",
          "internalType": "address"
        },
        {
          "name": "salt",
          "type": "bytes32",
          "internalType": "bytes32"
        },
        {
          "name": "extensions",
          "type": "uint256[]",
          "internalType": "uint256[]"
        }
      ],
      "stateMutability": "view"
    },
    {
      "type": "function",
      "name": "epochInfo",
      "inputs": [
        {
          "name": "",
          "type": "uint256",
          "internalType": "uint256"
        }
      ],
      "outputs": [
        {
          "name": "blockHeight",
          "type": "uint64",
          "internalType": "uint64"
        },
        {
          "name": "epochDuration",
          "type": "uint32",
          "internalType": "uint32"
        },
        {
          "name": "stakeVersion",
          "type": "uint8",
          "internalType": "uint8"
        }
      ],
      "stateMutability": "view"
    },
    {
      "type": "function",
      "name": "futureEpochInfo",
      "inputs": [
        {
          "name": "",
          "type": "uint256",
          "internalType": "uint256"
        }
      ],
      "outputs": [
        {
          "name": "blockHeight",
          "type": "uint64",
          "internalType": "uint64"
        },
        {
          "name": "epochDuration",
          "type": "uint32",
          "internalType": "uint32"
        },
        {
          "name": "stakeVersion",
          "type": "uint8",
          "internalType": "uint8"
        }
      ],
      "stateMutability": "view"
    },
    {
      "type": "function",
      "name": "getBalanceBreakdown",
      "inputs": [
        {
          "name": "validatorAddress",
          "type": "address",
          "internalType": "address"
        }
      ],
      "outputs": [
        {
          "name": "",
          "type": "uint256",
          "internalType": "uint256"
        },
        {
          "name": "",
          "type": "uint256",
          "internalType": "uint256"
        },
        {
          "name": "",
          "type": "uint256",
          "internalType": "uint256"
        }
      ],
      "stateMutability": "view"
    },
    {
      "type": "function",
      "name": "getCommitteeValidators",
      "inputs": [
        {
          "name": "epoch",
          "type": "uint32",
          "internalType": "uint32"
        }
      ],
      "outputs": [
        {
          "name": "",
          "type": "tuple[]",
          "internalType": "struct IConsensusRegistry.ValidatorInfo[]",
          "components": [
            {
              "name": "blsPubkey",
              "type": "bytes",
              "internalType": "bytes"
            },
            {
              "name": "validatorAddress",
              "type": "address",
              "internalType": "address"
            },
            {
              "name": "activationEpoch",
              "type": "uint32",
              "internalType": "uint32"
            },
            {
              "name": "exitEpoch",
              "type": "uint32",
              "internalType": "uint32"
            },
            {
              "name": "currentStatus",
              "type": "uint8",
              "internalType": "enum IConsensusRegistry.ValidatorStatus"
            },
            {
              "name": "isRetired",
              "type": "bool",
              "internalType": "bool"
            },
            {
              "name": "isDelegated",
              "type": "bool",
              "internalType": "bool"
            },
            {
              "name": "stakeVersion",
              "type": "uint8",
              "internalType": "uint8"
            }
          ]
        }
      ],
      "stateMutability": "view"
    },
    {
      "type": "function",
      "name": "getCurrentEpoch",
      "inputs": [],
      "outputs": [
        {
          "name": "",
          "type": "uint32",
          "internalType": "uint32"
        }
      ],
      "stateMutability": "view"
    },
    {
      "type": "function",
      "name": "getCurrentEpochInfo",
      "inputs": [],
      "outputs": [
        {
          "name": "",
          "type": "tuple",
          "internalType": "struct IConsensusRegistry.EpochInfo",
          "components": [
            {
              "name": "committee",
              "type": "address[]",
              "internalType": "address[]"
            },
            {
              "name": "blockHeight",
              "type": "uint64",
              "internalType": "uint64"
            },
            {
              "name": "epochDuration",
              "type": "uint32",
              "internalType": "uint32"
            },
            {
              "name": "stakeVersion",
              "type": "uint8",
              "internalType": "uint8"
            }
          ]
        }
      ],
      "stateMutability": "view"
    },
    {
      "type": "function",
      "name": "getCurrentStakeConfig",
      "inputs": [],
      "outputs": [
        {
          "name": "",
          "type": "tuple",
          "internalType": "struct IStakeManager.StakeConfig",
          "components": [
            {
              "name": "stakeAmount",
              "type": "uint256",
              "internalType": "uint256"
            },
            {
              "name": "minWithdrawAmount",
              "type": "uint256",
              "internalType": "uint256"
            },
            {
              "name": "epochDuration",
              "type": "uint32",
              "internalType": "uint32"
            }
          ]
        }
      ],
      "stateMutability": "view"
    },
    {
      "type": "function",
      "name": "getCurrentStakeVersion",
      "inputs": [],
      "outputs": [
        {
          "name": "",
          "type": "uint8",
          "internalType": "uint8"
        }
      ],
      "stateMutability": "view"
    },
    {
      "type": "function",
      "name": "getEpochInfo",
      "inputs": [
        {
          "name": "epoch",
          "type": "uint32",
          "internalType": "uint32"
        }
      ],
      "outputs": [
        {
          "name": "",
          "type": "tuple",
          "internalType": "struct IConsensusRegistry.EpochInfo",
          "components": [
            {
              "name": "committee",
              "type": "address[]",
              "internalType": "address[]"
            },
            {
              "name": "blockHeight",
              "type": "uint64",
              "internalType": "uint64"
            },
            {
              "name": "epochDuration",
              "type": "uint32",
              "internalType": "uint32"
            },
            {
              "name": "stakeVersion",
              "type": "uint8",
              "internalType": "uint8"
            }
          ]
        }
      ],
      "stateMutability": "view"
    },
    {
      "type": "function",
      "name": "getEpochPerformanceWeights",
      "inputs": [],
      "outputs": [
        {
          "name": "",
          "type": "tuple",
          "internalType": "struct IConsensusRegistry.PerformanceWeights",
          "components": [
            {
              "name": "validators",
              "type": "address[]",
              "internalType": "address[]"
            },
            {
              "name": "weights",
              "type": "uint256[]",
              "internalType": "uint256[]"
            },
            {
              "name": "totalWeight",
              "type": "uint256",
              "internalType": "uint256"
            }
          ]
        }
      ],
      "stateMutability": "view"
    },
    {
      "type": "function",
      "name": "getRewards",
      "inputs": [
        {
          "name": "validatorAddress",
          "type": "address",
          "internalType": "address"
        }
      ],
      "outputs": [
        {
          "name": "",
          "type": "uint256",
          "internalType": "uint256"
        }
      ],
      "stateMutability": "view"
    },
    {
      "type": "function",
      "name": "getValidator",
      "inputs": [
        {
          "name": "validatorAddress",
          "type": "address",
          "internalType": "address"
        }
      ],
      "outputs": [
        {
          "name": "",
          "type": "tuple",
          "internalType": "struct IConsensusRegistry.ValidatorInfo",
          "components": [
            {
              "name": "blsPubkey",
              "type": "bytes",
              "internalType": "bytes"
            },
            {
              "name": "validatorAddress",
              "type": "address",
              "internalType": "address"
            },
            {
              "name": "activationEpoch",
              "type": "uint32",
              "internalType": "uint32"
            },
            {
              "name": "exitEpoch",
              "type": "uint32",
              "internalType": "uint32"
            },
            {
              "name": "currentStatus",
              "type": "uint8",
              "internalType": "enum IConsensusRegistry.ValidatorStatus"
            },
            {
              "name": "isRetired",
              "type": "bool",
              "internalType": "bool"
            },
            {
              "name": "isDelegated",
              "type": "bool",
              "internalType": "bool"
            },
            {
              "name": "stakeVersion",
              "type": "uint8",
              "internalType": "uint8"
            }
          ]
        }
      ],
      "stateMutability": "view"
    },
    {
      "type": "function",
      "name": "getValidators",
      "inputs": [
        {
          "name": "status",
          "type": "uint8",
          "internalType": "enum IConsensusRegistry.ValidatorStatus"
        }
      ],
      "outputs": [
        {
          "name": "",
          "type": "tuple[]",
          "internalType": "struct IConsensusRegistry.ValidatorInfo[]",
          "components": [
            {
              "name": "blsPubkey",
              "type": "bytes",
              "internalType": "bytes"
            },
            {
              "name": "validatorAddress",
              "type": "address",
              "internalType": "address"
            },
            {
              "name": "activationEpoch",
              "type": "uint32",
              "internalType": "uint32"
            },
            {
              "name": "exitEpoch",
              "type": "uint32",
              "internalType": "uint32"
            },
            {
              "name": "currentStatus",
              "type": "uint8",
              "internalType": "enum IConsensusRegistry.ValidatorStatus"
            },
            {
              "name": "isRetired",
              "type": "bool",
              "internalType": "bool"
            },
            {
              "name": "isDelegated",
              "type": "bool",
              "internalType": "bool"
            },
            {
              "name": "stakeVersion",
              "type": "uint8",
              "internalType": "uint8"
            }
          ]
        }
      ],
      "stateMutability": "view"
    },
    {
      "type": "function",
      "name": "isAllowlisted",
      "inputs": [
        {
          "name": "validatorAddress",
          "type": "address",
          "internalType": "address"
        }
      ],
      "outputs": [
        {
          "name": "",
          "type": "bool",
          "internalType": "bool"
        }
      ],
      "stateMutability": "view"
    },
    {
      "type": "function",
      "name": "isRetired",
      "inputs": [
        {
          "name": "validatorAddress",
          "type": "address",
          "internalType": "address"
        }
      ],
      "outputs": [
        {
          "name": "",
          "type": "bool",
          "internalType": "bool"
        }
      ],
      "stateMutability": "view"
    },
    {
      "type": "function",
      "name": "owner",
      "inputs": [],
      "outputs": [
        {
          "name": "",
          "type": "address",
          "internalType": "address"
        }
      ],
      "stateMutability": "view"
    },
    {
      "type": "function",
      "name": "pause",
      "inputs": [],
      "outputs": [],
      "stateMutability": "nonpayable"
    },
    {
      "type": "function",
      "name": "paused",
      "inputs": [],
      "outputs": [
        {
          "name": "",
          "type": "bool",
          "internalType": "bool"
        }
      ],
      "stateMutability": "view"
    },
    {
      "type": "function",
      "name": "poolRewardBalances",
      "inputs": [
        {
          "name": "",
          "type": "address",
          "internalType": "address"
        }
      ],
      "outputs": [
        {
          "name": "",
          "type": "uint256",
          "internalType": "uint256"
        }
      ],
      "stateMutability": "view"
    },
    {
      "type": "function",
      "name": "proofOfPossessionMessage",
      "inputs": [
        {
          "name": "blsPubkeyUncompressed",
          "type": "bytes",
          "internalType": "bytes"
        },
        {
          "name": "validatorAddress",
          "type": "address",
          "internalType": "address"
        }
      ],
      "outputs": [
        {
          "name": "",
          "type": "bytes",
          "internalType": "bytes"
        }
      ],
      "stateMutability": "view"
    },
    {
      "type": "function",
      "name": "renounceOwnership",
      "inputs": [],
      "outputs": [],
      "stateMutability": "nonpayable"
    },
    {
      "type": "function",
      "name": "rlsToken",
      "inputs": [],
      "outputs": [
        {
          "name": "",
          "type": "address",
          "internalType": "address"
        }
      ],
      "stateMutability": "view"
    },
    {
      "type": "function",
      "name": "setDelegationPool",
      "inputs": [
        {
          "name": "pool",
          "type": "address",
          "internalType": "address"
        }
      ],
      "outputs": [],
      "stateMutability": "nonpayable"
    },
    {
      "type": "function",
      "name": "slashedFunds",
      "inputs": [],
      "outputs": [
        {
          "name": "",
          "type": "uint256",
          "internalType": "uint256"
        }
      ],
      "stateMutability": "view"
    },
    {
      "type": "function",
      "name": "stake",
      "inputs": [
        {
          "name": "blsPubkey",
          "type": "bytes",
          "internalType": "bytes"
        },
        {
          "name": "proofOfPossession",
          "type": "tuple",
          "internalType": "struct BlsG1.ProofOfPossession",
          "components": [
            {
              "name": "uncompressedPubkey",
              "type": "bytes",
              "internalType": "bytes"
            },
            {
              "name": "uncompressedSignature",
              "type": "bytes",
              "internalType": "bytes"
            }
          ]
        }
      ],
      "outputs": [],
      "stateMutability": "nonpayable"
    },
    {
      "type": "function",
      "name": "stakeConfig",
      "inputs": [
        {
          "name": "version",
          "type": "uint8",
          "internalType": "uint8"
        }
      ],
      "outputs": [
        {
          "name": "",
          "type": "tuple",
          "internalType": "struct IStakeManager.StakeConfig",
          "components": [
            {
              "name": "stakeAmount",
              "type": "uint256",
              "internalType": "uint256"
            },
            {
              "name": "minWithdrawAmount",
              "type": "uint256",
              "internalType": "uint256"
            },
            {
              "name": "epochDuration",
              "type": "uint32",
              "internalType": "uint32"
            }
          ]
        }
      ],
      "stateMutability": "view"
    },
    {
      "type": "function",
      "name": "transferOwnership",
      "inputs": [
        {
          "name": "newOwner",
          "type": "address",
          "internalType": "address"
        }
      ],
      "outputs": [],
      "stateMutability": "nonpayable"
    },
    {
      "type": "function",
      "name": "unpause",
      "inputs": [],
      "outputs": [],
      "stateMutability": "nonpayable"
    },
    {
      "type": "function",
      "name": "unstake",
      "inputs": [
        {
          "name": "validatorAddress",
          "type": "address",
          "internalType": "address"
        }
      ],
      "outputs": [],
      "stateMutability": "nonpayable"
    },
    {
      "type": "function",
      "name": "updateAllowlistBatch",
      "inputs": [
        {
          "name": "validatorAddresses",
          "type": "address[]",
          "internalType": "address[]"
        },
        {
          "name": "allowed",
          "type": "bool[]",
          "internalType": "bool[]"
        }
      ],
      "outputs": [],
      "stateMutability": "nonpayable"
    },
    {
      "type": "function",
      "name": "upgradeStakeVersion",
      "inputs": [
        {
          "name": "newConfig",
          "type": "tuple",
          "internalType": "struct IStakeManager.StakeConfig",
          "components": [
            {
              "name": "stakeAmount",
              "type": "uint256",
              "internalType": "uint256"
            },
            {
              "name": "minWithdrawAmount",
              "type": "uint256",
              "internalType": "uint256"
            },
            {
              "name": "epochDuration",
              "type": "uint32",
              "internalType": "uint32"
            }
          ]
        }
      ],
      "outputs": [
        {
          "name": "",
          "type": "uint8",
          "internalType": "uint8"
        }
      ],
      "stateMutability": "nonpayable"
    },
    {
      "type": "function",
      "name": "validatorAllowlist",
      "inputs": [
        {
          "name": "",
          "type": "address",
          "internalType": "address"
        }
      ],
      "outputs": [
        {
          "name": "",
          "type": "bool",
          "internalType": "bool"
        }
      ],
      "stateMutability": "view"
    },
    {
      "type": "function",
      "name": "validators",
      "inputs": [
        {
          "name": "",
          "type": "address",
          "internalType": "address"
        }
      ],
      "outputs": [
        {
          "name": "blsPubkey",
          "type": "bytes",
          "internalType": "bytes"
        },
        {
          "name": "validatorAddress",
          "type": "address",
          "internalType": "address"
        },
        {
          "name": "activationEpoch",
          "type": "uint32",
          "internalType": "uint32"
        },
        {
          "name": "exitEpoch",
          "type": "uint32",
          "internalType": "uint32"
        },
        {
          "name": "currentStatus",
          "type": "uint8",
          "internalType": "enum IConsensusRegistry.ValidatorStatus"
        },
        {
          "name": "isRetired",
          "type": "bool",
          "internalType": "bool"
        },
        {
          "name": "isDelegated",
          "type": "bool",
          "internalType": "bool"
        },
        {
          "name": "stakeVersion",
          "type": "uint8",
          "internalType": "uint8"
        }
      ],
      "stateMutability": "view"
    },
    {
      "type": "function",
      "name": "validatorsAddresses",
      "inputs": [
        {
          "name": "",
          "type": "uint256",
          "internalType": "uint256"
        }
      ],
      "outputs": [
        {
          "name": "",
          "type": "address",
          "internalType": "address"
        }
      ],
      "stateMutability": "view"
    },
    {
      "type": "function",
      "name": "withdrawSlashedFunds",
      "inputs": [
        {
          "name": "to",
          "type": "address",
          "internalType": "address"
        },
        {
          "name": "amount",
          "type": "uint256",
          "internalType": "uint256"
        }
      ],
      "outputs": [],
      "stateMutability": "nonpayable"
    },
    {
      "type": "event",
      "name": "DelegationPoolUpdated",
      "inputs": [
        {
          "name": "oldPool",
          "type": "address",
          "indexed": true,
          "internalType": "address"
        },
        {
          "name": "newPool",
          "type": "address",
          "indexed": true,
          "internalType": "address"
        }
      ],
      "anonymous": false
    },
    {
      "type": "event",
      "name": "NewEpoch",
      "inputs": [
        {
          "name": "epoch",
          "type": "tuple",
          "indexed": false,
          "internalType": "struct IConsensusRegistry.EpochInfo",
          "components": [
            {
              "name": "committee",
              "type": "address[]",
              "internalType": "address[]"
            },
            {
              "name": "blockHeight",
              "type": "uint64",
              "internalType": "uint64"
            },
            {
              "name": "epochDuration",
              "type": "uint32",
              "internalType": "uint32"
            },
            {
              "name": "stakeVersion",
              "type": "uint8",
              "internalType": "uint8"
            }
          ]
        }
      ],
      "anonymous": false
    },
    {
      "type": "event",
      "name": "OwnershipTransferred",
      "inputs": [
        {
          "name": "previousOwner",
          "type": "address",
          "indexed": true,
          "internalType": "address"
        },
        {
          "name": "newOwner",
          "type": "address",
          "indexed": true,
          "internalType": "address"
        }
      ],
      "anonymous": false
    },
    {
      "type": "event",
      "name": "Paused",
      "inputs": [
        {
          "name": "account",
          "type": "address",
          "indexed": false,
          "internalType": "address"
        }
      ],
      "anonymous": false
    },
    {
      "type": "event",
      "name": "RewardsClaimed",
      "inputs": [
        {
          "name": "claimant",
          "type": "address",
          "indexed": false,
          "internalType": "address"
        },
        {
          "name": "rewards",
          "type": "uint256",
          "indexed": false,
          "internalType": "uint256"
        }
      ],
      "anonymous": false
    },
    {
      "type": "event",
      "name": "SlashedFundsWithdrawn",
      "inputs": [
        {
          "name": "to",
          "type": "address",
          "indexed": true,
          "internalType": "address"
        },
        {
          "name": "amount",
          "type": "uint256",
          "indexed": false,
          "internalType": "uint256"
        }
      ],
      "anonymous": false
    },
    {
      "type": "event",
      "name": "Unpaused",
      "inputs": [
        {
          "name": "account",
          "type": "address",
          "indexed": false,
          "internalType": "address"
        }
      ],
      "anonymous": false
    },
    {
      "type": "event",
      "name": "ValidatorActivated",
      "inputs": [
        {
          "name": "validator",
          "type": "tuple",
          "indexed": false,
          "internalType": "struct IConsensusRegistry.ValidatorInfo",
          "components": [
            {
              "name": "blsPubkey",
              "type": "bytes",
              "internalType": "bytes"
            },
            {
              "name": "validatorAddress",
              "type": "address",
              "internalType": "address"
            },
            {
              "name": "activationEpoch",
              "type": "uint32",
              "internalType": "uint32"
            },
            {
              "name": "exitEpoch",
              "type": "uint32",
              "internalType": "uint32"
            },
            {
              "name": "currentStatus",
              "type": "uint8",
              "internalType": "enum IConsensusRegistry.ValidatorStatus"
            },
            {
              "name": "isRetired",
              "type": "bool",
              "internalType": "bool"
            },
            {
              "name": "isDelegated",
              "type": "bool",
              "internalType": "bool"
            },
            {
              "name": "stakeVersion",
              "type": "uint8",
              "internalType": "uint8"
            }
          ]
        }
      ],
      "anonymous": false
    },
    {
      "type": "event",
      "name": "ValidatorAllowlisted",
      "inputs": [
        {
          "name": "validatorAddress",
          "type": "address",
          "indexed": true,
          "internalType": "address"
        }
      ],
      "anonymous": false
    },
    {
      "type": "event",
      "name": "ValidatorDelisted",
      "inputs": [
        {
          "name": "validatorAddress",
          "type": "address",
          "indexed": true,
          "internalType": "address"
        }
      ],
      "anonymous": false
    },
    {
      "type": "event",
      "name": "ValidatorExited",
      "inputs": [
        {
          "name": "validator",
          "type": "tuple",
          "indexed": false,
          "internalType": "struct IConsensusRegistry.ValidatorInfo",
          "components": [
            {
              "name": "blsPubkey",
              "type": "bytes",
              "internalType": "bytes"
            },
            {
              "name": "validatorAddress",
              "type": "address",
              "internalType": "address"
            },
            {
              "name": "activationEpoch",
              "type": "uint32",
              "internalType": "uint32"
            },
            {
              "name": "exitEpoch",
              "type": "uint32",
              "internalType": "uint32"
            },
            {
              "name": "currentStatus",
              "type": "uint8",
              "internalType": "enum IConsensusRegistry.ValidatorStatus"
            },
            {
              "name": "isRetired",
              "type": "bool",
              "internalType": "bool"
            },
            {
              "name": "isDelegated",
              "type": "bool",
              "internalType": "bool"
            },
            {
              "name": "stakeVersion",
              "type": "uint8",
              "internalType": "uint8"
            }
          ]
        }
      ],
      "anonymous": false
    },
    {
      "type": "event",
      "name": "ValidatorPendingActivation",
      "inputs": [
        {
          "name": "validator",
          "type": "tuple",
          "indexed": false,
          "internalType": "struct IConsensusRegistry.ValidatorInfo",
          "components": [
            {
              "name": "blsPubkey",
              "type": "bytes",
              "internalType": "bytes"
            },
            {
              "name": "validatorAddress",
              "type": "address",
              "internalType": "address"
            },
            {
              "name": "activationEpoch",
              "type": "uint32",
              "internalType": "uint32"
            },
            {
              "name": "exitEpoch",
              "type": "uint32",
              "internalType": "uint32"
            },
            {
              "name": "currentStatus",
              "type": "uint8",
              "internalType": "enum IConsensusRegistry.ValidatorStatus"
            },
            {
              "name": "isRetired",
              "type": "bool",
              "internalType": "bool"
            },
            {
              "name": "isDelegated",
              "type": "bool",
              "internalType": "bool"
            },
            {
              "name": "stakeVersion",
              "type": "uint8",
              "internalType": "uint8"
            }
          ]
        }
      ],
      "anonymous": false
    },
    {
      "type": "event",
      "name": "ValidatorPendingExit",
      "inputs": [
        {
          "name": "validator",
          "type": "tuple",
          "indexed": false,
          "internalType": "struct IConsensusRegistry.ValidatorInfo",
          "components": [
            {
              "name": "blsPubkey",
              "type": "bytes",
              "internalType": "bytes"
            },
            {
              "name": "validatorAddress",
              "type": "address",
              "internalType": "address"
            },
            {
              "name": "activationEpoch",
              "type": "uint32",
              "internalType": "uint32"
            },
            {
              "name": "exitEpoch",
              "type": "uint32",
              "internalType": "uint32"
            },
            {
              "name": "currentStatus",
              "type": "uint8",
              "internalType": "enum IConsensusRegistry.ValidatorStatus"
            },
            {
              "name": "isRetired",
              "type": "bool",
              "internalType": "bool"
            },
            {
              "name": "isDelegated",
              "type": "bool",
              "internalType": "bool"
            },
            {
              "name": "stakeVersion",
              "type": "uint8",
              "internalType": "uint8"
            }
          ]
        }
      ],
      "anonymous": false
    },
    {
      "type": "event",
      "name": "ValidatorRetired",
      "inputs": [
        {
          "name": "validator",
          "type": "tuple",
          "indexed": false,
          "internalType": "struct IConsensusRegistry.ValidatorInfo",
          "components": [
            {
              "name": "blsPubkey",
              "type": "bytes",
              "internalType": "bytes"
            },
            {
              "name": "validatorAddress",
              "type": "address",
              "internalType": "address"
            },
            {
              "name": "activationEpoch",
              "type": "uint32",
              "internalType": "uint32"
            },
            {
              "name": "exitEpoch",
              "type": "uint32",
              "internalType": "uint32"
            },
            {
              "name": "currentStatus",
              "type": "uint8",
              "internalType": "enum IConsensusRegistry.ValidatorStatus"
            },
            {
              "name": "isRetired",
              "type": "bool",
              "internalType": "bool"
            },
            {
              "name": "isDelegated",
              "type": "bool",
              "internalType": "bool"
            },
            {
              "name": "stakeVersion",
              "type": "uint8",
              "internalType": "uint8"
            }
          ]
        }
      ],
      "anonymous": false
    },
    {
      "type": "event",
      "name": "ValidatorSlashed",
      "inputs": [
        {
          "name": "slash",
          "type": "tuple",
          "indexed": false,
          "internalType": "struct Slash",
          "components": [
            {
              "name": "validatorAddress",
              "type": "address",
              "internalType": "address"
            },
            {
              "name": "amount",
              "type": "uint256",
              "internalType": "uint256"
            }
          ]
        }
      ],
      "anonymous": false
    },
    {
      "type": "event",
      "name": "ValidatorStaked",
      "inputs": [
        {
          "name": "validator",
          "type": "tuple",
          "indexed": false,
          "internalType": "struct IConsensusRegistry.ValidatorInfo",
          "components": [
            {
              "name": "blsPubkey",
              "type": "bytes",
              "internalType": "bytes"
            },
            {
              "name": "validatorAddress",
              "type": "address",
              "internalType": "address"
            },
            {
              "name": "activationEpoch",
              "type": "uint32",
              "internalType": "uint32"
            },
            {
              "name": "exitEpoch",
              "type": "uint32",
              "internalType": "uint32"
            },
            {
              "name": "currentStatus",
              "type": "uint8",
              "internalType": "enum IConsensusRegistry.ValidatorStatus"
            },
            {
              "name": "isRetired",
              "type": "bool",
              "internalType": "bool"
            },
            {
              "name": "isDelegated",
              "type": "bool",
              "internalType": "bool"
            },
            {
              "name": "stakeVersion",
              "type": "uint8",
              "internalType": "uint8"
            }
          ]
        }
      ],
      "anonymous": false
    },
    {
      "type": "error",
      "name": "AllowlistBatchLengthMismatch",
      "inputs": []
    },
    {
      "type": "error",
      "name": "AlreadyDefined",
      "inputs": [
        {
          "name": "validatorAddress",
          "type": "address",
          "internalType": "address"
        }
      ]
    },
    {
      "type": "error",
      "name": "CommitteeRequirement",
      "inputs": [
        {
          "name": "validatorAddress",
          "type": "address",
          "internalType": "address"
        }
      ]
    },
    {
      "type": "error",
      "name": "DuplicateBLSPubkey",
      "inputs": []
    },
    {
      "type": "error",
      "name": "EnforcedPause",
      "inputs": []
    },
    {
      "type": "error",
      "name": "ExpectedPause",
      "inputs": []
    },
    {
      "type": "error",
      "name": "GenesisArityMismatch",
      "inputs": []
    },
    {
      "type": "error",
      "name": "IneligibleUnstake",
      "inputs": [
        {
          "name": "validator",
          "type": "tuple",
          "internalType": "struct IConsensusRegistry.ValidatorInfo",
          "components": [
            {
              "name": "blsPubkey",
              "type": "bytes",
              "internalType": "bytes"
            },
            {
              "name": "validatorAddress",
              "type": "address",
              "internalType": "address"
            },
            {
              "name": "activationEpoch",
              "type": "uint32",
              "internalType": "uint32"
            },
            {
              "name": "exitEpoch",
              "type": "uint32",
              "internalType": "uint32"
            },
            {
              "name": "currentStatus",
              "type": "uint8",
              "internalType": "enum IConsensusRegistry.ValidatorStatus"
            },
            {
              "name": "isRetired",
              "type": "bool",
              "internalType": "bool"
            },
            {
              "name": "isDelegated",
              "type": "bool",
              "internalType": "bool"
            },
            {
              "name": "stakeVersion",
              "type": "uint8",
              "internalType": "uint8"
            }
          ]
        }
      ]
    },
    {
      "type": "error",
      "name": "InsufficientRewards",
      "inputs": [
        {
          "name": "withdrawAmount",
          "type": "uint256",
          "internalType": "uint256"
        }
      ]
    },
    {
      "type": "error",
      "name": "InvalidBLSPubkey",
      "inputs": []
    },
    {
      "type": "error",
      "name": "InvalidCommitteeSize",
      "inputs": [
        {
          "name": "minCommitteeSize",
          "type": "uint256",
          "internalType": "uint256"
        },
        {
          "name": "providedCommitteeSize",
          "type": "uint256",
          "internalType": "uint256"
        }
      ]
    },
    {
      "type": "error",
      "name": "InvalidDuration",
      "inputs": [
        {
          "name": "duration",
          "type": "uint32",
          "internalType": "uint32"
        }
      ]
    },
    {
      "type": "error",
      "name": "InvalidEpoch",
      "inputs": [
        {
          "name": "epoch",
          "type": "uint32",
          "internalType": "uint32"
        }
      ]
    },
    {
      "type": "error",
      "name": "InvalidProofOfPossession",
      "inputs": [
        {
          "name": "proof",
          "type": "tuple",
          "internalType": "struct BlsG1.ProofOfPossession",
          "components": [
            {
              "name": "uncompressedPubkey",
              "type": "bytes",
              "internalType": "bytes"
            },
            {
              "name": "uncompressedSignature",
              "type": "bytes",
              "internalType": "bytes"
            }
          ]
        },
        {
          "name": "message",
          "type": "bytes",
          "internalType": "bytes"
        }
      ]
    },
    {
      "type": "error",
      "name": "InvalidStakeAmount",
      "inputs": [
        {
          "name": "stakeAmount",
          "type": "uint256",
          "internalType": "uint256"
        },
        {
          "name": "requiredAmount",
          "type": "uint256",
          "internalType": "uint256"
        }
      ]
    },
    {
      "type": "error",
      "name": "InvalidStatus",
      "inputs": [
        {
          "name": "status",
          "type": "uint8",
          "internalType": "enum IConsensusRegistry.ValidatorStatus"
        }
      ]
    },
    {
      "type": "error",
      "name": "InvalidTokenId",
      "inputs": [
        {
          "name": "tokenId",
          "type": "uint256",
          "internalType": "uint256"
        }
      ]
    },
    {
      "type": "error",
      "name": "InvalidValidatorAddress",
      "inputs": []
    },
    {
      "type": "error",
      "name": "InvalidValidatorSupply",
      "inputs": []
    },
    {
      "type": "error",
      "name": "NotAllowlisted",
      "inputs": [
        {
          "name": "validatorAddress",
          "type": "address",
          "internalType": "address"
        }
      ]
    },
    {
      "type": "error",
      "name": "NotRecipient",
      "inputs": [
        {
          "name": "recipient",
          "type": "address",
          "internalType": "address"
        }
      ]
    },
    {
      "type": "error",
      "name": "NotTransferable",
      "inputs": []
    },
    {
      "type": "error",
      "name": "NotValidator",
      "inputs": [
        {
          "name": "validatorAddress",
          "type": "address",
          "internalType": "address"
        }
      ]
    },
    {
      "type": "error",
      "name": "OnlySystemCall",
      "inputs": [
        {
          "name": "invalidCaller",
          "type": "address",
          "internalType": "address"
        }
      ]
    },
    {
      "type": "error",
      "name": "OwnableInvalidOwner",
      "inputs": [
        {
          "name": "owner",
          "type": "address",
          "internalType": "address"
        }
      ]
    },
    {
      "type": "error",
      "name": "OwnableUnauthorizedAccount",
      "inputs": [
        {
          "name": "account",
          "type": "address",
          "internalType": "address"
        }
      ]
    },
    {
      "type": "error",
      "name": "Reentrancy",
      "inputs": []
    },
    {
      "type": "error",
      "name": "SafeERC20FailedOperation",
      "inputs": [
        {
          "name": "token",
          "type": "address",
          "internalType": "address"
        }
      ]
    },
    {
      "type": "error",
      "name": "ValidatorNotFound",
      "inputs": [
        {
          "name": "validatorAddress",
          "type": "address",
          "internalType": "address"
        }
      ]
    }
  ],
  "bytecode": {
    "object": "0x610140604052348015610010575f80fd5b5060405161691e38038061691e83398101604081905261002f91610ea3565b306080524660a052808560608061008360408051808201825260128152712930bcb6399029ba30b5b2a6b0b730b3b2b960711b602080830191909152825180840190935260018352603160f81b9083015291565b815160209283012081519183019190912060c082905260e0819052604080517f8b73c3c69bb8fe3d512ecc4cf759cc79239f7b179b0ffacaa9a75d522b39400f8152938401929092529082015246606082015230608082015260a090206101005250506001600160a01b0390811661012052811661011b57604051631e4fbdf760e01b81525f60048201526024015b60405180910390fd5b6101248161093b565b508251158061013557508151835114155b1561015357604051633aa3e03360e01b815260040160405180910390fd5b5f8080526003602090815285517f3617319a054d772f909f7c479a2cebe5066e836a939412e32403c99029b92eff558501517f3617319a054d772f909f7c479a2cebe5066e836a939412e32403c99029b92f005560408501517f3617319a054d772f909f7c479a2cebe5066e836a939412e32403c99029b92f01805463ffffffff191663ffffffff9092169190911790555b60028111610240575f6009826004811061020157610201610f6a565b60020201905085604001518160010160086101000a81548163ffffffff021916908363ffffffff160217905550508061023990610f7e565b90506101e5565b505f5b8351811015610930575f84828151811061025f5761025f610f6a565b602002602001015190505f61029a85848151811061027f5761027f610f6a565b60200260200101515f0151836020015161099460201b60201c565b90505f73__$2ef4e8110a3eaa1255da7f08f8eebcbf5a$__63a691a08b8786815181106102c9576102c9610f6a565b60200260200101515f01516040518263ffffffff1660e01b81526004016102f09190610fd0565b5f60405180830381865af415801561030a573d5f803e3d5ffd5b505050506040513d5f823e601f3d908101601f191682016040526103319190810190610fe9565b90505f73__$2ef4e8110a3eaa1255da7f08f8eebcbf5a$__633d2a9e1188878151811061036057610360610f6a565b6020026020010151602001516040518263ffffffff1660e01b81526004016103889190610fd0565b5f60405180830381865af41580156103a2573d5f803e3d5ffd5b505050506040513d5f823e601f3d908101601f191682016040526103c99190810190610fe9565b604051634f98273b60e01b815290915073__$2ef4e8110a3eaa1255da7f08f8eebcbf5a$__90634f98273b9061040790859085908890600401611022565b602060405180830381865af4158015610422573d5f803e3d5ffd5b505050506040513d601f19601f820116820180604052508101906104469190611064565b610463576040516333a234f960e11b815260040160405180910390fd5b60208401516001600160a01b031661048e5760405163713ce51160e01b815260040160405180910390fd5b604084015163ffffffff16156104c5576040808501519051634fadd4d360e11b815263ffffffff9091166004820152602401610112565b606084015163ffffffff16156104fc576060840151604051634fadd4d360e11b815263ffffffff9091166004820152602401610112565b6003846080015160068111156105145761051461107d565b14610538578360800151604051633ba7bf8960e11b815260040161011291906110b1565b60a08401511561055e576005604051633ba7bf8960e11b815260040161011291906110b1565b60c08401511515600103610637576040805160a08101825285518051602091820120825280870180516001600160a01b039081168385019081528b82168587019081525f60608701818152600160808901818152965186168352600590975297902095518655905193850180546001600160a01b0319169483169490941790935591516002909301805494519151939092166001600160a81b031990941693909317600160a01b60ff9094169390930292909217600160a81b600160e81b031916600160a81b6001600160401b03909216919091021790555b60e084015160ff161561066e5760e0840151604051630cf4985560e11b815260ff90911660048201525f6024820152604401610112565b5f5b6002811161072c576009816004811061068b5761068b610f6a565b6020878101516002929092029290920180546001810182555f91825292902090910180546001600160a01b0319166001600160a01b03909216919091179055601181600481106106dd576106dd610f6a565b6020878101516002929092029290920180546001810182555f91825292902090910180546001600160a01b0319166001600160a01b0390921691909117905561072581610f7e565b9050610670565b506020808501516001600160a01b03165f9081526019909152604090208451859190819061075a9082611143565b5060208201516001820180546040850151606086015163ffffffff908116600160c01b0263ffffffff60c01b1991909216600160a01b026001600160c01b03199093166001600160a01b0390951694909417919091179283168117825560808501519260ff60e01b1990911664ffffffffff60c01b1990911617600160e01b8360068111156107eb576107eb61107d565b021790555060a08201516001909101805460c084015160e09094015160ff16600160f81b026001600160f81b03941515600160f01b0260ff60f01b19941515600160e81b029490941661ffff60e81b19909216919091179290921792909216179055602084015189516108c291906001600160a01b0382165f8181526004602090815260408083208590556001805480820182557fb10e2d527612073b26eecdfd717e6a320cf44b4afac2b0732d9fcbe2b7fa0cf60180546001600160a01b03191690951790945592546002909152919020555050565b6020808501516001600160a01b03165f908152601c909152604090819020805460ff19166001179055517f31845bad1fcdd92490e8d85605449863a562ea940e37b380a276e440683fdb72906109199086906111fd565b60405180910390a150505050806001019050610243565b505050505050611304565b600880546001600160a01b03838116610100818102610100600160a81b031985161790945560405193909204169182907f8be0079c531659141344cd1fd0a4f28419497f9722a3daafe3b4186f6b6457e0905f90a35050565b60605f73__$2ef4e8110a3eaa1255da7f08f8eebcbf5a$__63a691a08b856040518263ffffffff1660e01b81526004016109ce9190610fd0565b5f60405180830381865af41580156109e8573d5f803e3d5ffd5b505050506040513d5f823e601f3d908101601f19168201604052610a0f9190810190610fe9565b6040516329bd7cc960e21b815290915073__$2ef4e8110a3eaa1255da7f08f8eebcbf5a$__9063a6f5f32490610a49908490600401610fd0565b602060405180830381865af4158015610a64573d5f803e3d5ffd5b505050506040513d601f19601f82011682018060405250810190610a889190611064565b610aa5576040516333a234f960e11b815260040160405180910390fd5b604051610ac99061d50160d81b908690600560fa1b90606088901b9060200161129c565b6040516020818303038152906040529150505b92915050565b80516001600160a01b0381168114610af8575f80fd5b919050565b634e487b7160e01b5f52604160045260245ffd5b60405161010081016001600160401b0381118282101715610b3457610b34610afd565b60405290565b604080519081016001600160401b0381118282101715610b3457610b34610afd565b604051606081016001600160401b0381118282101715610b3457610b34610afd565b604051601f8201601f191681016001600160401b0381118282101715610ba657610ba6610afd565b604052919050565b805163ffffffff81168114610af8575f80fd5b5f6001600160401b03821115610bd957610bd9610afd565b5060051b60200190565b5f82601f830112610bf2575f80fd5b81516001600160401b03811115610c0b57610c0b610afd565b610c1e601f8201601f1916602001610b7e565b818152846020838601011115610c32575f80fd5b8160208501602083015e5f918101602001919091529392505050565b805160078110610af8575f80fd5b80518015158114610af8575f80fd5b805160ff81168114610af8575f80fd5b5f82601f830112610c8a575f80fd5b8151610c9d610c9882610bc1565b610b7e565b8082825260208201915060208360051b860101925085831115610cbe575f80fd5b602085015b83811015610daf5780516001600160401b03811115610ce0575f80fd5b8601610100818903601f19011215610cf6575f80fd5b610cfe610b11565b60208201516001600160401b03811115610d16575f80fd5b610d258a602083860101610be3565b825250610d3460408301610ae2565b6020820152610d4560608301610bae565b6040820152610d5660808301610bae565b6060820152610d6760a08301610c4e565b6080820152610d7860c08301610c5c565b60a0820152610d8960e08301610c5c565b60c0820152610d9b6101008301610c6b565b60e082015284525060209283019201610cc3565b5095945050505050565b5f82601f830112610dc8575f80fd5b8151610dd6610c9882610bc1565b8082825260208201915060208360051b860101925085831115610df7575f80fd5b602085015b83811015610daf5780516001600160401b03811115610e19575f80fd5b86016040818903601f19011215610e2e575f80fd5b610e36610b3a565b60208201516001600160401b03811115610e4e575f80fd5b610e5d8a602083860101610be3565b82525060408201516001600160401b03811115610e78575f80fd5b610e878a602083860101610be3565b6020830152508085525050602083019250602081019050610dfc565b5f805f805f85870360e0811215610eb8575f80fd5b610ec187610ae2565b95506060601f1982011215610ed4575f80fd5b50610edd610b5c565b6020878101518252604088015190820152610efa60608801610bae565b604082015260808701519094506001600160401b03811115610f1a575f80fd5b610f2688828901610c7b565b60a088015190945090506001600160401b03811115610f43575f80fd5b610f4f88828901610db9565b925050610f5e60c08701610ae2565b90509295509295909350565b634e487b7160e01b5f52603260045260245ffd5b5f60018201610f9b57634e487b7160e01b5f52601160045260245ffd5b5060010190565b5f81518084528060208401602086015e5f602082860101526020601f19601f83011685010191505092915050565b602081525f610fe26020830184610fa2565b9392505050565b5f60208284031215610ff9575f80fd5b81516001600160401b0381111561100e575f80fd5b61101a84828501610be3565b949350505050565b606081525f6110346060830186610fa2565b82810360208401526110468186610fa2565b9050828103604084015261105a8185610fa2565b9695505050505050565b5f60208284031215611074575f80fd5b610fe282610c5c565b634e487b7160e01b5f52602160045260245ffd5b600781106110ad57634e487b7160e01b5f52602160045260245ffd5b9052565b60208101610adc8284611091565b600181811c908216806110d357607f821691505b6020821081036110f157634e487b7160e01b5f52602260045260245ffd5b50919050565b601f82111561113e57805f5260205f20601f840160051c8101602085101561111c5750805b601f840160051c820191505b8181101561113b575f8155600101611128565b50505b505050565b81516001600160401b0381111561115c5761115c610afd565b6111708161116a84546110bf565b846110f7565b6020601f8211600181146111a2575f831561118b5750848201515b5f19600385901b1c1916600184901b17845561113b565b5f84815260208120601f198516915b828110156111d157878501518255602094850194600190920191016111b1565b50848210156111ee57868401515f19600387901b60f8161c191681555b50505050600190811b01905550565b602081525f8251610100602084015261121a610120840182610fa2565b905060018060a01b03602085015116604084015263ffffffff60408501511660608401526060840151611255608085018263ffffffff169052565b50608084015161126860a0850182611091565b5060a084015180151560c08501525060c084015180151560e08501525060e084015160ff8116610100850152509392505050565b6001600160d81b03198516815283515f908060208701600585015e7fff00000000000000000000000000000000000000000000000000000000000000949094169190930160058101919091526001600160601b0319919091166006820152601a019392505050565b60805160a05160c05160e05161010051610120516155a96113755f395f81816102ed0152818161059d0152818161121d015281816121a9015281816126c8015281816131f20152613f7601525f61391a01525f6139d401525f6139ae01525f61395e01525f61393b01526155a95ff3fe608060405234801561000f575f80fd5b50600436106102b1575f3560e01c80636f99f15c1161017b578063a0201be5116100e4578063babc394f1161009e578063e3716d0411610079578063e3716d041461070d578063f2888dbb14610720578063f2fde38b14610733578063fa52c7d814610746575f80fd5b8063babc394f146106d0578063c750734b146106d8578063ce1a8581146106fa575f80fd5b8063a0201be51461064c578063a71954ec1461065f578063b363c6c214610672578063b505f3ed14610685578063b518432414610698578063b97dd9e2146106ab575f80fd5b80638456cb59116101355780638456cb59146105c157806384b0196e146105c95780638bb43f3a146105e45780638cc05eda146105f75780638da5cb5b14610617578063940733731461062d575f80fd5b80636f99f15c14610526578063715018a61461053d57806379ee54f7146105455780637b55a300146105585780637d06fdf81461056b5780638188a2641461059b575f80fd5b806332a262741161021d578063561b204f116101d7578063561b204f146104a857806359ca93b6146104bb5780635c975abb146104ce57806367398331146104d95780636850eb31146104f35780636d3c627514610513575f80fd5b806332a262741461040c5780633434735f1461041f578063374ed18c1461042d5780633894228e1461044d5780633f4ba83a1461048d57806343923f6f14610495575f80fd5b80630f15f4c01161026e5780630f15f4c014610388578063125eb8441461039057806315b5709a146103a35780631904bb2e146103d15780632228dfa0146103f15780632b9f4985146103f9575f80fd5b806301b0d022146102b557806302ae337b146102d357806302ca3794146102e857806305a3b809146103275780630a36cdef146103625780630b795b1414610375575b5f80fd5b6102bd61076d565b6040516102ca9190614664565b60405180910390f35b6102e66102e1366004614723565b61085b565b005b61030f7f000000000000000000000000000000000000000000000000000000000000000081565b6040516001600160a01b0390911681526020016102ca565b610352610335366004614777565b6001600160a01b03165f908152601c602052604090205460ff1690565b60405190151581526020016102ca565b6102e6610370366004614723565b610c80565b6102e66103833660046147d0565b61101b565b6102e6611123565b6102e661039e36600461483a565b611162565b6103b66103b1366004614777565b61128b565b604080519384526020840192909252908201526060016102ca565b6103e46103df366004614777565b6112f4565b6040516102ca9190614965565b6102e6611454565b6102e6610407366004614777565b611587565b6102e661041a366004614777565b6116db565b61030f6002600160a01b0381565b61044061043b366004614988565b61174b565b6040516102ca91906149a3565b61046061045b3660046149fa565b6118c4565b604080516001600160401b03909416845263ffffffff909216602084015260ff16908201526060016102ca565b6102e6611902565b6102e66104a3366004614777565b611914565b6102e66104b6366004614777565b61196d565b6104606104c93660046149fa565b611a06565b60085460ff16610352565b6104e1611a15565b60405160ff90911681526020016102ca565b610506610501366004614acd565b611a27565b6040516102ca9190614b17565b610352610521366004614777565b611b75565b61052f601b5481565b6040519081526020016102ca565b6102e6611be1565b61052f610553366004614777565b611bf2565b6102e6610566366004614b29565b611c37565b610573611d4f565b6040805182518152602080840151908201529181015163ffffffff16908201526060016102ca565b7f000000000000000000000000000000000000000000000000000000000000000061030f565b6102e6611db8565b6105d1611dc8565b6040516102ca9796959493929190614b5b565b6102e66105f2366004614cbb565b611e2d565b61060a610605366004614d62565b6122db565b6040516102ca9190614d80565b60085461010090046001600160a01b031661030f565b61052f61063b366004614777565b60076020525f908152604090205481565b61060a61065a366004614988565b612319565b61057361066d366004614de3565b6123da565b61030f6106803660046149fa565b612442565b60065461030f906001600160a01b031681565b6102e66106a6366004614e03565b61246a565b600854600160a81b900463ffffffff1660405163ffffffff90911681526020016102ca565b610440612708565b6103526106e6366004614777565b601c6020525f908152604090205460ff1681565b6104e1610708366004614e6a565b6127ef565b61052f61071b366004614e83565b6128a3565b6102e661072e366004614777565b612951565b6102e6610741366004614777565b612a6f565b610759610754366004614777565b612aa9565b6040516102ca989796959493929190614edc565b610790604051806060016040528060608152602001606081526020015f81525090565b60408051601d80546080602082028401810190945260608301818152929391928492909184918401828280156107ed57602002820191905f5260205f20905b81546001600160a01b031681526001909101906020018083116107cf575b505050505081526020016001820180548060200260200160405190810160405280929190818152602001828054801561084357602002820191905f5260205f20905b81548152602001906001019080831161082f575b50505050508152602001600282015481525050905090565b336002600160a01b031461088957604051637eb3357160e01b81523360048201526024015b60405180910390fd5b6006546001600160a01b03165f5b82811015610c7a57368484838181106108b2576108b2614f44565b6040029190910191506108cd90506105216020830183614777565b156108d85750610c72565b60208101355f6001600160a01b03851615610a0d575f6001600160a01b03861663187f92b661090a6020870187614777565b6040516001600160e01b031960e084901b1681526001600160a01b039091166004820152602401602060405180830381865afa15801561094c573d5f803e3d5ffd5b505050506040513d601f19601f820116820180604052508101906109709190614f58565b90508015610a0b575f6004816109896020880188614777565b6001600160a01b0316815260208101919091526040015f9081205491506109b08383614f83565b9050806001816109c48560208b0135614f96565b6109ce9190614f83565b6109d89190614fad565b6109e29190614fd4565b945085602001358511156109f857856020013594505b610a06856020880135614fad565b935050505b505b8160045f610a1e6020870187614777565b6001600160a01b03166001600160a01b031681526020019081526020015f20541115610a8d578160045f610a556020870187614777565b6001600160a01b03166001600160a01b031681526020019081526020015f205f828254610a829190614fad565b90915550610b8c9050565b8015610b38575f6001600160a01b03861663c29cf991610ab06020870187614777565b6040516001600160e01b031960e084901b1681526001600160a01b039091166004820152602481018590526044016020604051808303815f875af1158015610afa573d5f803e3d5ffd5b505050506040513d601f19601f82011682018060405250810190610b1e9190614f58565b905080601b5f828254610b319190614f83565b9091555050505b610b4d610b486020850185614777565b612b97565b7f11a09f9b32440d896abff7453bf53f8b26ffcb18dae4dca227f7a76e2acc3a6483604051610b7c9190614fe7565b60405180910390a1505050610c72565b8015610c37575f6001600160a01b03861663c29cf991610baf6020870187614777565b6040516001600160e01b031960e084901b1681526001600160a01b039091166004820152602481018590526044016020604051808303815f875af1158015610bf9573d5f803e3d5ffd5b505050506040513d601f19601f82011682018060405250810190610c1d9190614f58565b905080601b5f828254610c309190614f83565b9091555050505b7f11a09f9b32440d896abff7453bf53f8b26ffcb18dae4dca227f7a76e2acc3a6483604051610c669190614fe7565b60405180910390a15050505b600101610897565b50505050565b336002600160a01b0314610ca957604051637eb3357160e01b8152336004820152602401610880565b601d5f610cb682826144d7565b610cc3600183015f6144d7565b505f6002919091018190558080836001600160401b03811115610ce857610ce8614a11565b604051908082528060200260200182016040528015610d11578160200160208202803683370190505b5090505f846001600160401b03811115610d2d57610d2d614a11565b604051908082528060200260200182016040528015610d56578160200160208202803683370190505b5090505f5b85811015610e885736878783818110610d7657610d76614f44565b905060400201905080602001355f03610d8f5750610e80565b610d9f6105216020830183614777565b15610daa5750610e80565b5f601981610dbb6020850185614777565b6001600160a01b0316815260208082019290925260409081015f90812060010154600160f81b900460ff1680825260038452918120549193509091610e039085013583614f96565b9050610e126020850185614777565b878981518110610e2457610e24614f44565b60200260200101906001600160a01b031690816001600160a01b03168152505080868981518110610e5757610e57614f44565b6020908102919091010152610e6c818a614f83565b985087610e7881615010565b985050505050505b600101610d5b565b50835f03610e9857505050505050565b5f836001600160401b03811115610eb157610eb1614a11565b604051908082528060200260200182016040528015610eda578160200160208202803683370190505b5090505f846001600160401b03811115610ef657610ef6614a11565b604051908082528060200260200182016040528015610f1f578160200160208202803683370190505b5090505f5b85811015610fb757848181518110610f3e57610f3e614f44565b6020026020010151838281518110610f5857610f58614f44565b60200260200101906001600160a01b031690816001600160a01b031681525050838181518110610f8a57610f8a614f44565b6020026020010151828281518110610fa457610fa4614f44565b6020908102919091010152600101610f24565b5060408051606081018252838152602080820184905291810188905283519091601d91610fe9918391908701906144f2565b5060208281015180516110029260018501920190614555565b50604082015181600201559050505050505050505b5050565b611023612c46565b828114611043576040516337bbfa7f60e11b815260040160405180910390fd5b5f5b8381101561111c575f85858381811061106057611060614f44565b90506020020160208101906110759190614777565b6001600160a01b03160361109c5760405163713ce51160e01b815260040160405180910390fd5b8282828181106110ae576110ae614f44565b90506020020160208101906110c39190615035565b601c5f8787858181106110d8576110d8614f44565b90506020020160208101906110ed9190614777565b6001600160a01b0316815260208101919091526040015f20805460ff1916911515919091179055600101611045565b5050505050565b61112b612c79565b611136336001612c9d565b335f90815260196020526040902060085461115f908290600160a81b900463ffffffff16612d0b565b50565b61116a612c46565b5f81116111a75760405162461bcd60e51b815260206004820152600b60248201526a16995c9bc8185b5bdd5b9d60aa1b6044820152606401610880565b601b548111156111f95760405162461bcd60e51b815260206004820152601a60248201527f496e73756666696369656e7420736c61736865642066756e64730000000000006044820152606401610880565b80601b5f82825461120a9190614fad565b9091555061124490506001600160a01b037f0000000000000000000000000000000000000000000000000000000000000000168383612d8b565b816001600160a01b03167fb676ae97062e33f756c764dee2ac7159404c29ad516c4b5dfb707dc7d4e12bd48260405161127f91815260200190565b60405180910390a25050565b6001600160a01b0381165f90815260196020908152604080832060010154600160f81b900460ff16808452600390925282205482918291826112cd8783612dea565b6001600160a01b03979097165f908152600460205260409020549791969550909350505050565b6112fc61458e565b6001600160a01b0382165f90815260196020526040908190208151610100810190925280548290829061132e90615050565b80601f016020809104026020016040519081016040528092919081815260200182805461135a90615050565b80156113a55780601f1061137c576101008083540402835291602001916113a5565b820191905f5260205f20905b81548152906001019060200180831161138857829003601f168201915b505050918352505060018201546001600160a01b038116602083015263ffffffff600160a01b820481166040840152600160c01b820416606083015260809091019060ff600160e01b90910416600681111561140357611403614890565b600681111561141457611414614890565b81526001919091015460ff600160e81b8204811615156020840152600160f01b8204811615156040840152600160f81b9091041660609091015292915050565b61145c612c79565b335f90815260026020526040812054900361148c57604051635a4887e160e01b8152336004820152602401610880565b5f6114976003612e23565b5190505f6114a56004612e23565b5190505f6114b38284614fad565b6008549091505f90600990600160c81b900460ff16600481106114d8576114d8614f44565b600202015490506001821161150a57604051635700689f60e11b81526004810183905260248101829052604401610880565b61151484826130e1565b61151f336003612c9d565b335f908152601960205260409020600854600182015463ffffffff600160a81b909204821691600160a01b9091041681101561157657604051634fadd4d360e11b815263ffffffff82166004820152602401610880565b61157f8261311e565b505050505050565b61158f612c79565b3068929eee149b4bd2126854036115ad5763ab143c065f526004601cfd5b3068929eee149b4bd21268556001600160a01b0381165f9081526002602052604081205490036115fb57604051635a4887e160e01b81526001600160a01b0382166004820152602401610880565b6001600160a01b0381165f90815260196020526040812060010154600160f81b900460ff169061162a83613176565b9050336001600160a01b0384161480159061164e5750336001600160a01b03821614155b156116775760405163172b4e7560e11b81526001600160a01b0382166004820152602401610880565b5f6116838483856131a7565b604080516001600160a01b0385168152602081018390529192507ffc30cddea38e2bf4d6ea7d3f9ed3b6ad7f176419f4963bd81318067a4aee73fe91015b60405180910390a15050503868929eee149b4bd212685550565b6116e3612c46565b6001600160a01b0381165f908152601c602052604090205460ff161561115f576001600160a01b0381165f818152601c6020526040808220805460ff19169055517f5c931e818bbcc54a635deb52618626b433f4ba9eae8ac7da226edfc5fadd5d9b9190a250565b6040805160808101825260608082525f60208301819052928201839052810191909152600854600160a81b900463ffffffff16611789816002615088565b63ffffffff168363ffffffff1611806117c9575060038163ffffffff16101580156117c957506117ba6003826150a4565b63ffffffff168363ffffffff16105b156117ef57604051634fadd4d360e11b815263ffffffff84166004820152602401610880565b600854600160c81b900460ff1663ffffffff82811690851611156118b957611818848383613219565b60408051825460a0602082028301810190935260808201818152919392849291849184018282801561187157602002820191905f5260205f20905b81546001600160a01b03168152600190910190602001808311611853575b5050509183525050600191909101546001600160401b0381166020830152600160401b810463ffffffff166040830152600160601b900460ff16606090910152949350505050565b611818848383613261565b600981600481106118d3575f80fd5b60020201600101546001600160401b0381169150600160401b810463ffffffff1690600160601b900460ff1683565b61190a612c46565b6119126132c1565b565b61191c612c46565b600680546001600160a01b038381166001600160a01b0319831681179093556040519116919082907f75fc94c29a6ffe9db00f38dd07a469863ec11fb2ef120b30ad7fcf957225e9e2905f90a35050565b611975612c46565b6001600160a01b03811661199c5760405163713ce51160e01b815260040160405180910390fd5b6001600160a01b0381165f908152601c602052604090205460ff1661115f576001600160a01b0381165f818152601c6020526040808220805460ff19166001179055517f4f30a66947427c26c71bdc5d52dc3076f75cb21fd29ffe5d589fc9978e1a2c759190a250565b601181600481106118d3575f80fd5b5f611a1e612708565b60600151905090565b60605f73__$2ef4e8110a3eaa1255da7f08f8eebcbf5a$__63a691a08b856040518263ffffffff1660e01b8152600401611a619190614b17565b5f60405180830381865af4158015611a7b573d5f803e3d5ffd5b505050506040513d5f823e601f3d908101601f19168201604052611aa291908101906150c0565b6040516329bd7cc960e21b815290915073__$2ef4e8110a3eaa1255da7f08f8eebcbf5a$__9063a6f5f32490611adc908490600401614b17565b602060405180830381865af4158015611af7573d5f803e3d5ffd5b505050506040513d601f19601f82011682018060405250810190611b1b9190615134565b611b38576040516333a234f960e11b815260040160405180910390fd5b604051611b5c9061d50160d81b908690600560fa1b90606088901b9060200161514f565b6040516020818303038152906040529150505b92915050565b5f806001600160a01b0383165f90815260196020526040902060010154600160e01b900460ff166006811115611bad57611bad614890565b03611bb957505f919050565b506001600160a01b03165f90815260196020526040902060010154600160e81b900460ff1690565b611be9612c46565b6119125f613313565b6001600160a01b0381165f90815260196020908152604080832060010154600160f81b900460ff168084526003909252822054611c2f8482612dea565b949350505050565b336002600160a01b0314611c6057604051637eb3357160e01b8152336004820152602401610880565b611c6a828261336c565b5f805f611ca88585808060200260200160405190810160405280939291908181526020018383602002808284375f9201919091525061344492505050565b925092509250611cb9858585613635565b5f611cc46003612e23565b8051909150611cd390866130e1565b7fff1a45adbf800363f3bfed2bf267e6fcedabaef0ee7687970cc145557c3f44f26040518060800160405280848152602001436001611d129190614f83565b6001600160401b0316815263ffffffff861660208201525f5460ff1660409182015251611d3f91906149a3565b60405180910390a1505050505050565b611d7660405180606001604052805f81526020015f81526020015f63ffffffff1681525090565b505f805460ff168152600360209081526040918290208251606081018452815481526001820154928101929092526002015463ffffffff169181019190915290565b611dc0612c46565b611912613885565b600f60f81b6060805f808083611e1b60408051808201825260128152712930bcb6399029ba30b5b2a6b0b730b3b2b960711b602080830191909152825180840190935260018352603160f81b9083015291565b97989097965046955030945091925090565b611e35612c79565b60608514611e56576040516333a234f960e11b815260040160405180910390fd5b5f611e64855f015185611a27565b855160405163a691a08b60e01b81529192505f9173__$2ef4e8110a3eaa1255da7f08f8eebcbf5a$__9163a691a08b91611ea19190600401614b17565b5f60405180830381865af4158015611ebb573d5f803e3d5ffd5b505050506040513d5f823e601f3d908101601f19168201604052611ee291908101906150c0565b90505f73__$2ef4e8110a3eaa1255da7f08f8eebcbf5a$__633d2a9e1188602001516040518263ffffffff1660e01b8152600401611f209190614b17565b5f60405180830381865af4158015611f3a573d5f803e3d5ffd5b505050506040513d5f823e601f3d908101601f19168201604052611f6191908101906150c0565b604051634f98273b60e01b815290915073__$2ef4e8110a3eaa1255da7f08f8eebcbf5a$__90634f98273b90611f9f908590859088906004016151a4565b602060405180830381865af4158015611fba573d5f803e3d5ffd5b505050506040513d601f19601f82011682018060405250810190611fde9190615134565b61201457604080518082018252885181526020808a0151908201529051634babb8f160e01b8152610880919085906004016151e6565b5f61201d612708565b6060015160ff81165f908152600360205260408120549192509061204190836138c2565b905061204d885f612c9d565b6001600160a01b0388165f90815260056020526040808220600201549051600160a81b9091046001600160401b0316919061208b908e908e90615232565b60408051918290039091206001600160a01b038c165f908152601c602052919091205490915060ff166120dc57604051636f7a527560e01b81526001600160a01b038b166004820152602401610880565b60085461010090046001600160a01b03166001600160a01b0316336001600160a01b03161461219c575f7f9a361e91fa9aa610b5edf1d5c1cc20b9646c4228f3c004354ed2de7635dac994828c33888760405160200161214196959493929190615241565b6040516020818303038152906040528051906020012090505f61216382613918565b90506121718c828d8d613a2e565b61219957604051633b4f6e2b60e21b81526001600160a01b038d166004820152602401610880565b50505b6121d16001600160a01b037f000000000000000000000000000000000000000000000000000000000000000016333086613b1f565b6040518060a001604052808281526020018b6001600160a01b03168152602001336001600160a01b031681526020018560ff168152602001836001612216919061527f565b6001600160401b039081169091526001600160a01b03808d165f908152600560209081526040918290208551815590850151600180830180549286166001600160a01b03199093169290921790915591850151600290910180546060870151608090970151909516600160a81b0267ffffffffffffffff60a81b1960ff909716600160a01b026001600160a81b0319909616929094169190911793909317939093161790556122cc908e908e908d908888613b58565b50505050505050505050505050565b60605f8260068111156122f0576122f0614890565b036123105781604051633ba7bf8960e11b8152600401610880919061529e565b611b6f82612e23565b60605f6123258361174b565b5f015190505f81516001600160401b0381111561234457612344614a11565b60405190808252806020026020018201604052801561237d57816020015b61236a61458e565b8152602001906001900390816123625790505b5090505f5b81518110156123d2576123ad8382815181106123a0576123a0614f44565b60200260200101516112f4565b8282815181106123bf576123bf614f44565b6020908102919091010152600101612382565b509392505050565b61240160405180606001604052805f81526020015f81526020015f63ffffffff1681525090565b5060ff165f908152600360209081526040918290208251606081018452815481526001820154928101929092526002015463ffffffff169181019190915290565b60018181548110612451575f80fd5b5f918252602090912001546001600160a01b0316905081565b612472612c79565b60608214612493576040516333a234f960e11b815260040160405180910390fd5b335f908152601c602052604090205460ff166124c457604051636f7a527560e01b8152336004820152602401610880565b5f6124d2825f015133611a27565b825160405163a691a08b60e01b81529192505f9173__$2ef4e8110a3eaa1255da7f08f8eebcbf5a$__9163a691a08b9161250f9190600401614b17565b5f60405180830381865af4158015612529573d5f803e3d5ffd5b505050506040513d5f823e601f3d908101601f1916820160405261255091908101906150c0565b90505f73__$2ef4e8110a3eaa1255da7f08f8eebcbf5a$__633d2a9e1185602001516040518263ffffffff1660e01b815260040161258e9190614b17565b5f60405180830381865af41580156125a8573d5f803e3d5ffd5b505050506040513d5f823e601f3d908101601f191682016040526125cf91908101906150c0565b604051634f98273b60e01b815290915073__$2ef4e8110a3eaa1255da7f08f8eebcbf5a$__90634f98273b9061260d908590859088906004016151a4565b602060405180830381865af4158015612628573d5f803e3d5ffd5b505050506040513d601f19601f8201168201806040525081019061264c9190615134565b6126825760408051808201825285518152602080870151908201529051634babb8f160e01b8152610880919085906004016151e6565b5f61268b612708565b6060015160ff81165f90815260036020526040812054919250906126af90836138c2565b90506126bb335f612c9d565b6126f06001600160a01b037f000000000000000000000000000000000000000000000000000000000000000016333084613b1f565b6126fe8888335f8686613b58565b5050505050505050565b6040805160808101825260608082525f6020830181905292820183905281019190915260085461275190600160a81b810463ffffffff16908190600160c81b900460ff16613261565b60408051825460a060208202830181019093526080820181815291939284929184918401828280156127aa57602002820191905f5260205f20905b81546001600160a01b0316815260019091019060200180831161278c575b5050509183525050600191909101546001600160401b0381166020830152600160401b810463ffffffff166040830152600160601b900460ff16606090910152919050565b5f6127f8612c46565b612800612c79565b6128106060830160408401614988565b63ffffffff165f0361284e5761282c6060830160408401614988565b604051630c6e911360e41b815263ffffffff9091166004820152602401610880565b5f8054819081906128619060ff166152ac565b825460ff8083166101009490940a848102910219909116179092555f908152600360205260409020909150839061289882826152ca565b50909150505b919050565b5f806128ad612708565b606001516001600160a01b0385165f9081526005602090815260408083206002015489518a8401209151949550600160a81b90046001600160401b031693909291612924917f9a361e91fa9aa610b5edf1d5c1cc20b9646c4228f3c004354ed2de7635dac9949185918b918b918a918a9101615241565b60405160208183030381529060405280519060200120905061294581613918565b98975050505050505050565b612959612c79565b3068929eee149b4bd2126854036129775763ab143c065f526004601cfd5b3068929eee149b4bd21268555f61298d82613176565b9050336001600160a01b038316148015906129b15750336001600160a01b03821614155b156129da5760405163172b4e7560e11b81526001600160a01b0382166004820152602401610880565b6001600160a01b0382165f9081526019602052604090206129fa81613e00565b612a1957806040516371964ca360e11b81526004016108809190615382565b612a2281613e94565b5f612a2d8484613eda565b604080516001600160a01b0386168152602081018390529192507ffc30cddea38e2bf4d6ea7d3f9ed3b6ad7f176419f4963bd81318067a4aee73fe91016116c1565b612a77612c46565b6001600160a01b038116612aa057604051631e4fbdf760e01b81525f6004820152602401610880565b61115f81613313565b60196020525f9081526040902080548190612ac390615050565b80601f0160208091040260200160405190810160405280929190818152602001828054612aef90615050565b8015612b3a5780601f10612b1157610100808354040283529160200191612b3a565b820191905f5260205f20905b815481529060010190602001808311612b1d57829003601f168201915b505050600190930154919250506001600160a01b0381169063ffffffff600160a01b8204811691600160c01b81049091169060ff600160e01b8204811691600160e81b8104821691600160f01b8204811691600160f81b90041688565b6001600160a01b0381165f90815260196020526040812060018101549091600160e01b90910460ff1690612bcb6003612e23565b519050612bd782613fa8565b15612bea57612be7600182614fad565b90505b612bf48482613ffb565b6001600160a01b0384165f90815260046020526040812055600854612c27908490600160a81b900463ffffffff166140af565b612c3083613e94565b5f612c3a85613176565b905061157f8582613eda565b6008546001600160a01b036101009091041633146119125760405163118cdaa760e01b8152336004820152602401610880565b60085460ff16156119125760405163d93c066560e01b815260040160405180910390fd5b6001600160a01b0382165f90815260196020526040902060010154600160e01b900460ff16816006811115612cd457612cd4614890565b816006811115612ce657612ce6614890565b14612d065780604051633ba7bf8960e11b8152600401610880919061529e565b505050565b612d16816001615088565b60018301805463ffffffff92909216600160a01b0260ff60e01b191668ff00000000ffffffff60a01b1990921691909117600160e11b1790556040517fbdacb030997c2fe9d7ee41c51f5a150138c75b326c7a66f88ced12925f80bc0590612d7f908490615382565b60405180910390a15050565b6040516001600160a01b03838116602483015260448201839052612d0691859182169063a9059cbb906064015b604051602081830303815290604052915060e01b6020820180516001600160e01b038381831617835250505050614108565b6001600160a01b0382165f9081526004602052604081205481838211612e10575f612e1a565b612e1a8483614fad565b95945050505050565b6001546060905f906001600160401b03811115612e4257612e42614a11565b604051908082528060200260200182016040528015612e7b57816020015b612e6861458e565b815260200190600190039081612e605790505b5090505f805b6001548110156130d8575f60018281548110612e9f57612e9f614f44565b5f9182526020808320909101546001600160a01b03168083526019909152604090912060018101549192509060ff600160e81b9091041615612ee25750506130d0565b5f6006886006811115612ef757612ef7614890565b14905080612f61576001820154600160e01b900460ff166003896006811115612f2257612f22614890565b03612f3757612f3081613fa8565b9150612f5f565b886006811115612f4957612f49614890565b816006811115612f5b57612f5b614890565b1491505b505b80156130cc5781604051806101000160405290815f82018054612f8390615050565b80601f0160208091040260200160405190810160405280929190818152602001828054612faf90615050565b8015612ffa5780601f10612fd157610100808354040283529160200191612ffa565b820191905f5260205f20905b815481529060010190602001808311612fdd57829003601f168201915b505050918352505060018201546001600160a01b038116602083015263ffffffff600160a01b820481166040840152600160c01b820416606083015260809091019060ff600160e01b90910416600681111561305857613058614890565b600681111561306957613069614890565b81526001919091015460ff600160e81b8204811615156020840152600160f01b8204811615156040840152600160f81b9091041660609091015286866130ae81615010565b9750815181106130c0576130c0614f44565b60200260200101819052505b5050505b600101612e81565b50815292915050565b8115806130ec575080155b806130f657508181115b1561101757604051635700689f60e11b81526004810183905260248101829052604401610880565b60018101805464ffffffffff60c01b19166404ffffffff60c01b1790556040517f537bf236138f80ea8801a391fffc8a42bf0be3b6ea9d336ca2e2164a4c91071c9061316b908390615382565b60405180910390a150565b6001600160a01b038082165f90815260056020526040812060028101549192909116806131a05750825b9392505050565b5f806131b38584614174565b6001600160a01b0386165f908152600460205260408120805492935083929091906131df908490614fad565b90915550611c2f90506001600160a01b037f0000000000000000000000000000000000000000000000000000000000000000168583612d8b565b5f8060048361322886886150a4565b613232919061541c565b61323c9190615435565b905060118160ff166004811061325457613254614f44565b6002020195945050505050565b5f8061326d85856150a4565b90505f600461327c8184615435565b61328786600461541c565b6132919190615456565b61329b9190615435565b905060098160ff16600481106132b3576132b3614f44565b600202019695505050505050565b6132c96141d4565b6008805460ff191690557f5db9ee0a495bf2e6ff9c91a7834c1ba4fdd244a5e8aa4e537bd38aeae4b073aa335b6040516001600160a01b03909116815260200160405180910390a1565b600880546001600160a01b03838116610100818102610100600160a81b031985161790945560405193909204169182907f8be0079c531659141344cd1fd0a4f28419497f9722a3daafe3b4186f6b6457e0905f90a35050565b60015b81811015612d065782828281811061338957613389614f44565b905060200201602081019061339e9190614777565b6001600160a01b031683836133b4600185614fad565b8181106133c3576133c3614f44565b90506020020160208101906133d89190614777565b6001600160a01b03161061343c5782826133f3600184614fad565b81811061340257613402614f44565b90506020020160208101906134179190614777565b60405163836e3a7d60e01b81526001600160a01b039091166004820152602401610880565b60010161336f565b6008545f908190606090600160c81b900460ff1682600461346683600161541c565b6134709190615435565b90505f60098260ff166004811061348957613489614f44565b60020201905060118260ff16600481106134a5576134a5614f44565b6002020180546134b69183916145d1565b505f6134c0611d4f565b90506134cd43600161527f565b60018301805460408401516001600160401b03939093166bffffffffffffffffffffffff1990911617600160401b63ffffffff93841602178082555f805460ff60601b1990921660ff928316600160601b02179092556008805460ff60c81b1916600160c81b92881692909202919091178082559192909160159161355991600160a81b90041661546f565b91906101000a81548163ffffffff021916908363ffffffff160217905590505f6004856002613588919061541c565b6135929190615435565b90508960118260ff16600481106135ab576135ab614f44565b600202015f0190805190602001906135c49291906144f2565b506040808401518554825160208083028201810190945281815285938892839183018282801561361b57602002820191905f5260205f20905b81546001600160a01b031681526001909101906020018083116135fd575b505050505090509850985098505050505050509193909250565b5f6136406002612e23565b90505f5b81518110156136a2575f60195f84848151811061366357613663614f44565b6020026020010151602001516001600160a01b03166001600160a01b031681526020019081526020015f209050613699816141f7565b50600101613644565b505f6136ae6004612e23565b600854909150600160c81b900460ff165f60046136cc83600161541c565b6136d69190615435565b90505f60098360ff16600481106136ef576136ef614f44565b6002020180546040805160208084028201810190925282815292919083018282801561374257602002820191905f5260205f20905b81546001600160a01b03168152600190910190602001808311613724575b505050505090505f60118360ff166004811061376057613760614f44565b600202018054604080516020808402820181019092528281529291908301828280156137b357602002820191905f5260205f20905b81546001600160a01b03168152600190910190602001808311613795575b505050505090505f5b8551811015613879575f8682815181106137d8576137d8614f44565b60200260200101516020015190506137f0818561423c565b806138005750613800818461423c565b806138425750613842818c8c808060200260200160405190810160405280939291908181526020018383602002808284375f9201919091525061423c92505050565b1561384d5750613871565b6001600160a01b0381165f90815260196020526040902061386e818b6140af565b50505b6001016137bc565b50505050505050505050565b61388d612c79565b6008805460ff191660011790557f62e78cea01bee320cd4e420270b5ea74000d11b0c9f74754ebdbfc544b05a2586132f63390565b60ff81165f9081526003602052604081205483146139115760ff82165f9081526003602052604090819020549051630cf4985560e11b8152610880918591600401918252602082015260400190565b5090919050565b7f00000000000000000000000000000000000000000000000000000000000000007f000000000000000000000000000000000000000000000000000000000000000030147f0000000000000000000000000000000000000000000000000000000000000000461416613a0b5750604080517f8b73c3c69bb8fe3d512ecc4cf759cc79239f7b179b0ffacaa9a75d522b39400f81527f000000000000000000000000000000000000000000000000000000000000000060208201527f00000000000000000000000000000000000000000000000000000000000000009181019190915246606082015230608082015260a090205b6719010000000000005f5280601a5281603a52604260182090505f603a52919050565b6001600160a01b03909316925f8415611c2f57604051845f5260408303613a955760208481013560ff81901c601b01825285356040526001600160ff1b0316606052600160805f825afa805187183d1517613a9357505f606052604052506001611c2f565b505b60418303613ad55760408401355f1a6020526040846040376020600160805f60015afa805187183d1517613ad357505f606052604052506001611c2f565b505b5f60605280604052631626ba7e60e01b80825285600483015260248201604081528460448401528486606485013760208160648701858b5afa905190911416915050949350505050565b6040516001600160a01b038481166024830152838116604483015260648201839052610c7a9186918216906323b872dd90608401612db8565b5f8686604051613b69929190615232565b60408051918290039091205f818152601a602052919091205490915060ff1615613ba657604051638d12779f60e01b815260040160405180910390fd5b5f818152601a60209081526040808320805460ff191660011790558051610120601f8b0184900490930281018301909152610100810189815290918291908b908b90819085018382808284375f9201829052509385525050506001600160a01b038916602083015263ffffffff60408301526060820152608001600181525f602080830182905288151560408085019190915260ff89166060909401939093526001600160a01b038a1682526019905220815191925082918190613c6a90826154ce565b5060208201516001820180546040850151606086015163ffffffff908116600160c01b0263ffffffff60c01b1991909216600160a01b026001600160c01b03199093166001600160a01b0390951694909417919091179283168117825560808501519260ff60e01b1990911664ffffffffff60c01b1990911617600160e01b836006811115613cfb57613cfb614890565b021790555060a08201516001918201805460c085015160e09095015160ff16600160f81b026001600160f81b03951515600160f01b0260ff60f01b19941515600160e81b029490941661ffff60e81b19909216919091179290921793909316179091556001600160a01b0387165f818152600460209081526040808320889055845480860186557fb10e2d527612073b26eecdfd717e6a320cf44b4afac2b0732d9fcbe2b7fa0cf60180546001600160a01b0319169094179093559254600290935220557f7d89246e6daeb7529685fda2e1f478d9a155eea08675ebecd1bf8c0e572382fd81604051613dee9190614965565b60405180910390a15050505050505050565b6001818101545f91600160e01b90910460ff1690816006811115613e2657613e26614890565b03613e345750600192915050565b6005816006811115613e4857613e48614890565b03613e8c576001838101545f91613e6c91600160c01b900463ffffffff1690615088565b60085463ffffffff918216600160a81b9091049091161015949350505050565b505f92915050565b60018101805461ffff60e01b1916608360e11b1790556040517fb9e0e3d06d30a4b0476d42accfa2ee90a854c961cc7f10ddc965608a97b982b19061316b908390615382565b600180545f9110613efe57604051631034fb8d60e01b815260040160405180910390fd5b613f0783614299565b5f805f613f138661128b565b925092509250825f03613f2b57829350505050611b6f565b6001600160a01b0386165f908152600460205260408120819055828410613f53575081613f56565b50825b5f613f618383614f83565b90508015613f9d57613f9d6001600160a01b037f0000000000000000000000000000000000000000000000000000000000000000168883612d8b565b979650505050505050565b5f6003826006811115613fbd57613fbd614890565b1480613fda57506004826006811115613fd857613fd8614890565b145b80611b6f57506002826006811115613ff457613ff4614890565b1492915050565b600854600160a81b810463ffffffff1690600160c81b900460ff165f614022838084613261565b905061402e81866143c2565b50805461403c9085906130e1565b5f614048846001615088565b90505f614056828686613219565b905061406281886143c2565b5080546140709087906130e1565b5f61407c866002615088565b90505f61408a828888613219565b9050614096818a6143c2565b5080546140a49089906130e1565b505050505050505050565b60018201805463ffffffff8316600160c01b0264ffffffffff60c01b1990911617600560e01b1790556040517f69cb3a026a27d868ccc41f8a2a5e4b59396939b736cf54a110052c9983e8378d90612d7f908490615382565b5f8060205f8451602086015f885af180614127576040513d5f823e3d81fd5b50505f513d9150811561413e57806001141561414b565b6001600160a01b0384163b155b15610c7a57604051635274afe760e01b81526001600160a01b0385166004820152602401610880565b60ff81165f90815260036020526040812054816141918583612dea565b90508015806141b3575060ff84165f9081526003602052604090206001015481105b15611c2f57604051633737b70960e11b815260048101829052602401610880565b60085460ff1661191257604051638dfc202b60e01b815260040160405180910390fd5b60018101805460ff60e01b1916600360e01b1790556040517f31845bad1fcdd92490e8d85605449863a562ea940e37b380a276e440683fdb729061316b908390615382565b80515f90815b8181101561428f57846001600160a01b031684828151811061426657614266614f44565b60200260200101516001600160a01b03160361428757600192505050611b6f565b600101614242565b505f949350505050565b6001600160a01b0381165f90815260026020526040812054908190036142dd57604051635a4887e160e01b81526001600160a01b0383166004820152602401610880565b600154818114614371575f60016142f48184614fad565b8154811061430457614304614f44565b5f918252602090912001546001600160a01b031690508060016143278186614fad565b8154811061433757614337614f44565b5f91825260208083209190910180546001600160a01b0319166001600160a01b039485161790559290911681526002909152604090208290555b600180548061438257614382615588565b5f828152602080822083015f1990810180546001600160a01b03191690559092019092556001600160a01b03949094168152600290935250506040812055565b81545f90815b8181101561428f57836001600160a01b03168582815481106143ec576143ec614f44565b5f918252602090912001546001600160a01b0316036144cf57805b614412600184614fad565b8110156144925785614425826001614f83565b8154811061443557614435614f44565b905f5260205f20015f9054906101000a90046001600160a01b031686828154811061446257614462614f44565b5f91825260209091200180546001600160a01b0319166001600160a01b0392909216919091179055600101614407565b50848054806144a3576144a3615588565b5f8281526020902081015f1990810180546001600160a01b03191690550190555060019150611b6f9050565b6001016143c8565b5080545f8255905f5260205f209081019061115f919061460d565b828054828255905f5260205f20908101928215614545579160200282015b8281111561454557825182546001600160a01b0319166001600160a01b03909116178255602090920191600190910190614510565b5061455192915061460d565b5090565b828054828255905f5260205f20908101928215614545579160200282015b82811115614545578251825591602001919060010190614573565b604080516101008101825260608082525f60208301819052928201839052810182905290608082019081525f602082018190526040820181905260609091015290565b828054828255905f5260205f20908101928215614545575f5260205f209182015b828111156145455782548255916001019190600101906145f2565b5b80821115614551575f815560010161460e565b5f8151808452602084019350602083015f5b8281101561465a5781516001600160a01b0316865260209586019590910190600101614633565b5093949350505050565b602081525f82516060602084015261467f6080840182614621565b602085810151601f19868403016040870152805180845290820193505f92909101905b808310156146c557835182526020820191506020840193506001830192506146a2565b506040860151606086015280935050505092915050565b5f8083601f8401126146ec575f80fd5b5081356001600160401b03811115614702575f80fd5b6020830191508360208260061b850101111561471c575f80fd5b9250929050565b5f8060208385031215614734575f80fd5b82356001600160401b03811115614749575f80fd5b614755858286016146dc565b90969095509350505050565b80356001600160a01b038116811461289e575f80fd5b5f60208284031215614787575f80fd5b6131a082614761565b5f8083601f8401126147a0575f80fd5b5081356001600160401b038111156147b6575f80fd5b6020830191508360208260051b850101111561471c575f80fd5b5f805f80604085870312156147e3575f80fd5b84356001600160401b038111156147f8575f80fd5b61480487828801614790565b90955093505060208501356001600160401b03811115614822575f80fd5b61482e87828801614790565b95989497509550505050565b5f806040838503121561484b575f80fd5b61485483614761565b946020939093013593505050565b5f81518084528060208401602086015e5f602082860101526020601f19601f83011685010191505092915050565b634e487b7160e01b5f52602160045260245ffd5b600781106148c057634e487b7160e01b5f52602160045260245ffd5b9052565b5f815161010084526148da610100850182614862565b905060018060a01b03602084015116602085015263ffffffff60408401511660408501526060830151614915606086018263ffffffff169052565b50608083015161492860808601826148a4565b5060a083015161493c60a086018215159052565b5060c083015161495060c086018215159052565b5060e08301516123d260e086018260ff169052565b602081525f6131a060208301846148c4565b63ffffffff8116811461115f575f80fd5b5f60208284031215614998575f80fd5b81356131a081614977565b602081525f8251608060208401526149be60a0840182614621565b90506001600160401b03602085015116604084015263ffffffff604085015116606084015260ff60608501511660808401528091505092915050565b5f60208284031215614a0a575f80fd5b5035919050565b634e487b7160e01b5f52604160045260245ffd5b604051601f8201601f191681016001600160401b0381118282101715614a4d57614a4d614a11565b604052919050565b5f6001600160401b03821115614a6d57614a6d614a11565b50601f01601f191660200190565b5f82601f830112614a8a575f80fd5b8135614a9d614a9882614a55565b614a25565b818152846020838601011115614ab1575f80fd5b816020850160208301375f918101602001919091529392505050565b5f8060408385031215614ade575f80fd5b82356001600160401b03811115614af3575f80fd5b614aff85828601614a7b565b925050614b0e60208401614761565b90509250929050565b602081525f6131a06020830184614862565b5f8060208385031215614b3a575f80fd5b82356001600160401b03811115614b4f575f80fd5b61475585828601614790565b60ff60f81b8816815260e060208201525f614b7960e0830189614862565b8281036040840152614b8b8189614862565b606084018890526001600160a01b038716608085015260a0840186905283810360c0850152845180825260208087019350909101905f5b81811015614be0578351835260209384019390920191600101614bc2565b50909b9a5050505050505050505050565b5f8083601f840112614c01575f80fd5b5081356001600160401b03811115614c17575f80fd5b60208301915083602082850101111561471c575f80fd5b5f60408284031215614c3e575f80fd5b604080519081016001600160401b0381118282101715614c6057614c60614a11565b60405290508082356001600160401b03811115614c7b575f80fd5b614c8785828601614a7b565b82525060208301356001600160401b03811115614ca2575f80fd5b614cae85828601614a7b565b6020830152505092915050565b5f805f805f8060808789031215614cd0575f80fd5b86356001600160401b03811115614ce5575f80fd5b614cf189828a01614bf1565b90975095505060208701356001600160401b03811115614d0f575f80fd5b614d1b89828a01614c2e565b945050614d2a60408801614761565b925060608701356001600160401b03811115614d44575f80fd5b614d5089828a01614bf1565b979a9699509497509295939492505050565b5f60208284031215614d72575f80fd5b8135600781106131a0575f80fd5b5f602082016020835280845180835260408501915060408160051b8601019250602086015f5b82811015614dd757603f19878603018452614dc28583516148c4565b94506020938401939190910190600101614da6565b50929695505050505050565b5f60208284031215614df3575f80fd5b813560ff811681146131a0575f80fd5b5f805f60408486031215614e15575f80fd5b83356001600160401b03811115614e2a575f80fd5b614e3686828701614bf1565b90945092505060208401356001600160401b03811115614e54575f80fd5b614e6086828701614c2e565b9150509250925092565b5f6060828403128015614e7b575f80fd5b509092915050565b5f805f60608486031215614e95575f80fd5b83356001600160401b03811115614eaa575f80fd5b614eb686828701614a7b565b935050614ec560208501614761565b9150614ed360408501614761565b90509250925092565b61010081525f614ef061010083018b614862565b6001600160a01b038a16602084015263ffffffff8981166040850152881660608401529050614f2260808301876148a4565b93151560a082015291151560c083015260ff1660e09091015295945050505050565b634e487b7160e01b5f52603260045260245ffd5b5f60208284031215614f68575f80fd5b5051919050565b634e487b7160e01b5f52601160045260245ffd5b80820180821115611b6f57611b6f614f6f565b8082028115828204841417611b6f57611b6f614f6f565b81810381811115611b6f57611b6f614f6f565b634e487b7160e01b5f52601260045260245ffd5b5f82614fe257614fe2614fc0565b500490565b604081016001600160a01b03614ffc84614761565b168252602092830135929091019190915290565b5f6001820161502157615021614f6f565b5060010190565b801515811461115f575f80fd5b5f60208284031215615045575f80fd5b81356131a081615028565b600181811c9082168061506457607f821691505b60208210810361508257634e487b7160e01b5f52602260045260245ffd5b50919050565b63ffffffff8181168382160190811115611b6f57611b6f614f6f565b63ffffffff8281168282160390811115611b6f57611b6f614f6f565b5f602082840312156150d0575f80fd5b81516001600160401b038111156150e5575f80fd5b8201601f810184136150f5575f80fd5b8051615103614a9882614a55565b818152856020838501011115615117575f80fd5b8160208401602083015e5f91810160200191909152949350505050565b5f60208284031215615144575f80fd5b81516131a081615028565b6001600160d81b03198516815283515f908060208701600585015e6001600160f81b0319949094169190930160058101919091526bffffffffffffffffffffffff19919091166006820152601a019392505050565b606081525f6151b66060830186614862565b82810360208401526151c88186614862565b905082810360408401526151dc8185614862565b9695505050505050565b604081525f83516040808401526152006080840182614862565b90506020850151603f1984830301606085015261521d8282614862565b9150508281036020840152612e1a8185614862565b818382375f9101908152919050565b95865260208601949094526001600160a01b0392831660408601529116606084015260ff1660808301526001600160401b031660a082015260c00190565b6001600160401b038181168382160190811115611b6f57611b6f614f6f565b60208101611b6f82846148a4565b5f60ff821660ff81036152c1576152c1614f6f565b60010192915050565b81358155602082013560018201556002810160408301356152ea81614977565b815463ffffffff191663ffffffff919091161790555050565b5f815461530f81615050565b808552600182168015615329576001811461534557615379565b60ff1983166020870152602082151560051b8701019350615379565b845f5260205f205f5b838110156153705781546020828a01015260018201915060208101905061534e565b87016020019450505b50505092915050565b6020815261010060208201525f61539d610120830184615303565b60018401546001600160a01b038116604085015260a081901c63ffffffff16606085015260c081901c63ffffffff1660808501526153e460a0850160ff8360e01c166148a4565b6153f860c0850160ff8360e81c1615159052565b61540c60e0850160ff8360f01c1615159052565b60f881901c6101008501526123d2565b60ff8181168382160190811115611b6f57611b6f614f6f565b5f60ff83168061544757615447614fc0565b8060ff84160691505092915050565b60ff8281168282160390811115611b6f57611b6f614f6f565b5f63ffffffff821663ffffffff81036152c1576152c1614f6f565b601f821115612d0657805f5260205f20601f840160051c810160208510156154af5750805b601f840160051c820191505b8181101561111c575f81556001016154bb565b81516001600160401b038111156154e7576154e7614a11565b6154fb816154f58454615050565b8461548a565b6020601f82116001811461552d575f83156155165750848201515b5f19600385901b1c1916600184901b17845561111c565b5f84815260208120601f198516915b8281101561555c578785015182556020948501946001909201910161553c565b508482101561557957868401515f19600387901b60f8161c191681555b50505050600190811b01905550565b634e487b7160e01b5f52603160045260245ffdfea164736f6c634300081a000a",
    "linkReferences": {
      "src/consensus/BlsG1.sol": {
        "BlsG1": [
          {
            "start": 671,
            "length": 20
          },
          {
            "start": 822,
            "length": 20
          },
          {
            "start": 987,
            "length": 20
          },
          {
            "start": 2457,
            "length": 20
          },
          {
            "start": 2593,
            "length": 20
          },
          {
            "start": 11681,
            "length": 20
          },
          {
            "start": 11817,
            "length": 20
          },
          {
            "start": 12783,
            "length": 20
          },
          {
            "start": 12892,
            "length": 20
          },
          {
            "start": 13032,
            "length": 20
          },
          {
            "start": 14429,
            "length": 20
          },
          {
            "start": 14538,
            "length": 20
          },
          {
            "start": 14678,
            "length": 20
          }
        ]
      }
    }
  },
  "methodIdentifiers": {
    "SYSTEM_ADDRESS()": "3434735f",
    "_rls()": "02ca3794",
    "activate()": "0f15f4c0",
    "allowlistValidator(address)": "561b204f",
    "applyIncentives((address,uint256)[])": "0a36cdef",
    "applySlashes((address,uint256)[])": "02ae337b",
    "beginExit()": "2228dfa0",
    "claimStakeRewards(address)": "2b9f4985",
    "concludeEpoch(address[])": "7b55a300",
    "delegateStake(bytes,(bytes,bytes),address,bytes)": "8bb43f3a",
    "delegationDigest(bytes,address,address)": "e3716d04",
    "delegationPool()": "b505f3ed",
    "delistValidator(address)": "32a26274",
    "eip712Domain()": "84b0196e",
    "epochInfo(uint256)": "3894228e",
    "futureEpochInfo(uint256)": "59ca93b6",
    "getBalanceBreakdown(address)": "15b5709a",
    "getCommitteeValidators(uint32)": "a0201be5",
    "getCurrentEpoch()": "b97dd9e2",
    "getCurrentEpochInfo()": "babc394f",
    "getCurrentStakeConfig()": "7d06fdf8",
    "getCurrentStakeVersion()": "67398331",
    "getEpochInfo(uint32)": "374ed18c",
    "getEpochPerformanceWeights()": "01b0d022",
    "getRewards(address)": "79ee54f7",
    "getValidator(address)": "1904bb2e",
    "getValidators(uint8)": "8cc05eda",
    "isAllowlisted(address)": "05a3b809",
    "isRetired(address)": "6d3c6275",
    "owner()": "8da5cb5b",
    "pause()": "8456cb59",
    "paused()": "5c975abb",
    "poolRewardBalances(address)": "94073373",
    "proofOfPossessionMessage(bytes,address)": "6850eb31",
    "renounceOwnership()": "715018a6",
    "rlsToken()": "8188a264",
    "setDelegationPool(address)": "43923f6f",
    "slashedFunds()": "6f99f15c",
    "stake(bytes,(bytes,bytes))": "b5184324",
    "stakeConfig(uint8)": "a71954ec",
    "transferOwnership(address)": "f2fde38b",
    "unpause()": "3f4ba83a",
    "unstake(address)": "f2888dbb",
    "updateAllowlistBatch(address[],bool[])": "0b795b14",
    "upgradeStakeVersion((uint256,uint256,uint32))": "ce1a8581",
    "validatorAllowlist(address)": "c750734b",
    "validators(address)": "fa52c7d8",
    "validatorsAddresses(uint256)": "b363c6c2",
    "withdrawSlashedFunds(address,uint256)": "125eb844"
  },
  "id": 105
}