{
  "abi": [
    {
      "type": "constructor",
      "inputs": [],
      "stateMutability": "nonpayable"
    },
    {
      "type": "function",
      "name": "DEFAULT_ADMIN_ROLE",
      "inputs": [],
      "outputs": [
        {
          "name": "",
          "type": "bytes32",
          "internalType": "bytes32"
        }
      ],
      "stateMutability": "view"
    },
    {
      "type": "function",
      "name": "MAX_COMMISSION_BPS",
      "inputs": [],
      "outputs": [
        {
          "name": "",
          "type": "uint256",
          "internalType": "uint256"
        }
      ],
      "stateMutability": "view"
    },
    {
      "type": "function",
      "name": "MAX_COMMISSION_INCREASE_BPS",
      "inputs": [],
      "outputs": [
        {
          "name": "",
          "type": "uint256",
          "internalType": "uint256"
        }
      ],
      "stateMutability": "view"
    },
    {
      "type": "function",
      "name": "MAX_INITIAL_COMMISSION_BPS",
      "inputs": [],
      "outputs": [
        {
          "name": "",
          "type": "uint256",
          "internalType": "uint256"
        }
      ],
      "stateMutability": "view"
    },
    {
      "type": "function",
      "name": "PRECISION",
      "inputs": [],
      "outputs": [
        {
          "name": "",
          "type": "uint256",
          "internalType": "uint256"
        }
      ],
      "stateMutability": "view"
    },
    {
      "type": "function",
      "name": "UPGRADER_ROLE",
      "inputs": [],
      "outputs": [
        {
          "name": "",
          "type": "bytes32",
          "internalType": "bytes32"
        }
      ],
      "stateMutability": "view"
    },
    {
      "type": "function",
      "name": "UPGRADE_INTERFACE_VERSION",
      "inputs": [],
      "outputs": [
        {
          "name": "",
          "type": "string",
          "internalType": "string"
        }
      ],
      "stateMutability": "view"
    },
    {
      "type": "function",
      "name": "activatePendingCommission",
      "inputs": [],
      "outputs": [],
      "stateMutability": "nonpayable"
    },
    {
      "type": "function",
      "name": "applyPoolSlash",
      "inputs": [
        {
          "name": "validatorAddress",
          "type": "address",
          "internalType": "address"
        },
        {
          "name": "amount",
          "type": "uint256",
          "internalType": "uint256"
        }
      ],
      "outputs": [
        {
          "name": "effectiveSlash",
          "type": "uint256",
          "internalType": "uint256"
        }
      ],
      "stateMutability": "nonpayable"
    },
    {
      "type": "function",
      "name": "cancelPendingCommission",
      "inputs": [],
      "outputs": [],
      "stateMutability": "nonpayable"
    },
    {
      "type": "function",
      "name": "claimCommission",
      "inputs": [],
      "outputs": [],
      "stateMutability": "nonpayable"
    },
    {
      "type": "function",
      "name": "claimDelegationRewards",
      "inputs": [
        {
          "name": "validatorAddress",
          "type": "address",
          "internalType": "address"
        }
      ],
      "outputs": [],
      "stateMutability": "nonpayable"
    },
    {
      "type": "function",
      "name": "completeUndelegation",
      "inputs": [
        {
          "name": "validatorAddress",
          "type": "address",
          "internalType": "address"
        }
      ],
      "outputs": [],
      "stateMutability": "nonpayable"
    },
    {
      "type": "function",
      "name": "consensusRegistry",
      "inputs": [],
      "outputs": [
        {
          "name": "",
          "type": "address",
          "internalType": "address"
        }
      ],
      "stateMutability": "view"
    },
    {
      "type": "function",
      "name": "delegate",
      "inputs": [
        {
          "name": "validatorAddress",
          "type": "address",
          "internalType": "address"
        },
        {
          "name": "amount",
          "type": "uint256",
          "internalType": "uint256"
        }
      ],
      "outputs": [],
      "stateMutability": "nonpayable"
    },
    {
      "type": "function",
      "name": "delegateWithProof",
      "inputs": [
        {
          "name": "validatorAddress",
          "type": "address",
          "internalType": "address"
        },
        {
          "name": "amount",
          "type": "uint256",
          "internalType": "uint256"
        },
        {
          "name": "lockboxBalance",
          "type": "uint256",
          "internalType": "uint256"
        },
        {
          "name": "proof",
          "type": "bytes32[]",
          "internalType": "bytes32[]"
        }
      ],
      "outputs": [],
      "stateMutability": "nonpayable"
    },
    {
      "type": "function",
      "name": "disableWhitelist",
      "inputs": [],
      "outputs": [],
      "stateMutability": "nonpayable"
    },
    {
      "type": "function",
      "name": "distributePoolRewards",
      "inputs": [
        {
          "name": "validatorAddress",
          "type": "address",
          "internalType": "address"
        },
        {
          "name": "amount",
          "type": "uint256",
          "internalType": "uint256"
        }
      ],
      "outputs": [],
      "stateMutability": "nonpayable"
    },
    {
      "type": "function",
      "name": "getCommissionRecipient",
      "inputs": [
        {
          "name": "validatorAddress",
          "type": "address",
          "internalType": "address"
        }
      ],
      "outputs": [
        {
          "name": "",
          "type": "address",
          "internalType": "address"
        }
      ],
      "stateMutability": "view"
    },
    {
      "type": "function",
      "name": "getDelegationConfig",
      "inputs": [],
      "outputs": [
        {
          "name": "",
          "type": "tuple",
          "internalType": "struct IDelegationPool.DelegationConfig",
          "components": [
            {
              "name": "minDelegation",
              "type": "uint256",
              "internalType": "uint256"
            },
            {
              "name": "maxDelegation",
              "type": "uint256",
              "internalType": "uint256"
            },
            {
              "name": "maxValidatorDelegation",
              "type": "uint256",
              "internalType": "uint256"
            },
            {
              "name": "unbondingEpochs",
              "type": "uint32",
              "internalType": "uint32"
            },
            {
              "name": "commissionDelayEpochs",
              "type": "uint32",
              "internalType": "uint32"
            }
          ]
        }
      ],
      "stateMutability": "view"
    },
    {
      "type": "function",
      "name": "getDelegatorPosition",
      "inputs": [
        {
          "name": "validatorAddress",
          "type": "address",
          "internalType": "address"
        },
        {
          "name": "delegator",
          "type": "address",
          "internalType": "address"
        }
      ],
      "outputs": [
        {
          "name": "",
          "type": "tuple",
          "internalType": "struct IDelegationPool.DelegatorPosition",
          "components": [
            {
              "name": "amount",
              "type": "uint256",
              "internalType": "uint256"
            },
            {
              "name": "rewardDebt",
              "type": "uint256",
              "internalType": "uint256"
            },
            {
              "name": "pendingRewards",
              "type": "uint256",
              "internalType": "uint256"
            },
            {
              "name": "undelegateEpoch",
              "type": "uint64",
              "internalType": "uint64"
            },
            {
              "name": "undelegateAmount",
              "type": "uint256",
              "internalType": "uint256"
            },
            {
              "name": "slashDebt",
              "type": "uint256",
              "internalType": "uint256"
            },
            {
              "name": "lastDelegateEpoch",
              "type": "uint64",
              "internalType": "uint64"
            }
          ]
        }
      ],
      "stateMutability": "view"
    },
    {
      "type": "function",
      "name": "getEffectivePosition",
      "inputs": [
        {
          "name": "validatorAddress",
          "type": "address",
          "internalType": "address"
        },
        {
          "name": "delegator",
          "type": "address",
          "internalType": "address"
        }
      ],
      "outputs": [
        {
          "name": "effectiveAmount",
          "type": "uint256",
          "internalType": "uint256"
        },
        {
          "name": "pendingRewards",
          "type": "uint256",
          "internalType": "uint256"
        }
      ],
      "stateMutability": "view"
    },
    {
      "type": "function",
      "name": "getPendingCommission",
      "inputs": [
        {
          "name": "validatorAddress",
          "type": "address",
          "internalType": "address"
        }
      ],
      "outputs": [
        {
          "name": "",
          "type": "tuple",
          "internalType": "struct IDelegationPool.PendingCommission",
          "components": [
            {
              "name": "newBps",
              "type": "uint256",
              "internalType": "uint256"
            },
            {
              "name": "effectiveEpoch",
              "type": "uint32",
              "internalType": "uint32"
            }
          ]
        }
      ],
      "stateMutability": "view"
    },
    {
      "type": "function",
      "name": "getPendingRewards",
      "inputs": [
        {
          "name": "validatorAddress",
          "type": "address",
          "internalType": "address"
        },
        {
          "name": "delegator",
          "type": "address",
          "internalType": "address"
        }
      ],
      "outputs": [
        {
          "name": "",
          "type": "uint256",
          "internalType": "uint256"
        }
      ],
      "stateMutability": "view"
    },
    {
      "type": "function",
      "name": "getRewardRecipient",
      "inputs": [
        {
          "name": "validatorAddress",
          "type": "address",
          "internalType": "address"
        },
        {
          "name": "delegator",
          "type": "address",
          "internalType": "address"
        }
      ],
      "outputs": [
        {
          "name": "",
          "type": "address",
          "internalType": "address"
        }
      ],
      "stateMutability": "view"
    },
    {
      "type": "function",
      "name": "getRoleAdmin",
      "inputs": [
        {
          "name": "role",
          "type": "bytes32",
          "internalType": "bytes32"
        }
      ],
      "outputs": [
        {
          "name": "",
          "type": "bytes32",
          "internalType": "bytes32"
        }
      ],
      "stateMutability": "view"
    },
    {
      "type": "function",
      "name": "getTotalDelegatedStake",
      "inputs": [
        {
          "name": "validatorAddress",
          "type": "address",
          "internalType": "address"
        }
      ],
      "outputs": [
        {
          "name": "",
          "type": "uint256",
          "internalType": "uint256"
        }
      ],
      "stateMutability": "view"
    },
    {
      "type": "function",
      "name": "getValidatorPool",
      "inputs": [
        {
          "name": "validatorAddress",
          "type": "address",
          "internalType": "address"
        }
      ],
      "outputs": [
        {
          "name": "",
          "type": "tuple",
          "internalType": "struct IDelegationPool.ValidatorPool",
          "components": [
            {
              "name": "totalDelegated",
              "type": "uint256",
              "internalType": "uint256"
            },
            {
              "name": "commissionBps",
              "type": "uint256",
              "internalType": "uint256"
            },
            {
              "name": "rewardPerShareAccum",
              "type": "uint256",
              "internalType": "uint256"
            },
            {
              "name": "pendingValidatorRewards",
              "type": "uint256",
              "internalType": "uint256"
            },
            {
              "name": "acceptingDelegations",
              "type": "bool",
              "internalType": "bool"
            },
            {
              "name": "slashPerShareAccum",
              "type": "uint256",
              "internalType": "uint256"
            }
          ]
        }
      ],
      "stateMutability": "view"
    },
    {
      "type": "function",
      "name": "grantRole",
      "inputs": [
        {
          "name": "role",
          "type": "bytes32",
          "internalType": "bytes32"
        },
        {
          "name": "account",
          "type": "address",
          "internalType": "address"
        }
      ],
      "outputs": [],
      "stateMutability": "nonpayable"
    },
    {
      "type": "function",
      "name": "hasRole",
      "inputs": [
        {
          "name": "role",
          "type": "bytes32",
          "internalType": "bytes32"
        },
        {
          "name": "account",
          "type": "address",
          "internalType": "address"
        }
      ],
      "outputs": [
        {
          "name": "",
          "type": "bool",
          "internalType": "bool"
        }
      ],
      "stateMutability": "view"
    },
    {
      "type": "function",
      "name": "initialize",
      "inputs": [
        {
          "name": "rls_",
          "type": "address",
          "internalType": "address"
        },
        {
          "name": "consensusRegistry_",
          "type": "address",
          "internalType": "address"
        },
        {
          "name": "admin_",
          "type": "address",
          "internalType": "address"
        },
        {
          "name": "config_",
          "type": "tuple",
          "internalType": "struct IDelegationPool.DelegationConfig",
          "components": [
            {
              "name": "minDelegation",
              "type": "uint256",
              "internalType": "uint256"
            },
            {
              "name": "maxDelegation",
              "type": "uint256",
              "internalType": "uint256"
            },
            {
              "name": "maxValidatorDelegation",
              "type": "uint256",
              "internalType": "uint256"
            },
            {
              "name": "unbondingEpochs",
              "type": "uint32",
              "internalType": "uint32"
            },
            {
              "name": "commissionDelayEpochs",
              "type": "uint32",
              "internalType": "uint32"
            }
          ]
        }
      ],
      "outputs": [],
      "stateMutability": "nonpayable"
    },
    {
      "type": "function",
      "name": "isWhitelistVerified",
      "inputs": [
        {
          "name": "account",
          "type": "address",
          "internalType": "address"
        }
      ],
      "outputs": [
        {
          "name": "",
          "type": "bool",
          "internalType": "bool"
        }
      ],
      "stateMutability": "view"
    },
    {
      "type": "function",
      "name": "poolRegistered",
      "inputs": [
        {
          "name": "validatorAddress",
          "type": "address",
          "internalType": "address"
        }
      ],
      "outputs": [
        {
          "name": "",
          "type": "bool",
          "internalType": "bool"
        }
      ],
      "stateMutability": "view"
    },
    {
      "type": "function",
      "name": "proxiableUUID",
      "inputs": [],
      "outputs": [
        {
          "name": "",
          "type": "bytes32",
          "internalType": "bytes32"
        }
      ],
      "stateMutability": "view"
    },
    {
      "type": "function",
      "name": "registerPool",
      "inputs": [
        {
          "name": "commissionBps",
          "type": "uint256",
          "internalType": "uint256"
        }
      ],
      "outputs": [],
      "stateMutability": "nonpayable"
    },
    {
      "type": "function",
      "name": "renounceRole",
      "inputs": [
        {
          "name": "role",
          "type": "bytes32",
          "internalType": "bytes32"
        },
        {
          "name": "callerConfirmation",
          "type": "address",
          "internalType": "address"
        }
      ],
      "outputs": [],
      "stateMutability": "nonpayable"
    },
    {
      "type": "function",
      "name": "requestUndelegation",
      "inputs": [
        {
          "name": "validatorAddress",
          "type": "address",
          "internalType": "address"
        },
        {
          "name": "amount",
          "type": "uint256",
          "internalType": "uint256"
        }
      ],
      "outputs": [],
      "stateMutability": "nonpayable"
    },
    {
      "type": "function",
      "name": "revokeRole",
      "inputs": [
        {
          "name": "role",
          "type": "bytes32",
          "internalType": "bytes32"
        },
        {
          "name": "account",
          "type": "address",
          "internalType": "address"
        }
      ],
      "outputs": [],
      "stateMutability": "nonpayable"
    },
    {
      "type": "function",
      "name": "rewardDistributor",
      "inputs": [],
      "outputs": [
        {
          "name": "",
          "type": "address",
          "internalType": "address"
        }
      ],
      "stateMutability": "view"
    },
    {
      "type": "function",
      "name": "rlsToken",
      "inputs": [],
      "outputs": [
        {
          "name": "",
          "type": "address",
          "internalType": "address"
        }
      ],
      "stateMutability": "view"
    },
    {
      "type": "function",
      "name": "setAcceptingDelegations",
      "inputs": [
        {
          "name": "accepting",
          "type": "bool",
          "internalType": "bool"
        }
      ],
      "outputs": [],
      "stateMutability": "nonpayable"
    },
    {
      "type": "function",
      "name": "setCommissionRecipient",
      "inputs": [
        {
          "name": "recipient",
          "type": "address",
          "internalType": "address"
        }
      ],
      "outputs": [],
      "stateMutability": "nonpayable"
    },
    {
      "type": "function",
      "name": "setRewardDistributor",
      "inputs": [
        {
          "name": "newRewardDistributor",
          "type": "address",
          "internalType": "address"
        }
      ],
      "outputs": [],
      "stateMutability": "nonpayable"
    },
    {
      "type": "function",
      "name": "setRewardRecipient",
      "inputs": [
        {
          "name": "validatorAddress",
          "type": "address",
          "internalType": "address"
        },
        {
          "name": "recipient",
          "type": "address",
          "internalType": "address"
        }
      ],
      "outputs": [],
      "stateMutability": "nonpayable"
    },
    {
      "type": "function",
      "name": "setWhitelistRoot",
      "inputs": [
        {
          "name": "newRoot",
          "type": "bytes32",
          "internalType": "bytes32"
        }
      ],
      "outputs": [],
      "stateMutability": "nonpayable"
    },
    {
      "type": "function",
      "name": "supportsInterface",
      "inputs": [
        {
          "name": "interfaceId",
          "type": "bytes4",
          "internalType": "bytes4"
        }
      ],
      "outputs": [
        {
          "name": "",
          "type": "bool",
          "internalType": "bool"
        }
      ],
      "stateMutability": "view"
    },
    {
      "type": "function",
      "name": "updateCommission",
      "inputs": [
        {
          "name": "newCommissionBps",
          "type": "uint256",
          "internalType": "uint256"
        }
      ],
      "outputs": [],
      "stateMutability": "nonpayable"
    },
    {
      "type": "function",
      "name": "updateConfig",
      "inputs": [
        {
          "name": "newConfig",
          "type": "tuple",
          "internalType": "struct IDelegationPool.DelegationConfig",
          "components": [
            {
              "name": "minDelegation",
              "type": "uint256",
              "internalType": "uint256"
            },
            {
              "name": "maxDelegation",
              "type": "uint256",
              "internalType": "uint256"
            },
            {
              "name": "maxValidatorDelegation",
              "type": "uint256",
              "internalType": "uint256"
            },
            {
              "name": "unbondingEpochs",
              "type": "uint32",
              "internalType": "uint32"
            },
            {
              "name": "commissionDelayEpochs",
              "type": "uint32",
              "internalType": "uint32"
            }
          ]
        }
      ],
      "outputs": [],
      "stateMutability": "nonpayable"
    },
    {
      "type": "function",
      "name": "upgradeToAndCall",
      "inputs": [
        {
          "name": "newImplementation",
          "type": "address",
          "internalType": "address"
        },
        {
          "name": "data",
          "type": "bytes",
          "internalType": "bytes"
        }
      ],
      "outputs": [],
      "stateMutability": "payable"
    },
    {
      "type": "function",
      "name": "whitelistEnabled",
      "inputs": [],
      "outputs": [
        {
          "name": "",
          "type": "bool",
          "internalType": "bool"
        }
      ],
      "stateMutability": "view"
    },
    {
      "type": "function",
      "name": "whitelistRoot",
      "inputs": [],
      "outputs": [
        {
          "name": "",
          "type": "bytes32",
          "internalType": "bytes32"
        }
      ],
      "stateMutability": "view"
    },
    {
      "type": "event",
      "name": "CommissionClaimed",
      "inputs": [
        {
          "name": "validator",
          "type": "address",
          "indexed": true,
          "internalType": "address"
        },
        {
          "name": "amount",
          "type": "uint256",
          "indexed": false,
          "internalType": "uint256"
        }
      ],
      "anonymous": false
    },
    {
      "type": "event",
      "name": "CommissionRecipientUpdated",
      "inputs": [
        {
          "name": "validator",
          "type": "address",
          "indexed": true,
          "internalType": "address"
        },
        {
          "name": "newRecipient",
          "type": "address",
          "indexed": true,
          "internalType": "address"
        }
      ],
      "anonymous": false
    },
    {
      "type": "event",
      "name": "CommissionUpdateScheduled",
      "inputs": [
        {
          "name": "validator",
          "type": "address",
          "indexed": true,
          "internalType": "address"
        },
        {
          "name": "currentBps",
          "type": "uint256",
          "indexed": false,
          "internalType": "uint256"
        },
        {
          "name": "newBps",
          "type": "uint256",
          "indexed": false,
          "internalType": "uint256"
        },
        {
          "name": "effectiveEpoch",
          "type": "uint32",
          "indexed": false,
          "internalType": "uint32"
        }
      ],
      "anonymous": false
    },
    {
      "type": "event",
      "name": "CommissionUpdated",
      "inputs": [
        {
          "name": "validator",
          "type": "address",
          "indexed": true,
          "internalType": "address"
        },
        {
          "name": "oldBps",
          "type": "uint256",
          "indexed": false,
          "internalType": "uint256"
        },
        {
          "name": "newBps",
          "type": "uint256",
          "indexed": false,
          "internalType": "uint256"
        }
      ],
      "anonymous": false
    },
    {
      "type": "event",
      "name": "ConfigUpdated",
      "inputs": [
        {
          "name": "config",
          "type": "tuple",
          "indexed": false,
          "internalType": "struct IDelegationPool.DelegationConfig",
          "components": [
            {
              "name": "minDelegation",
              "type": "uint256",
              "internalType": "uint256"
            },
            {
              "name": "maxDelegation",
              "type": "uint256",
              "internalType": "uint256"
            },
            {
              "name": "maxValidatorDelegation",
              "type": "uint256",
              "internalType": "uint256"
            },
            {
              "name": "unbondingEpochs",
              "type": "uint32",
              "internalType": "uint32"
            },
            {
              "name": "commissionDelayEpochs",
              "type": "uint32",
              "internalType": "uint32"
            }
          ]
        }
      ],
      "anonymous": false
    },
    {
      "type": "event",
      "name": "Delegated",
      "inputs": [
        {
          "name": "validator",
          "type": "address",
          "indexed": true,
          "internalType": "address"
        },
        {
          "name": "delegator",
          "type": "address",
          "indexed": true,
          "internalType": "address"
        },
        {
          "name": "amount",
          "type": "uint256",
          "indexed": false,
          "internalType": "uint256"
        }
      ],
      "anonymous": false
    },
    {
      "type": "event",
      "name": "DelegationRewardsClaimed",
      "inputs": [
        {
          "name": "validator",
          "type": "address",
          "indexed": true,
          "internalType": "address"
        },
        {
          "name": "delegator",
          "type": "address",
          "indexed": true,
          "internalType": "address"
        },
        {
          "name": "amount",
          "type": "uint256",
          "indexed": false,
          "internalType": "uint256"
        }
      ],
      "anonymous": false
    },
    {
      "type": "event",
      "name": "DelegationsToggled",
      "inputs": [
        {
          "name": "validator",
          "type": "address",
          "indexed": true,
          "internalType": "address"
        },
        {
          "name": "accepting",
          "type": "bool",
          "indexed": false,
          "internalType": "bool"
        }
      ],
      "anonymous": false
    },
    {
      "type": "event",
      "name": "Initialized",
      "inputs": [
        {
          "name": "version",
          "type": "uint64",
          "indexed": false,
          "internalType": "uint64"
        }
      ],
      "anonymous": false
    },
    {
      "type": "event",
      "name": "PendingCommissionCancelled",
      "inputs": [
        {
          "name": "validator",
          "type": "address",
          "indexed": true,
          "internalType": "address"
        },
        {
          "name": "cancelledBps",
          "type": "uint256",
          "indexed": false,
          "internalType": "uint256"
        }
      ],
      "anonymous": false
    },
    {
      "type": "event",
      "name": "PoolRegistered",
      "inputs": [
        {
          "name": "validator",
          "type": "address",
          "indexed": true,
          "internalType": "address"
        },
        {
          "name": "commissionBps",
          "type": "uint256",
          "indexed": false,
          "internalType": "uint256"
        }
      ],
      "anonymous": false
    },
    {
      "type": "event",
      "name": "PoolRewardsDistributed",
      "inputs": [
        {
          "name": "validator",
          "type": "address",
          "indexed": true,
          "internalType": "address"
        },
        {
          "name": "amount",
          "type": "uint256",
          "indexed": false,
          "internalType": "uint256"
        }
      ],
      "anonymous": false
    },
    {
      "type": "event",
      "name": "PoolSlashed",
      "inputs": [
        {
          "name": "validator",
          "type": "address",
          "indexed": true,
          "internalType": "address"
        },
        {
          "name": "amount",
          "type": "uint256",
          "indexed": false,
          "internalType": "uint256"
        }
      ],
      "anonymous": false
    },
    {
      "type": "event",
      "name": "RewardDistributorUpdated",
      "inputs": [
        {
          "name": "oldDistributor",
          "type": "address",
          "indexed": true,
          "internalType": "address"
        },
        {
          "name": "newDistributor",
          "type": "address",
          "indexed": true,
          "internalType": "address"
        }
      ],
      "anonymous": false
    },
    {
      "type": "event",
      "name": "RewardRecipientUpdated",
      "inputs": [
        {
          "name": "delegator",
          "type": "address",
          "indexed": true,
          "internalType": "address"
        },
        {
          "name": "validator",
          "type": "address",
          "indexed": true,
          "internalType": "address"
        },
        {
          "name": "newRecipient",
          "type": "address",
          "indexed": true,
          "internalType": "address"
        }
      ],
      "anonymous": false
    },
    {
      "type": "event",
      "name": "RoleAdminChanged",
      "inputs": [
        {
          "name": "role",
          "type": "bytes32",
          "indexed": true,
          "internalType": "bytes32"
        },
        {
          "name": "previousAdminRole",
          "type": "bytes32",
          "indexed": true,
          "internalType": "bytes32"
        },
        {
          "name": "newAdminRole",
          "type": "bytes32",
          "indexed": true,
          "internalType": "bytes32"
        }
      ],
      "anonymous": false
    },
    {
      "type": "event",
      "name": "RoleGranted",
      "inputs": [
        {
          "name": "role",
          "type": "bytes32",
          "indexed": true,
          "internalType": "bytes32"
        },
        {
          "name": "account",
          "type": "address",
          "indexed": true,
          "internalType": "address"
        },
        {
          "name": "sender",
          "type": "address",
          "indexed": true,
          "internalType": "address"
        }
      ],
      "anonymous": false
    },
    {
      "type": "event",
      "name": "RoleRevoked",
      "inputs": [
        {
          "name": "role",
          "type": "bytes32",
          "indexed": true,
          "internalType": "bytes32"
        },
        {
          "name": "account",
          "type": "address",
          "indexed": true,
          "internalType": "address"
        },
        {
          "name": "sender",
          "type": "address",
          "indexed": true,
          "internalType": "address"
        }
      ],
      "anonymous": false
    },
    {
      "type": "event",
      "name": "UndelegationCompleted",
      "inputs": [
        {
          "name": "validator",
          "type": "address",
          "indexed": true,
          "internalType": "address"
        },
        {
          "name": "delegator",
          "type": "address",
          "indexed": true,
          "internalType": "address"
        },
        {
          "name": "amount",
          "type": "uint256",
          "indexed": false,
          "internalType": "uint256"
        }
      ],
      "anonymous": false
    },
    {
      "type": "event",
      "name": "UndelegationRequested",
      "inputs": [
        {
          "name": "validator",
          "type": "address",
          "indexed": true,
          "internalType": "address"
        },
        {
          "name": "delegator",
          "type": "address",
          "indexed": true,
          "internalType": "address"
        },
        {
          "name": "amount",
          "type": "uint256",
          "indexed": false,
          "internalType": "uint256"
        },
        {
          "name": "completionEpoch",
          "type": "uint64",
          "indexed": false,
          "internalType": "uint64"
        }
      ],
      "anonymous": false
    },
    {
      "type": "event",
      "name": "Upgraded",
      "inputs": [
        {
          "name": "implementation",
          "type": "address",
          "indexed": true,
          "internalType": "address"
        }
      ],
      "anonymous": false
    },
    {
      "type": "event",
      "name": "WhitelistEnabledUpdated",
      "inputs": [
        {
          "name": "enabled",
          "type": "bool",
          "indexed": false,
          "internalType": "bool"
        }
      ],
      "anonymous": false
    },
    {
      "type": "event",
      "name": "WhitelistRootUpdated",
      "inputs": [
        {
          "name": "oldRoot",
          "type": "bytes32",
          "indexed": false,
          "internalType": "bytes32"
        },
        {
          "name": "newRoot",
          "type": "bytes32",
          "indexed": false,
          "internalType": "bytes32"
        }
      ],
      "anonymous": false
    },
    {
      "type": "event",
      "name": "WhitelistVerified",
      "inputs": [
        {
          "name": "delegator",
          "type": "address",
          "indexed": true,
          "internalType": "address"
        }
      ],
      "anonymous": false
    },
    {
      "type": "error",
      "name": "AccessControlBadConfirmation",
      "inputs": []
    },
    {
      "type": "error",
      "name": "AccessControlUnauthorizedAccount",
      "inputs": [
        {
          "name": "account",
          "type": "address",
          "internalType": "address"
        },
        {
          "name": "neededRole",
          "type": "bytes32",
          "internalType": "bytes32"
        }
      ]
    },
    {
      "type": "error",
      "name": "AddressEmptyCode",
      "inputs": [
        {
          "name": "target",
          "type": "address",
          "internalType": "address"
        }
      ]
    },
    {
      "type": "error",
      "name": "CommissionIncreaseExceedsLimit",
      "inputs": [
        {
          "name": "increase",
          "type": "uint256",
          "internalType": "uint256"
        },
        {
          "name": "maxIncrease",
          "type": "uint256",
          "internalType": "uint256"
        }
      ]
    },
    {
      "type": "error",
      "name": "CommissionNotYetEffective",
      "inputs": [
        {
          "name": "currentEpoch",
          "type": "uint32",
          "internalType": "uint32"
        },
        {
          "name": "effectiveEpoch",
          "type": "uint32",
          "internalType": "uint32"
        }
      ]
    },
    {
      "type": "error",
      "name": "ERC1967InvalidImplementation",
      "inputs": [
        {
          "name": "implementation",
          "type": "address",
          "internalType": "address"
        }
      ]
    },
    {
      "type": "error",
      "name": "ERC1967NonPayable",
      "inputs": []
    },
    {
      "type": "error",
      "name": "ExceedsMaxDelegation",
      "inputs": [
        {
          "name": "amount",
          "type": "uint256",
          "internalType": "uint256"
        },
        {
          "name": "maximum",
          "type": "uint256",
          "internalType": "uint256"
        }
      ]
    },
    {
      "type": "error",
      "name": "ExceedsMaxValidatorDelegation",
      "inputs": [
        {
          "name": "total",
          "type": "uint256",
          "internalType": "uint256"
        },
        {
          "name": "maximum",
          "type": "uint256",
          "internalType": "uint256"
        }
      ]
    },
    {
      "type": "error",
      "name": "FailedCall",
      "inputs": []
    },
    {
      "type": "error",
      "name": "InsufficientBalance",
      "inputs": [
        {
          "name": "requested",
          "type": "uint256",
          "internalType": "uint256"
        },
        {
          "name": "available",
          "type": "uint256",
          "internalType": "uint256"
        }
      ]
    },
    {
      "type": "error",
      "name": "InsufficientDelegation",
      "inputs": [
        {
          "name": "amount",
          "type": "uint256",
          "internalType": "uint256"
        },
        {
          "name": "minimum",
          "type": "uint256",
          "internalType": "uint256"
        }
      ]
    },
    {
      "type": "error",
      "name": "InvalidCommission",
      "inputs": [
        {
          "name": "bps",
          "type": "uint256",
          "internalType": "uint256"
        }
      ]
    },
    {
      "type": "error",
      "name": "InvalidConfig",
      "inputs": []
    },
    {
      "type": "error",
      "name": "InvalidInitialCommission",
      "inputs": [
        {
          "name": "bps",
          "type": "uint256",
          "internalType": "uint256"
        }
      ]
    },
    {
      "type": "error",
      "name": "InvalidInitialization",
      "inputs": []
    },
    {
      "type": "error",
      "name": "NoCommissionToClaim",
      "inputs": []
    },
    {
      "type": "error",
      "name": "NoPendingCommission",
      "inputs": []
    },
    {
      "type": "error",
      "name": "NoPendingRewards",
      "inputs": []
    },
    {
      "type": "error",
      "name": "NotActiveValidator",
      "inputs": [
        {
          "name": "validator",
          "type": "address",
          "internalType": "address"
        }
      ]
    },
    {
      "type": "error",
      "name": "NotAllowlisted",
      "inputs": [
        {
          "name": "validator",
          "type": "address",
          "internalType": "address"
        }
      ]
    },
    {
      "type": "error",
      "name": "NotInitializing",
      "inputs": []
    },
    {
      "type": "error",
      "name": "NotWhitelisted",
      "inputs": [
        {
          "name": "delegator",
          "type": "address",
          "internalType": "address"
        }
      ]
    },
    {
      "type": "error",
      "name": "NothingToUndelegate",
      "inputs": []
    },
    {
      "type": "error",
      "name": "OnlyConsensusRegistry",
      "inputs": []
    },
    {
      "type": "error",
      "name": "OnlyRewardSources",
      "inputs": []
    },
    {
      "type": "error",
      "name": "PendingCommissionExists",
      "inputs": [
        {
          "name": "effectiveEpoch",
          "type": "uint32",
          "internalType": "uint32"
        }
      ]
    },
    {
      "type": "error",
      "name": "PendingUndelegationExists",
      "inputs": [
        {
          "name": "undelegateEpoch",
          "type": "uint64",
          "internalType": "uint64"
        }
      ]
    },
    {
      "type": "error",
      "name": "PoolAlreadyRegistered",
      "inputs": [
        {
          "name": "validator",
          "type": "address",
          "internalType": "address"
        }
      ]
    },
    {
      "type": "error",
      "name": "PoolNotAcceptingDelegations",
      "inputs": [
        {
          "name": "validator",
          "type": "address",
          "internalType": "address"
        }
      ]
    },
    {
      "type": "error",
      "name": "PoolNotRegistered",
      "inputs": [
        {
          "name": "validator",
          "type": "address",
          "internalType": "address"
        }
      ]
    },
    {
      "type": "error",
      "name": "Reentrancy",
      "inputs": []
    },
    {
      "type": "error",
      "name": "SafeERC20FailedOperation",
      "inputs": [
        {
          "name": "token",
          "type": "address",
          "internalType": "address"
        }
      ]
    },
    {
      "type": "error",
      "name": "UUPSUnauthorizedCallContext",
      "inputs": []
    },
    {
      "type": "error",
      "name": "UUPSUnsupportedProxiableUUID",
      "inputs": [
        {
          "name": "slot",
          "type": "bytes32",
          "internalType": "bytes32"
        }
      ]
    },
    {
      "type": "error",
      "name": "UnbondingNotComplete",
      "inputs": [
        {
          "name": "currentEpoch",
          "type": "uint32",
          "internalType": "uint32"
        },
        {
          "name": "requiredEpoch",
          "type": "uint64",
          "internalType": "uint64"
        }
      ]
    },
    {
      "type": "error",
      "name": "ZeroAddress",
      "inputs": []
    },
    {
      "type": "error",
      "name": "ZeroAmount",
      "inputs": []
    }
  ],
  "bytecode": {
    "object": "0x60a060405230608052348015610013575f80fd5b5061001c610021565b6100d3565b7ff0c57e16840df040f15088dc2f81fe391c3923bec73e23a9662efc9c229c6a00805468010000000000000000900460ff16156100715760405163f92ee8a960e01b815260040160405180910390fd5b80546001600160401b03908116146100d05780546001600160401b0319166001600160401b0390811782556040519081527fc7f505b2f371ae2175ee4913f4499e1f2633a7b5936321eed1cdaeb6115181d29060200160405180910390a15b50565b6080516142ce6100f95f395f8181612ff40152818161301d015261316a01526142ce5ff3fe6080604052600436106102d9575f3560e01c806391d1485411610189578063afcda285116100d8578063dfeef41511610092578063f5aa406d1161006d578063f5aa406d14610978578063f72c0d8b14610997578063fad99f98146109ca578063fc917b83146109de575f80fd5b8063dfeef4151461092f578063e2e0b4341461094e578063e62977f814610963575f80fd5b8063afcda2851461088b578063b59182e21461089f578063c29cf991146108be578063d03ef6cf146108dd578063d547741f146108fc578063d6b0f4841461091b575f80fd5b8063a165695211610143578063aaf5eb681161011e578063aaf5eb68146107be578063ac5be33d146107d9578063acc2166a1461083a578063ad3cb1cc1461084e575f80fd5b8063a16569521461076d578063a1809b951461078c578063a217fddf146107ab575f80fd5b806391d14854146106bd578063975f54d7146106dc57806397fc2558146106fb5780639aa5f8cc1461071a5780639d55fba71461072f578063a11dc6371461074e575f80fd5b806339710bc1116102455780635a46b700116101ff578063715d9511116101da578063715d95111461064c578063746376ee1461066b5780637a27db571461068a5780638188a264146106a9575f80fd5b80635a46b7001461057e57806364b167b514610592578063662f8026146105c6575f80fd5b806339710bc1146104ce5780634f1ef286146104ed57806351e9aa941461050057806351fb012d14610537578063520da5b61461054b57806352d1902d1461056a575f80fd5b80632204a372116102965780632204a3721461042a578063248a9ca31461043e578063284fd8e51461045d5780632f2ff15d1461047c57806336568abe1461049b578063386bfc98146104ba575f80fd5b806301ffc9a7146102dd578063026e402b146103115780630bac7bf3146103325780630c938657146103725780631712b0d814610391578063187f92b6146103fd575b5f80fd5b3480156102e8575f80fd5b506102fc6102f7366004613b03565b6109fd565b60405190151581526020015b60405180910390f35b34801561031c575f80fd5b5061033061032b366004613b3e565b610a33565b005b34801561033d575f80fd5b5061035161034c366004613b68565b610a77565b604080518251815260209283015163ffffffff169281019290925201610308565b34801561037d575f80fd5b5061033061038c366004613b83565b610ad0565b34801561039c575f80fd5b506103b06103ab366004613b68565b610d7f565b60405161030891905f60c0820190508251825260208301516020830152604083015160408301526060830151606083015260808301511515608083015260a083015160a083015292915050565b348015610408575f80fd5b5061041c610417366004613b68565b610e28565b604051908152602001610308565b348015610435575f80fd5b50610330610e52565b348015610449575f80fd5b5061041c610458366004613b83565b610f25565b348015610468575f80fd5b50610330610477366004613b68565b610f45565b348015610487575f80fd5b50610330610496366004613b9a565b610fdd565b3480156104a6575f80fd5b506103306104b5366004613b9a565b610fff565b3480156104c5575f80fd5b5061041c611037565b3480156104d9575f80fd5b506103306104e8366004613bc8565b611049565b6103306104fb366004613cec565b611183565b34801561050b575f80fd5b5061051f61051a366004613b68565b6111a2565b6040516001600160a01b039091168152602001610308565b348015610542575f80fd5b506102fc6111e2565b348015610556575f80fd5b50610330610565366004613b3e565b6111f7565b348015610575575f80fd5b5061041c6113c4565b348015610589575f80fd5b506103306113df565b34801561059d575f80fd5b506105b16105ac366004613d78565b611590565b60408051928352602083019190915201610308565b3480156105d1575f80fd5b506105e56105e0366004613d78565b6115a8565b60405161030891905f60e0820190508251825260208301516020830152604083015160408301526001600160401b0360608401511660608301526080830151608083015260a083015160a08301526001600160401b0360c08401511660c083015292915050565b348015610657575f80fd5b50610330610666366004613db1565b611685565b348015610676575f80fd5b506102fc610685366004613b68565b61171e565b348015610695575f80fd5b5061041c6106a4366004613d78565b61174b565b3480156106b4575f80fd5b5061051f611760565b3480156106c8575f80fd5b506102fc6106d7366004613b9a565b611778565b3480156106e7575f80fd5b506103306106f6366004613b3e565b6117ae565b348015610706575f80fd5b50610330610715366004613dcc565b611abd565b348015610725575f80fd5b5061041c6101f481565b34801561073a575f80fd5b50610330610749366004613b83565b611b32565b348015610759575f80fd5b506102fc610768366004613b68565b611e27565b348015610778575f80fd5b50610330610787366004613d78565b611e54565b348015610797575f80fd5b506103306107a6366004613b68565b611f0a565b3480156107b6575f80fd5b5061041c5f81565b3480156107c9575f80fd5b5061041c670de0b6b3a764000081565b3480156107e4575f80fd5b506107ed611f9a565b60405161030891905f60a08201905082518252602083015160208301526040830151604083015263ffffffff606084015116606083015263ffffffff608084015116608083015292915050565b348015610845575f80fd5b5061051f612029565b348015610859575f80fd5b5061087e604051806040016040528060058152602001640352e302e360dc1b81525081565b6040516103089190613de5565b348015610896575f80fd5b5061051f612044565b3480156108aa575f80fd5b506103306108b9366004613b68565b61205f565b3480156108c9575f80fd5b5061041c6108d8366004613b3e565b6121d8565b3480156108e8575f80fd5b506103306108f7366004613b68565b6123b9565b348015610907575f80fd5b50610330610916366004613b9a565b61258e565b348015610926575f80fd5b506103306125aa565b34801561093a575f80fd5b5061051f610949366004613d78565b612609565b348015610959575f80fd5b5061041c6107d081565b34801561096e575f80fd5b5061041c61271081565b348015610983575f80fd5b50610330610992366004613b83565b612657565b3480156109a2575f80fd5b5061041c7f189ab7a9244df0848122154315af71fe140f3db0fe014031783b0946b8c9d2e381565b3480156109d5575f80fd5b50610330612709565b3480156109e9575f80fd5b506103306109f8366004613ea9565b61282e565b5f6001600160e01b03198216637965db0b60e01b1480610a2d57506301ffc9a760e01b6001600160e01b03198316145b92915050565b3068929eee149b4bd212685403610a515763ab143c065f526004601cfd5b3068929eee149b4bd2126855610a678282612a6d565b3868929eee149b4bd21268555050565b604080518082019091525f8082526020820152610a92612e87565b6001600160a01b039092165f908152600b9290920160209081526040928390208351808501909452805484526001015463ffffffff16908301525090565b5f610ad9612e87565b335f90815260078201602052604090205490915060ff1615610b15576040516301b6ee3960e71b81523360048201526024015b60405180910390fd5b612710821115610b3b576040516383f820d360e01b815260048101839052602401610b0c565b60018101546040516305a3b80960e01b81523360048201526001600160a01b03909116906305a3b80990602401602060405180830381865afa158015610b83573d5f803e3d5ffd5b505050506040513d601f19601f82011682018060405250810190610ba79190613f12565b610bc657604051636f7a527560e01b8152336004820152602401610b0c565b6107d0821115610bec57604051631d9b314160e31b815260048101839052602401610b0c565b6001810154604051630c825d9760e11b81523360048201525f916001600160a01b031690631904bb2e906024015f60405180830381865afa158015610c33573d5f803e3d5ffd5b505050506040513d5f823e601f3d908101601f19168201604052610c5a9190810190613fae565b9050600381608001516006811115610c7457610c74614090565b14158015610c985750600281608001516006811115610c9557610c95614090565b14155b15610cb8576040516337603bef60e01b8152336004820152602401610b0c565b335f81815260078401602090815260408083208054600160ff199182168117909255825160c0810184528581528085018a8152818501878152606083018881526080840186815260a085018a81528b8b5260068e018a529988902094518555925195840195909555516002830155925160038201559151600483018054909216901515179055925160059093019290925590518581527f8e7aeb727a8d0fd229ea085622d6ed0bf0ec5eda2885f3b38e6438cf586970fa91015b60405180910390a2505050565b610db46040518060c001604052805f81526020015f81526020015f81526020015f81526020015f151581526020015f81525090565b610dbc612e87565b6001600160a01b039092165f9081526006929092016020908152604092839020835160c0810185528154815260018201549281019290925260028101549382019390935260038301546060820152600483015460ff161515608082015260059092015460a08301525090565b5f610e31612e87565b6001600160a01b039092165f90815260069290920160205250604090205490565b5f610e5b612e87565b335f90815260078201602052604090205490915060ff16610e91576040516327946f5760e21b8152336004820152602401610b0c565b335f908152600b8201602052604081206001810154909163ffffffff9091169003610ecf57604051635bac54f360e11b815260040160405180910390fd5b8054335f818152600b850160205260408082209182556001909101805463ffffffff19169055517feb5d4ee844d801eb83587aeee5e847f1259bf3628274042c79a45ead834cf85c90610d729084815260200190565b5f9081525f805160206142a2833981519152602052604090206001015490565b5f610f4e612e87565b335f90815260078201602052604090205490915060ff16610f84576040516327946f5760e21b8152336004820152602401610b0c565b335f818152600a8301602052604080822080546001600160a01b0319166001600160a01b03871690811790915590519092917f2c40de6ec45500fc9fc0e3b8f163c1cacefcd0e5744039e3ed1259551fb98e5b91a35050565b610fe682610f25565b610fef81612eab565b610ff98383612eb8565b50505050565b6001600160a01b03811633146110285760405163334bd91960e11b815260040160405180910390fd5b6110328282612f59565b505050565b5f611040612e87565b600d0154905090565b3068929eee149b4bd2126854036110675763ab143c065f526004601cfd5b3068929eee149b4bd21268555f61107c612e87565b600e81015490915060ff1680156110a45750335f908152600f8201602052604090205460ff16155b1561116557604080513360208201529081018590525f9060600160408051601f1981840301815282825280516020918201209083015201604051602081830303815290604052805190602001209050611103848484600d015484612fd2565b61112257604051636f8bf18b60e11b8152336004820152602401610b0c565b335f818152600f84016020526040808220805460ff19166001179055517f653f34e4b360dff4c3f5c71ac8ad94f05cc5801af1f8e021243445edb238e17f9190a2505b61116f8686612a6d565b503868929eee149b4bd21268555050505050565b61118b612fe9565b61119482613079565b61119e82826130a3565b5050565b5f806111ac612e87565b6001600160a01b038085165f908152600a9290920160205260409091205416905080156111d957806111db565b825b9392505050565b5f6111eb612e87565b600e015460ff16919050565b5f611200612e87565b60018101549091506001600160a01b0316331480159061122d5750600c8101546001600160a01b03163314155b1561124b57604051639059b66360e01b815260040160405180910390fd5b8115611032575f61125a612e87565b6001600160a01b0385165f90815260078201602052604090205490915060ff166112845750505050565b6001600160a01b0384165f908152600682016020526040812080549091036113035783816003015f8282546112b991906140b8565b90915550506040518481526001600160a01b038616907fcae19e7b951be64583acfd3c95fa7180f21b9caaee756edf70fa1272185046729060200160405180910390a25050505050565b5f61271082600101548661131791906140cb565b61132191906140e2565b90505f61132e8287614101565b905081836003015f82825461134391906140b8565b9091555050825461135c670de0b6b3a7640000836140cb565b61136691906140e2565b836002015f82825461137891906140b8565b90915550506040518681526001600160a01b038816907fcae19e7b951be64583acfd3c95fa7180f21b9caaee756edf70fa1272185046729060200160405180910390a250505050505050565b5f6113cd61315f565b505f8051602061428283398151915290565b5f6113e8612e87565b335f90815260078201602052604090205490915060ff1661141e576040516327946f5760e21b8152336004820152602401610b0c565b335f908152600b8201602052604081206001810154909163ffffffff909116900361145c57604051635bac54f360e11b815260040160405180910390fd5b600182015460408051635cbeecf160e11b815290515f926001600160a01b03169163b97dd9e29160048083019260209291908290030181865afa1580156114a5573d5f803e3d5ffd5b505050506040513d601f19601f820116820180604052508101906114c99190614114565b600183015490915063ffffffff90811690821610156115115760018201546040516316be785760e11b815263ffffffff80841660048301529091166024820152604401610b0c565b335f818152600685016020908152604080832060018082018054895491829055600b8b01865284872096875595909101805463ffffffff1916905582518581529384018190529094909290917f6e500db30ce535d38852e318f333e9be41a3fec6c65d234ebb06203c896db9a5910160405180910390a2505050505050565b5f8061159c84846131a8565b915091505b9250929050565b6115f36040518060e001604052805f81526020015f81526020015f81526020015f6001600160401b031681526020015f81526020015f81526020015f6001600160401b031681525090565b6115fb612e87565b6001600160a01b039384165f90815260089190910160209081526040808320949095168252928352839020835160e081018552815481526001820154938101939093526002810154938301939093525060038201546001600160401b03908116606083015260048301546080830152600583015460a083015260069092015490911660c082015290565b5f61168e612e87565b335f90815260078201602052604090205490915060ff166116c4576040516327946f5760e21b8152336004820152602401610b0c565b335f818152600683016020908152604091829020600401805460ff191686151590811790915591519182527f5b3f520614605db08ae9eda8229e561641644de765b6cae516800d980e6c933d910160405180910390a25050565b5f611727612e87565b6001600160a01b039092165f90815260079290920160205250604090205460ff1690565b5f8061175784846131a8565b95945050505050565b5f611769612e87565b546001600160a01b0316919050565b5f9182525f805160206142a2833981519152602090815260408084206001600160a01b0393909316845291905290205460ff1690565b3068929eee149b4bd2126854036117cc5763ab143c065f526004601cfd5b3068929eee149b4bd2126855805f036117f857604051631f2a200560e01b815260040160405180910390fd5b5f611801612e87565b6001600160a01b0384165f90815260078201602052604090205490915060ff16611849576040516327946f5760e21b81526001600160a01b0384166004820152602401610b0c565b6001600160a01b0383165f9081526008820160209081526040808320338452909152902060038101546001600160401b0316156118aa576003810154604051635bade63160e01b81526001600160401b039091166004820152602401610b0c565b6001600160a01b0384165f90815260068301602052604090206118cd81836133be565b81548411156118fc57815460405163cf47918160e01b8152610b0c918691600401918252602082015260400190565b83825f015f82825461190e9190614101565b909155505060028101548254670de0b6b3a76400009161192d916140cb565b61193791906140e2565b8260010181905550670de0b6b3a76400006001670de0b6b3a76400008360050154855f015461196691906140cb565b61197091906140b8565b61197a9190614101565b61198491906140e2565b60058301556004808301859055600184015460408051635cbeecf160e11b815290515f936001600160a01b039093169263b97dd9e2928082019260209290918290030181865afa1580156119da573d5f803e3d5ffd5b505050506040513d601f19601f820116820180604052508101906119fe9190614114565b6005850154909150611a1a9063ffffffff90811690831661412f565b60038401805467ffffffffffffffff19166001600160401b03929092169190911790558154859083905f90611a50908490614101565b90915550506003830154604080518781526001600160401b03909216602083015233916001600160a01b038916917f26729a30cb869047ea86f348320f977cd2b26ccfea93bc98cdfada300c0b2d71910160405180910390a3505050503868929eee149b4bd21268555050565b5f611ac781612eab565b611ade611ad93684900384018461414e565b613630565b81611ae7612e87565b600201611af48282614168565b9050507f194f7cc80cff5f7988aaffe27e63c78de77398034a89101e8062e8b3e091ba6482604051611b2691906141ce565b60405180910390a15050565b5f611b3b612e87565b335f90815260078201602052604090205490915060ff16611b71576040516327946f5760e21b8152336004820152602401610b0c565b612710821115611b97576040516383f820d360e01b815260048101839052602401610b0c565b335f9081526006820160205260409020600181015480841115611d67575f611bbf8286614101565b90506101f4811115611bef57604051630e45b8f960e31b8152600481018290526101f46024820152604401610b0c565b335f908152600b8501602052604090206001015463ffffffff1615611c4557335f908152600b8501602052604090819020600101549051634f42fd1360e11b815263ffffffff9091166004820152602401610b0c565b600184015460408051635cbeecf160e11b815290515f926001600160a01b03169163b97dd9e29160048083019260209291908290030181865afa158015611c8e573d5f803e3d5ffd5b505050506040513d601f19601f82011682018060405250810190611cb29190614114565b60058601549091505f90611cd490640100000000900463ffffffff1683614224565b60408051808201825289815263ffffffff8381166020808401828152335f818152600b8f0184528790209551865590516001909501805463ffffffff1916959094169490941790925583518981529182018c9052928101929092529192507f3ba99d6ffb4e93d85f5a6fbdce7de53d6348b54dd4e3d618357b5fc0423ce1949060600160405180910390a2505050610ff9565b6001808301859055335f908152600b850160205260409020015463ffffffff1615611de657335f818152600b8501602090815260408083208054938155600101805463ffffffff19169055518281529192917feb5d4ee844d801eb83587aeee5e847f1259bf3628274042c79a45ead834cf85c910160405180910390a2505b604080518281526020810186905233917f6e500db30ce535d38852e318f333e9be41a3fec6c65d234ebb06203c896db9a5910160405180910390a250505050565b5f611e30612e87565b6001600160a01b039092165f908152600f9290920160205250604090205460ff1690565b5f611e5d612e87565b6001600160a01b0384165f90815260078201602052604090205490915060ff16611ea5576040516327946f5760e21b81526001600160a01b0384166004820152602401610b0c565b6001600160a01b038381165f818152600984016020908152604080832033808552925280832080546001600160a01b03191695881695861790555190917f8dace3a6f4c71cf6c3474ab5c732a14e533786678160dab44ff436193998382691a4505050565b5f611f1481612eab565b6001600160a01b038216611f3b5760405163d92e233d60e01b815260040160405180910390fd5b5f611f44612e87565b600c810180546001600160a01b038681166001600160a01b031983168117909355604051939450169182907f1df95772db25c427e0df149fe4cd5b7c2e970e096ee7305ff86f6e1167281d7b905f90a350505050565b611fd36040518060a001604052805f81526020015f81526020015f81526020015f63ffffffff1681526020015f63ffffffff1681525090565b611fdb612e87565b6040805160a081018252600283015481526003830154602082015260048301549181019190915260059091015463ffffffff8082166060840152640100000000909104166080820152919050565b5f612032612e87565b600c01546001600160a01b0316919050565b5f61204d612e87565b600101546001600160a01b0316919050565b3068929eee149b4bd21268540361207d5763ab143c065f526004601cfd5b3068929eee149b4bd21268555f612092612e87565b6001600160a01b0383165f90815260078201602052604090205490915060ff166120da576040516327946f5760e21b81526001600160a01b0383166004820152602401610b0c565b6001600160a01b0382165f908152600682016020908152604080832060088501835281842033855290925290912061211282826133be565b60028101545f81900361213857604051635b8f50bf60e11b815260040160405180910390fd5b5f600283018190556001600160a01b038087168252600986016020908152604080842033855290915290912054168061216e5750335b8454612184906001600160a01b03168284613716565b60405182815233906001600160a01b038816907f13f803ff6cd8c795c5a8a832a088b88eab8d794fea533fab9f354801f24a69cc9060200160405180910390a350505050503868929eee149b4bd212685550565b5f6121e1612e87565b600101546001600160a01b0316331461220d5760405163dfe4494d60e01b815260040160405180910390fd5b815f0361221b57505f610a2d565b5f612224612e87565b6001600160a01b0385165f90815260078201602052604090205490915060ff16612251575f915050610a2d565b6001600160a01b0384165f908152600682016020526040812080549091036122c057846001600160a01b03167ff6cd8d4bb37468c32d53ccc0cea3370052a13c4ab3d2c505fdfc59478b8bfdc85f6040516122ae91815260200190565b60405180910390a25f92505050610a2d565b805484116122ce57836122d1565b80545b81549093505f906122ea670de0b6b3a7640000866140cb565b6122f491906140e2565b90505f670de0b6b3a7640000835f01548361230f91906140cb565b61231991906140e2565b905081836005015f82825461232e91906140b8565b90915550508254819084905f90612346908490614101565b909155505060018401548454612369916001600160a01b03918216911683613716565b809450866001600160a01b03167ff6cd8d4bb37468c32d53ccc0cea3370052a13c4ab3d2c505fdfc59478b8bfdc8866040516123a791815260200190565b60405180910390a25050505092915050565b3068929eee149b4bd2126854036123d75763ab143c065f526004601cfd5b3068929eee149b4bd21268555f6123ec612e87565b6001600160a01b0383165f908152600882016020908152604080832033845290915281206003810154929350916001600160401b0316900361244157604051630bdadb3d60e11b815260040160405180910390fd5b600182015460408051635cbeecf160e11b815290515f926001600160a01b03169163b97dd9e29160048083019260209291908290030181865afa15801561248a573d5f803e3d5ffd5b505050506040513d601f19601f820116820180604052508101906124ae9190614114565b60038301549091506001600160401b031663ffffffff82161015612502576003820154604051635f421ebb60e11b815263ffffffff831660048201526001600160401b039091166024820152604401610b0c565b60048201805460038401805467ffffffffffffffff191690555f909155801561253b57835461253b906001600160a01b03163383613716565b60405181815233906001600160a01b038716907f96f203b9bbeb941d0efd79904a25c8b5d1ebb911458ca5ec26aa1dbf006c13e09060200160405180910390a3505050503868929eee149b4bd212685550565b61259782610f25565b6125a081612eab565b610ff98383612f59565b5f6125b481612eab565b5f6125bd612e87565b600e81015490915060ff161561119e57600e8101805460ff191690556040515f81527f49d3057180a80162d2a0381be6848c15e0d117e900366482dd3b5443ca8db97490602001611b26565b5f80612613612e87565b6001600160a01b038086165f90815260099290920160209081526040808420878416855290915290912054169050801561264d578061264f565b825b949350505050565b5f61266181612eab565b5f61266a612e87565b600d8101805490859055604080518281526020810187905292935090917f119109586bd9ad46f3d07c3c20ad328e7e180d96e3a019099d394fd5aca29951910160405180910390a1600e82015460ff16610ff957600e8201805460ff191660019081179091556040519081527f49d3057180a80162d2a0381be6848c15e0d117e900366482dd3b5443ca8db9749060200160405180910390a150505050565b3068929eee149b4bd2126854036127275763ab143c065f526004601cfd5b3068929eee149b4bd21268555f61273c612e87565b335f90815260078201602052604090205490915060ff16612772576040516327946f5760e21b8152336004820152602401610b0c565b335f9081526006820160205260408120600381015490918190036127a95760405163284326eb60e21b815260040160405180910390fd5b5f60038301819055338152600a840160205260409020546001600160a01b0316806127d15750335b83546127e7906001600160a01b03168284613716565b60405182815233907f8e14daa5332205b1634040e1054e93d1f5396ec8bf0115d133b7fbaf4a52e4119060200160405180910390a2505050503868929eee149b4bd2126855565b5f612837613775565b805490915060ff600160401b82041615906001600160401b03165f8115801561285d5750825b90505f826001600160401b031660011480156128785750303b155b905081158015612886575080155b156128a45760405163f92ee8a960e01b815260040160405180910390fd5b845467ffffffffffffffff1916600117855583156128ce57845460ff60401b1916600160401b1785555b6001600160a01b0389166128f55760405163d92e233d60e01b815260040160405180910390fd5b6001600160a01b03881661291c5760405163d92e233d60e01b815260040160405180910390fd5b6001600160a01b0387166129435760405163d92e233d60e01b815260040160405180910390fd5b61294c86613630565b61295461379d565b61295c61379d565b6129665f88612eb8565b506129917f189ab7a9244df0848122154315af71fe140f3db0fe014031783b0946b8c9d2e388612eb8565b505f61299b612e87565b80546001600160a01b03808d166001600160a01b0319928316178355600183018054918d169190921617905587516002820155602088015160038201556040880151600482015560608801516005909101805460808a015163ffffffff9081166401000000000267ffffffffffffffff19909216931692909217919091179055508315612a6257845460ff60401b19168555604051600181527fc7f505b2f371ae2175ee4913f4499e1f2633a7b5936321eed1cdaeb6115181d29060200160405180910390a15b505050505050505050565b6001600160a01b038216612a945760405163d92e233d60e01b815260040160405180910390fd5b805f03612ab457604051631f2a200560e01b815260040160405180910390fd5b5f612abd612e87565b600e81015490915060ff168015612ae55750335f908152600f8201602052604090205460ff16155b15612b0557604051636f8bf18b60e11b8152336004820152602401610b0c565b6001600160a01b0383165f90815260078201602052604090205460ff16612b4a576040516327946f5760e21b81526001600160a01b0384166004820152602401610b0c565b60018101546040516305a3b80960e01b81526001600160a01b038581166004830152909116906305a3b80990602401602060405180830381865afa158015612b94573d5f803e3d5ffd5b505050506040513d601f19601f82011682018060405250810190612bb89190613f12565b612be057604051636f7a527560e01b81526001600160a01b0384166004820152602401610b0c565b6001600160a01b0383165f9081526006820160205260409020600481015460ff16612c29576040516308c66b3760e41b81526001600160a01b0385166004820152602401610b0c565b6002820154831015612c5e5760028201546040516388c4fe8f60e01b8152610b0c918591600401918252602082015260400190565b6001600160a01b0384165f90815260088301602090815260408083203384529091529020612c8c82826133be565b80545f90612c9b9086906140b8565b6003850154909150811115612cd357600384015460405163071c3fa560e51b8152610b0c918391600401918252602082015260400190565b82545f90612ce29087906140b8565b6004860154909150811115612d17576004858101546040516376f778e960e01b81529182018390526024820152604401610b0c565b8454612d2e906001600160a01b03163330896137a5565b8183556002840154670de0b6b3a764000090612d4a90846140cb565b612d5491906140e2565b8360010181905550670de0b6b3a76400006001670de0b6b3a76400008660050154865f0154612d8391906140cb565b612d8d91906140b8565b612d979190614101565b612da191906140e2565b6005840155600185015460408051635cbeecf160e11b815290516001600160a01b039092169163b97dd9e2916004808201926020929091908290030181865afa158015612df0573d5f803e3d5ffd5b505050506040513d601f19601f82011682018060405250810190612e149190614114565b60068401805467ffffffffffffffff191663ffffffff9290921691909117905580845560405133906001600160a01b038916907fe5541a6b6103d4fa7e021ed54fad39c66f27a76bd13d374cf6240ae6bd0bb72b90612e76908a815260200190565b60405180910390a350505050505050565b7f88221c9a15d56692c82fe5e6f956bdf53eb61854017aba5bacf6b40976119e0090565b612eb581336137de565b50565b5f5f805160206142a2833981519152612ed18484611778565b612f50575f848152602082815260408083206001600160a01b03871684529091529020805460ff19166001179055612f063390565b6001600160a01b0316836001600160a01b0316857f2f8788117e7eff1d82e926ec794901d17c78024a50270940304540a733656f0d60405160405180910390a46001915050610a2d565b5f915050610a2d565b5f5f805160206142a2833981519152612f728484611778565b15612f50575f848152602082815260408083206001600160a01b0387168085529252808320805460ff1916905551339287917ff6391f5c32d9c69d2a47ea670b442974b53935d1edc7fd64eb21e047a839171b9190a46001915050610a2d565b5f82612fdf868685613817565b1495945050505050565b306001600160a01b037f000000000000000000000000000000000000000000000000000000000000000016148061305957507f00000000000000000000000000000000000000000000000000000000000000006001600160a01b031661304d613858565b6001600160a01b031614155b156130775760405163703e46dd60e11b815260040160405180910390fd5b565b7f189ab7a9244df0848122154315af71fe140f3db0fe014031783b0946b8c9d2e361119e81612eab565b816001600160a01b03166352d1902d6040518163ffffffff1660e01b8152600401602060405180830381865afa9250505080156130fd575060408051601f3d908101601f191682019092526130fa91810190614240565b60015b61312557604051634c9c8ce360e01b81526001600160a01b0383166004820152602401610b0c565b5f80516020614282833981519152811461315557604051632a87526960e21b815260048101829052602401610b0c565b611032838361386c565b306001600160a01b037f000000000000000000000000000000000000000000000000000000000000000016146130775760405163703e46dd60e11b815260040160405180910390fd5b5f805f6131b3612e87565b6001600160a01b038087165f9081526006830160209081526040808320600886018352818420948a16845293909152812080549394509192900361320257600201545f945092506115a1915050565b5f670de0b6b3a76400006001670de0b6b3a76400008560050154855f015461322a91906140cb565b61323491906140b8565b61323e9190614101565b61324891906140e2565b90505f8260050154821161325c575f61326b565b600583015461326b9083614101565b83549091508110613289575050600201545f945092506115a1915050565b8254613296908290614101565b965082600201549550846001015f9054906101000a90046001600160a01b03166001600160a01b031663b97dd9e26040518163ffffffff1660e01b8152600401602060405180830381865afa1580156132f1573d5f803e3d5ffd5b505050506040513d601f19601f820116820180604052508101906133159190614114565b60068401546001600160401b031663ffffffff91909116146133b25782546001808501545f929190829061334a908c906140cb565b61335491906140b8565b61335e9190614101565b61336891906140e2565b90505f670de0b6b3a764000086600201548a61338491906140cb565b61338e91906140e2565b9050818111156133af576133a28282614101565b6133ac90896140b8565b97505b50505b50505050509250929050565b80545f036133ca575050565b5f670de0b6b3a76400006001670de0b6b3a76400008560050154855f01546133f291906140cb565b6133fc91906140b8565b6134069190614101565b61341091906140e2565b90505f82600501548211613424575f613433565b60058301546134339083614101565b905080156134a5578254808210613452575f80855560018501556134a3565b81845f015f8282546134649190614101565b909155505083546001858101548392839161347f91906140cb565b61348991906140b8565b6134939190614101565b61349d91906140e2565b60018501555b505b5f6134ae612e87565b6001015f9054906101000a90046001600160a01b03166001600160a01b031663b97dd9e26040518163ffffffff1660e01b8152600401602060405180830381865afa1580156134ff573d5f803e3d5ffd5b505050506040513d601f19601f820116820180604052508101906135239190614114565b63ffffffff1690505f845f015411801561354d575060068401546001600160401b03828116911614155b156135b0575f670de0b6b3a76400008660020154865f015461356f91906140cb565b61357991906140e2565b905084600101548111156135ae5760018501546135969082614101565b856002015f8282546135a891906140b8565b90915550505b505b60028501548454670de0b6b3a7640000916135ca916140cb565b6135d491906140e2565b8460010181905550670de0b6b3a76400006001670de0b6b3a76400008760050154875f015461360391906140cb565b61360d91906140b8565b6136179190614101565b61362191906140e2565b84600501819055505050505050565b80515f03613651576040516306b7c75960e31b815260040160405180910390fd5b80602001515f03613675576040516306b7c75960e31b815260040160405180910390fd5b80604001515f03613699576040516306b7c75960e31b815260040160405180910390fd5b8060400151816020015111156136c2576040516306b7c75960e31b815260040160405180910390fd5b806060015163ffffffff165f036136ec576040516306b7c75960e31b815260040160405180910390fd5b806080015163ffffffff165f03612eb5576040516306b7c75960e31b815260040160405180910390fd5b6040516001600160a01b0383811660248301526044820183905261103291859182169063a9059cbb906064015b604051602081830303815290604052915060e01b6020820180516001600160e01b0383818316178352505050506138c1565b5f807ff0c57e16840df040f15088dc2f81fe391c3923bec73e23a9662efc9c229c6a00610a2d565b61307761392d565b6040516001600160a01b038481166024830152838116604483015260648201839052610ff99186918216906323b872dd90608401613743565b6137e88282611778565b61119e5760405163e2517d3f60e01b81526001600160a01b038216600482015260248101839052604401610b0c565b5f81815b8481101561384f576138458287878481811061383957613839614257565b90506020020135613952565b915060010161381b565b50949350505050565b5f5f80516020614282833981519152611769565b6138758261397b565b6040516001600160a01b038316907fbc7cd75a20ee27fd9adebab32041f755214dbc6bffa90cc0225b39da2e5c2d3b905f90a28051156138b95761103282826139de565b61119e613a47565b5f8060205f8451602086015f885af1806138e0576040513d5f823e3d81fd5b50505f513d915081156138f7578060011415613904565b6001600160a01b0384163b155b15610ff957604051635274afe760e01b81526001600160a01b0385166004820152602401610b0c565b613935613a66565b61307757604051631afcd79f60e31b815260040160405180910390fd5b5f81831061396c575f8281526020849052604090206111db565b505f9182526020526040902090565b806001600160a01b03163b5f036139b057604051634c9c8ce360e01b81526001600160a01b0382166004820152602401610b0c565b5f8051602061428283398151915280546001600160a01b0319166001600160a01b0392909216919091179055565b60605f80846001600160a01b0316846040516139fa919061426b565b5f60405180830381855af49150503d805f8114613a32576040519150601f19603f3d011682016040523d82523d5f602084013e613a37565b606091505b5091509150611757858383613a7f565b34156130775760405163b398979f60e01b815260040160405180910390fd5b5f613a6f613775565b54600160401b900460ff16919050565b606082613a9457613a8f82613adb565b6111db565b8151158015613aab57506001600160a01b0384163b155b15613ad457604051639996b31560e01b81526001600160a01b0385166004820152602401610b0c565b50806111db565b805115613aea57805160208201fd5b60405163d6bda27560e01b815260040160405180910390fd5b5f60208284031215613b13575f80fd5b81356001600160e01b0319811681146111db575f80fd5b6001600160a01b0381168114612eb5575f80fd5b5f8060408385031215613b4f575f80fd5b8235613b5a81613b2a565b946020939093013593505050565b5f60208284031215613b78575f80fd5b81356111db81613b2a565b5f60208284031215613b93575f80fd5b5035919050565b5f8060408385031215613bab575f80fd5b823591506020830135613bbd81613b2a565b809150509250929050565b5f805f805f60808688031215613bdc575f80fd5b8535613be781613b2a565b9450602086013593506040860135925060608601356001600160401b03811115613c0f575f80fd5b8601601f81018813613c1f575f80fd5b80356001600160401b03811115613c34575f80fd5b8860208260051b8401011115613c48575f80fd5b959894975092955050506020019190565b634e487b7160e01b5f52604160045260245ffd5b60405161010081016001600160401b0381118282101715613c9057613c90613c59565b60405290565b604051601f8201601f191681016001600160401b0381118282101715613cbe57613cbe613c59565b604052919050565b5f6001600160401b03821115613cde57613cde613c59565b50601f01601f191660200190565b5f8060408385031215613cfd575f80fd5b8235613d0881613b2a565b915060208301356001600160401b03811115613d22575f80fd5b8301601f81018513613d32575f80fd5b8035613d45613d4082613cc6565b613c96565b818152866020838501011115613d59575f80fd5b816020840160208301375f602083830101528093505050509250929050565b5f8060408385031215613d89575f80fd5b8235613d9481613b2a565b91506020830135613bbd81613b2a565b8015158114612eb5575f80fd5b5f60208284031215613dc1575f80fd5b81356111db81613da4565b5f60a0828403128015613ddd575f80fd5b509092915050565b602081525f82518060208401528060208501604085015e5f604082850101526040601f19601f83011684010191505092915050565b63ffffffff81168114612eb5575f80fd5b5f60a08284031215613e3b575f80fd5b60405160a081016001600160401b0381118282101715613e5d57613e5d613c59565b6040908152833582526020808501359083015283810135908201529050806060830135613e8981613e1a565b60608201526080830135613e9c81613e1a565b6080919091015292915050565b5f805f806101008587031215613ebd575f80fd5b8435613ec881613b2a565b93506020850135613ed881613b2a565b92506040850135613ee881613b2a565b9150613ef78660608701613e2b565b905092959194509250565b8051613f0d81613da4565b919050565b5f60208284031215613f22575f80fd5b81516111db81613da4565b5f82601f830112613f3c575f80fd5b8151613f4a613d4082613cc6565b818152846020838601011115613f5e575f80fd5b8160208501602083015e5f918101602001919091529392505050565b8051613f0d81613b2a565b8051613f0d81613e1a565b805160078110613f0d575f80fd5b805160ff81168114613f0d575f80fd5b5f60208284031215613fbe575f80fd5b81516001600160401b03811115613fd3575f80fd5b82016101008185031215613fe5575f80fd5b613fed613c6d565b81516001600160401b03811115614002575f80fd5b61400e86828501613f2d565b82525061401d60208301613f7a565b602082015261402e60408301613f85565b604082015261403f60608301613f85565b606082015261405060808301613f90565b608082015261406160a08301613f02565b60a082015261407260c08301613f02565b60c082015261408360e08301613f9e565b60e0820152949350505050565b634e487b7160e01b5f52602160045260245ffd5b634e487b7160e01b5f52601160045260245ffd5b80820180821115610a2d57610a2d6140a4565b8082028115828204841417610a2d57610a2d6140a4565b5f826140fc57634e487b7160e01b5f52601260045260245ffd5b500490565b81810381811115610a2d57610a2d6140a4565b5f60208284031215614124575f80fd5b81516111db81613e1a565b6001600160401b038181168382160190811115610a2d57610a2d6140a4565b5f60a0828403121561415e575f80fd5b6111db8383613e2b565b81358155602082013560018201556040820135600282015560038101606083013561419281613e1a565b815460808501356141a281613e1a565b67ffffffff000000008160201b1663ffffffff84166001600160401b0319841617178455505050505050565b81358152602080830135908201526040808301359082015260a0810160608301356141f881613e1a565b63ffffffff166060830152608083013561421181613e1a565b63ffffffff811660808401525092915050565b63ffffffff8181168382160190811115610a2d57610a2d6140a4565b5f60208284031215614250575f80fd5b5051919050565b634e487b7160e01b5f52603260045260245ffd5b5f82518060208501845e5f92019182525091905056fe360894a13ba1a3210667c828492db98dca3e2076cc3735a920a3ca505d382bbc02dd7bc7dec4dceedda775e58dd541e08a116c6c53815c0bd028192f7b626800a164736f6c634300081a000a",
    "linkReferences": {}
  },
  "methodIdentifiers": {
    "DEFAULT_ADMIN_ROLE()": "a217fddf",
    "MAX_COMMISSION_BPS()": "e62977f8",
    "MAX_COMMISSION_INCREASE_BPS()": "9aa5f8cc",
    "MAX_INITIAL_COMMISSION_BPS()": "e2e0b434",
    "PRECISION()": "aaf5eb68",
    "UPGRADER_ROLE()": "f72c0d8b",
    "UPGRADE_INTERFACE_VERSION()": "ad3cb1cc",
    "activatePendingCommission()": "5a46b700",
    "applyPoolSlash(address,uint256)": "c29cf991",
    "cancelPendingCommission()": "2204a372",
    "claimCommission()": "fad99f98",
    "claimDelegationRewards(address)": "b59182e2",
    "completeUndelegation(address)": "d03ef6cf",
    "consensusRegistry()": "afcda285",
    "delegate(address,uint256)": "026e402b",
    "delegateWithProof(address,uint256,uint256,bytes32[])": "39710bc1",
    "disableWhitelist()": "d6b0f484",
    "distributePoolRewards(address,uint256)": "520da5b6",
    "getCommissionRecipient(address)": "51e9aa94",
    "getDelegationConfig()": "ac5be33d",
    "getDelegatorPosition(address,address)": "662f8026",
    "getEffectivePosition(address,address)": "64b167b5",
    "getPendingCommission(address)": "0bac7bf3",
    "getPendingRewards(address,address)": "7a27db57",
    "getRewardRecipient(address,address)": "dfeef415",
    "getRoleAdmin(bytes32)": "248a9ca3",
    "getTotalDelegatedStake(address)": "187f92b6",
    "getValidatorPool(address)": "1712b0d8",
    "grantRole(bytes32,address)": "2f2ff15d",
    "hasRole(bytes32,address)": "91d14854",
    "initialize(address,address,address,(uint256,uint256,uint256,uint32,uint32))": "fc917b83",
    "isWhitelistVerified(address)": "a11dc637",
    "poolRegistered(address)": "746376ee",
    "proxiableUUID()": "52d1902d",
    "registerPool(uint256)": "0c938657",
    "renounceRole(bytes32,address)": "36568abe",
    "requestUndelegation(address,uint256)": "975f54d7",
    "revokeRole(bytes32,address)": "d547741f",
    "rewardDistributor()": "acc2166a",
    "rlsToken()": "8188a264",
    "setAcceptingDelegations(bool)": "715d9511",
    "setCommissionRecipient(address)": "284fd8e5",
    "setRewardDistributor(address)": "a1809b95",
    "setRewardRecipient(address,address)": "a1656952",
    "setWhitelistRoot(bytes32)": "f5aa406d",
    "supportsInterface(bytes4)": "01ffc9a7",
    "updateCommission(uint256)": "9d55fba7",
    "updateConfig((uint256,uint256,uint256,uint32,uint32))": "97fc2558",
    "upgradeToAndCall(address,bytes)": "4f1ef286",
    "whitelistEnabled()": "51fb012d",
    "whitelistRoot()": "386bfc98"
  },
  "id": 106
}