{
  "abi": [
    {
      "type": "constructor",
      "inputs": [],
      "stateMutability": "nonpayable"
    },
    {
      "type": "receive",
      "stateMutability": "payable"
    },
    {
      "type": "function",
      "name": "DEFAULT_ADMIN_ROLE",
      "inputs": [],
      "outputs": [
        {
          "name": "",
          "type": "bytes32",
          "internalType": "bytes32"
        }
      ],
      "stateMutability": "view"
    },
    {
      "type": "function",
      "name": "KEEPER_ROLE",
      "inputs": [],
      "outputs": [
        {
          "name": "",
          "type": "bytes32",
          "internalType": "bytes32"
        }
      ],
      "stateMutability": "view"
    },
    {
      "type": "function",
      "name": "MAX_BPS",
      "inputs": [],
      "outputs": [
        {
          "name": "",
          "type": "uint256",
          "internalType": "uint256"
        }
      ],
      "stateMutability": "view"
    },
    {
      "type": "function",
      "name": "MAX_STABLECOINS",
      "inputs": [],
      "outputs": [
        {
          "name": "",
          "type": "uint256",
          "internalType": "uint256"
        }
      ],
      "stateMutability": "view"
    },
    {
      "type": "function",
      "name": "PAUSER_ROLE",
      "inputs": [],
      "outputs": [
        {
          "name": "",
          "type": "bytes32",
          "internalType": "bytes32"
        }
      ],
      "stateMutability": "view"
    },
    {
      "type": "function",
      "name": "UPGRADER_ROLE",
      "inputs": [],
      "outputs": [
        {
          "name": "",
          "type": "bytes32",
          "internalType": "bytes32"
        }
      ],
      "stateMutability": "view"
    },
    {
      "type": "function",
      "name": "UPGRADE_INTERFACE_VERSION",
      "inputs": [],
      "outputs": [
        {
          "name": "",
          "type": "string",
          "internalType": "string"
        }
      ],
      "stateMutability": "view"
    },
    {
      "type": "function",
      "name": "addStablecoin",
      "inputs": [
        {
          "name": "stablecoin",
          "type": "address",
          "internalType": "address"
        }
      ],
      "outputs": [],
      "stateMutability": "nonpayable"
    },
    {
      "type": "function",
      "name": "algebraRouter",
      "inputs": [],
      "outputs": [
        {
          "name": "",
          "type": "address",
          "internalType": "address"
        }
      ],
      "stateMutability": "view"
    },
    {
      "type": "function",
      "name": "burnAddress",
      "inputs": [],
      "outputs": [
        {
          "name": "",
          "type": "address",
          "internalType": "address"
        }
      ],
      "stateMutability": "view"
    },
    {
      "type": "function",
      "name": "distributeEpochFees",
      "inputs": [],
      "outputs": [
        {
          "name": "rlsDistributed",
          "type": "uint256",
          "internalType": "uint256"
        }
      ],
      "stateMutability": "nonpayable"
    },
    {
      "type": "function",
      "name": "dstEid",
      "inputs": [],
      "outputs": [
        {
          "name": "",
          "type": "uint32",
          "internalType": "uint32"
        }
      ],
      "stateMutability": "view"
    },
    {
      "type": "function",
      "name": "ecosystemTreasury",
      "inputs": [],
      "outputs": [
        {
          "name": "",
          "type": "address",
          "internalType": "address"
        }
      ],
      "stateMutability": "view"
    },
    {
      "type": "function",
      "name": "emergencyWithdraw",
      "inputs": [
        {
          "name": "token",
          "type": "address",
          "internalType": "address"
        },
        {
          "name": "to",
          "type": "address",
          "internalType": "address"
        },
        {
          "name": "amount",
          "type": "uint256",
          "internalType": "uint256"
        }
      ],
      "outputs": [],
      "stateMutability": "nonpayable"
    },
    {
      "type": "function",
      "name": "emergencyWithdrawNative",
      "inputs": [
        {
          "name": "to",
          "type": "address",
          "internalType": "address"
        },
        {
          "name": "amount",
          "type": "uint256",
          "internalType": "uint256"
        }
      ],
      "outputs": [],
      "stateMutability": "nonpayable"
    },
    {
      "type": "function",
      "name": "getConfig",
      "inputs": [],
      "outputs": [
        {
          "name": "",
          "type": "tuple",
          "internalType": "struct IFeeAggregator.DistributionConfig",
          "components": [
            {
              "name": "validatorPoolBps",
              "type": "uint256",
              "internalType": "uint256"
            },
            {
              "name": "ecosystemBps",
              "type": "uint256",
              "internalType": "uint256"
            },
            {
              "name": "burnBps",
              "type": "uint256",
              "internalType": "uint256"
            }
          ]
        }
      ],
      "stateMutability": "view"
    },
    {
      "type": "function",
      "name": "getPendingDistribution",
      "inputs": [],
      "outputs": [
        {
          "name": "unsplit",
          "type": "uint256",
          "internalType": "uint256"
        },
        {
          "name": "validator",
          "type": "uint256",
          "internalType": "uint256"
        },
        {
          "name": "ecosystem",
          "type": "uint256",
          "internalType": "uint256"
        },
        {
          "name": "burn",
          "type": "uint256",
          "internalType": "uint256"
        }
      ],
      "stateMutability": "view"
    },
    {
      "type": "function",
      "name": "getPoolConfig",
      "inputs": [
        {
          "name": "stablecoin",
          "type": "address",
          "internalType": "address"
        }
      ],
      "outputs": [
        {
          "name": "",
          "type": "tuple",
          "internalType": "struct IFeeAggregator.PoolConfig",
          "components": [
            {
              "name": "pool",
              "type": "address",
              "internalType": "address"
            },
            {
              "name": "zeroForOne",
              "type": "bool",
              "internalType": "bool"
            },
            {
              "name": "deployer",
              "type": "address",
              "internalType": "address"
            }
          ]
        }
      ],
      "stateMutability": "view"
    },
    {
      "type": "function",
      "name": "getRoleAdmin",
      "inputs": [
        {
          "name": "role",
          "type": "bytes32",
          "internalType": "bytes32"
        }
      ],
      "outputs": [
        {
          "name": "",
          "type": "bytes32",
          "internalType": "bytes32"
        }
      ],
      "stateMutability": "view"
    },
    {
      "type": "function",
      "name": "getStats",
      "inputs": [],
      "outputs": [
        {
          "name": "totalSwapsExecuted_",
          "type": "uint256",
          "internalType": "uint256"
        },
        {
          "name": "totalRlsDistributed_",
          "type": "uint256",
          "internalType": "uint256"
        }
      ],
      "stateMutability": "view"
    },
    {
      "type": "function",
      "name": "getSupportedStablecoins",
      "inputs": [],
      "outputs": [
        {
          "name": "",
          "type": "address[]",
          "internalType": "address[]"
        }
      ],
      "stateMutability": "view"
    },
    {
      "type": "function",
      "name": "getSwapLimits",
      "inputs": [],
      "outputs": [
        {
          "name": "minSwap",
          "type": "uint256",
          "internalType": "uint256"
        },
        {
          "name": "maxSwap",
          "type": "uint256",
          "internalType": "uint256"
        }
      ],
      "stateMutability": "view"
    },
    {
      "type": "function",
      "name": "grantRole",
      "inputs": [
        {
          "name": "role",
          "type": "bytes32",
          "internalType": "bytes32"
        },
        {
          "name": "account",
          "type": "address",
          "internalType": "address"
        }
      ],
      "outputs": [],
      "stateMutability": "nonpayable"
    },
    {
      "type": "function",
      "name": "hasRole",
      "inputs": [
        {
          "name": "role",
          "type": "bytes32",
          "internalType": "bytes32"
        },
        {
          "name": "account",
          "type": "address",
          "internalType": "address"
        }
      ],
      "outputs": [
        {
          "name": "",
          "type": "bool",
          "internalType": "bool"
        }
      ],
      "stateMutability": "view"
    },
    {
      "type": "function",
      "name": "initialize",
      "inputs": [
        {
          "name": "rlsToken_",
          "type": "address",
          "internalType": "address"
        },
        {
          "name": "algebraRouter_",
          "type": "address",
          "internalType": "address"
        },
        {
          "name": "rewardDistributor_",
          "type": "address",
          "internalType": "address"
        },
        {
          "name": "ecosystemTreasury_",
          "type": "address",
          "internalType": "address"
        },
        {
          "name": "burnAddress_",
          "type": "address",
          "internalType": "address"
        },
        {
          "name": "usdrToken_",
          "type": "address",
          "internalType": "address"
        },
        {
          "name": "config_",
          "type": "tuple",
          "internalType": "struct IFeeAggregator.DistributionConfig",
          "components": [
            {
              "name": "validatorPoolBps",
              "type": "uint256",
              "internalType": "uint256"
            },
            {
              "name": "ecosystemBps",
              "type": "uint256",
              "internalType": "uint256"
            },
            {
              "name": "burnBps",
              "type": "uint256",
              "internalType": "uint256"
            }
          ]
        },
        {
          "name": "admin_",
          "type": "address",
          "internalType": "address"
        }
      ],
      "outputs": [],
      "stateMutability": "nonpayable"
    },
    {
      "type": "function",
      "name": "isStablecoinSupported",
      "inputs": [
        {
          "name": "stablecoin",
          "type": "address",
          "internalType": "address"
        }
      ],
      "outputs": [
        {
          "name": "",
          "type": "bool",
          "internalType": "bool"
        }
      ],
      "stateMutability": "view"
    },
    {
      "type": "function",
      "name": "oftBridge",
      "inputs": [],
      "outputs": [
        {
          "name": "",
          "type": "address",
          "internalType": "address"
        }
      ],
      "stateMutability": "view"
    },
    {
      "type": "function",
      "name": "pause",
      "inputs": [],
      "outputs": [],
      "stateMutability": "nonpayable"
    },
    {
      "type": "function",
      "name": "paused",
      "inputs": [],
      "outputs": [
        {
          "name": "",
          "type": "bool",
          "internalType": "bool"
        }
      ],
      "stateMutability": "view"
    },
    {
      "type": "function",
      "name": "pendingBalance",
      "inputs": [
        {
          "name": "stablecoin",
          "type": "address",
          "internalType": "address"
        }
      ],
      "outputs": [
        {
          "name": "",
          "type": "uint256",
          "internalType": "uint256"
        }
      ],
      "stateMutability": "view"
    },
    {
      "type": "function",
      "name": "proxiableUUID",
      "inputs": [],
      "outputs": [
        {
          "name": "",
          "type": "bytes32",
          "internalType": "bytes32"
        }
      ],
      "stateMutability": "view"
    },
    {
      "type": "function",
      "name": "receiveFee",
      "inputs": [
        {
          "name": "stablecoin",
          "type": "address",
          "internalType": "address"
        },
        {
          "name": "amount",
          "type": "uint256",
          "internalType": "uint256"
        }
      ],
      "outputs": [],
      "stateMutability": "nonpayable"
    },
    {
      "type": "function",
      "name": "removeStablecoin",
      "inputs": [
        {
          "name": "stablecoin",
          "type": "address",
          "internalType": "address"
        }
      ],
      "outputs": [],
      "stateMutability": "nonpayable"
    },
    {
      "type": "function",
      "name": "renounceRole",
      "inputs": [
        {
          "name": "role",
          "type": "bytes32",
          "internalType": "bytes32"
        },
        {
          "name": "callerConfirmation",
          "type": "address",
          "internalType": "address"
        }
      ],
      "outputs": [],
      "stateMutability": "nonpayable"
    },
    {
      "type": "function",
      "name": "resetPendingDistribution",
      "inputs": [],
      "outputs": [],
      "stateMutability": "nonpayable"
    },
    {
      "type": "function",
      "name": "revokeRole",
      "inputs": [
        {
          "name": "role",
          "type": "bytes32",
          "internalType": "bytes32"
        },
        {
          "name": "account",
          "type": "address",
          "internalType": "address"
        }
      ],
      "outputs": [],
      "stateMutability": "nonpayable"
    },
    {
      "type": "function",
      "name": "rewardDistributor",
      "inputs": [],
      "outputs": [
        {
          "name": "",
          "type": "address",
          "internalType": "address"
        }
      ],
      "stateMutability": "view"
    },
    {
      "type": "function",
      "name": "rlsToken",
      "inputs": [],
      "outputs": [
        {
          "name": "",
          "type": "address",
          "internalType": "address"
        }
      ],
      "stateMutability": "view"
    },
    {
      "type": "function",
      "name": "setAlgebraRouter",
      "inputs": [
        {
          "name": "newRouter",
          "type": "address",
          "internalType": "address"
        }
      ],
      "outputs": [],
      "stateMutability": "nonpayable"
    },
    {
      "type": "function",
      "name": "setBurnAddress",
      "inputs": [
        {
          "name": "newBurnAddress",
          "type": "address",
          "internalType": "address"
        }
      ],
      "outputs": [],
      "stateMutability": "nonpayable"
    },
    {
      "type": "function",
      "name": "setConfig",
      "inputs": [
        {
          "name": "newConfig",
          "type": "tuple",
          "internalType": "struct IFeeAggregator.DistributionConfig",
          "components": [
            {
              "name": "validatorPoolBps",
              "type": "uint256",
              "internalType": "uint256"
            },
            {
              "name": "ecosystemBps",
              "type": "uint256",
              "internalType": "uint256"
            },
            {
              "name": "burnBps",
              "type": "uint256",
              "internalType": "uint256"
            }
          ]
        }
      ],
      "outputs": [],
      "stateMutability": "nonpayable"
    },
    {
      "type": "function",
      "name": "setDstEid",
      "inputs": [
        {
          "name": "newDstEid",
          "type": "uint32",
          "internalType": "uint32"
        }
      ],
      "outputs": [],
      "stateMutability": "nonpayable"
    },
    {
      "type": "function",
      "name": "setEcosystemTreasury",
      "inputs": [
        {
          "name": "newTreasury",
          "type": "address",
          "internalType": "address"
        }
      ],
      "outputs": [],
      "stateMutability": "nonpayable"
    },
    {
      "type": "function",
      "name": "setOftBridge",
      "inputs": [
        {
          "name": "newBridge",
          "type": "address",
          "internalType": "address"
        }
      ],
      "outputs": [],
      "stateMutability": "nonpayable"
    },
    {
      "type": "function",
      "name": "setPoolConfig",
      "inputs": [
        {
          "name": "stablecoin",
          "type": "address",
          "internalType": "address"
        },
        {
          "name": "pool",
          "type": "address",
          "internalType": "address"
        },
        {
          "name": "zeroForOne",
          "type": "bool",
          "internalType": "bool"
        },
        {
          "name": "deployer",
          "type": "address",
          "internalType": "address"
        }
      ],
      "outputs": [],
      "stateMutability": "nonpayable"
    },
    {
      "type": "function",
      "name": "setRewardDistributor",
      "inputs": [
        {
          "name": "newDistributor",
          "type": "address",
          "internalType": "address"
        }
      ],
      "outputs": [],
      "stateMutability": "nonpayable"
    },
    {
      "type": "function",
      "name": "setSwapLimits",
      "inputs": [
        {
          "name": "minSwap",
          "type": "uint256",
          "internalType": "uint256"
        },
        {
          "name": "maxSwap",
          "type": "uint256",
          "internalType": "uint256"
        }
      ],
      "outputs": [],
      "stateMutability": "nonpayable"
    },
    {
      "type": "function",
      "name": "setUsdrToken",
      "inputs": [
        {
          "name": "newUsdrToken",
          "type": "address",
          "internalType": "address"
        }
      ],
      "outputs": [],
      "stateMutability": "nonpayable"
    },
    {
      "type": "function",
      "name": "supportsInterface",
      "inputs": [
        {
          "name": "interfaceId",
          "type": "bytes4",
          "internalType": "bytes4"
        }
      ],
      "outputs": [
        {
          "name": "",
          "type": "bool",
          "internalType": "bool"
        }
      ],
      "stateMutability": "view"
    },
    {
      "type": "function",
      "name": "swapToRls",
      "inputs": [
        {
          "name": "params",
          "type": "tuple",
          "internalType": "struct IFeeAggregator.SwapParams",
          "components": [
            {
              "name": "stablecoin",
              "type": "address",
              "internalType": "address"
            },
            {
              "name": "stablecoinAmount",
              "type": "uint256",
              "internalType": "uint256"
            },
            {
              "name": "minRlsOut",
              "type": "uint256",
              "internalType": "uint256"
            }
          ]
        }
      ],
      "outputs": [
        {
          "name": "rlsReceived",
          "type": "uint256",
          "internalType": "uint256"
        }
      ],
      "stateMutability": "nonpayable"
    },
    {
      "type": "function",
      "name": "unpause",
      "inputs": [],
      "outputs": [],
      "stateMutability": "nonpayable"
    },
    {
      "type": "function",
      "name": "upgradeToAndCall",
      "inputs": [
        {
          "name": "newImplementation",
          "type": "address",
          "internalType": "address"
        },
        {
          "name": "data",
          "type": "bytes",
          "internalType": "bytes"
        }
      ],
      "outputs": [],
      "stateMutability": "payable"
    },
    {
      "type": "function",
      "name": "usdrToken",
      "inputs": [],
      "outputs": [
        {
          "name": "",
          "type": "address",
          "internalType": "address"
        }
      ],
      "stateMutability": "view"
    },
    {
      "type": "function",
      "name": "version",
      "inputs": [],
      "outputs": [
        {
          "name": "",
          "type": "string",
          "internalType": "string"
        }
      ],
      "stateMutability": "pure"
    },
    {
      "type": "event",
      "name": "AlgebraRouterUpdated",
      "inputs": [
        {
          "name": "oldRouter",
          "type": "address",
          "indexed": true,
          "internalType": "address"
        },
        {
          "name": "newRouter",
          "type": "address",
          "indexed": true,
          "internalType": "address"
        }
      ],
      "anonymous": false
    },
    {
      "type": "event",
      "name": "BurnAddressUpdated",
      "inputs": [
        {
          "name": "oldBurn",
          "type": "address",
          "indexed": true,
          "internalType": "address"
        },
        {
          "name": "newBurn",
          "type": "address",
          "indexed": true,
          "internalType": "address"
        }
      ],
      "anonymous": false
    },
    {
      "type": "event",
      "name": "BurnBridged",
      "inputs": [
        {
          "name": "amount",
          "type": "uint256",
          "indexed": false,
          "internalType": "uint256"
        },
        {
          "name": "ethDestination",
          "type": "address",
          "indexed": true,
          "internalType": "address"
        },
        {
          "name": "dstEid",
          "type": "uint32",
          "indexed": false,
          "internalType": "uint32"
        }
      ],
      "anonymous": false
    },
    {
      "type": "event",
      "name": "ConfigUpdated",
      "inputs": [
        {
          "name": "config",
          "type": "tuple",
          "indexed": false,
          "internalType": "struct IFeeAggregator.DistributionConfig",
          "components": [
            {
              "name": "validatorPoolBps",
              "type": "uint256",
              "internalType": "uint256"
            },
            {
              "name": "ecosystemBps",
              "type": "uint256",
              "internalType": "uint256"
            },
            {
              "name": "burnBps",
              "type": "uint256",
              "internalType": "uint256"
            }
          ]
        }
      ],
      "anonymous": false
    },
    {
      "type": "event",
      "name": "DstEidUpdated",
      "inputs": [
        {
          "name": "oldEid",
          "type": "uint32",
          "indexed": false,
          "internalType": "uint32"
        },
        {
          "name": "newEid",
          "type": "uint32",
          "indexed": false,
          "internalType": "uint32"
        }
      ],
      "anonymous": false
    },
    {
      "type": "event",
      "name": "EcosystemTreasuryUpdated",
      "inputs": [
        {
          "name": "oldTreasury",
          "type": "address",
          "indexed": true,
          "internalType": "address"
        },
        {
          "name": "newTreasury",
          "type": "address",
          "indexed": true,
          "internalType": "address"
        }
      ],
      "anonymous": false
    },
    {
      "type": "event",
      "name": "EmergencyWithdraw",
      "inputs": [
        {
          "name": "token",
          "type": "address",
          "indexed": true,
          "internalType": "address"
        },
        {
          "name": "to",
          "type": "address",
          "indexed": true,
          "internalType": "address"
        },
        {
          "name": "amount",
          "type": "uint256",
          "indexed": false,
          "internalType": "uint256"
        }
      ],
      "anonymous": false
    },
    {
      "type": "event",
      "name": "EmergencyWithdrawNative",
      "inputs": [
        {
          "name": "to",
          "type": "address",
          "indexed": true,
          "internalType": "address"
        },
        {
          "name": "amount",
          "type": "uint256",
          "indexed": false,
          "internalType": "uint256"
        }
      ],
      "anonymous": false
    },
    {
      "type": "event",
      "name": "EpochDistributionSkipped",
      "inputs": [
        {
          "name": "reason",
          "type": "string",
          "indexed": false,
          "internalType": "string"
        }
      ],
      "anonymous": false
    },
    {
      "type": "event",
      "name": "EpochDistributionSwapFailed",
      "inputs": [
        {
          "name": "usdrAmount",
          "type": "uint256",
          "indexed": false,
          "internalType": "uint256"
        },
        {
          "name": "reason",
          "type": "string",
          "indexed": false,
          "internalType": "string"
        }
      ],
      "anonymous": false
    },
    {
      "type": "event",
      "name": "EpochFeesDistributed",
      "inputs": [
        {
          "name": "usdrAmount",
          "type": "uint256",
          "indexed": false,
          "internalType": "uint256"
        },
        {
          "name": "rlsDistributed",
          "type": "uint256",
          "indexed": false,
          "internalType": "uint256"
        }
      ],
      "anonymous": false
    },
    {
      "type": "event",
      "name": "FeeReceived",
      "inputs": [
        {
          "name": "token",
          "type": "address",
          "indexed": true,
          "internalType": "address"
        },
        {
          "name": "amount",
          "type": "uint256",
          "indexed": false,
          "internalType": "uint256"
        },
        {
          "name": "from",
          "type": "address",
          "indexed": true,
          "internalType": "address"
        }
      ],
      "anonymous": false
    },
    {
      "type": "event",
      "name": "FeesDistributed",
      "inputs": [
        {
          "name": "totalRlsDistributed",
          "type": "uint256",
          "indexed": false,
          "internalType": "uint256"
        },
        {
          "name": "validatorPoolRls",
          "type": "uint256",
          "indexed": false,
          "internalType": "uint256"
        },
        {
          "name": "ecosystemRls",
          "type": "uint256",
          "indexed": false,
          "internalType": "uint256"
        },
        {
          "name": "burnRls",
          "type": "uint256",
          "indexed": false,
          "internalType": "uint256"
        }
      ],
      "anonymous": false
    },
    {
      "type": "event",
      "name": "Initialized",
      "inputs": [
        {
          "name": "version",
          "type": "uint64",
          "indexed": false,
          "internalType": "uint64"
        }
      ],
      "anonymous": false
    },
    {
      "type": "event",
      "name": "NativeFeeReceived",
      "inputs": [
        {
          "name": "amount",
          "type": "uint256",
          "indexed": false,
          "internalType": "uint256"
        },
        {
          "name": "sender",
          "type": "address",
          "indexed": true,
          "internalType": "address"
        }
      ],
      "anonymous": false
    },
    {
      "type": "event",
      "name": "OftBridgeUpdated",
      "inputs": [
        {
          "name": "oldBridge",
          "type": "address",
          "indexed": true,
          "internalType": "address"
        },
        {
          "name": "newBridge",
          "type": "address",
          "indexed": true,
          "internalType": "address"
        }
      ],
      "anonymous": false
    },
    {
      "type": "event",
      "name": "Paused",
      "inputs": [
        {
          "name": "account",
          "type": "address",
          "indexed": false,
          "internalType": "address"
        }
      ],
      "anonymous": false
    },
    {
      "type": "event",
      "name": "PendingDistributionReset",
      "inputs": [
        {
          "name": "clearedAmount",
          "type": "uint256",
          "indexed": false,
          "internalType": "uint256"
        }
      ],
      "anonymous": false
    },
    {
      "type": "event",
      "name": "PoolConfigured",
      "inputs": [
        {
          "name": "stablecoin",
          "type": "address",
          "indexed": true,
          "internalType": "address"
        },
        {
          "name": "pool",
          "type": "address",
          "indexed": true,
          "internalType": "address"
        },
        {
          "name": "zeroForOne",
          "type": "bool",
          "indexed": false,
          "internalType": "bool"
        },
        {
          "name": "deployer",
          "type": "address",
          "indexed": false,
          "internalType": "address"
        }
      ],
      "anonymous": false
    },
    {
      "type": "event",
      "name": "RecipientTransferFailed",
      "inputs": [
        {
          "name": "recipient",
          "type": "address",
          "indexed": true,
          "internalType": "address"
        },
        {
          "name": "amount",
          "type": "uint256",
          "indexed": false,
          "internalType": "uint256"
        }
      ],
      "anonymous": false
    },
    {
      "type": "event",
      "name": "RewardDistributorUpdated",
      "inputs": [
        {
          "name": "oldDistributor",
          "type": "address",
          "indexed": true,
          "internalType": "address"
        },
        {
          "name": "newDistributor",
          "type": "address",
          "indexed": true,
          "internalType": "address"
        }
      ],
      "anonymous": false
    },
    {
      "type": "event",
      "name": "RoleAdminChanged",
      "inputs": [
        {
          "name": "role",
          "type": "bytes32",
          "indexed": true,
          "internalType": "bytes32"
        },
        {
          "name": "previousAdminRole",
          "type": "bytes32",
          "indexed": true,
          "internalType": "bytes32"
        },
        {
          "name": "newAdminRole",
          "type": "bytes32",
          "indexed": true,
          "internalType": "bytes32"
        }
      ],
      "anonymous": false
    },
    {
      "type": "event",
      "name": "RoleGranted",
      "inputs": [
        {
          "name": "role",
          "type": "bytes32",
          "indexed": true,
          "internalType": "bytes32"
        },
        {
          "name": "account",
          "type": "address",
          "indexed": true,
          "internalType": "address"
        },
        {
          "name": "sender",
          "type": "address",
          "indexed": true,
          "internalType": "address"
        }
      ],
      "anonymous": false
    },
    {
      "type": "event",
      "name": "RoleRevoked",
      "inputs": [
        {
          "name": "role",
          "type": "bytes32",
          "indexed": true,
          "internalType": "bytes32"
        },
        {
          "name": "account",
          "type": "address",
          "indexed": true,
          "internalType": "address"
        },
        {
          "name": "sender",
          "type": "address",
          "indexed": true,
          "internalType": "address"
        }
      ],
      "anonymous": false
    },
    {
      "type": "event",
      "name": "StablecoinAdded",
      "inputs": [
        {
          "name": "stablecoin",
          "type": "address",
          "indexed": true,
          "internalType": "address"
        }
      ],
      "anonymous": false
    },
    {
      "type": "event",
      "name": "StablecoinRemoved",
      "inputs": [
        {
          "name": "stablecoin",
          "type": "address",
          "indexed": true,
          "internalType": "address"
        }
      ],
      "anonymous": false
    },
    {
      "type": "event",
      "name": "SwapExecuted",
      "inputs": [
        {
          "name": "stablecoin",
          "type": "address",
          "indexed": true,
          "internalType": "address"
        },
        {
          "name": "amountIn",
          "type": "uint256",
          "indexed": false,
          "internalType": "uint256"
        },
        {
          "name": "rlsOut",
          "type": "uint256",
          "indexed": false,
          "internalType": "uint256"
        },
        {
          "name": "priceImpactBps",
          "type": "uint256",
          "indexed": false,
          "internalType": "uint256"
        }
      ],
      "anonymous": false
    },
    {
      "type": "event",
      "name": "Unpaused",
      "inputs": [
        {
          "name": "account",
          "type": "address",
          "indexed": false,
          "internalType": "address"
        }
      ],
      "anonymous": false
    },
    {
      "type": "event",
      "name": "Upgraded",
      "inputs": [
        {
          "name": "implementation",
          "type": "address",
          "indexed": true,
          "internalType": "address"
        }
      ],
      "anonymous": false
    },
    {
      "type": "event",
      "name": "UsdrTokenUpdated",
      "inputs": [
        {
          "name": "oldUsdr",
          "type": "address",
          "indexed": true,
          "internalType": "address"
        },
        {
          "name": "newUsdr",
          "type": "address",
          "indexed": true,
          "internalType": "address"
        }
      ],
      "anonymous": false
    },
    {
      "type": "error",
      "name": "AccessControlBadConfirmation",
      "inputs": []
    },
    {
      "type": "error",
      "name": "AccessControlUnauthorizedAccount",
      "inputs": [
        {
          "name": "account",
          "type": "address",
          "internalType": "address"
        },
        {
          "name": "neededRole",
          "type": "bytes32",
          "internalType": "bytes32"
        }
      ]
    },
    {
      "type": "error",
      "name": "AddressEmptyCode",
      "inputs": [
        {
          "name": "target",
          "type": "address",
          "internalType": "address"
        }
      ]
    },
    {
      "type": "error",
      "name": "BelowMinimumSwap",
      "inputs": []
    },
    {
      "type": "error",
      "name": "CannotRemoveUsdrToken",
      "inputs": []
    },
    {
      "type": "error",
      "name": "ConfigTotalMismatch",
      "inputs": [
        {
          "name": "total",
          "type": "uint256",
          "internalType": "uint256"
        }
      ]
    },
    {
      "type": "error",
      "name": "ERC1967InvalidImplementation",
      "inputs": [
        {
          "name": "implementation",
          "type": "address",
          "internalType": "address"
        }
      ]
    },
    {
      "type": "error",
      "name": "ERC1967NonPayable",
      "inputs": []
    },
    {
      "type": "error",
      "name": "EnforcedPause",
      "inputs": []
    },
    {
      "type": "error",
      "name": "ExceedsMaximumSwap",
      "inputs": []
    },
    {
      "type": "error",
      "name": "ExpectedPause",
      "inputs": []
    },
    {
      "type": "error",
      "name": "FailedCall",
      "inputs": []
    },
    {
      "type": "error",
      "name": "InsufficientBalance",
      "inputs": []
    },
    {
      "type": "error",
      "name": "InvalidConfig",
      "inputs": []
    },
    {
      "type": "error",
      "name": "InvalidInitialization",
      "inputs": []
    },
    {
      "type": "error",
      "name": "InvalidSwapLimits",
      "inputs": []
    },
    {
      "type": "error",
      "name": "NativeTransferFailed",
      "inputs": []
    },
    {
      "type": "error",
      "name": "NotInitializing",
      "inputs": []
    },
    {
      "type": "error",
      "name": "OnlySelf",
      "inputs": []
    },
    {
      "type": "error",
      "name": "PoolNotConfigured",
      "inputs": []
    },
    {
      "type": "error",
      "name": "Reentrancy",
      "inputs": []
    },
    {
      "type": "error",
      "name": "SafeERC20FailedOperation",
      "inputs": [
        {
          "name": "token",
          "type": "address",
          "internalType": "address"
        }
      ]
    },
    {
      "type": "error",
      "name": "SlippageExceeded",
      "inputs": [
        {
          "name": "received",
          "type": "uint256",
          "internalType": "uint256"
        },
        {
          "name": "minimum",
          "type": "uint256",
          "internalType": "uint256"
        }
      ]
    },
    {
      "type": "error",
      "name": "StablecoinAlreadySupported",
      "inputs": []
    },
    {
      "type": "error",
      "name": "SwapFailed",
      "inputs": []
    },
    {
      "type": "error",
      "name": "TooManyStablecoins",
      "inputs": []
    },
    {
      "type": "error",
      "name": "UUPSUnauthorizedCallContext",
      "inputs": []
    },
    {
      "type": "error",
      "name": "UUPSUnsupportedProxiableUUID",
      "inputs": [
        {
          "name": "slot",
          "type": "bytes32",
          "internalType": "bytes32"
        }
      ]
    },
    {
      "type": "error",
      "name": "UnsupportedStablecoin",
      "inputs": []
    },
    {
      "type": "error",
      "name": "ZeroAddress",
      "inputs": []
    },
    {
      "type": "error",
      "name": "ZeroAmount",
      "inputs": []
    }
  ],
  "bytecode": {
    "object": "0x60a060405230608052348015610013575f80fd5b5061001c610021565b6100d3565b7ff0c57e16840df040f15088dc2f81fe391c3923bec73e23a9662efc9c229c6a00805468010000000000000000900460ff16156100715760405163f92ee8a960e01b815260040160405180910390fd5b80546001600160401b03908116146100d05780546001600160401b0319166001600160401b0390811782556040519081527fc7f505b2f371ae2175ee4913f4499e1f2633a7b5936321eed1cdaeb6115181d29060200160405180910390a15b50565b6080516140466100f95f395f81816127ee01528181612817015261299201526140465ff3fe608060405260043610610329575f3560e01c8063714d39d2116101a3578063a1809b95116100f2578063d547741f11610092578063e6e7f0d41161006d578063e6e7f0d41461097d578063f29486a114610991578063f72c0d8b146109e2578063fd967f4714610a15575f80fd5b8063d547741f1461091f578063e63ab1e91461093e578063e63ea4081461095e575f80fd5b8063acc2166a116100cd578063acc2166a14610891578063ad3cb1cc146108a5578063c3f909d4146108d5578063c59d48471461090b575f80fd5b8063a1809b951461084b578063a217fddf1461086a578063a6a87f5c1461087d575f80fd5b806385d76a4d1161015d578063940cc47511610138578063940cc475146107cf5780639b162793146107ee5780639b7885041461080d5780639f9740ab1461082c575f80fd5b806385d76a4d146107725780638d4864141461079157806391d14854146107b0575f80fd5b8063714d39d2146106cd578063734ff5f3146106e157806373bcddf41461070a5780637c6f73eb146107295780638188a2641461074a5780638456cb591461075e575f80fd5b806336568abe116102795780635140017e116102195780635c975abb116101f45780635c975abb14610663578063608eb42614610686578063637dc8cb146106a557806370d5ae05146106b9575f80fd5b80635140017e146105fa57806352d1902d1461061957806354fd4d501461062d575f80fd5b80633b947d2b116102545780633b947d2b146105955780633f4ba83a146105b45780634b0e7216146105c85780634f1ef286146105e7575f80fd5b806336568abe146105385780633736f85d146105575780633afbcb0714610576575f80fd5b8063117653c4116102e457806329ea3d84116102bf57806329ea3d84146104b15780632a50cf31146104d05780632f2ff15d146104f9578063364bc15a14610518575f80fd5b8063117653c4146104515780632316ad3214610473578063248a9ca314610492575f80fd5b80622570fa146103695780630134aeba1461039a57806301ffc9a7146103ce5780630418945a146103fd5780630d14c92e1461041e578063109e06e11461043d575f80fd5b366103655760405134815233907f25198ea71a7cdb4d07922011b93076fe8beee1de8c1c17ee754a4a7ebf6fb0db9060200160405180910390a2005b5f80fd5b348015610374575f80fd5b5061037d610a2a565b6040516001600160a01b0390911681526020015b60405180910390f35b3480156103a5575f80fd5b506103ae610a45565b604080519485526020850193909352918301526060820152608001610391565b3480156103d9575f80fd5b506103ed6103e8366004613649565b610a76565b6040519015158152602001610391565b348015610408575f80fd5b5061041c610417366004613694565b610aac565b005b348015610429575f80fd5b5061041c6104383660046136af565b610bc3565b348015610448575f80fd5b5061037d610c45565b34801561045c575f80fd5b50610465610c60565b604051908152602001610391565b34801561047e575f80fd5b5061041c61048d3660046136d2565b610e4a565b34801561049d575f80fd5b506104656104ac3660046136fc565b610f22565b3480156104bc575f80fd5b5061041c6104cb366004613720565b610f42565b3480156104db575f80fd5b506104e4611079565b60408051928352602083019190915201610391565b348015610504575f80fd5b5061041c610513366004613779565b611099565b348015610523575f80fd5b506104655f80516020613f7a83398151915281565b348015610543575f80fd5b5061041c610552366004613779565b6110bb565b348015610562575f80fd5b50610465610571366004613694565b6110f3565b348015610581575f80fd5b5061041c610590366004613694565b61115b565b3480156105a0575f80fd5b5061041c6105af366004613694565b6111c4565b3480156105bf575f80fd5b5061041c6113e5565b3480156105d3575f80fd5b5061041c6105e2366004613694565b611407565b61041c6105f5366004613815565b611470565b348015610605575f80fd5b5061041c6106143660046138bc565b61148b565b348015610624575f80fd5b506104656117d0565b348015610638575f80fd5b506040805180820190915260058152640312e302e360dc1b60208201525b60405161039191906139b4565b34801561066e575f80fd5b505f80516020613ffa8339815191525460ff166103ed565b348015610691575f80fd5b5061041c6106a03660046139d6565b6117eb565b3480156106b0575f80fd5b50610465600a81565b3480156106c4575f80fd5b5061037d6118ba565b3480156106d8575f80fd5b5061037d6118d5565b3480156106ec575f80fd5b506106f56118f0565b60405163ffffffff9091168152602001610391565b348015610715575f80fd5b5061041c610724366004613694565b61190f565b348015610734575f80fd5b5061073d611a14565b60405161039191906139f0565b348015610755575f80fd5b5061037d611a7d565b348015610769575f80fd5b5061041c611a95565b34801561077d575f80fd5b5061041c61078c366004613694565b611ab4565b34801561079c575f80fd5b506103ed6107ab366004613694565b611b44565b3480156107bb575f80fd5b506103ed6107ca366004613779565b611b71565b3480156107da575f80fd5b5061041c6107e9366004613a3b565b611ba7565b3480156107f9575f80fd5b5061041c610808366004613694565b611bf7565b348015610818575f80fd5b5061041c6108273660046136d2565b611c87565b348015610837575f80fd5b506104656108463660046139d6565b611d71565b348015610856575f80fd5b5061041c610865366004613694565b611fd5565b348015610875575f80fd5b506104655f81565b348015610888575f80fd5b5061037d612065565b34801561089c575f80fd5b5061037d612080565b3480156108b0575f80fd5b50610656604051806040016040528060058152602001640352e302e360dc1b81525081565b3480156108e0575f80fd5b506108e961209b565b6040805182518152602080840151908201529181015190820152606001610391565b348015610916575f80fd5b506104e46120ee565b34801561092a575f80fd5b5061041c610939366004613779565b61210e565b348015610949575f80fd5b506104655f80516020613fba83398151915281565b348015610969575f80fd5b5061041c610978366004613a5b565b61212a565b348015610988575f80fd5b5061041c6121c2565b34801561099c575f80fd5b506109b06109ab366004613694565b61225a565b6040805182516001600160a01b0390811682526020808501511515908301529282015190921690820152606001610391565b3480156109ed575f80fd5b506104657f189ab7a9244df0848122154315af71fe140f3db0fe014031783b0946b8c9d2e381565b348015610a20575f80fd5b5061046561271081565b5f610a336122cf565b601b01546001600160a01b0316919050565b5f805f805f610a526122cf565b601d810154601e820154601f83015460209093015491989097509195509350915050565b5f6001600160e01b03198216637965db0b60e01b1480610aa657506301ffc9a760e01b6001600160e01b03198316145b92915050565b5f610ab6816122f3565b6001600160a01b038216610add5760405163d92e233d60e01b815260040160405180910390fd5b5f610ae66122cf565b6001600160a01b0384165f90815260028201602052604090205490915060ff1615610b245760405163160f491f60e21b815260040160405180910390fd5b6001810154600a11610b4957604051630739798160e21b815260040160405180910390fd5b6001818101805480830182555f918252602080832090910180546001600160a01b0319166001600160a01b038816908117909155808352600285019091526040808320805460ff191690941790935591517f3db297c09c19972ba6a701ff373ab97e21ff1e4992e863c7abe44e9b2fed08479190a2505050565b5f610bcd816122f3565b5f610bd66122cf565b601c8101805463ffffffff868116600160a01b81810263ffffffff60a01b19851617909455604080519490930490911680845260208401919091529293507f5d0af291f07233e2d950ccd5292b97b5b301904c207e5b5ce37d2223357e5aab910160405180910390a150505050565b5f610c4e6122cf565b601001546001600160a01b0316919050565b5f5f80516020613f7a833981519152610c78816122f3565b610c806122fd565b610c8861232f565b5f610c916122cf565b601d8101549091508015610d515760048201545f9061271090610cb49084613aad565b610cbe9190613ac4565b90505f612710846004016001015484610cd79190613aad565b610ce19190613ac4565b90505f81610cef8486613ae3565b610cf99190613ae3565b90508285601e015f828254610d0e9190613af6565b925050819055508185601f015f828254610d289190613af6565b9250508190555080856020015f828254610d429190613af6565b90915550505f601d8601555050505b601e820154158015610d655750601f820154155b8015610d7357506020820154155b15610de0577f19bb5b8e6421e19124ddcee1b4085c292ba4e0f289f68b8ddee3c932ea051e85604051610dce906020808252601490820152734e6f20524c5320746f206469737472696275746560601b604082015260600190565b60405180910390a15f93505050610e3e565b610de8612369565b935083826019015f828254610dfd9190613af6565b909155505060408051828152602081018690527f0b0eafb4ad48a471c4a2b123cd781c846ea8480eb493ab1a2619a8a60e12efd4910160405180910390a150505b610e466125e8565b5090565b610e526122fd565b610e5a61232f565b805f03610e7a57604051631f2a200560e01b815260040160405180910390fd5b5f610e836122cf565b6001600160a01b0384165f90815260028201602052604090205490915060ff16610ec057604051635bfbc03960e01b815260040160405180910390fd5b610ed56001600160a01b0384163330856125fc565b60405182815233906001600160a01b038516907f17154a87eb05ffe86bee545a571026f12ee62c1ac1e46fd00770c5b1d78ac4c09060200160405180910390a350610f1e6125e8565b5050565b5f9081525f80516020613fda833981519152602052604090206001015490565b5f610f4c816122f3565b5f610f556122cf565b6001600160a01b0387165f90815260028201602052604090205490915060ff16610f9257604051635bfbc03960e01b815260040160405180910390fd5b6001600160a01b038516610fb95760405163d92e233d60e01b815260040160405180910390fd5b604080516060810182526001600160a01b0387811680835287151560208085018281528985168688018181528e87165f81815260038c0186528a90209851895494511515600160a01b026001600160a81b0319909516908916179390931788555160019097018054979096166001600160a01b03199097169690961790945585519182528101939093529290917f5115fa31fe55832b193c0aa017169770df8a52f25996df96b1f1fe053d55f835910160405180910390a3505050505050565b5f805f6110846122cf565b90508060150154816016015492509250509091565b6110a282610f22565b6110ab816122f3565b6110b58383612663565b50505050565b6001600160a01b03811633146110e45760405163334bd91960e11b815260040160405180910390fd5b6110ee828261270b565b505050565b6040516370a0823160e01b81523060048201525f906001600160a01b038316906370a0823190602401602060405180830381865afa158015611137573d5f803e3d5ffd5b505050506040513d601f19601f82011682018060405250810190610aa69190613b09565b5f611165816122f3565b5f61116e6122cf565b601c810180546001600160a01b038681166001600160a01b031983168117909355604051939450169182907f5e89f453815a6a725122885abba588c5989bfab0c160dd8fdf270c77a0905096905f90a350505050565b5f6111ce816122f3565b6001600160a01b0382166111f55760405163d92e233d60e01b815260040160405180910390fd5b5f6111fe6122cf565b6001600160a01b0384165f90815260028201602052604090205490915060ff1661123b57604051635bfbc03960e01b815260040160405180910390fd5b601b8101546001600160a01b039081169084160361126c5760405163a203e34560e01b815260040160405180910390fd5b60018101545f5b8181101561136c57846001600160a01b031683600101828154811061129a5761129a613b20565b5f918252602090912001546001600160a01b03160361136457826001016001836112c49190613ae3565b815481106112d4576112d4613b20565b5f918252602090912001546001840180546001600160a01b03909216918390811061130157611301613b20565b905f5260205f20015f6101000a8154816001600160a01b0302191690836001600160a01b031602179055508260010180548061133f5761133f613b34565b5f8281526020902081015f1990810180546001600160a01b031916905501905561136c565b600101611273565b506001600160a01b0384165f8181526002840160209081526040808320805460ff191690556003860190915280822080546001600160a81b031916815560010180546001600160a01b0319169055517f3302a1b37f04242bb55603f5449e7ecd690a35eef08ba1353c48c20e2aae9cda9190a250505050565b5f80516020613fba8339815191526113fc816122f3565b611404612784565b50565b5f611411816122f3565b5f61141a6122cf565b6013810180546001600160a01b038681166001600160a01b031983168117909355604051939450169182907f6916992076a314a5a1e633990a54e2faf68c86a488d238e99176649060987527905f90a350505050565b6114786127e3565b61148182612871565b610f1e828261289b565b5f611494612957565b805490915060ff600160401b820416159067ffffffffffffffff165f811580156114bb5750825b90505f8267ffffffffffffffff1660011480156114d75750303b155b9050811580156114e5575080155b156115035760405163f92ee8a960e01b815260040160405180910390fd5b845467ffffffffffffffff19166001178555831561152d57845460ff60401b1916600160401b1785555b6001600160a01b038d166115545760405163d92e233d60e01b815260040160405180910390fd5b6001600160a01b03861661157b5760405163d92e233d60e01b815260040160405180910390fd5b61158361297f565b61158b61297f565b61159361297f565b5f61159c6122cf565b90508d815f015f6101000a8154816001600160a01b0302191690836001600160a01b031602179055508c816014015f6101000a8154816001600160a01b0302191690836001600160a01b031602179055508b81600f015f6101000a8154816001600160a01b0302191690836001600160a01b031602179055508a816010015f6101000a8154816001600160a01b0302191690836001600160a01b0316021790555089816013015f6101000a8154816001600160a01b0302191690836001600160a01b031602179055508881601b015f6101000a8154816001600160a01b0302191690836001600160a01b031602179055505f886040015189602001518a5f01516116a69190613af6565b6116b09190613af6565b905061271081146116dc576040516372e79b5b60e01b8152600481018290526024015b60405180910390fd5b50875160048201556020880151600582015560408801516006820155633b9aca00601582015564174876e80060168201556001601a82015561171e5f88612663565b506117365f80516020613f7a83398151915288612663565b5061174e5f80516020613fba83398151915288612663565b506117797f189ab7a9244df0848122154315af71fe140f3db0fe014031783b0946b8c9d2e388612663565b505083156117c157845460ff60401b19168555604051600181527fc7f505b2f371ae2175ee4913f4499e1f2633a7b5936321eed1cdaeb6115181d29060200160405180910390a15b50505050505050505050505050565b5f6117d9612987565b505f80516020613f9a83398151915290565b5f6117f5816122f3565b5f604083013561180a60208501358535613af6565b6118149190613af6565b9050612710811461183b576040516372e79b5b60e01b8152600481018290526024016116d3565b826118446122cf565b60040161186882828135815560208201356001820155604090910135600290910155565b505060408051843581526020808601359082015281850135918101919091527f5ae532796eeeb25558550dab6b9aff6802247590213ad83ad7366b1557b1cbf0906060015b60405180910390a1505050565b5f6118c36122cf565b601301546001600160a01b0316919050565b5f6118de6122cf565b601c01546001600160a01b0316919050565b5f6118f96122cf565b601c0154600160a01b900463ffffffff16919050565b5f611919816122f3565b6001600160a01b0382166119405760405163d92e233d60e01b815260040160405180910390fd5b5f6119496122cf565b6001600160a01b0384165f90815260028201602052604090205490915060ff1661198657604051635bfbc03960e01b815260040160405180910390fd5b6001600160a01b038381165f908152600383016020526040902054166119bf57604051636b271baf60e11b815260040160405180910390fd5b601b810180546001600160a01b038581166001600160a01b0319831681179093556040519116919082907f0c5430630e6aa7109a9a0ab0b76d0125626684a91da3a9d5606c10eeae483790905f90a350505050565b6060611a1e6122cf565b600101805480602002602001604051908101604052809291908181526020018280548015611a7357602002820191905f5260205f20905b81546001600160a01b03168152600190910190602001808311611a55575b5050505050905090565b5f611a866122cf565b546001600160a01b0316919050565b5f80516020613fba833981519152611aac816122f3565b6114046129d0565b5f611abe816122f3565b6001600160a01b038216611ae55760405163d92e233d60e01b815260040160405180910390fd5b5f611aee6122cf565b6014810180546001600160a01b038681166001600160a01b031983168117909355604051939450169182907f4938e1e2dd4747149523273546167361ae468ac38277712587b01906938e59fd905f90a350505050565b5f611b4d6122cf565b6001600160a01b039092165f90815260029290920160205250604090205460ff1690565b5f9182525f80516020613fda833981519152602090815260408084206001600160a01b0393909316845291905290205460ff1690565b5f611bb1816122f3565b821580611bbe5750828211155b15611bdc576040516306b7c75960e31b815260040160405180910390fd5b5f611be56122cf565b60158101949094555050601690910155565b5f611c01816122f3565b6001600160a01b038216611c285760405163d92e233d60e01b815260040160405180910390fd5b5f611c316122cf565b6010810180546001600160a01b038681166001600160a01b031983168117909355604051939450169182907f511b2b2b218b07e69ac7172b3405f83ec50b0deb7421d292bceea29219f403fb905f90a350505050565b5f611c91816122f3565b6001600160a01b038316611cb85760405163d92e233d60e01b815260040160405180910390fd5b5f836001600160a01b0316836040515f6040518083038185875af1925050503d805f8114611d01576040519150601f19603f3d011682016040523d82523d5f602084013e611d06565b606091505b5050905080611d2857604051633d2cec6f60e21b815260040160405180910390fd5b836001600160a01b03167f0edb8e2e2ee5c951b06e95cb63d5dcd8709eb0b74b0f05a948c213e1a557cc4284604051611d6391815260200190565b60405180910390a250505050565b5f5f80516020613f7a833981519152611d89816122f3565b611d916122fd565b611d9961232f565b82602001355f03611dbd57604051631f2a200560e01b815260040160405180910390fd5b5f611dc66122cf565b9050600281015f611dda6020870187613694565b6001600160a01b0316815260208101919091526040015f205460ff16611e1357604051635bfbc03960e01b815260040160405180910390fd5b5f611e216020860186613694565b6001600160a01b031663313ce5676040518163ffffffff1660e01b8152600401602060405180830381865afa158015611e5c573d5f803e3d5ffd5b505050506040513d601f19601f82011682018060405250810190611e809190613b58565b90505f611e91866020013583612a18565b90508260150154811015611eb8576040516357d2504d60e11b815260040160405180910390fd5b8260160154811115611edd57604051637e3c496760e11b815260040160405180910390fd5b60208601803590611eee9088613694565b6040516370a0823160e01b81523060048201526001600160a01b0391909116906370a0823190602401602060405180830381865afa158015611f32573d5f803e3d5ffd5b505050506040513d601f19601f82011682018060405250810190611f569190613b09565b1015611f7557604051631e9acf1760e31b815260040160405180910390fd5b611f94611f856020880188613694565b87602001358860400135612a7e565b94508483601d015f828254611fa99190613af6565b9091555050601883018054905f611fbf83613b71565b9190505550505050611fcf6125e8565b50919050565b5f611fdf816122f3565b6001600160a01b0382166120065760405163d92e233d60e01b815260040160405180910390fd5b5f61200f6122cf565b600f810180546001600160a01b038681166001600160a01b031983168117909355604051939450169182907f1df95772db25c427e0df149fe4cd5b7c2e970e096ee7305ff86f6e1167281d7b905f90a350505050565b5f61206e6122cf565b601401546001600160a01b0316919050565b5f6120896122cf565b600f01546001600160a01b0316919050565b6120bc60405180606001604052805f81526020015f81526020015f81525090565b6120c46122cf565b60408051606081018252600483015481526005830154602082015260069092015490820152919050565b5f805f6120f96122cf565b90508060180154816019015492509250509091565b61211782610f22565b612120816122f3565b6110b5838361270b565b5f612134816122f3565b6001600160a01b03831661215b5760405163d92e233d60e01b815260040160405180910390fd5b61216f6001600160a01b0385168484612ea1565b826001600160a01b0316846001600160a01b03167ff24ef89f38eadc1bde50701ad6e4d6d11a2dc24f7cf834a486991f3883328504846040516121b491815260200190565b60405180910390a350505050565b5f6121cc816122f3565b5f6121d56122cf565b90505f816020015482601f015483601e015484601d01546121f69190613af6565b6122009190613af6565b61220a9190613af6565b5f601d8401819055601e8401819055601f840181905560208401556040519091507f9cc63e7cd3d7043146d8af171cd81d1a1ab640da644a8252f2483ea226d44b2f906118ad9083815260200190565b604080516060810182525f808252602082018190529181019190915261227e6122cf565b6001600160a01b039283165f9081526003919091016020908152604091829020825160608101845281548087168252600160a01b900460ff1615159281019290925260010154909316908301525090565b7f8b73c3c69bb8fe3d512ecc4cf759cc79239f7b179b0ffacaa9a75d522b39fc0090565b6114048133612ed2565b5f80516020613ffa8339815191525460ff161561232d5760405163d93c066560e01b815260040160405180910390fd5b565b5f6123386122cf565b9050600281601a01540361235f5760405163558a1e0360e11b815260040160405180910390fd5b6002601a90910155565b5f806123736122cf565b90505f805f8084601e01541180156123975750600f8401546001600160a01b031615155b1561249857601e8401548454600f8601546123bf916001600160a01b03908116911683612f0b565b15612464575f601e860155600f850154604051636bbc346d60e11b81526004810183905291945084916001600160a01b039091169063d77868da906024015f604051808303815f87803b158015612414575f80fd5b505af1925050508015612425575060015b61245f57600f8501546040518281526001600160a01b03909116905f8051602061401a8339815191529060200160405180910390a2612496565b612496565b600f8501546040518281526001600160a01b03909116905f8051602061401a8339815191529060200160405180910390a25b505b5f84601f01541180156124b7575060108401546001600160a01b031615155b1561252657601f840154845460108601546124df916001600160a01b03908116911683612f0b565b156124f2575f601f860155915081612524565b60108501546040518281526001600160a01b03909116905f8051602061401a8339815191529060200160405180910390a25b505b5f8460200154118015612545575060138401546001600160a01b031615155b801561255d5750601c8401546001600160a01b031615155b1561258157602084015461257081612fd9565b1561257f575f60208601559050805b505b8061258c8385613af6565b6125969190613af6565b6040805182815260208101869052908101849052606081018390529095507f78490b24a020086d2701460dc169a540280c517bef9cdcd742f751a9099922a39060800160405180910390a15050505090565b5f6125f16122cf565b6001601a9091015550565b6040516001600160a01b0384811660248301528381166044830152606482018390526110b59186918216906323b872dd906084015b604051602081830303815290604052915060e01b6020820180516001600160e01b03838183161783525050505061329e565b5f5f80516020613fda83398151915261267c8484611b71565b6126fb575f848152602082815260408083206001600160a01b03871684529091529020805460ff191660011790556126b13390565b6001600160a01b0316836001600160a01b0316857f2f8788117e7eff1d82e926ec794901d17c78024a50270940304540a733656f0d60405160405180910390a46001915050610aa6565b5f915050610aa6565b5092915050565b5f5f80516020613fda8339815191526127248484611b71565b156126fb575f848152602082815260408083206001600160a01b0387168085529252808320805460ff1916905551339287917ff6391f5c32d9c69d2a47ea670b442974b53935d1edc7fd64eb21e047a839171b9190a46001915050610aa6565b61278c61330a565b5f80516020613ffa833981519152805460ff191681557f5db9ee0a495bf2e6ff9c91a7834c1ba4fdd244a5e8aa4e537bd38aeae4b073aa335b6040516001600160a01b03909116815260200160405180910390a150565b306001600160a01b037f000000000000000000000000000000000000000000000000000000000000000016148061285357507f00000000000000000000000000000000000000000000000000000000000000006001600160a01b0316612847613339565b6001600160a01b031614155b1561232d5760405163703e46dd60e11b815260040160405180910390fd5b7f189ab7a9244df0848122154315af71fe140f3db0fe014031783b0946b8c9d2e3610f1e816122f3565b816001600160a01b03166352d1902d6040518163ffffffff1660e01b8152600401602060405180830381865afa9250505080156128f5575060408051601f3d908101601f191682019092526128f291810190613b09565b60015b61291d57604051634c9c8ce360e01b81526001600160a01b03831660048201526024016116d3565b5f80516020613f9a833981519152811461294d57604051632a87526960e21b8152600481018290526024016116d3565b6110ee838361334d565b5f807ff0c57e16840df040f15088dc2f81fe391c3923bec73e23a9662efc9c229c6a00610aa6565b61232d6133a2565b306001600160a01b037f0000000000000000000000000000000000000000000000000000000000000000161461232d5760405163703e46dd60e11b815260040160405180910390fd5b6129d86122fd565b5f80516020613ffa833981519152805460ff191660011781557f62e78cea01bee320cd4e420270b5ea74000d11b0c9f74754ebdbfc544b05a258336127c5565b5f8160ff16600603612a2b575081610aa6565b60068260ff161115612a5e57612a42600683613b89565b612a4d90600a613c85565b612a579084613ac4565b9050610aa6565b612a69826006613b89565b612a7490600a613c85565b612a579084613aad565b5f80612a886122cf565b6001600160a01b038681165f90815260038301602090815260409182902082516060810184528154808616808352600160a01b90910460ff161515938201939093526001909101549093169183019190915291925090612afb57604051636b271baf60e11b815260040160405180910390fd5b81546040516370a0823160e01b81523060048201525f916001600160a01b0316906370a0823190602401602060405180830381865afa158015612b40573d5f803e3d5ffd5b505050506040513d601f19601f82011682018060405250810190612b649190613b09565b6014840154909150612b83906001600160a01b038981169116886133c7565b5f825f015190505f816001600160a01b031663e76c01e46040518163ffffffff1660e01b815260040160c060405180830381865afa158015612bc7573d5f803e3d5ffd5b505050506040513d601f19601f82011682018060405250810190612beb9190613ca4565b505050505090505f846020015115612c0957506401000276a4612c20565b5073fffd8963efd1fc6a506488495d951d5263988d255b60408051610100810182526001600160a01b03808d1682528854811660208301528783015116918101919091523060608201525f9060808101612c654261012c613af6565b8152602081018c905260408082018c90526001600160a01b0380861660609093019290925260148a01549051630b3ce3c960e11b81529293501690631679c79290612cb4908490600401613d23565b6020604051808303815f875af1158015612cd0573d5f803e3d5ffd5b505050506040513d601f19601f82011682018060405250810190612cf49190613b09565b506014870154612d11906001600160a01b038d811691165f6133c7565b86546040516370a0823160e01b815230600482015286916001600160a01b0316906370a0823190602401602060405180830381865afa158015612d56573d5f803e3d5ffd5b505050506040513d601f19601f82011682018060405250810190612d7a9190613b09565b612d849190613ae3565b97505f846001600160a01b031663e76c01e46040518163ffffffff1660e01b815260040160c060405180830381865afa158015612dc3573d5f803e3d5ffd5b505050506040513d601f19601f82011682018060405250810190612de79190613ca4565b505050505090505f80856001600160a01b031611612e05575f612e42565b846001600160a01b0316612710612e2e846001600160a01b0316886001600160a01b0316613456565b612e389190613aad565b612e429190613ac4565b604080518e8152602081018d90529081018290529091506001600160a01b038e16907fe3a277e9dc82afe4d40533f81d7299e0d9ca6d4ed93e2bbe5d94a93eaf0a5b5f9060600160405180910390a25050505050505050509392505050565b6040516001600160a01b038381166024830152604482018390526110ee91859182169063a9059cbb90606401612631565b612edc8282611b71565b610f1e5760405163e2517d3f60e01b81526001600160a01b0382166004820152602481018390526044016116d3565b6040516001600160a01b038381166024830152604482018390525f91829182919087169060640160408051601f198184030181529181526020820180516001600160e01b031663a9059cbb60e01b17905251612f679190613d96565b5f604051808303815f865af19150503d805f8114612fa0576040519150601f19603f3d011682016040523d82523d5f602084013e612fa5565b606091505b5091509150818015612fcf575080511580612fcf575080806020019051810190612fcf9190613dac565b9695505050505050565b5f80612fe36122cf565b6040805160e081018252601c830154600160a01b900463ffffffff16815260138301546001600160a01b03166020808301919091528183018790525f606083018190528351808301855281815260808401528351808301855281815260a08401528351808301855281815260c0840152835180850190945280845290830152919250601c830154604051633b6f743b60e01b81526001600160a01b0390911690633b6f743b906130999085905f90600401613e3c565b6040805180830381865afa9250505080156130d1575060408051601f3d908101601f191682019092526130ce91810190613eac565b60015b6131115760138301546040518681526001600160a01b03909116905f8051602061401a833981519152906020015b60405180910390a2505f949350505050565b9050805147101561314a5760138301546040518681526001600160a01b03909116905f8051602061401a833981519152906020016130ff565b601c8301548354613168916001600160a01b039182169116876133c7565b601c830154815160405163c7c7f5b360e01b81526001600160a01b039092169163c7c7f5b391906131a190869086903090600401613ec6565b60c06040518083038185885af1935050505080156131dc575060408051601f3d908101601f191682019092526131d991810190613f04565b60015b6132165760138301546040518681526001600160a01b03909116905f8051602061401a8339815191529060200160405180910390a2613278565b50506013830154601c84015460408051888152600160a01b90920463ffffffff166020830152600196506001600160a01b03909216917fa09eae7b9c8126e1b4dedee354cb6543c603b134d2773f1d7f900af0fef75b4a910160405180910390a25b601c8301548354613296916001600160a01b0391821691165f6133c7565b505050919050565b5f8060205f8451602086015f885af1806132bd576040513d5f823e3d81fd5b50505f513d915081156132d45780600114156132e1565b6001600160a01b0384163b155b156110b557604051635274afe760e01b81526001600160a01b03851660048201526024016116d3565b5f80516020613ffa8339815191525460ff1661232d57604051638dfc202b60e01b815260040160405180910390fd5b5f5f80516020613f9a833981519152611a86565b6133568261347f565b6040516001600160a01b038316907fbc7cd75a20ee27fd9adebab32041f755214dbc6bffa90cc0225b39da2e5c2d3b905f90a280511561339a576110ee82826134e2565b610f1e613554565b6133aa613573565b61232d57604051631afcd79f60e31b815260040160405180910390fd5b604080516001600160a01b038416602482015260448082018490528251808303909101815260649091019091526020810180516001600160e01b031663095ea7b360e01b179052613418848261358c565b6110b5576040516001600160a01b0384811660248301525f604483015261344c91869182169063095ea7b390606401612631565b6110b5848261329e565b5f8183101561346e576134698383613ae3565b613478565b6134788284613ae3565b9392505050565b806001600160a01b03163b5f036134b457604051634c9c8ce360e01b81526001600160a01b03821660048201526024016116d3565b5f80516020613f9a83398151915280546001600160a01b0319166001600160a01b0392909216919091179055565b60605f80846001600160a01b0316846040516134fe9190613d96565b5f60405180830381855af49150503d805f8114613536576040519150601f19603f3d011682016040523d82523d5f602084013e61353b565b606091505b509150915061354b8583836135d1565b95945050505050565b341561232d5760405163b398979f60e01b815260040160405180910390fd5b5f61357c612957565b54600160401b900460ff16919050565b5f805f8060205f8651602088015f8a5af192503d91505f519050828015612fcf575081156135bd5780600114612fcf565b50505050506001600160a01b03163b151590565b6060826135e15761346982613621565b81511580156135f857506001600160a01b0384163b155b1561270457604051639996b31560e01b81526001600160a01b03851660048201526024016116d3565b80511561363057805160208201fd5b60405163d6bda27560e01b815260040160405180910390fd5b5f60208284031215613659575f80fd5b81356001600160e01b031981168114613478575f80fd5b6001600160a01b0381168114611404575f80fd5b803561368f81613670565b919050565b5f602082840312156136a4575f80fd5b813561347881613670565b5f602082840312156136bf575f80fd5b813563ffffffff81168114613478575f80fd5b5f80604083850312156136e3575f80fd5b82356136ee81613670565b946020939093013593505050565b5f6020828403121561370c575f80fd5b5035919050565b8015158114611404575f80fd5b5f805f8060808587031215613733575f80fd5b843561373e81613670565b9350602085013561374e81613670565b9250604085013561375e81613713565b9150606085013561376e81613670565b939692955090935050565b5f806040838503121561378a575f80fd5b82359150602083013561379c81613670565b809150509250929050565b634e487b7160e01b5f52604160045260245ffd5b6040516060810167ffffffffffffffff811182821017156137de576137de6137a7565b60405290565b604051601f8201601f1916810167ffffffffffffffff8111828210171561380d5761380d6137a7565b604052919050565b5f8060408385031215613826575f80fd5b823561383181613670565b9150602083013567ffffffffffffffff81111561384c575f80fd5b8301601f8101851361385c575f80fd5b803567ffffffffffffffff811115613876576138766137a7565b613889601f8201601f19166020016137e4565b81815286602083850101111561389d575f80fd5b816020840160208301375f602083830101528093505050509250929050565b5f805f805f805f80888a036101408112156138d5575f80fd5b89356138e081613670565b985060208a01356138f081613670565b975060408a013561390081613670565b965060608a013561391081613670565b955060808a013561392081613670565b945060a08a013561393081613670565b9350606060bf1982011215613943575f80fd5b5061394c6137bb565b60c08a0135815260e08a013560208201526101008a0135604082015291506139776101208a01613684565b90509295985092959890939650565b5f81518084528060208401602086015e5f602082860101526020601f19601f83011685010191505092915050565b602081525f6134786020830184613986565b5f60608284031215611fcf575f80fd5b5f606082840312156139e6575f80fd5b61347883836139c6565b602080825282518282018190525f918401906040840190835b81811015613a305783516001600160a01b0316835260209384019390920191600101613a09565b509095945050505050565b5f8060408385031215613a4c575f80fd5b50508035926020909101359150565b5f805f60608486031215613a6d575f80fd5b8335613a7881613670565b92506020840135613a8881613670565b929592945050506040919091013590565b634e487b7160e01b5f52601160045260245ffd5b8082028115828204841417610aa657610aa6613a99565b5f82613ade57634e487b7160e01b5f52601260045260245ffd5b500490565b81810381811115610aa657610aa6613a99565b80820180821115610aa657610aa6613a99565b5f60208284031215613b19575f80fd5b5051919050565b634e487b7160e01b5f52603260045260245ffd5b634e487b7160e01b5f52603160045260245ffd5b805160ff8116811461368f575f80fd5b5f60208284031215613b68575f80fd5b61347882613b48565b5f60018201613b8257613b82613a99565b5060010190565b60ff8281168282160390811115610aa657610aa6613a99565b6001815b6001841115613bdd57808504811115613bc157613bc1613a99565b6001841615613bcf57908102905b60019390931c928002613ba6565b935093915050565b5f82613bf357506001610aa6565b81613bff57505f610aa6565b8160018114613c155760028114613c1f57613c3b565b6001915050610aa6565b60ff841115613c3057613c30613a99565b50506001821b610aa6565b5060208310610133831016604e8410600b8410161715613c5e575081810a610aa6565b613c6a5f198484613ba2565b805f1904821115613c7d57613c7d613a99565b029392505050565b5f61347860ff841683613be5565b805161ffff8116811461368f575f80fd5b5f805f805f8060c08789031215613cb9575f80fd5b8651613cc481613670565b8096505060208701518060020b8114613cdb575f80fd5b9450613ce960408801613c93565b9350613cf760608801613b48565b9250613d0560808801613c93565b915060a0870151613d1581613713565b809150509295509295509295565b81516001600160a01b03908116825260208084015182169083015260408084015182169083015260608084015191821690830152610100820190506080830151608083015260a083015160a083015260c083015160c083015260e083015161270460e08401826001600160a01b03169052565b5f82518060208501845e5f920191825250919050565b5f60208284031215613dbc575f80fd5b815161347881613713565b63ffffffff81511682526020810151602083015260408101516040830152606081015160608301525f608082015160e06080850152613e0960e0850182613986565b905060a083015184820360a0860152613e228282613986565b91505060c083015184820360c086015261354b8282613986565b604081525f613e4e6040830185613dc7565b905082151560208301529392505050565b5f60408284031215613e6f575f80fd5b6040805190810167ffffffffffffffff81118282101715613e9257613e926137a7565b604052825181526020928301519281019290925250919050565b5f60408284031215613ebc575f80fd5b6134788383613e5f565b608081525f613ed86080830186613dc7565b8451602084810191909152909401516040830152506001600160a01b0391909116606090910152919050565b5f8082840360c0811215613f16575f80fd5b6080811215613f23575f80fd5b50613f2c6137bb565b83518152602084015167ffffffffffffffff81168114613f4a575f80fd5b6020820152613f5c8560408601613e5f565b60408201529150613f708460808501613e5f565b9050925092905056fefc8737ab85eb45125971625a9ebdb75cc78e01d5c1fa80c4c6e5203f47bc4fab360894a13ba1a3210667c828492db98dca3e2076cc3735a920a3ca505d382bbc65d7a28e3265b37a6474929f336521b332c1681b933f6cb9f3376673440d862a02dd7bc7dec4dceedda775e58dd541e08a116c6c53815c0bd028192f7b626800cd5ed15c6e187e77e9aee88184c21f4f2182ab5827cb3b7e07fbedcd63f033008572dbea462d4b22e1843342bb2c8c3e5777d12f3bf6928a9180a5613dc27ab1a164736f6c634300081a000a",
    "linkReferences": {}
  },
  "methodIdentifiers": {
    "DEFAULT_ADMIN_ROLE()": "a217fddf",
    "KEEPER_ROLE()": "364bc15a",
    "MAX_BPS()": "fd967f47",
    "MAX_STABLECOINS()": "637dc8cb",
    "PAUSER_ROLE()": "e63ab1e9",
    "UPGRADER_ROLE()": "f72c0d8b",
    "UPGRADE_INTERFACE_VERSION()": "ad3cb1cc",
    "addStablecoin(address)": "0418945a",
    "algebraRouter()": "a6a87f5c",
    "burnAddress()": "70d5ae05",
    "distributeEpochFees()": "117653c4",
    "dstEid()": "734ff5f3",
    "ecosystemTreasury()": "109e06e1",
    "emergencyWithdraw(address,address,uint256)": "e63ea408",
    "emergencyWithdrawNative(address,uint256)": "9b788504",
    "getConfig()": "c3f909d4",
    "getPendingDistribution()": "0134aeba",
    "getPoolConfig(address)": "f29486a1",
    "getRoleAdmin(bytes32)": "248a9ca3",
    "getStats()": "c59d4847",
    "getSupportedStablecoins()": "7c6f73eb",
    "getSwapLimits()": "2a50cf31",
    "grantRole(bytes32,address)": "2f2ff15d",
    "hasRole(bytes32,address)": "91d14854",
    "initialize(address,address,address,address,address,address,(uint256,uint256,uint256),address)": "5140017e",
    "isStablecoinSupported(address)": "8d486414",
    "oftBridge()": "714d39d2",
    "pause()": "8456cb59",
    "paused()": "5c975abb",
    "pendingBalance(address)": "3736f85d",
    "proxiableUUID()": "52d1902d",
    "receiveFee(address,uint256)": "2316ad32",
    "removeStablecoin(address)": "3b947d2b",
    "renounceRole(bytes32,address)": "36568abe",
    "resetPendingDistribution()": "e6e7f0d4",
    "revokeRole(bytes32,address)": "d547741f",
    "rewardDistributor()": "acc2166a",
    "rlsToken()": "8188a264",
    "setAlgebraRouter(address)": "85d76a4d",
    "setBurnAddress(address)": "4b0e7216",
    "setConfig((uint256,uint256,uint256))": "608eb426",
    "setDstEid(uint32)": "0d14c92e",
    "setEcosystemTreasury(address)": "9b162793",
    "setOftBridge(address)": "3afbcb07",
    "setPoolConfig(address,address,bool,address)": "29ea3d84",
    "setRewardDistributor(address)": "a1809b95",
    "setSwapLimits(uint256,uint256)": "940cc475",
    "setUsdrToken(address)": "73bcddf4",
    "supportsInterface(bytes4)": "01ffc9a7",
    "swapToRls((address,uint256,uint256))": "9f9740ab",
    "unpause()": "3f4ba83a",
    "upgradeToAndCall(address,bytes)": "4f1ef286",
    "usdrToken()": "002570fa",
    "version()": "54fd4d50"
  },
  "id": 98
}