{
  "abi": [
    {
      "type": "constructor",
      "inputs": [],
      "stateMutability": "nonpayable"
    },
    {
      "type": "function",
      "name": "DEFAULT_ADMIN_ROLE",
      "inputs": [],
      "outputs": [
        {
          "name": "",
          "type": "bytes32",
          "internalType": "bytes32"
        }
      ],
      "stateMutability": "view"
    },
    {
      "type": "function",
      "name": "MINTER_ROLE",
      "inputs": [],
      "outputs": [
        {
          "name": "",
          "type": "bytes32",
          "internalType": "bytes32"
        }
      ],
      "stateMutability": "view"
    },
    {
      "type": "function",
      "name": "PRECOMPILE",
      "inputs": [],
      "outputs": [
        {
          "name": "",
          "type": "address",
          "internalType": "contract INativeTokenController"
        }
      ],
      "stateMutability": "view"
    },
    {
      "type": "function",
      "name": "UPGRADER_ROLE",
      "inputs": [],
      "outputs": [
        {
          "name": "",
          "type": "bytes32",
          "internalType": "bytes32"
        }
      ],
      "stateMutability": "view"
    },
    {
      "type": "function",
      "name": "UPGRADE_INTERFACE_VERSION",
      "inputs": [],
      "outputs": [
        {
          "name": "",
          "type": "string",
          "internalType": "string"
        }
      ],
      "stateMutability": "view"
    },
    {
      "type": "function",
      "name": "addMinter",
      "inputs": [
        {
          "name": "account",
          "type": "address",
          "internalType": "address"
        }
      ],
      "outputs": [],
      "stateMutability": "nonpayable"
    },
    {
      "type": "function",
      "name": "burn",
      "inputs": [
        {
          "name": "_from",
          "type": "address",
          "internalType": "address"
        },
        {
          "name": "_amount",
          "type": "uint256",
          "internalType": "uint256"
        }
      ],
      "outputs": [
        {
          "name": "",
          "type": "bool",
          "internalType": "bool"
        }
      ],
      "stateMutability": "nonpayable"
    },
    {
      "type": "function",
      "name": "getRoleAdmin",
      "inputs": [
        {
          "name": "role",
          "type": "bytes32",
          "internalType": "bytes32"
        }
      ],
      "outputs": [
        {
          "name": "",
          "type": "bytes32",
          "internalType": "bytes32"
        }
      ],
      "stateMutability": "view"
    },
    {
      "type": "function",
      "name": "grantRole",
      "inputs": [
        {
          "name": "role",
          "type": "bytes32",
          "internalType": "bytes32"
        },
        {
          "name": "account",
          "type": "address",
          "internalType": "address"
        }
      ],
      "outputs": [],
      "stateMutability": "nonpayable"
    },
    {
      "type": "function",
      "name": "hasRole",
      "inputs": [
        {
          "name": "role",
          "type": "bytes32",
          "internalType": "bytes32"
        },
        {
          "name": "account",
          "type": "address",
          "internalType": "address"
        }
      ],
      "outputs": [
        {
          "name": "",
          "type": "bool",
          "internalType": "bool"
        }
      ],
      "stateMutability": "view"
    },
    {
      "type": "function",
      "name": "initialize",
      "inputs": [
        {
          "name": "admin",
          "type": "address",
          "internalType": "address"
        }
      ],
      "outputs": [],
      "stateMutability": "nonpayable"
    },
    {
      "type": "function",
      "name": "isMinter",
      "inputs": [
        {
          "name": "account",
          "type": "address",
          "internalType": "address"
        }
      ],
      "outputs": [
        {
          "name": "",
          "type": "bool",
          "internalType": "bool"
        }
      ],
      "stateMutability": "view"
    },
    {
      "type": "function",
      "name": "mint",
      "inputs": [
        {
          "name": "_to",
          "type": "address",
          "internalType": "address"
        },
        {
          "name": "_amount",
          "type": "uint256",
          "internalType": "uint256"
        }
      ],
      "outputs": [
        {
          "name": "",
          "type": "bool",
          "internalType": "bool"
        }
      ],
      "stateMutability": "nonpayable"
    },
    {
      "type": "function",
      "name": "proxiableUUID",
      "inputs": [],
      "outputs": [
        {
          "name": "",
          "type": "bytes32",
          "internalType": "bytes32"
        }
      ],
      "stateMutability": "view"
    },
    {
      "type": "function",
      "name": "removeMinter",
      "inputs": [
        {
          "name": "account",
          "type": "address",
          "internalType": "address"
        }
      ],
      "outputs": [],
      "stateMutability": "nonpayable"
    },
    {
      "type": "function",
      "name": "renounceRole",
      "inputs": [
        {
          "name": "role",
          "type": "bytes32",
          "internalType": "bytes32"
        },
        {
          "name": "callerConfirmation",
          "type": "address",
          "internalType": "address"
        }
      ],
      "outputs": [],
      "stateMutability": "nonpayable"
    },
    {
      "type": "function",
      "name": "revokeRole",
      "inputs": [
        {
          "name": "role",
          "type": "bytes32",
          "internalType": "bytes32"
        },
        {
          "name": "account",
          "type": "address",
          "internalType": "address"
        }
      ],
      "outputs": [],
      "stateMutability": "nonpayable"
    },
    {
      "type": "function",
      "name": "supportsInterface",
      "inputs": [
        {
          "name": "interfaceId",
          "type": "bytes4",
          "internalType": "bytes4"
        }
      ],
      "outputs": [
        {
          "name": "",
          "type": "bool",
          "internalType": "bool"
        }
      ],
      "stateMutability": "view"
    },
    {
      "type": "function",
      "name": "upgradeToAndCall",
      "inputs": [
        {
          "name": "newImplementation",
          "type": "address",
          "internalType": "address"
        },
        {
          "name": "data",
          "type": "bytes",
          "internalType": "bytes"
        }
      ],
      "outputs": [],
      "stateMutability": "payable"
    },
    {
      "type": "event",
      "name": "Burned",
      "inputs": [
        {
          "name": "caller",
          "type": "address",
          "indexed": true,
          "internalType": "address"
        },
        {
          "name": "from",
          "type": "address",
          "indexed": true,
          "internalType": "address"
        },
        {
          "name": "amount",
          "type": "uint256",
          "indexed": false,
          "internalType": "uint256"
        }
      ],
      "anonymous": false
    },
    {
      "type": "event",
      "name": "Initialized",
      "inputs": [
        {
          "name": "version",
          "type": "uint64",
          "indexed": false,
          "internalType": "uint64"
        }
      ],
      "anonymous": false
    },
    {
      "type": "event",
      "name": "Minted",
      "inputs": [
        {
          "name": "caller",
          "type": "address",
          "indexed": true,
          "internalType": "address"
        },
        {
          "name": "to",
          "type": "address",
          "indexed": true,
          "internalType": "address"
        },
        {
          "name": "amount",
          "type": "uint256",
          "indexed": false,
          "internalType": "uint256"
        }
      ],
      "anonymous": false
    },
    {
      "type": "event",
      "name": "RoleAdminChanged",
      "inputs": [
        {
          "name": "role",
          "type": "bytes32",
          "indexed": true,
          "internalType": "bytes32"
        },
        {
          "name": "previousAdminRole",
          "type": "bytes32",
          "indexed": true,
          "internalType": "bytes32"
        },
        {
          "name": "newAdminRole",
          "type": "bytes32",
          "indexed": true,
          "internalType": "bytes32"
        }
      ],
      "anonymous": false
    },
    {
      "type": "event",
      "name": "RoleGranted",
      "inputs": [
        {
          "name": "role",
          "type": "bytes32",
          "indexed": true,
          "internalType": "bytes32"
        },
        {
          "name": "account",
          "type": "address",
          "indexed": true,
          "internalType": "address"
        },
        {
          "name": "sender",
          "type": "address",
          "indexed": true,
          "internalType": "address"
        }
      ],
      "anonymous": false
    },
    {
      "type": "event",
      "name": "RoleRevoked",
      "inputs": [
        {
          "name": "role",
          "type": "bytes32",
          "indexed": true,
          "internalType": "bytes32"
        },
        {
          "name": "account",
          "type": "address",
          "indexed": true,
          "internalType": "address"
        },
        {
          "name": "sender",
          "type": "address",
          "indexed": true,
          "internalType": "address"
        }
      ],
      "anonymous": false
    },
    {
      "type": "event",
      "name": "Upgraded",
      "inputs": [
        {
          "name": "implementation",
          "type": "address",
          "indexed": true,
          "internalType": "address"
        }
      ],
      "anonymous": false
    },
    {
      "type": "error",
      "name": "AccessControlBadConfirmation",
      "inputs": []
    },
    {
      "type": "error",
      "name": "AccessControlUnauthorizedAccount",
      "inputs": [
        {
          "name": "account",
          "type": "address",
          "internalType": "address"
        },
        {
          "name": "neededRole",
          "type": "bytes32",
          "internalType": "bytes32"
        }
      ]
    },
    {
      "type": "error",
      "name": "AddressEmptyCode",
      "inputs": [
        {
          "name": "target",
          "type": "address",
          "internalType": "address"
        }
      ]
    },
    {
      "type": "error",
      "name": "ERC1967InvalidImplementation",
      "inputs": [
        {
          "name": "implementation",
          "type": "address",
          "internalType": "address"
        }
      ]
    },
    {
      "type": "error",
      "name": "ERC1967NonPayable",
      "inputs": []
    },
    {
      "type": "error",
      "name": "FailedCall",
      "inputs": []
    },
    {
      "type": "error",
      "name": "InvalidInitialization",
      "inputs": []
    },
    {
      "type": "error",
      "name": "NotInitializing",
      "inputs": []
    },
    {
      "type": "error",
      "name": "PrecompileBurnFailed",
      "inputs": [
        {
          "name": "from",
          "type": "address",
          "internalType": "address"
        },
        {
          "name": "amount",
          "type": "uint256",
          "internalType": "uint256"
        }
      ]
    },
    {
      "type": "error",
      "name": "PrecompileMintFailed",
      "inputs": [
        {
          "name": "to",
          "type": "address",
          "internalType": "address"
        },
        {
          "name": "amount",
          "type": "uint256",
          "internalType": "uint256"
        }
      ]
    },
    {
      "type": "error",
      "name": "UUPSUnauthorizedCallContext",
      "inputs": []
    },
    {
      "type": "error",
      "name": "UUPSUnsupportedProxiableUUID",
      "inputs": [
        {
          "name": "slot",
          "type": "bytes32",
          "internalType": "bytes32"
        }
      ]
    },
    {
      "type": "error",
      "name": "ZeroAddress",
      "inputs": []
    },
    {
      "type": "error",
      "name": "ZeroAmount",
      "inputs": []
    }
  ],
  "bytecode": {
    "object": "0x60a060405230608052348015610013575f80fd5b5061001c610021565b6100d3565b7ff0c57e16840df040f15088dc2f81fe391c3923bec73e23a9662efc9c229c6a00805468010000000000000000900460ff16156100715760405163f92ee8a960e01b815260040160405180910390fd5b80546001600160401b03908116146100d05780546001600160401b0319166001600160401b0390811782556040519081527fc7f505b2f371ae2175ee4913f4499e1f2633a7b5936321eed1cdaeb6115181d29060200160405180910390a15b50565b60805161114f6100f95f395f8181610a8401528181610aad0152610c10015261114f5ff3fe608060405260043610610110575f3560e01c806391d148541161009d578063ad3cb1cc11610062578063ad3cb1cc146102d6578063c4d66de814610313578063d539139314610332578063d547741f14610352578063f72c0d8b14610371575f80fd5b806391d1485414610247578063983b2d56146102665780639dc29fac14610285578063a217fddf146102a4578063aa271e1a146102b7575f80fd5b80633092afd5116100e35780633092afd5146101c357806336568abe146101e257806340c10f19146102015780634f1ef2861461022057806352d1902d14610233575f80fd5b806301ffc9a7146101145780630709d0b114610148578063248a9ca3146101755780632f2ff15d146101a2575b5f80fd5b34801561011f575f80fd5b5061013361012e366004610ec5565b6103a4565b60405190151581526020015b60405180910390f35b348015610153575f80fd5b5061015d61040081565b6040516001600160a01b03909116815260200161013f565b348015610180575f80fd5b5061019461018f366004610eec565b6103da565b60405190815260200161013f565b3480156101ad575f80fd5b506101c16101bc366004610f1e565b6103fa565b005b3480156101ce575f80fd5b506101c16101dd366004610f48565b61041c565b3480156101ed575f80fd5b506101c16101fc366004610f1e565b610442565b34801561020c575f80fd5b5061013361021b366004610f61565b610475565b6101c161022e366004610f9d565b6105c9565b34801561023e575f80fd5b506101946105e8565b348015610252575f80fd5b50610133610261366004610f1e565b610603565b348015610271575f80fd5b506101c1610280366004610f48565b610639565b348015610290575f80fd5b5061013361029f366004610f61565b610681565b3480156102af575f80fd5b506101945f81565b3480156102c2575f80fd5b506101336102d1366004610f48565b6107c1565b3480156102e1575f80fd5b50610306604051806040016040528060058152602001640352e302e360dc1b81525081565b60405161013f9190611061565b34801561031e575f80fd5b506101c161032d366004610f48565b6107d9565b34801561033d575f80fd5b506101945f8051602061110383398151915281565b34801561035d575f80fd5b506101c161036c366004610f1e565b610936565b34801561037c575f80fd5b506101947f189ab7a9244df0848122154315af71fe140f3db0fe014031783b0946b8c9d2e381565b5f6001600160e01b03198216637965db0b60e01b14806103d457506301ffc9a760e01b6001600160e01b03198316145b92915050565b5f9081525f80516020611123833981519152602052604090206001015490565b610403826103da565b61040c81610952565b610416838361095f565b50505050565b5f61042681610952565b61043d5f8051602061110383398151915283610a00565b505050565b6001600160a01b038116331461046b5760405163334bd91960e11b815260040160405180910390fd5b61043d8282610a00565b5f5f8051602061110383398151915261048d81610952565b6001600160a01b0384166104b45760405163d92e233d60e01b815260040160405180910390fd5b825f036104d457604051631f2a200560e01b815260040160405180910390fd5b6040516340c10f1960e01b81526001600160a01b0385166004820152602481018490525f90610400906340c10f19906044016020604051808303815f875af1158015610522573d5f803e3d5ffd5b505050506040513d601f19601f820116820180604052508101906105469190611096565b90508061057d57604051630a28468b60e21b81526001600160a01b0386166004820152602481018590526044015b60405180910390fd5b6040518481526001600160a01b0386169033907f9d228d69b5fdb8d273a2336f8fb8612d039631024ea9bf09c424a9503aa078f0906020015b60405180910390a3506001949350505050565b6105d1610a79565b6105da82610b1f565b6105e48282610b49565b5050565b5f6105f1610c05565b505f805160206110e383398151915290565b5f9182525f80516020611123833981519152602090815260408084206001600160a01b0393909316845291905290205460ff1690565b5f61064381610952565b6001600160a01b03821661066a5760405163d92e233d60e01b815260040160405180910390fd5b61043d5f805160206111038339815191528361095f565b5f5f8051602061110383398151915261069981610952565b6001600160a01b0384166106c05760405163d92e233d60e01b815260040160405180910390fd5b825f036106e057604051631f2a200560e01b815260040160405180910390fd5b60405163079cc67960e41b81526001600160a01b0385166004820152602481018490525f90610400906379cc6790906044016020604051808303815f875af115801561072e573d5f803e3d5ffd5b505050506040513d601f19601f820116820180604052508101906107529190611096565b9050806107845760405163056c59d560e01b81526001600160a01b038616600482015260248101859052604401610574565b6040518481526001600160a01b0386169033907f6ab368f832c266c8eb942b84fbcaa20aedc24a699d2a05fae2568028733b1d09906020016105b6565b5f6103d45f8051602061110383398151915283610603565b5f6107e2610c4e565b805490915060ff600160401b820416159067ffffffffffffffff165f811580156108095750825b90505f8267ffffffffffffffff1660011480156108255750303b155b905081158015610833575080155b156108515760405163f92ee8a960e01b815260040160405180910390fd5b845467ffffffffffffffff19166001178555831561087b57845460ff60401b1916600160401b1785555b6001600160a01b0386166108a25760405163d92e233d60e01b815260040160405180910390fd5b6108aa610c76565b6108b2610c76565b6108bc5f8761095f565b506108e77f189ab7a9244df0848122154315af71fe140f3db0fe014031783b0946b8c9d2e38761095f565b50831561092e57845460ff60401b19168555604051600181527fc7f505b2f371ae2175ee4913f4499e1f2633a7b5936321eed1cdaeb6115181d29060200160405180910390a15b505050505050565b61093f826103da565b61094881610952565b6104168383610a00565b61095c8133610c7e565b50565b5f5f805160206111238339815191526109788484610603565b6109f7575f848152602082815260408083206001600160a01b03871684529091529020805460ff191660011790556109ad3390565b6001600160a01b0316836001600160a01b0316857f2f8788117e7eff1d82e926ec794901d17c78024a50270940304540a733656f0d60405160405180910390a460019150506103d4565b5f9150506103d4565b5f5f80516020611123833981519152610a198484610603565b156109f7575f848152602082815260408083206001600160a01b0387168085529252808320805460ff1916905551339287917ff6391f5c32d9c69d2a47ea670b442974b53935d1edc7fd64eb21e047a839171b9190a460019150506103d4565b306001600160a01b037f0000000000000000000000000000000000000000000000000000000000000000161480610aff57507f00000000000000000000000000000000000000000000000000000000000000006001600160a01b0316610af35f805160206110e3833981519152546001600160a01b031690565b6001600160a01b031614155b15610b1d5760405163703e46dd60e11b815260040160405180910390fd5b565b7f189ab7a9244df0848122154315af71fe140f3db0fe014031783b0946b8c9d2e36105e481610952565b816001600160a01b03166352d1902d6040518163ffffffff1660e01b8152600401602060405180830381865afa925050508015610ba3575060408051601f3d908101601f19168201909252610ba0918101906110b5565b60015b610bcb57604051634c9c8ce360e01b81526001600160a01b0383166004820152602401610574565b5f805160206110e38339815191528114610bfb57604051632a87526960e21b815260048101829052602401610574565b61043d8383610cb7565b306001600160a01b037f00000000000000000000000000000000000000000000000000000000000000001614610b1d5760405163703e46dd60e11b815260040160405180910390fd5b5f807ff0c57e16840df040f15088dc2f81fe391c3923bec73e23a9662efc9c229c6a006103d4565b610b1d610d0c565b610c888282610603565b6105e45760405163e2517d3f60e01b81526001600160a01b038216600482015260248101839052604401610574565b610cc082610d31565b6040516001600160a01b038316907fbc7cd75a20ee27fd9adebab32041f755214dbc6bffa90cc0225b39da2e5c2d3b905f90a2805115610d045761043d8282610d94565b6105e4610e06565b610d14610e25565b610b1d57604051631afcd79f60e31b815260040160405180910390fd5b806001600160a01b03163b5f03610d6657604051634c9c8ce360e01b81526001600160a01b0382166004820152602401610574565b5f805160206110e383398151915280546001600160a01b0319166001600160a01b0392909216919091179055565b60605f80846001600160a01b031684604051610db091906110cc565b5f60405180830381855af49150503d805f8114610de8576040519150601f19603f3d011682016040523d82523d5f602084013e610ded565b606091505b5091509150610dfd858383610e3e565b95945050505050565b3415610b1d5760405163b398979f60e01b815260040160405180910390fd5b5f610e2e610c4e565b54600160401b900460ff16919050565b606082610e5357610e4e82610e9d565b610e96565b8151158015610e6a57506001600160a01b0384163b155b15610e9357604051639996b31560e01b81526001600160a01b0385166004820152602401610574565b50805b9392505050565b805115610eac57805160208201fd5b60405163d6bda27560e01b815260040160405180910390fd5b5f60208284031215610ed5575f80fd5b81356001600160e01b031981168114610e96575f80fd5b5f60208284031215610efc575f80fd5b5035919050565b80356001600160a01b0381168114610f19575f80fd5b919050565b5f8060408385031215610f2f575f80fd5b82359150610f3f60208401610f03565b90509250929050565b5f60208284031215610f58575f80fd5b610e9682610f03565b5f8060408385031215610f72575f80fd5b610f7b83610f03565b946020939093013593505050565b634e487b7160e01b5f52604160045260245ffd5b5f8060408385031215610fae575f80fd5b610fb783610f03565b9150602083013567ffffffffffffffff811115610fd2575f80fd5b8301601f81018513610fe2575f80fd5b803567ffffffffffffffff811115610ffc57610ffc610f89565b604051601f8201601f19908116603f0116810167ffffffffffffffff8111828210171561102b5761102b610f89565b604052818152828201602001871015611042575f80fd5b816020840160208301375f602083830101528093505050509250929050565b602081525f82518060208401528060208501604085015e5f604082850101526040601f19601f83011684010191505092915050565b5f602082840312156110a6575f80fd5b81518015158114610e96575f80fd5b5f602082840312156110c5575f80fd5b5051919050565b5f82518060208501845e5f92019182525091905056fe360894a13ba1a3210667c828492db98dca3e2076cc3735a920a3ca505d382bbc9f2df0fed2c77648de5860a4cc508cd0818c85b8b8a1ab4ceeef8d981c8956a602dd7bc7dec4dceedda775e58dd541e08a116c6c53815c0bd028192f7b626800a164736f6c634300081a000a",
    "linkReferences": {}
  },
  "methodIdentifiers": {
    "DEFAULT_ADMIN_ROLE()": "a217fddf",
    "MINTER_ROLE()": "d5391393",
    "PRECOMPILE()": "0709d0b1",
    "UPGRADER_ROLE()": "f72c0d8b",
    "UPGRADE_INTERFACE_VERSION()": "ad3cb1cc",
    "addMinter(address)": "983b2d56",
    "burn(address,uint256)": "9dc29fac",
    "getRoleAdmin(bytes32)": "248a9ca3",
    "grantRole(bytes32,address)": "2f2ff15d",
    "hasRole(bytes32,address)": "91d14854",
    "initialize(address)": "c4d66de8",
    "isMinter(address)": "aa271e1a",
    "mint(address,uint256)": "40c10f19",
    "proxiableUUID()": "52d1902d",
    "removeMinter(address)": "3092afd5",
    "renounceRole(bytes32,address)": "36568abe",
    "revokeRole(bytes32,address)": "d547741f",
    "supportsInterface(bytes4)": "01ffc9a7",
    "upgradeToAndCall(address,bytes)": "4f1ef286"
  },
  "id": 129
}