{
  "abi": [
    {
      "type": "constructor",
      "inputs": [],
      "stateMutability": "nonpayable"
    },
    {
      "type": "function",
      "name": "DEFAULT_ADMIN_ROLE",
      "inputs": [],
      "outputs": [
        {
          "name": "",
          "type": "bytes32",
          "internalType": "bytes32"
        }
      ],
      "stateMutability": "view"
    },
    {
      "type": "function",
      "name": "MAX_APY_BPS",
      "inputs": [],
      "outputs": [
        {
          "name": "",
          "type": "uint256",
          "internalType": "uint256"
        }
      ],
      "stateMutability": "view"
    },
    {
      "type": "function",
      "name": "SYSTEM_ADDRESS",
      "inputs": [],
      "outputs": [
        {
          "name": "",
          "type": "address",
          "internalType": "address"
        }
      ],
      "stateMutability": "view"
    },
    {
      "type": "function",
      "name": "UPGRADER_ROLE",
      "inputs": [],
      "outputs": [
        {
          "name": "",
          "type": "bytes32",
          "internalType": "bytes32"
        }
      ],
      "stateMutability": "view"
    },
    {
      "type": "function",
      "name": "UPGRADE_INTERFACE_VERSION",
      "inputs": [],
      "outputs": [
        {
          "name": "",
          "type": "string",
          "internalType": "string"
        }
      ],
      "stateMutability": "view"
    },
    {
      "type": "function",
      "name": "accumulator",
      "inputs": [],
      "outputs": [
        {
          "name": "",
          "type": "address",
          "internalType": "address"
        }
      ],
      "stateMutability": "view"
    },
    {
      "type": "function",
      "name": "claimRewards",
      "inputs": [
        {
          "name": "validatorAddress",
          "type": "address",
          "internalType": "address"
        }
      ],
      "outputs": [],
      "stateMutability": "nonpayable"
    },
    {
      "type": "function",
      "name": "consensusRegistry",
      "inputs": [],
      "outputs": [
        {
          "name": "",
          "type": "address",
          "internalType": "address"
        }
      ],
      "stateMutability": "view"
    },
    {
      "type": "function",
      "name": "delegationPool",
      "inputs": [],
      "outputs": [
        {
          "name": "",
          "type": "address",
          "internalType": "address"
        }
      ],
      "stateMutability": "view"
    },
    {
      "type": "function",
      "name": "distributeRewards",
      "inputs": [],
      "outputs": [],
      "stateMutability": "nonpayable"
    },
    {
      "type": "function",
      "name": "feeAggregator",
      "inputs": [],
      "outputs": [
        {
          "name": "",
          "type": "address",
          "internalType": "address"
        }
      ],
      "stateMutability": "view"
    },
    {
      "type": "function",
      "name": "getPendingRewards",
      "inputs": [
        {
          "name": "validatorAddress",
          "type": "address",
          "internalType": "address"
        }
      ],
      "outputs": [
        {
          "name": "",
          "type": "uint256",
          "internalType": "uint256"
        }
      ],
      "stateMutability": "view"
    },
    {
      "type": "function",
      "name": "getRewardRecipient",
      "inputs": [
        {
          "name": "validatorAddress",
          "type": "address",
          "internalType": "address"
        }
      ],
      "outputs": [
        {
          "name": "",
          "type": "address",
          "internalType": "address"
        }
      ],
      "stateMutability": "view"
    },
    {
      "type": "function",
      "name": "getRoleAdmin",
      "inputs": [
        {
          "name": "role",
          "type": "bytes32",
          "internalType": "bytes32"
        }
      ],
      "outputs": [
        {
          "name": "",
          "type": "bytes32",
          "internalType": "bytes32"
        }
      ],
      "stateMutability": "view"
    },
    {
      "type": "function",
      "name": "grantRole",
      "inputs": [
        {
          "name": "role",
          "type": "bytes32",
          "internalType": "bytes32"
        },
        {
          "name": "account",
          "type": "address",
          "internalType": "address"
        }
      ],
      "outputs": [],
      "stateMutability": "nonpayable"
    },
    {
      "type": "function",
      "name": "hasRole",
      "inputs": [
        {
          "name": "role",
          "type": "bytes32",
          "internalType": "bytes32"
        },
        {
          "name": "account",
          "type": "address",
          "internalType": "address"
        }
      ],
      "outputs": [
        {
          "name": "",
          "type": "bool",
          "internalType": "bool"
        }
      ],
      "stateMutability": "view"
    },
    {
      "type": "function",
      "name": "initialize",
      "inputs": [
        {
          "name": "rls_",
          "type": "address",
          "internalType": "address"
        },
        {
          "name": "feeAggregator_",
          "type": "address",
          "internalType": "address"
        },
        {
          "name": "consensusRegistry_",
          "type": "address",
          "internalType": "address"
        },
        {
          "name": "delegationPool_",
          "type": "address",
          "internalType": "address"
        },
        {
          "name": "admin_",
          "type": "address",
          "internalType": "address"
        }
      ],
      "outputs": [],
      "stateMutability": "nonpayable"
    },
    {
      "type": "function",
      "name": "proxiableUUID",
      "inputs": [],
      "outputs": [
        {
          "name": "",
          "type": "bytes32",
          "internalType": "bytes32"
        }
      ],
      "stateMutability": "view"
    },
    {
      "type": "function",
      "name": "receiveRewards",
      "inputs": [
        {
          "name": "amount",
          "type": "uint256",
          "internalType": "uint256"
        }
      ],
      "outputs": [],
      "stateMutability": "nonpayable"
    },
    {
      "type": "function",
      "name": "recoverTokens",
      "inputs": [
        {
          "name": "token",
          "type": "address",
          "internalType": "address"
        },
        {
          "name": "to",
          "type": "address",
          "internalType": "address"
        },
        {
          "name": "amount",
          "type": "uint256",
          "internalType": "uint256"
        }
      ],
      "outputs": [],
      "stateMutability": "nonpayable"
    },
    {
      "type": "function",
      "name": "renounceRole",
      "inputs": [
        {
          "name": "role",
          "type": "bytes32",
          "internalType": "bytes32"
        },
        {
          "name": "callerConfirmation",
          "type": "address",
          "internalType": "address"
        }
      ],
      "outputs": [],
      "stateMutability": "nonpayable"
    },
    {
      "type": "function",
      "name": "revokeRole",
      "inputs": [
        {
          "name": "role",
          "type": "bytes32",
          "internalType": "bytes32"
        },
        {
          "name": "account",
          "type": "address",
          "internalType": "address"
        }
      ],
      "outputs": [],
      "stateMutability": "nonpayable"
    },
    {
      "type": "function",
      "name": "rlsToken",
      "inputs": [],
      "outputs": [
        {
          "name": "",
          "type": "address",
          "internalType": "address"
        }
      ],
      "stateMutability": "view"
    },
    {
      "type": "function",
      "name": "setAccumulator",
      "inputs": [
        {
          "name": "newAccumulator",
          "type": "address",
          "internalType": "address"
        }
      ],
      "outputs": [],
      "stateMutability": "nonpayable"
    },
    {
      "type": "function",
      "name": "setConsensusRegistry",
      "inputs": [
        {
          "name": "newRegistry",
          "type": "address",
          "internalType": "address"
        }
      ],
      "outputs": [],
      "stateMutability": "nonpayable"
    },
    {
      "type": "function",
      "name": "setDelegationPool",
      "inputs": [
        {
          "name": "newPool",
          "type": "address",
          "internalType": "address"
        }
      ],
      "outputs": [],
      "stateMutability": "nonpayable"
    },
    {
      "type": "function",
      "name": "setFeeAggregator",
      "inputs": [
        {
          "name": "newAggregator",
          "type": "address",
          "internalType": "address"
        }
      ],
      "outputs": [],
      "stateMutability": "nonpayable"
    },
    {
      "type": "function",
      "name": "setRewardRecipient",
      "inputs": [
        {
          "name": "recipient",
          "type": "address",
          "internalType": "address"
        }
      ],
      "outputs": [],
      "stateMutability": "nonpayable"
    },
    {
      "type": "function",
      "name": "setTargetApyBps",
      "inputs": [
        {
          "name": "newApyBps",
          "type": "uint256",
          "internalType": "uint256"
        }
      ],
      "outputs": [],
      "stateMutability": "nonpayable"
    },
    {
      "type": "function",
      "name": "supportsInterface",
      "inputs": [
        {
          "name": "interfaceId",
          "type": "bytes4",
          "internalType": "bytes4"
        }
      ],
      "outputs": [
        {
          "name": "",
          "type": "bool",
          "internalType": "bool"
        }
      ],
      "stateMutability": "view"
    },
    {
      "type": "function",
      "name": "targetApyBps",
      "inputs": [],
      "outputs": [
        {
          "name": "",
          "type": "uint256",
          "internalType": "uint256"
        }
      ],
      "stateMutability": "view"
    },
    {
      "type": "function",
      "name": "totalPendingRewards",
      "inputs": [],
      "outputs": [
        {
          "name": "",
          "type": "uint256",
          "internalType": "uint256"
        }
      ],
      "stateMutability": "view"
    },
    {
      "type": "function",
      "name": "upgradeToAndCall",
      "inputs": [
        {
          "name": "newImplementation",
          "type": "address",
          "internalType": "address"
        },
        {
          "name": "data",
          "type": "bytes",
          "internalType": "bytes"
        }
      ],
      "outputs": [],
      "stateMutability": "payable"
    },
    {
      "type": "event",
      "name": "AccumulatorTopUp",
      "inputs": [
        {
          "name": "pullAmount",
          "type": "uint256",
          "indexed": false,
          "internalType": "uint256"
        },
        {
          "name": "targetReward",
          "type": "uint256",
          "indexed": false,
          "internalType": "uint256"
        },
        {
          "name": "totalRewards",
          "type": "uint256",
          "indexed": false,
          "internalType": "uint256"
        }
      ],
      "anonymous": false
    },
    {
      "type": "event",
      "name": "AccumulatorTopUpFailed",
      "inputs": [
        {
          "name": "pullAmount",
          "type": "uint256",
          "indexed": false,
          "internalType": "uint256"
        }
      ],
      "anonymous": false
    },
    {
      "type": "event",
      "name": "AccumulatorUpdated",
      "inputs": [
        {
          "name": "oldAccumulator",
          "type": "address",
          "indexed": true,
          "internalType": "address"
        },
        {
          "name": "newAccumulator",
          "type": "address",
          "indexed": true,
          "internalType": "address"
        }
      ],
      "anonymous": false
    },
    {
      "type": "event",
      "name": "ConsensusRegistryUpdated",
      "inputs": [
        {
          "name": "oldRegistry",
          "type": "address",
          "indexed": true,
          "internalType": "address"
        },
        {
          "name": "newRegistry",
          "type": "address",
          "indexed": true,
          "internalType": "address"
        }
      ],
      "anonymous": false
    },
    {
      "type": "event",
      "name": "DelegationPoolUpdated",
      "inputs": [
        {
          "name": "oldPool",
          "type": "address",
          "indexed": true,
          "internalType": "address"
        },
        {
          "name": "newPool",
          "type": "address",
          "indexed": true,
          "internalType": "address"
        }
      ],
      "anonymous": false
    },
    {
      "type": "event",
      "name": "FeeAggregatorUpdated",
      "inputs": [
        {
          "name": "oldAggregator",
          "type": "address",
          "indexed": true,
          "internalType": "address"
        },
        {
          "name": "newAggregator",
          "type": "address",
          "indexed": true,
          "internalType": "address"
        }
      ],
      "anonymous": false
    },
    {
      "type": "event",
      "name": "Initialized",
      "inputs": [
        {
          "name": "version",
          "type": "uint64",
          "indexed": false,
          "internalType": "uint64"
        }
      ],
      "anonymous": false
    },
    {
      "type": "event",
      "name": "PendingRewardsClaimed",
      "inputs": [
        {
          "name": "validator",
          "type": "address",
          "indexed": true,
          "internalType": "address"
        },
        {
          "name": "amount",
          "type": "uint256",
          "indexed": false,
          "internalType": "uint256"
        }
      ],
      "anonymous": false
    },
    {
      "type": "event",
      "name": "RewardRecipientUpdated",
      "inputs": [
        {
          "name": "validator",
          "type": "address",
          "indexed": true,
          "internalType": "address"
        },
        {
          "name": "oldRecipient",
          "type": "address",
          "indexed": true,
          "internalType": "address"
        },
        {
          "name": "newRecipient",
          "type": "address",
          "indexed": true,
          "internalType": "address"
        }
      ],
      "anonymous": false
    },
    {
      "type": "event",
      "name": "RewardsDistributed",
      "inputs": [
        {
          "name": "totalAmount",
          "type": "uint256",
          "indexed": false,
          "internalType": "uint256"
        },
        {
          "name": "validatorCount",
          "type": "uint256",
          "indexed": false,
          "internalType": "uint256"
        }
      ],
      "anonymous": false
    },
    {
      "type": "event",
      "name": "RewardsReceived",
      "inputs": [
        {
          "name": "amount",
          "type": "uint256",
          "indexed": false,
          "internalType": "uint256"
        }
      ],
      "anonymous": false
    },
    {
      "type": "event",
      "name": "RoleAdminChanged",
      "inputs": [
        {
          "name": "role",
          "type": "bytes32",
          "indexed": true,
          "internalType": "bytes32"
        },
        {
          "name": "previousAdminRole",
          "type": "bytes32",
          "indexed": true,
          "internalType": "bytes32"
        },
        {
          "name": "newAdminRole",
          "type": "bytes32",
          "indexed": true,
          "internalType": "bytes32"
        }
      ],
      "anonymous": false
    },
    {
      "type": "event",
      "name": "RoleGranted",
      "inputs": [
        {
          "name": "role",
          "type": "bytes32",
          "indexed": true,
          "internalType": "bytes32"
        },
        {
          "name": "account",
          "type": "address",
          "indexed": true,
          "internalType": "address"
        },
        {
          "name": "sender",
          "type": "address",
          "indexed": true,
          "internalType": "address"
        }
      ],
      "anonymous": false
    },
    {
      "type": "event",
      "name": "RoleRevoked",
      "inputs": [
        {
          "name": "role",
          "type": "bytes32",
          "indexed": true,
          "internalType": "bytes32"
        },
        {
          "name": "account",
          "type": "address",
          "indexed": true,
          "internalType": "address"
        },
        {
          "name": "sender",
          "type": "address",
          "indexed": true,
          "internalType": "address"
        }
      ],
      "anonymous": false
    },
    {
      "type": "event",
      "name": "TargetApyBpsUpdated",
      "inputs": [
        {
          "name": "oldApyBps",
          "type": "uint256",
          "indexed": false,
          "internalType": "uint256"
        },
        {
          "name": "newApyBps",
          "type": "uint256",
          "indexed": false,
          "internalType": "uint256"
        }
      ],
      "anonymous": false
    },
    {
      "type": "event",
      "name": "Upgraded",
      "inputs": [
        {
          "name": "implementation",
          "type": "address",
          "indexed": true,
          "internalType": "address"
        }
      ],
      "anonymous": false
    },
    {
      "type": "event",
      "name": "ValidatorRewardDistributed",
      "inputs": [
        {
          "name": "validator",
          "type": "address",
          "indexed": true,
          "internalType": "address"
        },
        {
          "name": "validatorShare",
          "type": "uint256",
          "indexed": false,
          "internalType": "uint256"
        },
        {
          "name": "poolShare",
          "type": "uint256",
          "indexed": false,
          "internalType": "uint256"
        }
      ],
      "anonymous": false
    },
    {
      "type": "error",
      "name": "AccessControlBadConfirmation",
      "inputs": []
    },
    {
      "type": "error",
      "name": "AccessControlUnauthorizedAccount",
      "inputs": [
        {
          "name": "account",
          "type": "address",
          "internalType": "address"
        },
        {
          "name": "neededRole",
          "type": "bytes32",
          "internalType": "bytes32"
        }
      ]
    },
    {
      "type": "error",
      "name": "AddressEmptyCode",
      "inputs": [
        {
          "name": "target",
          "type": "address",
          "internalType": "address"
        }
      ]
    },
    {
      "type": "error",
      "name": "ERC1967InvalidImplementation",
      "inputs": [
        {
          "name": "implementation",
          "type": "address",
          "internalType": "address"
        }
      ]
    },
    {
      "type": "error",
      "name": "ERC1967NonPayable",
      "inputs": []
    },
    {
      "type": "error",
      "name": "FailedCall",
      "inputs": []
    },
    {
      "type": "error",
      "name": "InsufficientBalance",
      "inputs": [
        {
          "name": "requested",
          "type": "uint256",
          "internalType": "uint256"
        },
        {
          "name": "available",
          "type": "uint256",
          "internalType": "uint256"
        }
      ]
    },
    {
      "type": "error",
      "name": "InvalidApyBps",
      "inputs": []
    },
    {
      "type": "error",
      "name": "InvalidInitialization",
      "inputs": []
    },
    {
      "type": "error",
      "name": "NoActiveValidators",
      "inputs": []
    },
    {
      "type": "error",
      "name": "NotAuthorized",
      "inputs": []
    },
    {
      "type": "error",
      "name": "NotInitializing",
      "inputs": []
    },
    {
      "type": "error",
      "name": "OnlyFeeAggregator",
      "inputs": []
    },
    {
      "type": "error",
      "name": "OnlySystemCall",
      "inputs": [
        {
          "name": "invalidCaller",
          "type": "address",
          "internalType": "address"
        }
      ]
    },
    {
      "type": "error",
      "name": "Reentrancy",
      "inputs": []
    },
    {
      "type": "error",
      "name": "SafeERC20FailedOperation",
      "inputs": [
        {
          "name": "token",
          "type": "address",
          "internalType": "address"
        }
      ]
    },
    {
      "type": "error",
      "name": "UUPSUnauthorizedCallContext",
      "inputs": []
    },
    {
      "type": "error",
      "name": "UUPSUnsupportedProxiableUUID",
      "inputs": [
        {
          "name": "slot",
          "type": "bytes32",
          "internalType": "bytes32"
        }
      ]
    },
    {
      "type": "error",
      "name": "ZeroAddress",
      "inputs": []
    },
    {
      "type": "error",
      "name": "ZeroAmount",
      "inputs": []
    }
  ],
  "bytecode": {
    "object": "0x60a060405230608052348015610013575f80fd5b5061001c610021565b6100d3565b7ff0c57e16840df040f15088dc2f81fe391c3923bec73e23a9662efc9c229c6a00805468010000000000000000900460ff16156100715760405163f92ee8a960e01b815260040160405180910390fd5b80546001600160401b03908116146100d05780546001600160401b0319166001600160401b0390811782556040519081527fc7f505b2f371ae2175ee4913f4499e1f2633a7b5936321eed1cdaeb6115181d29060200160405180910390a15b50565b608051612dbb6100f95f395f8181611b4801528181611b710152611cbc0152612dbb5ff3fe6080604052600436106101e6575f3560e01c80638188a26411610108578063cecb13ac1161009d578063ec1371f21161006d578063ec1371f21461052a578063ef5cfb8c1461053e578063f6ed20171461055d578063f72c0d8b1461057c578063fe9b5697146105af575f80fd5b8063cecb13ac146104ae578063d547741f146104cd578063d77868da146104ec578063e521136f1461050b575f80fd5b8063ad3cb1cc116100d8578063ad3cb1cc14610434578063afcda28514610471578063b505f3ed14610485578063bdf8223714610499575f80fd5b80638188a264146103da5780638265ea06146103ee57806391d1485414610402578063a217fddf14610421575f80fd5b806336568abe1161017e5780635f3e849f1161014e5780635f3e849f146103745780636f4a2cd014610393578063750c136a146103a75780637f4b4102146103bb575f80fd5b806336568abe1461030f57806343923f6f1461032e5780634f1ef2861461034d57806352d1902d14610360575f80fd5b806315b358e0116101b957806315b358e01461028a578063248a9ca3146102a95780632f2ff15d146102d65780633434735f146102f5575f80fd5b806301032b86146101ea57806301ffc9a71461022657806303381154146102555780631459457a14610269575b5f80fd5b3480156101f5575f80fd5b5061020961020436600461255b565b6105ce565b6040516001600160a01b0390911681526020015b60405180910390f35b348015610231575f80fd5b50610245610240366004612576565b61060e565b604051901515815260200161021d565b348015610260575f80fd5b50610209610644565b348015610274575f80fd5b5061028861028336600461259d565b61065f565b005b348015610295575f80fd5b506102886102a436600461255b565b610864565b3480156102b4575f80fd5b506102c86102c336600461260a565b6108f4565b60405190815260200161021d565b3480156102e1575f80fd5b506102886102f0366004612621565b610914565b348015610300575f80fd5b506102096002600160a01b0381565b34801561031a575f80fd5b50610288610329366004612621565b610936565b348015610339575f80fd5b5061028861034836600461255b565b61096e565b61028861035b366004612726565b6109d7565b34801561036b575f80fd5b506102c86109f6565b34801561037f575f80fd5b5061028861038e3660046127b2565b610a11565b34801561039e575f80fd5b50610288610b51565b3480156103b2575f80fd5b50610209611420565b3480156103c6575f80fd5b506102886103d536600461260a565b61143b565b3480156103e5575f80fd5b506102096114bf565b3480156103f9575f80fd5b506102c86114d7565b34801561040d575f80fd5b5061024561041c366004612621565b6114e9565b34801561042c575f80fd5b506102c85f81565b34801561043f575f80fd5b50610464604051806040016040528060058152602001640352e302e360dc1b81525081565b60405161021d91906127f0565b34801561047c575f80fd5b5061020961151f565b348015610490575f80fd5b5061020961153a565b3480156104a4575f80fd5b506102c861271081565b3480156104b9575f80fd5b506102886104c836600461255b565b611555565b3480156104d8575f80fd5b506102886104e7366004612621565b6115be565b3480156104f7575f80fd5b5061028861050636600461260a565b6115da565b348015610516575f80fd5b5061028861052536600461255b565b611729565b348015610535575f80fd5b506102c8611797565b348015610549575f80fd5b5061028861055836600461255b565b6117a9565b348015610568575f80fd5b506102c861057736600461255b565b611906565b348015610587575f80fd5b506102c87f189ab7a9244df0848122154315af71fe140f3db0fe014031783b0946b8c9d2e381565b3480156105ba575f80fd5b506102886105c936600461255b565b611930565b5f806105d86119c0565b6001600160a01b038085165f90815260059290920160205260409091205416905080156106055780610607565b825b9392505050565b5f6001600160e01b03198216637965db0b60e01b148061063e57506301ffc9a760e01b6001600160e01b03198316145b92915050565b5f61064d6119c0565b601001546001600160a01b0316919050565b5f6106686119e4565b805490915060ff600160401b82041615906001600160401b03165f8115801561068e5750825b90505f826001600160401b031660011480156106a95750303b155b9050811580156106b7575080155b156106d55760405163f92ee8a960e01b815260040160405180910390fd5b845467ffffffffffffffff1916600117855583156106ff57845460ff60401b1916600160401b1785555b6001600160a01b038a166107265760405163d92e233d60e01b815260040160405180910390fd5b6001600160a01b03881661074d5760405163d92e233d60e01b815260040160405180910390fd5b6001600160a01b0386166107745760405163d92e233d60e01b815260040160405180910390fd5b61077c611a0c565b610784611a0c565b61078e5f87611a16565b506107b97f189ab7a9244df0848122154315af71fe140f3db0fe014031783b0946b8c9d2e387611a16565b505f6107c36119c0565b80546001600160a01b03808e166001600160a01b03199283161783556001830180548e83169084161790556002830180548d831690841617905560039092018054928b169290911691909117905550831561085857845460ff60401b19168555604051600181527fc7f505b2f371ae2175ee4913f4499e1f2633a7b5936321eed1cdaeb6115181d29060200160405180910390a15b50505050505050505050565b5f61086e81611ab7565b6001600160a01b0382166108955760405163d92e233d60e01b815260040160405180910390fd5b5f61089e6119c0565b6001810180546001600160a01b038681166001600160a01b031983168117909355604051939450169182907f5f93cfaedcfeead9f6922f03a6557cc9c40dd65f320e80dd4aa68fce736bf723905f90a350505050565b5f9081525f80516020612d8f833981519152602052604090206001015490565b61091d826108f4565b61092681611ab7565b6109308383611a16565b50505050565b6001600160a01b038116331461095f5760405163334bd91960e11b815260040160405180910390fd5b6109698282611ac4565b505050565b5f61097881611ab7565b5f6109816119c0565b6003810180546001600160a01b038681166001600160a01b031983168117909355604051939450169182907f75fc94c29a6ffe9db00f38dd07a469863ec11fb2ef120b30ad7fcf957225e9e2905f90a350505050565b6109df611b3d565b6109e882611bcb565b6109f28282611bf5565b5050565b5f6109ff611cb1565b505f80516020612d6f83398151915290565b5f610a1b81611ab7565b6001600160a01b038316610a425760405163d92e233d60e01b815260040160405180910390fd5b5f610a4b6119c0565b80549091506001600160a01b0390811690861603610b36575f81601201548260060154610a789190612839565b82546040516370a0823160e01b81523060048201529192505f916001600160a01b03909116906370a0823190602401602060405180830381865afa158015610ac2573d5f803e3d5ffd5b505050506040513d601f19601f82011682018060405250810190610ae6919061284c565b90505f828211610af6575f610b00565b610b008383612863565b905080861115610b325760405163cf47918160e01b815260048101879052602481018290526044015b60405180910390fd5b5050505b610b4a6001600160a01b0386168585611cfa565b5050505050565b336002600160a01b0314610b7a57604051637eb3357160e01b8152336004820152602401610b29565b3068929eee149b4bd212685403610b985763ab143c065f526004601cfd5b3068929eee149b4bd21268555f610bad6119c0565b90505f816006015490506060806060805f805f886002015f9054906101000a90046001600160a01b03166001600160a01b03166301b0d0226040518163ffffffff1660e01b81526004015f60405180830381865afa158015610c11573d5f803e3d5ffd5b505050506040513d5f823e601f3d908101601f19168201604052610c389190810190612916565b90505f8160400151118015610c4e575080515115155b15610ec35780518051602083015160408401519299509750909350806001600160401b03811115610c8157610c8161264f565b604051908082528060200260200182016040528015610caa578160200160208202803683370190505b509550806001600160401b03811115610cc557610cc561264f565b604051908082528060200260200182016040528015610cee578160200160208202803683370190505b5094505f5b81811015610eb05760028b015489515f916001600160a01b0316906315b5709a908c9085908110610d2657610d26612a0d565b60200260200101516040518263ffffffff1660e01b8152600401610d5991906001600160a01b0391909116815260200190565b606060405180830381865afa158015610d74573d5f803e3d5ffd5b505050506040513d601f19601f82011682018060405250810190610d989190612a21565b5091505080888381518110610daf57610daf612a0d565b602090810291909101015260038c01545f906001600160a01b031615610e6f5760038d01548b516001600160a01b039091169063187f92b6908d9086908110610dfa57610dfa612a0d565b60200260200101516040518263ffffffff1660e01b8152600401610e2d91906001600160a01b0391909116815260200190565b602060405180830381865afa158015610e48573d5f803e3d5ffd5b505050506040513d601f19601f82011682018060405250810190610e6c919061284c565b90505b80888481518110610e8257610e82612a0d565b6020908102919091010152610e978183612839565b610ea19087612839565b95505050806001019050610cf3565b50610ebb8984611d4c565b98505061128c565b60028901546040516346602f6d60e11b81525f916001600160a01b031690638cc05eda90610ef690600390600401612a4c565b5f60405180830381865afa158015610f10573d5f803e3d5ffd5b505050506040513d5f823e601f3d908101601f19168201604052610f379190810190612aff565b905080515f03610f5a576040516367c0fced60e01b815260040160405180910390fd5b8051806001600160401b03811115610f7457610f7461264f565b604051908082528060200260200182016040528015610f9d578160200160208202803683370190505b509850806001600160401b03811115610fb857610fb861264f565b604051908082528060200260200182016040528015610fe1578160200160208202803683370190505b509750806001600160401b03811115610ffc57610ffc61264f565b604051908082528060200260200182016040528015611025578160200160208202803683370190505b509650806001600160401b038111156110405761104061264f565b604051908082528060200260200182016040528015611069578160200160208202803683370190505b5095505f5b8181101561127c575f83828151811061108957611089612a0d565b602090810291909101810151015160028e0154604051630adab84d60e11b81526001600160a01b0380841660048301529293505f92909116906315b5709a90602401606060405180830381865afa1580156110e6573d5f803e3d5ffd5b505050506040513d601f19601f8201168201806040525081019061110a9190612a21565b509150505f806001600160a01b03168f6003015f9054906101000a90046001600160a01b03166001600160a01b0316146111af5760038f0154604051630c3fc95b60e11b81526001600160a01b0385811660048301529091169063187f92b690602401602060405180830381865afa158015611188573d5f803e3d5ffd5b505050506040513d601f19601f820116820180604052508101906111ac919061284c565b90505b828d85815181106111c2576111c2612a0d565b60200260200101906001600160a01b031690816001600160a01b031681525050818b85815181106111f5576111f5612a0d565b602002602001018181525050808a858151811061121457611214612a0d565b60209081029190910101526112298183612839565b8c858151811061123b5761123b612a0d565b6020026020010181815250508b848151811061125957611259612a0d565b60200260200101518961126c9190612839565b985050505080600101905061106e565b506112878a86611d4c565b995050505b825f036112ac576040516367c0fced60e01b815260040160405180910390fd5b875f036112f957604080515f80825260208201527f29e98ba00d07f171959c4ddcd2f3020debc7c52cf537a034d7e664340d098c6c910160405180910390a1505050505050505050611412565b5f805b88518110156113b2575f8589838151811061131957611319612a0d565b60200260200101518c61132c9190612c5f565b6113369190612c76565b9050805f0361134557506113aa565b61139c8a838151811061135a5761135a612a0d565b6020026020010151828a858151811061137557611375612a0d565b60200260200101518a868151811061138f5761138f612a0d565b6020026020010151612057565b6113a69084612839565b9250505b6001016112fc565b50888a6006015f8282546113c69190612863565b909155505087516040805183815260208101929092527f29e98ba00d07f171959c4ddcd2f3020debc7c52cf537a034d7e664340d098c6c910160405180910390a1505050505050505050505b3868929eee149b4bd2126855565b5f6114296119c0565b600101546001600160a01b0316919050565b5f61144581611ab7565b61271082111561146857604051635604054360e11b815260040160405180910390fd5b5f6114716119c0565b60118101805490859055604080518281526020810187905292935090917f4508407e8f3fe40fbac65b41d463dd9a623022bf7bda8520a0b4e046e0ff5019910160405180910390a150505050565b5f6114c86119c0565b546001600160a01b0316919050565b5f6114e06119c0565b60110154905090565b5f9182525f80516020612d8f833981519152602090815260408084206001600160a01b0393909316845291905290205460ff1690565b5f6115286119c0565b600201546001600160a01b0316919050565b5f6115436119c0565b600301546001600160a01b0316919050565b5f61155f81611ab7565b5f6115686119c0565b6010810180546001600160a01b038681166001600160a01b031983168117909355604051939450169182907f7ce126e5b5fa0e89f34c69be12f41ad914fa05058bf45e8894d8c468207d1bfd905f90a350505050565b6115c7826108f4565b6115d081611ab7565b6109308383611ac4565b6115e26119c0565b600101546001600160a01b0316331461160e57604051632679423960e11b815260040160405180910390fd5b805f0361162e57604051631f2a200560e01b815260040160405180910390fd5b5f6116376119c0565b905081816006015f82825461164c9190612839565b909155505080546040516370a0823160e01b81523060048201525f916001600160a01b0316906370a0823190602401602060405180830381865afa158015611696573d5f803e3d5ffd5b505050506040513d601f19601f820116820180604052508101906116ba919061284c565b905081600601548110156116f157600682015460405163cf47918160e01b8152600481019190915260248101829052604401610b29565b6040518381527fbb28dd7cd6be6f61828ea9158a04c5182c716a946a6d2f31f4864edb87471aa69060200160405180910390a1505050565b5f6117326119c0565b335f81815260058301602052604080822080546001600160a01b031981166001600160a01b03898116918217909355925195965016939092849290917f8dace3a6f4c71cf6c3474ab5c732a14e533786678160dab44ff43619399838269190a4505050565b5f6117a06119c0565b60060154905090565b3068929eee149b4bd2126854036117c75763ab143c065f526004601cfd5b3068929eee149b4bd2126855336001600160a01b038216146117fc5760405163ea8e4eb560e01b815260040160405180910390fd5b5f6118056119c0565b6001600160a01b0383165f90815260048201602052604081205491925081900361184257604051631f2a200560e01b815260040160405180910390fd5b6001600160a01b0383165f9081526004830160205260408120819055601283018054839290611872908490612863565b90915550506001600160a01b038084165f908152600584016020526040902054168061189b5750825b82546118b1906001600160a01b03168284611cfa565b836001600160a01b03167f526104da193feb31ef111c840330dd674ae34338c5e2518f5299b34770afaa2e836040516118ec91815260200190565b60405180910390a25050503868929eee149b4bd212685550565b5f61190f6119c0565b6001600160a01b039092165f90815260049290920160205250604090205490565b5f61193a81611ab7565b6001600160a01b0382166119615760405163d92e233d60e01b815260040160405180910390fd5b5f61196a6119c0565b6002810180546001600160a01b038681166001600160a01b031983168117909355604051939450169182907f8485ffbbae1975cd8b2d3a7e0845466f3de7b1a88076f6869900347ab4395ad9905f90a350505050565b7f8a40cc0ccf5a2d030058c860d76601e04104947950ec7475e80ab15a7d69d60090565b5f807ff0c57e16840df040f15088dc2f81fe391c3923bec73e23a9662efc9c229c6a0061063e565b611a14612283565b565b5f5f80516020612d8f833981519152611a2f84846114e9565b611aae575f848152602082815260408083206001600160a01b03871684529091529020805460ff19166001179055611a643390565b6001600160a01b0316836001600160a01b0316857f2f8788117e7eff1d82e926ec794901d17c78024a50270940304540a733656f0d60405160405180910390a4600191505061063e565b5f91505061063e565b611ac181336122a8565b50565b5f5f80516020612d8f833981519152611add84846114e9565b15611aae575f848152602082815260408083206001600160a01b0387168085529252808320805460ff1916905551339287917ff6391f5c32d9c69d2a47ea670b442974b53935d1edc7fd64eb21e047a839171b9190a4600191505061063e565b306001600160a01b037f0000000000000000000000000000000000000000000000000000000000000000161480611bad57507f00000000000000000000000000000000000000000000000000000000000000006001600160a01b0316611ba16122e1565b6001600160a01b031614155b15611a145760405163703e46dd60e11b815260040160405180910390fd5b7f189ab7a9244df0848122154315af71fe140f3db0fe014031783b0946b8c9d2e36109f281611ab7565b816001600160a01b03166352d1902d6040518163ffffffff1660e01b8152600401602060405180830381865afa925050508015611c4f575060408051601f3d908101601f19168201909252611c4c9181019061284c565b60015b611c7757604051634c9c8ce360e01b81526001600160a01b0383166004820152602401610b29565b5f80516020612d6f8339815191528114611ca757604051632a87526960e21b815260048101829052602401610b29565b61096983836122f5565b306001600160a01b037f00000000000000000000000000000000000000000000000000000000000000001614611a145760405163703e46dd60e11b815260040160405180910390fd5b604080516001600160a01b038416602482015260448082018490528251808303909101815260649091019091526020810180516001600160e01b031663a9059cbb60e01b17905261096990849061234a565b5f80611d566119c0565b60108101549091506001600160a01b03161580611d7557506011810154155b80611d7e575082155b15611d8c578391505061063e565b60028101546040805163babc394f60e01b815290515f926001600160a01b03169163babc394f91600480830192869291908290030181865afa158015611dd4573d5f803e3d5ffd5b505050506040513d5f823e601f3d908101601f19168201604052611dfb9190810190612c95565b6040015163ffffffff1690505f64496cebb80082846011015487611e1f9190612c5f565b611e299190612c5f565b611e339190612c76565b9050858111611e475785935050505061063e565b5f611e528783612863565b845460108601546040516370a0823160e01b81526001600160a01b0391821660048201529293505f929116906370a0823190602401602060405180830381865afa158015611ea2573d5f803e3d5ffd5b505050506040513d601f19601f82011682018060405250810190611ec6919061284c565b90505f818310611ed65781611ed8565b825b9050801561204a57855460108701546040516323b872dd60e01b81526001600160a01b039182166004820152306024820152604481018490529116906323b872dd906064016020604051808303815f875af1925050508015611f57575060408051601f3d908101601f19168201909252611f5491810190612d3f565b60015b611f93576040518181527f4f81bcbccff37b8cc398169b222149b79d7a6ad372a2d71ec199778a9819d0fd9060200160405180910390a161204a565b80156120155781876006015f828254611fac9190612839565b909155507f7ebc6711fc955211a2ab303df7cfa20428fbce3af729e894f95e5c65cb3df07f90508286611fdf828e612839565b6040805193845260208401929092529082015260600160405180910390a1612007828b612839565b97505050505050505061063e565b6040518281527f4f81bcbccff37b8cc398169b222149b79d7a6ad372a2d71ec199778a9819d0fd9060200160405180910390a1505b5096979650505050505050565b5f835f0361206657505f61227b565b5f61206f6119c0565b90505f61207c8486612839565b90505f8411801561208c57505f81115b80156120a4575060038201546001600160a01b031615155b156121e9575f816120b58789612c5f565b6120bf9190612c76565b90505f6120cc8289612863565b9050801561215657600384015484546120f2916001600160a01b03918216911683611cfa565b6003840154604051632906d2db60e11b81526001600160a01b038b81166004830152602482018490529091169063520da5b6906044015f604051808303815f87803b15801561213f575f80fd5b505af1158015612151573d5f803e3d5ffd5b505050505b6001600160a01b0389165f9081526004850160205260408120805484929061217f908490612839565b9250508190555081846012015f8282546121999190612839565b909155505060408051838152602081018390526001600160a01b038b16917f9df64a32f4885a9694ddb40f542518e3c7a98fee9171111d39ef2c83fece398a910160405180910390a25050612275565b6001600160a01b0387165f90815260048301602052604081208054889290612212908490612839565b9250508190555085826012015f82825461222c9190612839565b9091555050604080518781525f60208201526001600160a01b038916917f9df64a32f4885a9694ddb40f542518e3c7a98fee9171111d39ef2c83fece398a910160405180910390a25b85925050505b949350505050565b61228b6123b6565b611a1457604051631afcd79f60e31b815260040160405180910390fd5b6122b282826114e9565b6109f25760405163e2517d3f60e01b81526001600160a01b038216600482015260248101839052604401610b29565b5f5f80516020612d6f8339815191526114c8565b6122fe826123cf565b6040516001600160a01b038316907fbc7cd75a20ee27fd9adebab32041f755214dbc6bffa90cc0225b39da2e5c2d3b905f90a2805115612342576109698282612432565b6109f26124a4565b5f8060205f8451602086015f885af180612369576040513d5f823e3d81fd5b50505f513d9150811561238057806001141561238d565b6001600160a01b0384163b155b1561093057604051635274afe760e01b81526001600160a01b0385166004820152602401610b29565b5f6123bf6119e4565b54600160401b900460ff16919050565b806001600160a01b03163b5f0361240457604051634c9c8ce360e01b81526001600160a01b0382166004820152602401610b29565b5f80516020612d6f83398151915280546001600160a01b0319166001600160a01b0392909216919091179055565b60605f80846001600160a01b03168460405161244e9190612d58565b5f60405180830381855af49150503d805f8114612486576040519150601f19603f3d011682016040523d82523d5f602084013e61248b565b606091505b509150915061249b8583836124c3565b95945050505050565b3415611a145760405163b398979f60e01b815260040160405180910390fd5b6060826124d8576124d38261251f565b610607565b81511580156124ef57506001600160a01b0384163b155b1561251857604051639996b31560e01b81526001600160a01b0385166004820152602401610b29565b5092915050565b80511561252e57805160208201fd5b60405163d6bda27560e01b815260040160405180910390fd5b6001600160a01b0381168114611ac1575f80fd5b5f6020828403121561256b575f80fd5b813561060781612547565b5f60208284031215612586575f80fd5b81356001600160e01b031981168114610607575f80fd5b5f805f805f60a086880312156125b1575f80fd5b85356125bc81612547565b945060208601356125cc81612547565b935060408601356125dc81612547565b925060608601356125ec81612547565b915060808601356125fc81612547565b809150509295509295909350565b5f6020828403121561261a575f80fd5b5035919050565b5f8060408385031215612632575f80fd5b82359150602083013561264481612547565b809150509250929050565b634e487b7160e01b5f52604160045260245ffd5b604051606081016001600160401b03811182821017156126855761268561264f565b60405290565b60405161010081016001600160401b03811182821017156126855761268561264f565b604051608081016001600160401b03811182821017156126855761268561264f565b604051601f8201601f191681016001600160401b03811182821017156126f8576126f861264f565b604052919050565b5f6001600160401b038211156127185761271861264f565b50601f01601f191660200190565b5f8060408385031215612737575f80fd5b823561274281612547565b915060208301356001600160401b0381111561275c575f80fd5b8301601f8101851361276c575f80fd5b803561277f61277a82612700565b6126d0565b818152866020838501011115612793575f80fd5b816020840160208301375f602083830101528093505050509250929050565b5f805f606084860312156127c4575f80fd5b83356127cf81612547565b925060208401356127df81612547565b929592945050506040919091013590565b602081525f82518060208401528060208501604085015e5f604082850101526040601f19601f83011684010191505092915050565b634e487b7160e01b5f52601160045260245ffd5b8082018082111561063e5761063e612825565b5f6020828403121561285c575f80fd5b5051919050565b8181038181111561063e5761063e612825565b5f6001600160401b0382111561288e5761288e61264f565b5060051b60200190565b80516128a381612547565b919050565b5f82601f8301126128b7575f80fd5b81516128c561277a82612876565b8082825260208201915060208360051b8601019250858311156128e6575f80fd5b602085015b8381101561290c5780516128fe81612547565b8352602092830192016128eb565b5095945050505050565b5f60208284031215612926575f80fd5b81516001600160401b0381111561293b575f80fd5b82016060818503121561294c575f80fd5b612954612663565b81516001600160401b03811115612969575f80fd5b612975868285016128a8565b82525060208201516001600160401b03811115612990575f80fd5b8201601f810186136129a0575f80fd5b80516129ae61277a82612876565b8082825260208201915060208360051b8501019250888311156129cf575f80fd5b6020840193505b828410156129f15783518252602093840193909101906129d6565b6020850152505050604091820151918101919091529392505050565b634e487b7160e01b5f52603260045260245ffd5b5f805f60608486031215612a33575f80fd5b5050815160208301516040909301519094929350919050565b6020810160078310612a6c57634e487b7160e01b5f52602160045260245ffd5b91905290565b5f82601f830112612a81575f80fd5b8151612a8f61277a82612700565b818152846020838601011115612aa3575f80fd5b8160208501602083015e5f918101602001919091529392505050565b805163ffffffff811681146128a3575f80fd5b8051600781106128a3575f80fd5b805180151581146128a3575f80fd5b805160ff811681146128a3575f80fd5b5f60208284031215612b0f575f80fd5b81516001600160401b03811115612b24575f80fd5b8201601f81018413612b34575f80fd5b8051612b4261277a82612876565b8082825260208201915060208360051b850101925086831115612b63575f80fd5b602084015b83811015612c545780516001600160401b03811115612b85575f80fd5b8501610100818a03601f19011215612b9b575f80fd5b612ba361268b565b60208201516001600160401b03811115612bbb575f80fd5b612bca8b602083860101612a72565b825250612bd960408301612898565b6020820152612bea60608301612abf565b6040820152612bfb60808301612abf565b6060820152612c0c60a08301612ad2565b6080820152612c1d60c08301612ae0565b60a0820152612c2e60e08301612ae0565b60c0820152612c406101008301612aef565b60e082015284525060209283019201612b68565b509695505050505050565b808202811582820484141761063e5761063e612825565b5f82612c9057634e487b7160e01b5f52601260045260245ffd5b500490565b5f60208284031215612ca5575f80fd5b81516001600160401b03811115612cba575f80fd5b820160808185031215612ccb575f80fd5b612cd36126ae565b81516001600160401b03811115612ce8575f80fd5b612cf4868285016128a8565b82525060208201516001600160401b0381168114612d10575f80fd5b6020820152612d2160408301612abf565b6040820152612d3260608301612aef565b6060820152949350505050565b5f60208284031215612d4f575f80fd5b61060782612ae0565b5f82518060208501845e5f92019182525091905056fe360894a13ba1a3210667c828492db98dca3e2076cc3735a920a3ca505d382bbc02dd7bc7dec4dceedda775e58dd541e08a116c6c53815c0bd028192f7b626800a164736f6c634300081a000a",
    "linkReferences": {}
  },
  "methodIdentifiers": {
    "DEFAULT_ADMIN_ROLE()": "a217fddf",
    "MAX_APY_BPS()": "bdf82237",
    "SYSTEM_ADDRESS()": "3434735f",
    "UPGRADER_ROLE()": "f72c0d8b",
    "UPGRADE_INTERFACE_VERSION()": "ad3cb1cc",
    "accumulator()": "03381154",
    "claimRewards(address)": "ef5cfb8c",
    "consensusRegistry()": "afcda285",
    "delegationPool()": "b505f3ed",
    "distributeRewards()": "6f4a2cd0",
    "feeAggregator()": "750c136a",
    "getPendingRewards(address)": "f6ed2017",
    "getRewardRecipient(address)": "01032b86",
    "getRoleAdmin(bytes32)": "248a9ca3",
    "grantRole(bytes32,address)": "2f2ff15d",
    "hasRole(bytes32,address)": "91d14854",
    "initialize(address,address,address,address,address)": "1459457a",
    "proxiableUUID()": "52d1902d",
    "receiveRewards(uint256)": "d77868da",
    "recoverTokens(address,address,uint256)": "5f3e849f",
    "renounceRole(bytes32,address)": "36568abe",
    "revokeRole(bytes32,address)": "d547741f",
    "rlsToken()": "8188a264",
    "setAccumulator(address)": "cecb13ac",
    "setConsensusRegistry(address)": "fe9b5697",
    "setDelegationPool(address)": "43923f6f",
    "setFeeAggregator(address)": "15b358e0",
    "setRewardRecipient(address)": "e521136f",
    "setTargetApyBps(uint256)": "7f4b4102",
    "supportsInterface(bytes4)": "01ffc9a7",
    "targetApyBps()": "8265ea06",
    "totalPendingRewards()": "ec1371f2",
    "upgradeToAndCall(address,bytes)": "4f1ef286"
  },
  "id": 111
}