{
  "abi": [
    {
      "type": "constructor",
      "inputs": [],
      "stateMutability": "nonpayable"
    },
    {
      "type": "function",
      "name": "BURNER_ROLE",
      "inputs": [],
      "outputs": [
        {
          "name": "",
          "type": "bytes32",
          "internalType": "bytes32"
        }
      ],
      "stateMutability": "view"
    },
    {
      "type": "function",
      "name": "DEFAULT_ADMIN_ROLE",
      "inputs": [],
      "outputs": [
        {
          "name": "",
          "type": "bytes32",
          "internalType": "bytes32"
        }
      ],
      "stateMutability": "view"
    },
    {
      "type": "function",
      "name": "DOMAIN_SEPARATOR",
      "inputs": [],
      "outputs": [
        {
          "name": "",
          "type": "bytes32",
          "internalType": "bytes32"
        }
      ],
      "stateMutability": "view"
    },
    {
      "type": "function",
      "name": "MAX_SUPPLY",
      "inputs": [],
      "outputs": [
        {
          "name": "",
          "type": "uint256",
          "internalType": "uint256"
        }
      ],
      "stateMutability": "view"
    },
    {
      "type": "function",
      "name": "MINTER_ROLE",
      "inputs": [],
      "outputs": [
        {
          "name": "",
          "type": "bytes32",
          "internalType": "bytes32"
        }
      ],
      "stateMutability": "view"
    },
    {
      "type": "function",
      "name": "PAUSER_ROLE",
      "inputs": [],
      "outputs": [
        {
          "name": "",
          "type": "bytes32",
          "internalType": "bytes32"
        }
      ],
      "stateMutability": "view"
    },
    {
      "type": "function",
      "name": "UPGRADER_ROLE",
      "inputs": [],
      "outputs": [
        {
          "name": "",
          "type": "bytes32",
          "internalType": "bytes32"
        }
      ],
      "stateMutability": "view"
    },
    {
      "type": "function",
      "name": "UPGRADE_INTERFACE_VERSION",
      "inputs": [],
      "outputs": [
        {
          "name": "",
          "type": "string",
          "internalType": "string"
        }
      ],
      "stateMutability": "view"
    },
    {
      "type": "function",
      "name": "allowance",
      "inputs": [
        {
          "name": "owner",
          "type": "address",
          "internalType": "address"
        },
        {
          "name": "spender",
          "type": "address",
          "internalType": "address"
        }
      ],
      "outputs": [
        {
          "name": "",
          "type": "uint256",
          "internalType": "uint256"
        }
      ],
      "stateMutability": "view"
    },
    {
      "type": "function",
      "name": "approve",
      "inputs": [
        {
          "name": "spender",
          "type": "address",
          "internalType": "address"
        },
        {
          "name": "value",
          "type": "uint256",
          "internalType": "uint256"
        }
      ],
      "outputs": [
        {
          "name": "",
          "type": "bool",
          "internalType": "bool"
        }
      ],
      "stateMutability": "nonpayable"
    },
    {
      "type": "function",
      "name": "balanceOf",
      "inputs": [
        {
          "name": "account",
          "type": "address",
          "internalType": "address"
        }
      ],
      "outputs": [
        {
          "name": "",
          "type": "uint256",
          "internalType": "uint256"
        }
      ],
      "stateMutability": "view"
    },
    {
      "type": "function",
      "name": "bridgePaused",
      "inputs": [],
      "outputs": [
        {
          "name": "",
          "type": "bool",
          "internalType": "bool"
        }
      ],
      "stateMutability": "view"
    },
    {
      "type": "function",
      "name": "burn",
      "inputs": [
        {
          "name": "value",
          "type": "uint256",
          "internalType": "uint256"
        }
      ],
      "outputs": [],
      "stateMutability": "nonpayable"
    },
    {
      "type": "function",
      "name": "burnFrom",
      "inputs": [
        {
          "name": "account",
          "type": "address",
          "internalType": "address"
        },
        {
          "name": "value",
          "type": "uint256",
          "internalType": "uint256"
        }
      ],
      "outputs": [],
      "stateMutability": "nonpayable"
    },
    {
      "type": "function",
      "name": "decimals",
      "inputs": [],
      "outputs": [
        {
          "name": "",
          "type": "uint8",
          "internalType": "uint8"
        }
      ],
      "stateMutability": "view"
    },
    {
      "type": "function",
      "name": "eip712Domain",
      "inputs": [],
      "outputs": [
        {
          "name": "fields",
          "type": "bytes1",
          "internalType": "bytes1"
        },
        {
          "name": "name",
          "type": "string",
          "internalType": "string"
        },
        {
          "name": "version",
          "type": "string",
          "internalType": "string"
        },
        {
          "name": "chainId",
          "type": "uint256",
          "internalType": "uint256"
        },
        {
          "name": "verifyingContract",
          "type": "address",
          "internalType": "address"
        },
        {
          "name": "salt",
          "type": "bytes32",
          "internalType": "bytes32"
        },
        {
          "name": "extensions",
          "type": "uint256[]",
          "internalType": "uint256[]"
        }
      ],
      "stateMutability": "view"
    },
    {
      "type": "function",
      "name": "getRoleAdmin",
      "inputs": [
        {
          "name": "role",
          "type": "bytes32",
          "internalType": "bytes32"
        }
      ],
      "outputs": [
        {
          "name": "",
          "type": "bytes32",
          "internalType": "bytes32"
        }
      ],
      "stateMutability": "view"
    },
    {
      "type": "function",
      "name": "grantRole",
      "inputs": [
        {
          "name": "role",
          "type": "bytes32",
          "internalType": "bytes32"
        },
        {
          "name": "account",
          "type": "address",
          "internalType": "address"
        }
      ],
      "outputs": [],
      "stateMutability": "nonpayable"
    },
    {
      "type": "function",
      "name": "hasRole",
      "inputs": [
        {
          "name": "role",
          "type": "bytes32",
          "internalType": "bytes32"
        },
        {
          "name": "account",
          "type": "address",
          "internalType": "address"
        }
      ],
      "outputs": [
        {
          "name": "",
          "type": "bool",
          "internalType": "bool"
        }
      ],
      "stateMutability": "view"
    },
    {
      "type": "function",
      "name": "initialize",
      "inputs": [
        {
          "name": "admin",
          "type": "address",
          "internalType": "address"
        },
        {
          "name": "treasury",
          "type": "address",
          "internalType": "address"
        },
        {
          "name": "initialSupply",
          "type": "uint256",
          "internalType": "uint256"
        }
      ],
      "outputs": [],
      "stateMutability": "nonpayable"
    },
    {
      "type": "function",
      "name": "initializeV2",
      "inputs": [],
      "outputs": [],
      "stateMutability": "nonpayable"
    },
    {
      "type": "function",
      "name": "mint",
      "inputs": [
        {
          "name": "receiver",
          "type": "address",
          "internalType": "address"
        },
        {
          "name": "amount",
          "type": "uint256",
          "internalType": "uint256"
        }
      ],
      "outputs": [],
      "stateMutability": "nonpayable"
    },
    {
      "type": "function",
      "name": "name",
      "inputs": [],
      "outputs": [
        {
          "name": "",
          "type": "string",
          "internalType": "string"
        }
      ],
      "stateMutability": "view"
    },
    {
      "type": "function",
      "name": "nonces",
      "inputs": [
        {
          "name": "owner",
          "type": "address",
          "internalType": "address"
        }
      ],
      "outputs": [
        {
          "name": "",
          "type": "uint256",
          "internalType": "uint256"
        }
      ],
      "stateMutability": "view"
    },
    {
      "type": "function",
      "name": "pause",
      "inputs": [],
      "outputs": [],
      "stateMutability": "nonpayable"
    },
    {
      "type": "function",
      "name": "pauseBridge",
      "inputs": [],
      "outputs": [],
      "stateMutability": "nonpayable"
    },
    {
      "type": "function",
      "name": "paused",
      "inputs": [],
      "outputs": [
        {
          "name": "",
          "type": "bool",
          "internalType": "bool"
        }
      ],
      "stateMutability": "view"
    },
    {
      "type": "function",
      "name": "permit",
      "inputs": [
        {
          "name": "owner",
          "type": "address",
          "internalType": "address"
        },
        {
          "name": "spender",
          "type": "address",
          "internalType": "address"
        },
        {
          "name": "value",
          "type": "uint256",
          "internalType": "uint256"
        },
        {
          "name": "deadline",
          "type": "uint256",
          "internalType": "uint256"
        },
        {
          "name": "v",
          "type": "uint8",
          "internalType": "uint8"
        },
        {
          "name": "r",
          "type": "bytes32",
          "internalType": "bytes32"
        },
        {
          "name": "s",
          "type": "bytes32",
          "internalType": "bytes32"
        }
      ],
      "outputs": [],
      "stateMutability": "nonpayable"
    },
    {
      "type": "function",
      "name": "proxiableUUID",
      "inputs": [],
      "outputs": [
        {
          "name": "",
          "type": "bytes32",
          "internalType": "bytes32"
        }
      ],
      "stateMutability": "view"
    },
    {
      "type": "function",
      "name": "renounceRole",
      "inputs": [
        {
          "name": "role",
          "type": "bytes32",
          "internalType": "bytes32"
        },
        {
          "name": "callerConfirmation",
          "type": "address",
          "internalType": "address"
        }
      ],
      "outputs": [],
      "stateMutability": "nonpayable"
    },
    {
      "type": "function",
      "name": "revokeRole",
      "inputs": [
        {
          "name": "role",
          "type": "bytes32",
          "internalType": "bytes32"
        },
        {
          "name": "account",
          "type": "address",
          "internalType": "address"
        }
      ],
      "outputs": [],
      "stateMutability": "nonpayable"
    },
    {
      "type": "function",
      "name": "supportsInterface",
      "inputs": [
        {
          "name": "interfaceId",
          "type": "bytes4",
          "internalType": "bytes4"
        }
      ],
      "outputs": [
        {
          "name": "",
          "type": "bool",
          "internalType": "bool"
        }
      ],
      "stateMutability": "view"
    },
    {
      "type": "function",
      "name": "symbol",
      "inputs": [],
      "outputs": [
        {
          "name": "",
          "type": "string",
          "internalType": "string"
        }
      ],
      "stateMutability": "view"
    },
    {
      "type": "function",
      "name": "totalSupply",
      "inputs": [],
      "outputs": [
        {
          "name": "",
          "type": "uint256",
          "internalType": "uint256"
        }
      ],
      "stateMutability": "view"
    },
    {
      "type": "function",
      "name": "transfer",
      "inputs": [
        {
          "name": "to",
          "type": "address",
          "internalType": "address"
        },
        {
          "name": "value",
          "type": "uint256",
          "internalType": "uint256"
        }
      ],
      "outputs": [
        {
          "name": "",
          "type": "bool",
          "internalType": "bool"
        }
      ],
      "stateMutability": "nonpayable"
    },
    {
      "type": "function",
      "name": "transferFrom",
      "inputs": [
        {
          "name": "from",
          "type": "address",
          "internalType": "address"
        },
        {
          "name": "to",
          "type": "address",
          "internalType": "address"
        },
        {
          "name": "value",
          "type": "uint256",
          "internalType": "uint256"
        }
      ],
      "outputs": [
        {
          "name": "",
          "type": "bool",
          "internalType": "bool"
        }
      ],
      "stateMutability": "nonpayable"
    },
    {
      "type": "function",
      "name": "unpause",
      "inputs": [],
      "outputs": [],
      "stateMutability": "nonpayable"
    },
    {
      "type": "function",
      "name": "unpauseBridge",
      "inputs": [],
      "outputs": [],
      "stateMutability": "nonpayable"
    },
    {
      "type": "function",
      "name": "upgradeToAndCall",
      "inputs": [
        {
          "name": "newImplementation",
          "type": "address",
          "internalType": "address"
        },
        {
          "name": "data",
          "type": "bytes",
          "internalType": "bytes"
        }
      ],
      "outputs": [],
      "stateMutability": "payable"
    },
    {
      "type": "function",
      "name": "version",
      "inputs": [],
      "outputs": [
        {
          "name": "",
          "type": "string",
          "internalType": "string"
        }
      ],
      "stateMutability": "pure"
    },
    {
      "type": "event",
      "name": "Approval",
      "inputs": [
        {
          "name": "owner",
          "type": "address",
          "indexed": true,
          "internalType": "address"
        },
        {
          "name": "spender",
          "type": "address",
          "indexed": true,
          "internalType": "address"
        },
        {
          "name": "value",
          "type": "uint256",
          "indexed": false,
          "internalType": "uint256"
        }
      ],
      "anonymous": false
    },
    {
      "type": "event",
      "name": "BridgePaused",
      "inputs": [],
      "anonymous": false
    },
    {
      "type": "event",
      "name": "BridgeUnpaused",
      "inputs": [],
      "anonymous": false
    },
    {
      "type": "event",
      "name": "EIP712DomainChanged",
      "inputs": [],
      "anonymous": false
    },
    {
      "type": "event",
      "name": "Initialized",
      "inputs": [
        {
          "name": "version",
          "type": "uint64",
          "indexed": false,
          "internalType": "uint64"
        }
      ],
      "anonymous": false
    },
    {
      "type": "event",
      "name": "Paused",
      "inputs": [
        {
          "name": "account",
          "type": "address",
          "indexed": false,
          "internalType": "address"
        }
      ],
      "anonymous": false
    },
    {
      "type": "event",
      "name": "RoleAdminChanged",
      "inputs": [
        {
          "name": "role",
          "type": "bytes32",
          "indexed": true,
          "internalType": "bytes32"
        },
        {
          "name": "previousAdminRole",
          "type": "bytes32",
          "indexed": true,
          "internalType": "bytes32"
        },
        {
          "name": "newAdminRole",
          "type": "bytes32",
          "indexed": true,
          "internalType": "bytes32"
        }
      ],
      "anonymous": false
    },
    {
      "type": "event",
      "name": "RoleGranted",
      "inputs": [
        {
          "name": "role",
          "type": "bytes32",
          "indexed": true,
          "internalType": "bytes32"
        },
        {
          "name": "account",
          "type": "address",
          "indexed": true,
          "internalType": "address"
        },
        {
          "name": "sender",
          "type": "address",
          "indexed": true,
          "internalType": "address"
        }
      ],
      "anonymous": false
    },
    {
      "type": "event",
      "name": "RoleRevoked",
      "inputs": [
        {
          "name": "role",
          "type": "bytes32",
          "indexed": true,
          "internalType": "bytes32"
        },
        {
          "name": "account",
          "type": "address",
          "indexed": true,
          "internalType": "address"
        },
        {
          "name": "sender",
          "type": "address",
          "indexed": true,
          "internalType": "address"
        }
      ],
      "anonymous": false
    },
    {
      "type": "event",
      "name": "TokensMinted",
      "inputs": [
        {
          "name": "receiver",
          "type": "address",
          "indexed": true,
          "internalType": "address"
        },
        {
          "name": "amount",
          "type": "uint256",
          "indexed": false,
          "internalType": "uint256"
        }
      ],
      "anonymous": false
    },
    {
      "type": "event",
      "name": "Transfer",
      "inputs": [
        {
          "name": "from",
          "type": "address",
          "indexed": true,
          "internalType": "address"
        },
        {
          "name": "to",
          "type": "address",
          "indexed": true,
          "internalType": "address"
        },
        {
          "name": "value",
          "type": "uint256",
          "indexed": false,
          "internalType": "uint256"
        }
      ],
      "anonymous": false
    },
    {
      "type": "event",
      "name": "Unpaused",
      "inputs": [
        {
          "name": "account",
          "type": "address",
          "indexed": false,
          "internalType": "address"
        }
      ],
      "anonymous": false
    },
    {
      "type": "event",
      "name": "Upgraded",
      "inputs": [
        {
          "name": "implementation",
          "type": "address",
          "indexed": true,
          "internalType": "address"
        }
      ],
      "anonymous": false
    },
    {
      "type": "error",
      "name": "AccessControlBadConfirmation",
      "inputs": []
    },
    {
      "type": "error",
      "name": "AccessControlUnauthorizedAccount",
      "inputs": [
        {
          "name": "account",
          "type": "address",
          "internalType": "address"
        },
        {
          "name": "neededRole",
          "type": "bytes32",
          "internalType": "bytes32"
        }
      ]
    },
    {
      "type": "error",
      "name": "AddressEmptyCode",
      "inputs": [
        {
          "name": "target",
          "type": "address",
          "internalType": "address"
        }
      ]
    },
    {
      "type": "error",
      "name": "BridgeOperationsPaused",
      "inputs": []
    },
    {
      "type": "error",
      "name": "ECDSAInvalidSignature",
      "inputs": []
    },
    {
      "type": "error",
      "name": "ECDSAInvalidSignatureLength",
      "inputs": [
        {
          "name": "length",
          "type": "uint256",
          "internalType": "uint256"
        }
      ]
    },
    {
      "type": "error",
      "name": "ECDSAInvalidSignatureS",
      "inputs": [
        {
          "name": "s",
          "type": "bytes32",
          "internalType": "bytes32"
        }
      ]
    },
    {
      "type": "error",
      "name": "ERC1967InvalidImplementation",
      "inputs": [
        {
          "name": "implementation",
          "type": "address",
          "internalType": "address"
        }
      ]
    },
    {
      "type": "error",
      "name": "ERC1967NonPayable",
      "inputs": []
    },
    {
      "type": "error",
      "name": "ERC20InsufficientAllowance",
      "inputs": [
        {
          "name": "spender",
          "type": "address",
          "internalType": "address"
        },
        {
          "name": "allowance",
          "type": "uint256",
          "internalType": "uint256"
        },
        {
          "name": "needed",
          "type": "uint256",
          "internalType": "uint256"
        }
      ]
    },
    {
      "type": "error",
      "name": "ERC20InsufficientBalance",
      "inputs": [
        {
          "name": "sender",
          "type": "address",
          "internalType": "address"
        },
        {
          "name": "balance",
          "type": "uint256",
          "internalType": "uint256"
        },
        {
          "name": "needed",
          "type": "uint256",
          "internalType": "uint256"
        }
      ]
    },
    {
      "type": "error",
      "name": "ERC20InvalidApprover",
      "inputs": [
        {
          "name": "approver",
          "type": "address",
          "internalType": "address"
        }
      ]
    },
    {
      "type": "error",
      "name": "ERC20InvalidReceiver",
      "inputs": [
        {
          "name": "receiver",
          "type": "address",
          "internalType": "address"
        }
      ]
    },
    {
      "type": "error",
      "name": "ERC20InvalidSender",
      "inputs": [
        {
          "name": "sender",
          "type": "address",
          "internalType": "address"
        }
      ]
    },
    {
      "type": "error",
      "name": "ERC20InvalidSpender",
      "inputs": [
        {
          "name": "spender",
          "type": "address",
          "internalType": "address"
        }
      ]
    },
    {
      "type": "error",
      "name": "ERC2612ExpiredSignature",
      "inputs": [
        {
          "name": "deadline",
          "type": "uint256",
          "internalType": "uint256"
        }
      ]
    },
    {
      "type": "error",
      "name": "ERC2612InvalidSigner",
      "inputs": [
        {
          "name": "signer",
          "type": "address",
          "internalType": "address"
        },
        {
          "name": "owner",
          "type": "address",
          "internalType": "address"
        }
      ]
    },
    {
      "type": "error",
      "name": "EnforcedPause",
      "inputs": []
    },
    {
      "type": "error",
      "name": "ExpectedPause",
      "inputs": []
    },
    {
      "type": "error",
      "name": "FailedCall",
      "inputs": []
    },
    {
      "type": "error",
      "name": "InvalidAccountNonce",
      "inputs": [
        {
          "name": "account",
          "type": "address",
          "internalType": "address"
        },
        {
          "name": "currentNonce",
          "type": "uint256",
          "internalType": "uint256"
        }
      ]
    },
    {
      "type": "error",
      "name": "InvalidAddress",
      "inputs": []
    },
    {
      "type": "error",
      "name": "InvalidInitialization",
      "inputs": []
    },
    {
      "type": "error",
      "name": "MaxSupplyExceeded",
      "inputs": []
    },
    {
      "type": "error",
      "name": "NotInitializing",
      "inputs": []
    },
    {
      "type": "error",
      "name": "UUPSUnauthorizedCallContext",
      "inputs": []
    },
    {
      "type": "error",
      "name": "UUPSUnsupportedProxiableUUID",
      "inputs": [
        {
          "name": "slot",
          "type": "bytes32",
          "internalType": "bytes32"
        }
      ]
    },
    {
      "type": "error",
      "name": "ZeroAmount",
      "inputs": []
    }
  ],
  "bytecode": {
    "object": "0x60a060405230608052348015610013575f80fd5b5061001c610021565b6100d3565b7ff0c57e16840df040f15088dc2f81fe391c3923bec73e23a9662efc9c229c6a00805468010000000000000000900460ff16156100715760405163f92ee8a960e01b815260040160405180910390fd5b80546001600160401b03908116146100d05780546001600160401b0319166001600160401b0390811782556040519081527fc7f505b2f371ae2175ee4913f4499e1f2633a7b5936321eed1cdaeb6115181d29060200160405180910390a15b50565b6080516126f96100f95f395f81816114df01528181611508015261166901526126f95ff3fe608060405260043610610233575f3560e01c80635cd8a76b11610129578063a217fddf116100a8578063d53913931161006d578063d53913931461065c578063d547741f1461067c578063dd62ed3e1461069b578063e63ab1e9146106ba578063f72c0d8b146106da575f80fd5b8063a217fddf146105c7578063a82f143c146105da578063a9059cbb146105ee578063ad3cb1cc1461060d578063d505accf1461063d575f80fd5b80637ecebe00116100ee5780637ecebe001461053a5780638456cb591461055957806384b0196e1461056d57806391d148541461059457806395d89b41146105b3575f80fd5b80635cd8a76b146104bc5780636ccf20d5146104d057806370a08231146104e857806379cc6790146105075780637dd0480f14610526575f80fd5b806332cb6b0c116101b557806342966c681161017a57806342966c68146104265780634f1ef2861461044557806352d1902d1461045857806354fd4d501461046c5780635c975abb14610499575f80fd5b806332cb6b0c146103a15780633644e515146103c057806336568abe146103d45780633f4ba83a146103f357806340c10f1914610407575f80fd5b806323b872dd116101fb57806323b872dd14610309578063248a9ca314610328578063282c51f3146103475780632f2ff15d14610367578063313ce56714610386575f80fd5b806301ffc9a71461023757806306fdde031461026b578063095ea7b31461028c5780631794bb3c146102ab57806318160ddd146102cc575b5f80fd5b348015610242575f80fd5b50610256610251366004612114565b61070d565b60405190151581526020015b60405180910390f35b348015610276575f80fd5b5061027f610743565b6040516102629190612169565b348015610297575f80fd5b506102566102a6366004612196565b6107e8565b3480156102b6575f80fd5b506102ca6102c53660046121be565b6107ff565b005b3480156102d7575f80fd5b507f52c63247e1f47db19d5ce0460030c497f067ca4cebf71ba98eeadabe20bace02545b604051908152602001610262565b348015610314575f80fd5b506102566103233660046121be565b610a82565b348015610333575f80fd5b506102fb6103423660046121f8565b610aa7565b348015610352575f80fd5b506102fb5f805160206125ed83398151915281565b348015610372575f80fd5b506102ca61038136600461220f565b610ac7565b348015610391575f80fd5b5060405160128152602001610262565b3480156103ac575f80fd5b506102fb6b204fce5e3e2502611000000081565b3480156103cb575f80fd5b506102fb610ae9565b3480156103df575f80fd5b506102ca6103ee36600461220f565b610af7565b3480156103fe575f80fd5b506102ca610b2f565b348015610412575f80fd5b506102ca610421366004612196565b610b51565b348015610431575f80fd5b506102ca6104403660046121f8565b610c60565b6102ca61045336600461224d565b610c89565b348015610463575f80fd5b506102fb610ca8565b348015610477575f80fd5b506040805180820190915260058152640322e302e360dc1b602082015261027f565b3480156104a4575f80fd5b505f805160206126cd8339815191525460ff16610256565b3480156104c7575f80fd5b506102ca610cc3565b3480156104db575f80fd5b505f546102569060ff1681565b3480156104f3575f80fd5b506102fb610502366004612311565b610d8d565b348015610512575f80fd5b506102ca610521366004612196565b610dbd565b348015610531575f80fd5b506102ca610e2a565b348015610545575f80fd5b506102fb610554366004612311565b610e77565b348015610564575f80fd5b506102ca610e81565b348015610578575f80fd5b50610581610ea0565b604051610262979695949392919061232a565b34801561059f575f80fd5b506102566105ae36600461220f565b610f4e565b3480156105be575f80fd5b5061027f610f84565b3480156105d2575f80fd5b506102fb5f81565b3480156105e5575f80fd5b506102ca610fc2565b3480156105f9575f80fd5b50610256610608366004612196565b61100c565b348015610618575f80fd5b5061027f604051806040016040528060058152602001640352e302e360dc1b81525081565b348015610648575f80fd5b506102ca6106573660046123c0565b611019565b348015610667575f80fd5b506102fb5f8051602061268d83398151915281565b348015610687575f80fd5b506102ca61069636600461220f565b61116e565b3480156106a6575f80fd5b506102fb6106b536600461242d565b61118a565b3480156106c5575f80fd5b506102fb5f8051602061266d83398151915281565b3480156106e5575f80fd5b506102fb7f189ab7a9244df0848122154315af71fe140f3db0fe014031783b0946b8c9d2e381565b5f6001600160e01b03198216637965db0b60e01b148061073d57506301ffc9a760e01b6001600160e01b03198316145b92915050565b60605f5f8051602061260d8339815191525b905080600301805461076690612455565b80601f016020809104026020016040519081016040528092919081815260200182805461079290612455565b80156107dd5780601f106107b4576101008083540402835291602001916107dd565b820191905f5260205f20905b8154815290600101906020018083116107c057829003601f168201915b505050505091505090565b5f336107f58185856111d3565b5060019392505050565b5f6108086111e0565b805490915060ff600160401b820416159067ffffffffffffffff165f8115801561082f5750825b90505f8267ffffffffffffffff16600114801561084b5750303b155b905081158015610859575080155b156108775760405163f92ee8a960e01b815260040160405180910390fd5b845467ffffffffffffffff1916600117855583156108a157845460ff60401b1916600160401b1785555b6001600160a01b0388166108c85760405163e6c4247b60e01b815260040160405180910390fd5b6001600160a01b0387166108ef5760405163e6c4247b60e01b815260040160405180910390fd5b6108f7611208565b610939604051806040016040528060058152602001645261796c7360d81b81525060405180604001604052806003815260200162524c5360e81b815250611212565b610941611208565b610949611208565b610951611208565b610977604051806040016040528060058152602001645261796c7360d81b815250611224565b6109815f8961124f565b506109995f8051602061266d8339815191528961124f565b506109c47f189ab7a9244df0848122154315af71fe140f3db0fe014031783b0946b8c9d2e38961124f565b506109dc5f8051602061268d8339815191528961124f565b506109f45f805160206125ed8339815191528961124f565b508515610a32576b204fce5e3e25026110000000861115610a2857604051638a164f6360e01b815260040160405180910390fd5b610a3287876112f0565b8315610a7857845460ff60401b19168555604051600181527fc7f505b2f371ae2175ee4913f4499e1f2633a7b5936321eed1cdaeb6115181d29060200160405180910390a15b5050505050505050565b5f33610a8f858285611324565b610a9a858585611382565b60019150505b9392505050565b5f9081525f805160206126ad833981519152602052604090206001015490565b610ad082610aa7565b610ad9816113df565b610ae3838361124f565b50505050565b5f610af26113e9565b905090565b6001600160a01b0381163314610b205760405163334bd91960e11b815260040160405180910390fd5b610b2a82826113f2565b505050565b5f8051602061266d833981519152610b46816113df565b610b4e61146b565b50565b5f8051602061268d833981519152610b68816113df565b6001600160a01b038316610b8f5760405163e6c4247b60e01b815260040160405180910390fd5b815f03610baf57604051631f2a200560e01b815260040160405180910390fd5b6b204fce5e3e2502611000000082610be57f52c63247e1f47db19d5ce0460030c497f067ca4cebf71ba98eeadabe20bace025490565b610bef919061248d565b1115610c0e57604051638a164f6360e01b815260040160405180910390fd5b610c1883836112f0565b826001600160a01b03167f3f2c9d57c068687834f0de942a9babb9e5acab57d516d3480a3c16ee165a427383604051610c5391815260200190565b60405180910390a2505050565b805f03610c8057604051631f2a200560e01b815260040160405180910390fd5b610b4e816114ca565b610c916114d4565b610c9a82611578565b610ca482826115a2565b5050565b5f610cb161165e565b505f8051602061264d83398151915290565b60025f610cce6111e0565b8054909150600160401b900460ff1680610cf65750805467ffffffffffffffff808416911610155b15610d145760405163f92ee8a960e01b815260040160405180910390fd5b805468ffffffffffffffffff191667ffffffffffffffff831617600160401b1781555f610d40816113df565b50805460ff60401b1916815560405167ffffffffffffffff831681527fc7f505b2f371ae2175ee4913f4499e1f2633a7b5936321eed1cdaeb6115181d29060200160405180910390a15050565b5f805f8051602061260d8339815191525b6001600160a01b039093165f9081526020939093525050604090205490565b805f03610ddd57604051631f2a200560e01b815260040160405180910390fd5b610df45f8051602061268d83398151915233610f4e565b80610e115750610e115f805160206125ed83398151915233610f4e565b15610e2057610ca482826116a7565b610ca482826116db565b5f8051602061266d833981519152610e41816113df565b5f805460ff191660011781556040517fa792dfa3fb24493cee8b0e7ac02691be17dc3a12379ad382ad5d670c973616739190a150565b5f61073d826116f0565b5f8051602061266d833981519152610e98816113df565b610b4e6116fa565b5f60608082808083815f8051602061262d8339815191528054909150158015610ecb57506001810154155b610f145760405162461bcd60e51b81526020600482015260156024820152741152540dcc4c8e88155b9a5b9a5d1a585b1a5e9959605a1b60448201526064015b60405180910390fd5b610f1c611742565b610f24611780565b604080515f80825260208201909252600f60f81b9c939b5091995046985030975095509350915050565b5f9182525f805160206126ad833981519152602090815260408084206001600160a01b0393909316845291905290205460ff1690565b7f52c63247e1f47db19d5ce0460030c497f067ca4cebf71ba98eeadabe20bace0480546060915f8051602061260d8339815191529161076690612455565b5f8051602061266d833981519152610fd9816113df565b5f805460ff191681556040517f8c9a6f4b5a3a5753cc4d30f9ee061684c79bc450c355fc09e79317cfa2195f319190a150565b5f336107f5818585611382565b8342111561103d5760405163313c898160e11b815260048101859052602401610f0b565b5f7f6e71edae12b1b97f4d1f60370fef10105fa2faae0126114a169c64845d6126c98888886110a78c6001600160a01b03165f9081527f5ab42ced628888259c08ac98db1eb0cf702fc1501344311d8b100cd1bfe4bb006020526040902080546001810190915590565b6040805160208101969096526001600160a01b0394851690860152929091166060840152608083015260a082015260c0810186905260e0016040516020818303038152906040528051906020012090505f61110182611796565b90505f611110828787876117c2565b9050896001600160a01b0316816001600160a01b031614611157576040516325c0072360e11b81526001600160a01b0380831660048301528b166024820152604401610f0b565b6111628a8a8a6111d3565b50505050505050505050565b61117782610aa7565b611180816113df565b610ae383836113f2565b6001600160a01b039182165f9081527f52c63247e1f47db19d5ce0460030c497f067ca4cebf71ba98eeadabe20bace016020908152604080832093909416825291909152205490565b610b2a83838360016117ee565b5f807ff0c57e16840df040f15088dc2f81fe391c3923bec73e23a9662efc9c229c6a0061073d565b6112106118d2565b565b61121a6118d2565b610ca482826118f7565b61122c6118d2565b610b4e81604051806040016040528060018152602001603160f81b815250611947565b5f5f805160206126ad8339815191526112688484610f4e565b6112e7575f848152602082815260408083206001600160a01b03871684529091529020805460ff1916600117905561129d3390565b6001600160a01b0316836001600160a01b0316857f2f8788117e7eff1d82e926ec794901d17c78024a50270940304540a733656f0d60405160405180910390a4600191505061073d565b5f91505061073d565b6001600160a01b0382166113195760405163ec442f0560e01b81525f6004820152602401610f0b565b610ca45f83836119a6565b5f61132f848461118a565b90505f19811015610ae3578181101561137457604051637dc7a0d960e11b81526001600160a01b03841660048201526024810182905260448101839052606401610f0b565b610ae384848484035f6117ee565b6001600160a01b0383166113ab57604051634b637e8f60e11b81525f6004820152602401610f0b565b6001600160a01b0382166113d45760405163ec442f0560e01b81525f6004820152602401610f0b565b610b2a8383836119a6565b610b4e8133611a98565b5f610af2611ad1565b5f5f805160206126ad83398151915261140b8484610f4e565b156112e7575f848152602082815260408083206001600160a01b0387168085529252808320805460ff1916905551339287917ff6391f5c32d9c69d2a47ea670b442974b53935d1edc7fd64eb21e047a839171b9190a4600191505061073d565b611473611b44565b5f805160206126cd833981519152805460ff191681557f5db9ee0a495bf2e6ff9c91a7834c1ba4fdd244a5e8aa4e537bd38aeae4b073aa335b6040516001600160a01b03909116815260200160405180910390a150565b610b4e33826116a7565b306001600160a01b037f000000000000000000000000000000000000000000000000000000000000000016148061155a57507f00000000000000000000000000000000000000000000000000000000000000006001600160a01b031661154e5f8051602061264d833981519152546001600160a01b031690565b6001600160a01b031614155b156112105760405163703e46dd60e11b815260040160405180910390fd5b7f189ab7a9244df0848122154315af71fe140f3db0fe014031783b0946b8c9d2e3610ca4816113df565b816001600160a01b03166352d1902d6040518163ffffffff1660e01b8152600401602060405180830381865afa9250505080156115fc575060408051601f3d908101601f191682019092526115f9918101906124ac565b60015b61162457604051634c9c8ce360e01b81526001600160a01b0383166004820152602401610f0b565b5f8051602061264d833981519152811461165457604051632a87526960e21b815260048101829052602401610f0b565b610b2a8383611b73565b306001600160a01b037f000000000000000000000000000000000000000000000000000000000000000016146112105760405163703e46dd60e11b815260040160405180910390fd5b6001600160a01b0382166116d057604051634b637e8f60e11b81525f6004820152602401610f0b565b610ca4825f836119a6565b6116e6823383611324565b610ca482826116a7565b5f61073d82611bc8565b611702611bf0565b5f805160206126cd833981519152805460ff191660011781557f62e78cea01bee320cd4e420270b5ea74000d11b0c9f74754ebdbfc544b05a258336114ac565b7fa16a46d94261c7517cc8ff89f61c0ce93598e3c849801011dee649a6a557d10280546060915f8051602061262d8339815191529161076690612455565b60605f5f8051602061262d833981519152610755565b5f61073d6117a26113e9565b8360405161190160f01b8152600281019290925260228201526042902090565b5f805f806117d288888888611c20565b9250925092506117e28282611ce8565b50909695505050505050565b5f8051602061260d8339815191526001600160a01b0385166118255760405163e602df0560e01b81525f6004820152602401610f0b565b6001600160a01b03841661184e57604051634a1406b160e11b81525f6004820152602401610f0b565b6001600160a01b038086165f908152600183016020908152604080832093881683529290522083905581156118cb57836001600160a01b0316856001600160a01b03167f8c5be1e5ebec7d5bd14f71427d1e84f3dd0314c0f7b2291e5b200ac8c7c3b925856040516118c291815260200190565b60405180910390a35b5050505050565b6118da611da0565b61121057604051631afcd79f60e31b815260040160405180910390fd5b6118ff6118d2565b5f8051602061260d8339815191527f52c63247e1f47db19d5ce0460030c497f067ca4cebf71ba98eeadabe20bace036119388482612507565b5060048101610ae38382612507565b61194f6118d2565b5f8051602061262d8339815191527fa16a46d94261c7517cc8ff89f61c0ce93598e3c849801011dee649a6a557d1026119888482612507565b50600381016119978382612507565b505f8082556001909101555050565b5f6001600160a01b0384161580156119d057506119d05f8051602061268d83398151915233610f4e565b90505f6001600160a01b038416158015611a1957506119fc5f8051602061268d83398151915233610f4e565b80611a195750611a195f805160206125ed83398151915233610f4e565b90505f8280611a255750815b90508015611a55575f5460ff1615611a5057604051631e64669560e11b815260040160405180910390fd5b611a85565b5f805160206126cd8339815191525460ff1615611a855760405163d93c066560e01b815260040160405180910390fd5b611a90868686611db9565b505050505050565b611aa28282610f4e565b610ca45760405163e2517d3f60e01b81526001600160a01b038216600482015260248101839052604401610f0b565b5f7f8b73c3c69bb8fe3d512ecc4cf759cc79239f7b179b0ffacaa9a75d522b39400f611afb611ef2565b611b03611f5a565b60408051602081019490945283019190915260608201524660808201523060a082015260c00160405160208183030381529060405280519060200120905090565b5f805160206126cd8339815191525460ff1661121057604051638dfc202b60e01b815260040160405180910390fd5b611b7c82611f9c565b6040516001600160a01b038316907fbc7cd75a20ee27fd9adebab32041f755214dbc6bffa90cc0225b39da2e5c2d3b905f90a2805115611bc057610b2a8282611fff565b610ca4612071565b5f807f5ab42ced628888259c08ac98db1eb0cf702fc1501344311d8b100cd1bfe4bb00610d9e565b5f805160206126cd8339815191525460ff16156112105760405163d93c066560e01b815260040160405180910390fd5b5f80807f7fffffffffffffffffffffffffffffff5d576e7357a4501ddfe92f46681b20a0841115611c5957505f91506003905082611cde565b604080515f808252602082018084528a905260ff891692820192909252606081018790526080810186905260019060a0016020604051602081039080840390855afa158015611caa573d5f803e3d5ffd5b5050604051601f1901519150506001600160a01b038116611cd557505f925060019150829050611cde565b92505f91508190505b9450945094915050565b5f826003811115611cfb57611cfb6125c2565b03611d04575050565b6001826003811115611d1857611d186125c2565b03611d365760405163f645eedf60e01b815260040160405180910390fd5b6002826003811115611d4a57611d4a6125c2565b03611d6b5760405163fce698f760e01b815260048101829052602401610f0b565b6003826003811115611d7f57611d7f6125c2565b03610ca4576040516335e2f38360e21b815260048101829052602401610f0b565b5f611da96111e0565b54600160401b900460ff16919050565b5f8051602061260d8339815191526001600160a01b038416611df35781816002015f828254611de8919061248d565b90915550611e639050565b6001600160a01b0384165f9081526020829052604090205482811015611e455760405163391434e360e21b81526001600160a01b03861660048201526024810182905260448101849052606401610f0b565b6001600160a01b0385165f9081526020839052604090209083900390555b6001600160a01b038316611e81576002810180548390039055611e9f565b6001600160a01b0383165f9081526020829052604090208054830190555b826001600160a01b0316846001600160a01b03167fddf252ad1be2c89b69c2b068fc378daa952ba7f163c4a11628f55a4df523b3ef84604051611ee491815260200190565b60405180910390a350505050565b5f5f8051602061262d83398151915281611f0a611742565b805190915015611f2257805160209091012092915050565b81548015611f31579392505050565b7fc5d2460186f7233c927e7db2dcc703c0e500b653ca82273b7bfad8045d85a470935050505090565b5f5f8051602061262d83398151915281611f72611780565b805190915015611f8a57805160209091012092915050565b60018201548015611f31579392505050565b806001600160a01b03163b5f03611fd157604051634c9c8ce360e01b81526001600160a01b0382166004820152602401610f0b565b5f8051602061264d83398151915280546001600160a01b0319166001600160a01b0392909216919091179055565b60605f80846001600160a01b03168460405161201b91906125d6565b5f60405180830381855af49150503d805f8114612053576040519150601f19603f3d011682016040523d82523d5f602084013e612058565b606091505b5091509150612068858383612090565b95945050505050565b34156112105760405163b398979f60e01b815260040160405180910390fd5b6060826120a5576120a0826120ec565b610aa0565b81511580156120bc57506001600160a01b0384163b155b156120e557604051639996b31560e01b81526001600160a01b0385166004820152602401610f0b565b5080610aa0565b8051156120fb57805160208201fd5b60405163d6bda27560e01b815260040160405180910390fd5b5f60208284031215612124575f80fd5b81356001600160e01b031981168114610aa0575f80fd5b5f81518084528060208401602086015e5f602082860101526020601f19601f83011685010191505092915050565b602081525f610aa0602083018461213b565b80356001600160a01b0381168114612191575f80fd5b919050565b5f80604083850312156121a7575f80fd5b6121b08361217b565b946020939093013593505050565b5f805f606084860312156121d0575f80fd5b6121d98461217b565b92506121e76020850161217b565b929592945050506040919091013590565b5f60208284031215612208575f80fd5b5035919050565b5f8060408385031215612220575f80fd5b823591506122306020840161217b565b90509250929050565b634e487b7160e01b5f52604160045260245ffd5b5f806040838503121561225e575f80fd5b6122678361217b565b9150602083013567ffffffffffffffff811115612282575f80fd5b8301601f81018513612292575f80fd5b803567ffffffffffffffff8111156122ac576122ac612239565b604051601f8201601f19908116603f0116810167ffffffffffffffff811182821017156122db576122db612239565b6040528181528282016020018710156122f2575f80fd5b816020840160208301375f602083830101528093505050509250929050565b5f60208284031215612321575f80fd5b610aa08261217b565b60ff60f81b8816815260e060208201525f61234860e083018961213b565b828103604084015261235a818961213b565b606084018890526001600160a01b038716608085015260a0840186905283810360c0850152845180825260208087019350909101905f5b818110156123af578351835260209384019390920191600101612391565b50909b9a5050505050505050505050565b5f805f805f805f60e0888a0312156123d6575f80fd5b6123df8861217b565b96506123ed6020890161217b565b95506040880135945060608801359350608088013560ff81168114612410575f80fd5b9699959850939692959460a0840135945060c09093013592915050565b5f806040838503121561243e575f80fd5b6124478361217b565b91506122306020840161217b565b600181811c9082168061246957607f821691505b60208210810361248757634e487b7160e01b5f52602260045260245ffd5b50919050565b8082018082111561073d57634e487b7160e01b5f52601160045260245ffd5b5f602082840312156124bc575f80fd5b5051919050565b601f821115610b2a57805f5260205f20601f840160051c810160208510156124e85750805b601f840160051c820191505b818110156118cb575f81556001016124f4565b815167ffffffffffffffff81111561252157612521612239565b6125358161252f8454612455565b846124c3565b6020601f821160018114612567575f83156125505750848201515b5f19600385901b1c1916600184901b1784556118cb565b5f84815260208120601f198516915b828110156125965787850151825560209485019460019092019101612576565b50848210156125b357868401515f19600387901b60f8161c191681555b50505050600190811b01905550565b634e487b7160e01b5f52602160045260245ffd5b5f82518060208501845e5f92019182525091905056fe3c11d16cbaffd01df69ce1c404f6340ee057498f5f00246190ea54220576a84852c63247e1f47db19d5ce0460030c497f067ca4cebf71ba98eeadabe20bace00a16a46d94261c7517cc8ff89f61c0ce93598e3c849801011dee649a6a557d100360894a13ba1a3210667c828492db98dca3e2076cc3735a920a3ca505d382bbc65d7a28e3265b37a6474929f336521b332c1681b933f6cb9f3376673440d862a9f2df0fed2c77648de5860a4cc508cd0818c85b8b8a1ab4ceeef8d981c8956a602dd7bc7dec4dceedda775e58dd541e08a116c6c53815c0bd028192f7b626800cd5ed15c6e187e77e9aee88184c21f4f2182ab5827cb3b7e07fbedcd63f03300a164736f6c634300081a000a",
    "linkReferences": {}
  },
  "methodIdentifiers": {
    "BURNER_ROLE()": "282c51f3",
    "DEFAULT_ADMIN_ROLE()": "a217fddf",
    "DOMAIN_SEPARATOR()": "3644e515",
    "MAX_SUPPLY()": "32cb6b0c",
    "MINTER_ROLE()": "d5391393",
    "PAUSER_ROLE()": "e63ab1e9",
    "UPGRADER_ROLE()": "f72c0d8b",
    "UPGRADE_INTERFACE_VERSION()": "ad3cb1cc",
    "allowance(address,address)": "dd62ed3e",
    "approve(address,uint256)": "095ea7b3",
    "balanceOf(address)": "70a08231",
    "bridgePaused()": "6ccf20d5",
    "burn(uint256)": "42966c68",
    "burnFrom(address,uint256)": "79cc6790",
    "decimals()": "313ce567",
    "eip712Domain()": "84b0196e",
    "getRoleAdmin(bytes32)": "248a9ca3",
    "grantRole(bytes32,address)": "2f2ff15d",
    "hasRole(bytes32,address)": "91d14854",
    "initialize(address,address,uint256)": "1794bb3c",
    "initializeV2()": "5cd8a76b",
    "mint(address,uint256)": "40c10f19",
    "name()": "06fdde03",
    "nonces(address)": "7ecebe00",
    "pause()": "8456cb59",
    "pauseBridge()": "7dd0480f",
    "paused()": "5c975abb",
    "permit(address,address,uint256,uint256,uint8,bytes32,bytes32)": "d505accf",
    "proxiableUUID()": "52d1902d",
    "renounceRole(bytes32,address)": "36568abe",
    "revokeRole(bytes32,address)": "d547741f",
    "supportsInterface(bytes4)": "01ffc9a7",
    "symbol()": "95d89b41",
    "totalSupply()": "18160ddd",
    "transfer(address,uint256)": "a9059cbb",
    "transferFrom(address,address,uint256)": "23b872dd",
    "unpause()": "3f4ba83a",
    "unpauseBridge()": "a82f143c",
    "upgradeToAndCall(address,bytes)": "4f1ef286",
    "version()": "54fd4d50"
  },
  "id": 124
}