{
  "abi": [
    {
      "type": "constructor",
      "inputs": [],
      "stateMutability": "nonpayable"
    },
    {
      "type": "function",
      "name": "DEFAULT_ADMIN_ROLE",
      "inputs": [],
      "outputs": [
        {
          "name": "",
          "type": "bytes32",
          "internalType": "bytes32"
        }
      ],
      "stateMutability": "view"
    },
    {
      "type": "function",
      "name": "UPGRADER_ROLE",
      "inputs": [],
      "outputs": [
        {
          "name": "",
          "type": "bytes32",
          "internalType": "bytes32"
        }
      ],
      "stateMutability": "view"
    },
    {
      "type": "function",
      "name": "UPGRADE_INTERFACE_VERSION",
      "inputs": [],
      "outputs": [
        {
          "name": "",
          "type": "string",
          "internalType": "string"
        }
      ],
      "stateMutability": "view"
    },
    {
      "type": "function",
      "name": "balance",
      "inputs": [],
      "outputs": [
        {
          "name": "",
          "type": "uint256",
          "internalType": "uint256"
        }
      ],
      "stateMutability": "view"
    },
    {
      "type": "function",
      "name": "deposit",
      "inputs": [
        {
          "name": "amount",
          "type": "uint256",
          "internalType": "uint256"
        }
      ],
      "outputs": [],
      "stateMutability": "nonpayable"
    },
    {
      "type": "function",
      "name": "getRoleAdmin",
      "inputs": [
        {
          "name": "role",
          "type": "bytes32",
          "internalType": "bytes32"
        }
      ],
      "outputs": [
        {
          "name": "",
          "type": "bytes32",
          "internalType": "bytes32"
        }
      ],
      "stateMutability": "view"
    },
    {
      "type": "function",
      "name": "grantRole",
      "inputs": [
        {
          "name": "role",
          "type": "bytes32",
          "internalType": "bytes32"
        },
        {
          "name": "account",
          "type": "address",
          "internalType": "address"
        }
      ],
      "outputs": [],
      "stateMutability": "nonpayable"
    },
    {
      "type": "function",
      "name": "hasRole",
      "inputs": [
        {
          "name": "role",
          "type": "bytes32",
          "internalType": "bytes32"
        },
        {
          "name": "account",
          "type": "address",
          "internalType": "address"
        }
      ],
      "outputs": [
        {
          "name": "",
          "type": "bool",
          "internalType": "bool"
        }
      ],
      "stateMutability": "view"
    },
    {
      "type": "function",
      "name": "initialize",
      "inputs": [
        {
          "name": "rls_",
          "type": "address",
          "internalType": "address"
        },
        {
          "name": "rewardDistributor_",
          "type": "address",
          "internalType": "address"
        },
        {
          "name": "admin_",
          "type": "address",
          "internalType": "address"
        }
      ],
      "outputs": [],
      "stateMutability": "nonpayable"
    },
    {
      "type": "function",
      "name": "proxiableUUID",
      "inputs": [],
      "outputs": [
        {
          "name": "",
          "type": "bytes32",
          "internalType": "bytes32"
        }
      ],
      "stateMutability": "view"
    },
    {
      "type": "function",
      "name": "recoverTokens",
      "inputs": [
        {
          "name": "token",
          "type": "address",
          "internalType": "address"
        },
        {
          "name": "to",
          "type": "address",
          "internalType": "address"
        },
        {
          "name": "amount",
          "type": "uint256",
          "internalType": "uint256"
        }
      ],
      "outputs": [],
      "stateMutability": "nonpayable"
    },
    {
      "type": "function",
      "name": "refreshApproval",
      "inputs": [],
      "outputs": [],
      "stateMutability": "nonpayable"
    },
    {
      "type": "function",
      "name": "renounceRole",
      "inputs": [
        {
          "name": "role",
          "type": "bytes32",
          "internalType": "bytes32"
        },
        {
          "name": "callerConfirmation",
          "type": "address",
          "internalType": "address"
        }
      ],
      "outputs": [],
      "stateMutability": "nonpayable"
    },
    {
      "type": "function",
      "name": "revokeApproval",
      "inputs": [],
      "outputs": [],
      "stateMutability": "nonpayable"
    },
    {
      "type": "function",
      "name": "revokeRole",
      "inputs": [
        {
          "name": "role",
          "type": "bytes32",
          "internalType": "bytes32"
        },
        {
          "name": "account",
          "type": "address",
          "internalType": "address"
        }
      ],
      "outputs": [],
      "stateMutability": "nonpayable"
    },
    {
      "type": "function",
      "name": "rewardDistributor",
      "inputs": [],
      "outputs": [
        {
          "name": "",
          "type": "address",
          "internalType": "address"
        }
      ],
      "stateMutability": "view"
    },
    {
      "type": "function",
      "name": "rlsToken",
      "inputs": [],
      "outputs": [
        {
          "name": "",
          "type": "address",
          "internalType": "address"
        }
      ],
      "stateMutability": "view"
    },
    {
      "type": "function",
      "name": "setRewardDistributor",
      "inputs": [
        {
          "name": "newDistributor",
          "type": "address",
          "internalType": "address"
        }
      ],
      "outputs": [],
      "stateMutability": "nonpayable"
    },
    {
      "type": "function",
      "name": "setRlsToken",
      "inputs": [
        {
          "name": "newRls",
          "type": "address",
          "internalType": "address"
        }
      ],
      "outputs": [],
      "stateMutability": "nonpayable"
    },
    {
      "type": "function",
      "name": "supportsInterface",
      "inputs": [
        {
          "name": "interfaceId",
          "type": "bytes4",
          "internalType": "bytes4"
        }
      ],
      "outputs": [
        {
          "name": "",
          "type": "bool",
          "internalType": "bool"
        }
      ],
      "stateMutability": "view"
    },
    {
      "type": "function",
      "name": "upgradeToAndCall",
      "inputs": [
        {
          "name": "newImplementation",
          "type": "address",
          "internalType": "address"
        },
        {
          "name": "data",
          "type": "bytes",
          "internalType": "bytes"
        }
      ],
      "outputs": [],
      "stateMutability": "payable"
    },
    {
      "type": "event",
      "name": "ApprovalRefreshed",
      "inputs": [
        {
          "name": "rewardDistributor",
          "type": "address",
          "indexed": true,
          "internalType": "address"
        },
        {
          "name": "amount",
          "type": "uint256",
          "indexed": false,
          "internalType": "uint256"
        }
      ],
      "anonymous": false
    },
    {
      "type": "event",
      "name": "Deposited",
      "inputs": [
        {
          "name": "from",
          "type": "address",
          "indexed": true,
          "internalType": "address"
        },
        {
          "name": "amount",
          "type": "uint256",
          "indexed": false,
          "internalType": "uint256"
        }
      ],
      "anonymous": false
    },
    {
      "type": "event",
      "name": "Initialized",
      "inputs": [
        {
          "name": "version",
          "type": "uint64",
          "indexed": false,
          "internalType": "uint64"
        }
      ],
      "anonymous": false
    },
    {
      "type": "event",
      "name": "RewardDistributorUpdated",
      "inputs": [
        {
          "name": "oldDistributor",
          "type": "address",
          "indexed": true,
          "internalType": "address"
        },
        {
          "name": "newDistributor",
          "type": "address",
          "indexed": true,
          "internalType": "address"
        }
      ],
      "anonymous": false
    },
    {
      "type": "event",
      "name": "RlsTokenUpdated",
      "inputs": [
        {
          "name": "oldToken",
          "type": "address",
          "indexed": true,
          "internalType": "address"
        },
        {
          "name": "newToken",
          "type": "address",
          "indexed": true,
          "internalType": "address"
        }
      ],
      "anonymous": false
    },
    {
      "type": "event",
      "name": "RoleAdminChanged",
      "inputs": [
        {
          "name": "role",
          "type": "bytes32",
          "indexed": true,
          "internalType": "bytes32"
        },
        {
          "name": "previousAdminRole",
          "type": "bytes32",
          "indexed": true,
          "internalType": "bytes32"
        },
        {
          "name": "newAdminRole",
          "type": "bytes32",
          "indexed": true,
          "internalType": "bytes32"
        }
      ],
      "anonymous": false
    },
    {
      "type": "event",
      "name": "RoleGranted",
      "inputs": [
        {
          "name": "role",
          "type": "bytes32",
          "indexed": true,
          "internalType": "bytes32"
        },
        {
          "name": "account",
          "type": "address",
          "indexed": true,
          "internalType": "address"
        },
        {
          "name": "sender",
          "type": "address",
          "indexed": true,
          "internalType": "address"
        }
      ],
      "anonymous": false
    },
    {
      "type": "event",
      "name": "RoleRevoked",
      "inputs": [
        {
          "name": "role",
          "type": "bytes32",
          "indexed": true,
          "internalType": "bytes32"
        },
        {
          "name": "account",
          "type": "address",
          "indexed": true,
          "internalType": "address"
        },
        {
          "name": "sender",
          "type": "address",
          "indexed": true,
          "internalType": "address"
        }
      ],
      "anonymous": false
    },
    {
      "type": "event",
      "name": "Upgraded",
      "inputs": [
        {
          "name": "implementation",
          "type": "address",
          "indexed": true,
          "internalType": "address"
        }
      ],
      "anonymous": false
    },
    {
      "type": "error",
      "name": "AccessControlBadConfirmation",
      "inputs": []
    },
    {
      "type": "error",
      "name": "AccessControlUnauthorizedAccount",
      "inputs": [
        {
          "name": "account",
          "type": "address",
          "internalType": "address"
        },
        {
          "name": "neededRole",
          "type": "bytes32",
          "internalType": "bytes32"
        }
      ]
    },
    {
      "type": "error",
      "name": "AddressEmptyCode",
      "inputs": [
        {
          "name": "target",
          "type": "address",
          "internalType": "address"
        }
      ]
    },
    {
      "type": "error",
      "name": "ERC1967InvalidImplementation",
      "inputs": [
        {
          "name": "implementation",
          "type": "address",
          "internalType": "address"
        }
      ]
    },
    {
      "type": "error",
      "name": "ERC1967NonPayable",
      "inputs": []
    },
    {
      "type": "error",
      "name": "FailedCall",
      "inputs": []
    },
    {
      "type": "error",
      "name": "InvalidInitialization",
      "inputs": []
    },
    {
      "type": "error",
      "name": "NotInitializing",
      "inputs": []
    },
    {
      "type": "error",
      "name": "SafeERC20FailedOperation",
      "inputs": [
        {
          "name": "token",
          "type": "address",
          "internalType": "address"
        }
      ]
    },
    {
      "type": "error",
      "name": "UUPSUnauthorizedCallContext",
      "inputs": []
    },
    {
      "type": "error",
      "name": "UUPSUnsupportedProxiableUUID",
      "inputs": [
        {
          "name": "slot",
          "type": "bytes32",
          "internalType": "bytes32"
        }
      ]
    },
    {
      "type": "error",
      "name": "ZeroAddress",
      "inputs": []
    },
    {
      "type": "error",
      "name": "ZeroAmount",
      "inputs": []
    }
  ],
  "bytecode": {
    "object": "0x60a060405230608052348015610013575f80fd5b5061001c610021565b6100d3565b7ff0c57e16840df040f15088dc2f81fe391c3923bec73e23a9662efc9c229c6a00805468010000000000000000900460ff16156100715760405163f92ee8a960e01b815260040160405180910390fd5b80546001600160401b03908116146100d05780546001600160401b0319166001600160401b0390811782556040519081527fc7f505b2f371ae2175ee4913f4499e1f2633a7b5936321eed1cdaeb6115181d29060200160405180910390a15b50565b6080516115736100f95f395f8181610c7601528181610c9f0152610df101526115735ff3fe608060405260043610610126575f3560e01c806391d14854116100a8578063b69ef8a81161006d578063b69ef8a814610327578063b6b55f251461033b578063bf33a1f51461035a578063c0c53b8b1461036e578063d547741f1461038d578063f72c0d8b146103ac575f80fd5b806391d1485414610270578063a1809b951461028f578063a217fddf146102ae578063acc2166a146102c1578063ad3cb1cc146102ea575f80fd5b806352d1902d116100ee57806352d1902d146101de5780635f3e849f146101f257806365248e99146102115780638188a2641461023057806390d02b3c1461025c575f80fd5b806301ffc9a71461012a578063248a9ca31461015e5780632f2ff15d1461018b57806336568abe146101ac5780634f1ef286146101cb575b5f80fd5b348015610135575f80fd5b50610149610144366004611296565b6103df565b60405190151581526020015b60405180910390f35b348015610169575f80fd5b5061017d6101783660046112bd565b610415565b604051908152602001610155565b348015610196575f80fd5b506101aa6101a53660046112ef565b610435565b005b3480156101b7575f80fd5b506101aa6101c63660046112ef565b610457565b6101aa6101d936600461132d565b61048f565b3480156101e9575f80fd5b5061017d6104ae565b3480156101fd575f80fd5b506101aa61020c3660046113f1565b6104c9565b34801561021c575f80fd5b506101aa61022b36600461142b565b61050e565b34801561023b575f80fd5b506102446105eb565b6040516001600160a01b039091168152602001610155565b348015610267575f80fd5b506101aa61060a565b34801561027b575f80fd5b5061014961028a3660046112ef565b610695565b34801561029a575f80fd5b506101aa6102a936600461142b565b6106cb565b3480156102b9575f80fd5b5061017d5f81565b3480156102cc575f80fd5b505f80516020611547833981519152546001600160a01b0316610244565b3480156102f5575f80fd5b5061031a604051806040016040528060058152602001640352e302e360dc1b81525081565b6040516101559190611444565b348015610332575f80fd5b5061017d6107ac565b348015610346575f80fd5b506101aa6103553660046112bd565b61082c565b348015610365575f80fd5b506101aa6108a3565b348015610379575f80fd5b506101aa610388366004611479565b610928565b348015610398575f80fd5b506101aa6103a73660046112ef565b610b28565b3480156103b7575f80fd5b5061017d7f189ab7a9244df0848122154315af71fe140f3db0fe014031783b0946b8c9d2e381565b5f6001600160e01b03198216637965db0b60e01b148061040f57506301ffc9a760e01b6001600160e01b03198316145b92915050565b5f9081525f80516020611527833981519152602052604090206001015490565b61043e82610415565b61044781610b44565b6104518383610b51565b50505050565b6001600160a01b03811633146104805760405163334bd91960e11b815260040160405180910390fd5b61048a8282610bf2565b505050565b610497610c6b565b6104a082610cfb565b6104aa8282610d25565b5050565b5f6104b7610de6565b505f805160206114e783398151915290565b5f6104d381610b44565b6001600160a01b0383166104fa5760405163d92e233d60e01b815260040160405180910390fd5b6104516001600160a01b0385168484610e2f565b5f61051881610b44565b6001600160a01b03821661053f5760405163d92e233d60e01b815260040160405180910390fd5b5f8051602061150783398151915280545f80516020611547833981519152546001600160a01b0391821691610577918391165f610e8e565b81546001600160a01b0319166001600160a01b03858116918217845560018401546105a59291165f19610e8e565b836001600160a01b0316816001600160a01b03167f0a95ed0dece02166834855dfceb25980daacc501cb2b18237a4e75868fdde40460405160405180910390a350505050565b5f5f805160206115078339815191525b546001600160a01b0316919050565b5f61061481610b44565b5f80516020611547833981519152545f805160206115078339815191528054909161064c916001600160a01b0390811691165f610e8e565b60018101546040515f81526001600160a01b03909116907fc75455aa6cd514f911a42d98f06d9111b2ea463dbc67a885c26cb9ab162cbd58906020015b60405180910390a25050565b5f9182525f80516020611527833981519152602090815260408084206001600160a01b0393909316845291905290205460ff1690565b5f6106d581610b44565b6001600160a01b0382166106fc5760405163d92e233d60e01b815260040160405180910390fd5b5f80516020611547833981519152545f80516020611507833981519152805490916001600160a01b03908116916107359116825f610e8e565b6001820180546001600160a01b0319166001600160a01b038681169190911790915582546107669116855f19610e8e565b836001600160a01b0316816001600160a01b03167f1df95772db25c427e0df149fe4cd5b7c2e970e096ee7305ff86f6e1167281d7b60405160405180910390a350505050565b5f805f8051602061150783398151915280546040516370a0823160e01b81523060048201529192506001600160a01b0316906370a0823190602401602060405180830381865afa158015610802573d5f803e3d5ffd5b505050506040513d601f19601f8201168201806040525081019061082691906114b9565b91505090565b805f0361084c57604051631f2a200560e01b815260040160405180910390fd5b5f805160206115078339815191528054610871906001600160a01b0316333085610f1d565b60405182815233907f2da466a7b24304f47e87fa2e1e5a81b9831ce54fec19055ce277ca2f39ba42c490602001610689565b5f6108ad81610b44565b5f80516020611547833981519152545f80516020611507833981519152805490916108e6916001600160a01b0390811691165f19610e8e565b60018101546040515f1981526001600160a01b03909116907fc75455aa6cd514f911a42d98f06d9111b2ea463dbc67a885c26cb9ab162cbd5890602001610689565b5f610931610f56565b805490915060ff600160401b820416159067ffffffffffffffff165f811580156109585750825b90505f8267ffffffffffffffff1660011480156109745750303b155b905081158015610982575080155b156109a05760405163f92ee8a960e01b815260040160405180910390fd5b845467ffffffffffffffff1916600117855583156109ca57845460ff60401b1916600160401b1785555b6001600160a01b0388166109f15760405163d92e233d60e01b815260040160405180910390fd5b6001600160a01b038716610a185760405163d92e233d60e01b815260040160405180910390fd5b6001600160a01b038616610a3f5760405163d92e233d60e01b815260040160405180910390fd5b610a47610f7e565b610a4f610f7e565b610a595f87610b51565b50610a847f189ab7a9244df0848122154315af71fe140f3db0fe014031783b0946b8c9d2e387610b51565b505f8051602061150783398151915280546001600160a01b03199081166001600160a01b038b811691821784555f805160206115478339815191528054909316908b1617909155610ad790895f19610e8e565b508315610b1e57845460ff60401b19168555604051600181527fc7f505b2f371ae2175ee4913f4499e1f2633a7b5936321eed1cdaeb6115181d29060200160405180910390a15b5050505050505050565b610b3182610415565b610b3a81610b44565b6104518383610bf2565b610b4e8133610f86565b50565b5f5f80516020611527833981519152610b6a8484610695565b610be9575f848152602082815260408083206001600160a01b03871684529091529020805460ff19166001179055610b9f3390565b6001600160a01b0316836001600160a01b0316857f2f8788117e7eff1d82e926ec794901d17c78024a50270940304540a733656f0d60405160405180910390a4600191505061040f565b5f91505061040f565b5f5f80516020611527833981519152610c0b8484610695565b15610be9575f848152602082815260408083206001600160a01b0387168085529252808320805460ff1916905551339287917ff6391f5c32d9c69d2a47ea670b442974b53935d1edc7fd64eb21e047a839171b9190a4600191505061040f565b306001600160a01b037f0000000000000000000000000000000000000000000000000000000000000000161480610cdb57507f00000000000000000000000000000000000000000000000000000000000000006001600160a01b0316610ccf610fbf565b6001600160a01b031614155b15610cf95760405163703e46dd60e11b815260040160405180910390fd5b565b7f189ab7a9244df0848122154315af71fe140f3db0fe014031783b0946b8c9d2e36104aa81610b44565b816001600160a01b03166352d1902d6040518163ffffffff1660e01b8152600401602060405180830381865afa925050508015610d7f575060408051601f3d908101601f19168201909252610d7c918101906114b9565b60015b610dac57604051634c9c8ce360e01b81526001600160a01b03831660048201526024015b60405180910390fd5b5f805160206114e78339815191528114610ddc57604051632a87526960e21b815260048101829052602401610da3565b61048a8383610fd3565b306001600160a01b037f00000000000000000000000000000000000000000000000000000000000000001614610cf95760405163703e46dd60e11b815260040160405180910390fd5b6040516001600160a01b0383811660248301526044820183905261048a91859182169063a9059cbb906064015b604051602081830303815290604052915060e01b6020820180516001600160e01b038381831617835250505050611028565b604080516001600160a01b038416602482015260448082018490528251808303909101815260649091019091526020810180516001600160e01b031663095ea7b360e01b179052610edf8482611094565b610451576040516001600160a01b0384811660248301525f6044830152610f1391869182169063095ea7b390606401610e5c565b6104518482611028565b6040516001600160a01b0384811660248301528381166044830152606482018390526104519186918216906323b872dd90608401610e5c565b5f807ff0c57e16840df040f15088dc2f81fe391c3923bec73e23a9662efc9c229c6a0061040f565b610cf96110dd565b610f908282610695565b6104aa5760405163e2517d3f60e01b81526001600160a01b038216600482015260248101839052604401610da3565b5f5f805160206114e78339815191526105fb565b610fdc82611102565b6040516001600160a01b038316907fbc7cd75a20ee27fd9adebab32041f755214dbc6bffa90cc0225b39da2e5c2d3b905f90a28051156110205761048a8282611165565b6104aa6111d7565b5f8060205f8451602086015f885af180611047576040513d5f823e3d81fd5b50505f513d9150811561105e57806001141561106b565b6001600160a01b0384163b155b1561045157604051635274afe760e01b81526001600160a01b0385166004820152602401610da3565b5f805f8060205f8651602088015f8a5af192503d91505f5190508280156110d3575081156110c557806001146110d3565b5f866001600160a01b03163b115b9695505050505050565b6110e56111f6565b610cf957604051631afcd79f60e31b815260040160405180910390fd5b806001600160a01b03163b5f0361113757604051634c9c8ce360e01b81526001600160a01b0382166004820152602401610da3565b5f805160206114e783398151915280546001600160a01b0319166001600160a01b0392909216919091179055565b60605f80846001600160a01b03168460405161118191906114d0565b5f60405180830381855af49150503d805f81146111b9576040519150601f19603f3d011682016040523d82523d5f602084013e6111be565b606091505b50915091506111ce85838361120f565b95945050505050565b3415610cf95760405163b398979f60e01b815260040160405180910390fd5b5f6111ff610f56565b54600160401b900460ff16919050565b6060826112245761121f8261126e565b611267565b815115801561123b57506001600160a01b0384163b155b1561126457604051639996b31560e01b81526001600160a01b0385166004820152602401610da3565b50805b9392505050565b80511561127d57805160208201fd5b60405163d6bda27560e01b815260040160405180910390fd5b5f602082840312156112a6575f80fd5b81356001600160e01b031981168114611267575f80fd5b5f602082840312156112cd575f80fd5b5035919050565b80356001600160a01b03811681146112ea575f80fd5b919050565b5f8060408385031215611300575f80fd5b82359150611310602084016112d4565b90509250929050565b634e487b7160e01b5f52604160045260245ffd5b5f806040838503121561133e575f80fd5b611347836112d4565b9150602083013567ffffffffffffffff811115611362575f80fd5b8301601f81018513611372575f80fd5b803567ffffffffffffffff81111561138c5761138c611319565b604051601f8201601f19908116603f0116810167ffffffffffffffff811182821017156113bb576113bb611319565b6040528181528282016020018710156113d2575f80fd5b816020840160208301375f602083830101528093505050509250929050565b5f805f60608486031215611403575f80fd5b61140c846112d4565b925061141a602085016112d4565b929592945050506040919091013590565b5f6020828403121561143b575f80fd5b611267826112d4565b602081525f82518060208401528060208501604085015e5f604082850101526040601f19601f83011684010191505092915050565b5f805f6060848603121561148b575f80fd5b611494846112d4565b92506114a2602085016112d4565b91506114b0604085016112d4565b90509250925092565b5f602082840312156114c9575f80fd5b5051919050565b5f82518060208501845e5f92019182525091905056fe360894a13ba1a3210667c828492db98dca3e2076cc3735a920a3ca505d382bbc1434b6d7a9cd896918fc9e177be6ce103a3f4b47c31c2a0c7a187bcc052a1c0002dd7bc7dec4dceedda775e58dd541e08a116c6c53815c0bd028192f7b6268001434b6d7a9cd896918fc9e177be6ce103a3f4b47c31c2a0c7a187bcc052a1c01a164736f6c634300081a000a",
    "linkReferences": {}
  },
  "methodIdentifiers": {
    "DEFAULT_ADMIN_ROLE()": "a217fddf",
    "UPGRADER_ROLE()": "f72c0d8b",
    "UPGRADE_INTERFACE_VERSION()": "ad3cb1cc",
    "balance()": "b69ef8a8",
    "deposit(uint256)": "b6b55f25",
    "getRoleAdmin(bytes32)": "248a9ca3",
    "grantRole(bytes32,address)": "2f2ff15d",
    "hasRole(bytes32,address)": "91d14854",
    "initialize(address,address,address)": "c0c53b8b",
    "proxiableUUID()": "52d1902d",
    "recoverTokens(address,address,uint256)": "5f3e849f",
    "refreshApproval()": "bf33a1f5",
    "renounceRole(bytes32,address)": "36568abe",
    "revokeApproval()": "90d02b3c",
    "revokeRole(bytes32,address)": "d547741f",
    "rewardDistributor()": "acc2166a",
    "rlsToken()": "8188a264",
    "setRewardDistributor(address)": "a1809b95",
    "setRlsToken(address)": "65248e99",
    "supportsInterface(bytes4)": "01ffc9a7",
    "upgradeToAndCall(address,bytes)": "4f1ef286"
  },
  "id": 113
}